{
	"data": {
		"bytecode": {
			"linkReferences": {},
			"object": "6080604052348015600e575f80fd5b5060f18061001b5f395ff3fe6080604052348015600e575f80fd5b50600436106030575f3560e01c80634fee737f146034578063dadf8fee14604e575b5f80fd5b603a6056565b6040516045919060a4565b60405180910390f35b60546076565b005b5f805f803b91505f8211606d576001925050506073565b5f925050505b90565b5f80808201604051600481526064815550505050565b5f8115159050919050565b609e81608c565b82525050565b5f60208201905060b55f8301846097565b9291505056fea2646970667358221220e83188670d4c27a47cea40ba0fefefca42b3a1131535b8e5270002969bbf0ba064736f6c634300081a0033",
			"opcodes": "PUSH1 0x80 PUSH1 0x40 MSTORE CALLVALUE DUP1 ISZERO PUSH1 0xE JUMPI PUSH0 DUP1 REVERT JUMPDEST POP PUSH1 0xF1 DUP1 PUSH2 0x1B PUSH0 CODECOPY PUSH0 RETURN INVALID PUSH1 0x80 PUSH1 0x40 MSTORE CALLVALUE DUP1 ISZERO PUSH1 0xE JUMPI PUSH0 DUP1 REVERT JUMPDEST POP PUSH1 0x4 CALLDATASIZE LT PUSH1 0x30 JUMPI PUSH0 CALLDATALOAD PUSH1 0xE0 SHR DUP1 PUSH4 0x4FEE737F EQ PUSH1 0x34 JUMPI DUP1 PUSH4 0xDADF8FEE EQ PUSH1 0x4E JUMPI JUMPDEST PUSH0 DUP1 REVERT JUMPDEST PUSH1 0x3A PUSH1 0x56 JUMP JUMPDEST PUSH1 0x40 MLOAD PUSH1 0x45 SWAP2 SWAP1 PUSH1 0xA4 JUMP JUMPDEST PUSH1 0x40 MLOAD DUP1 SWAP2 SUB SWAP1 RETURN JUMPDEST PUSH1 0x54 PUSH1 0x76 JUMP JUMPDEST STOP JUMPDEST PUSH0 DUP1 PUSH0 DUP1 EXTCODESIZE SWAP2 POP PUSH0 DUP3 GT PUSH1 0x6D JUMPI PUSH1 0x1 SWAP3 POP POP POP PUSH1 0x73 JUMP JUMPDEST PUSH0 SWAP3 POP POP POP JUMPDEST SWAP1 JUMP JUMPDEST PUSH0 DUP1 DUP1 DUP3 ADD PUSH1 0x40 MLOAD PUSH1 0x4 DUP2 MSTORE PUSH1 0x64 DUP2 SSTORE POP POP POP POP JUMP JUMPDEST PUSH0 DUP2 ISZERO ISZERO SWAP1 POP SWAP2 SWAP1 POP JUMP JUMPDEST PUSH1 0x9E DUP2 PUSH1 0x8C JUMP JUMPDEST DUP3 MSTORE POP POP JUMP JUMPDEST PUSH0 PUSH1 0x20 DUP3 ADD SWAP1 POP PUSH1 0xB5 PUSH0 DUP4 ADD DUP5 PUSH1 0x97 JUMP JUMPDEST SWAP3 SWAP2 POP POP JUMP INVALID LOG2 PUSH5 0x6970667358 0x22 SLT KECCAK256 0xE8 BALANCE DUP9 PUSH8 0xD4C27A47CEA40BA 0xF 0xEF 0xEF 0xCA TIMESTAMP 0xB3 LOG1 SGT ISZERO CALLDATALOAD 0xB8 0xE5 0x27 STOP MUL SWAP7 SWAP12 0xBF SIGNEXTEND LOG0 PUSH5 0x736F6C6343 STOP ADDMOD BYTE STOP CALLER "
		},
		"gasEstimates": {
			"creation": {
				"codeDepositCost": "48200",
				"executionCost": "97",
				"totalCost": "48297"
			},
			"external": {
				"addToEVM()": "22292",
				"addToEVM2()": "2966"
			}
		},
		"methodIdentifiers": {
			"addToEVM()": "dadf8fee",
			"addToEVM2()": "4fee737f"
		}
	},
	"abi": [
		{
			"inputs": [],
			"name": "addToEVM",
			"outputs": [],
			"stateMutability": "nonpayable",
			"type": "function"
		},
		{
			"inputs": [],
			"name": "addToEVM2",
			"outputs": [
				{
					"internalType": "bool",
					"name": "success",
					"type": "bool"
				}
			],
			"stateMutability": "view",
			"type": "function"
		}
	]
}