{
	"data": {
		"bytecode": {
			"linkReferences": {
				"contracts/3-advanced/9-advanced-libraries.sol": {
					"Search2": [
						{
							"length": 20,
							"start": 177
						}
					]
				}
			},
			"object": "6080604052348015600e575f80fd5b505f600190505b6004811015604e575f81908060018154018082558091505060019003905f5260205f20015f909190919091505580806001019150506015565b506101d38061005c5f395ff3fe608060405234801561000f575f80fd5b5060043610610029575f3560e01c80631d3214591461002d575b5f80fd5b61003561004b565b60405161004291906100ee565b60405180910390f35b5f80600490505f8073__$13cfc3436c8ffbf06e9261ef3163e85101$__6324fef5c89091846040518363ffffffff1660e01b815260040161008d92919061011d565b602060405180830381865af41580156100a8573d5f803e3d5ffd5b505050506040513d601f19601f820116820180604052508101906100cc9190610172565b9050809250505090565b5f819050919050565b6100e8816100d6565b82525050565b5f6020820190506101015f8301846100df565b92915050565b8082525050565b610117816100d6565b82525050565b5f6040820190506101305f830185610107565b61013d602083018461010e565b9392505050565b5f80fd5b610151816100d6565b811461015b575f80fd5b50565b5f8151905061016c81610148565b92915050565b5f6020828403121561018757610186610144565b5b5f6101948482850161015e565b9150509291505056fea26469706673582212205139fd276174569cfc6f8e17decfec68c530481ae90e8442b6c9ae99c1312f9e64736f6c634300081a0033",
			"opcodes": "PUSH1 0x80 PUSH1 0x40 MSTORE CALLVALUE DUP1 ISZERO PUSH1 0xE JUMPI PUSH0 DUP1 REVERT JUMPDEST POP PUSH0 PUSH1 0x1 SWAP1 POP JUMPDEST PUSH1 0x4 DUP2 LT ISZERO PUSH1 0x4E JUMPI PUSH0 DUP2 SWAP1 DUP1 PUSH1 0x1 DUP2 SLOAD ADD DUP1 DUP3 SSTORE DUP1 SWAP2 POP POP PUSH1 0x1 SWAP1 SUB SWAP1 PUSH0 MSTORE PUSH1 0x20 PUSH0 KECCAK256 ADD PUSH0 SWAP1 SWAP2 SWAP1 SWAP2 SWAP1 SWAP2 POP SSTORE DUP1 DUP1 PUSH1 0x1 ADD SWAP2 POP POP PUSH1 0x15 JUMP JUMPDEST POP PUSH2 0x1D3 DUP1 PUSH2 0x5C PUSH0 CODECOPY PUSH0 RETURN INVALID PUSH1 0x80 PUSH1 0x40 MSTORE CALLVALUE DUP1 ISZERO PUSH2 0xF JUMPI PUSH0 DUP1 REVERT JUMPDEST POP PUSH1 0x4 CALLDATASIZE LT PUSH2 0x29 JUMPI PUSH0 CALLDATALOAD PUSH1 0xE0 SHR DUP1 PUSH4 0x1D321459 EQ PUSH2 0x2D JUMPI JUMPDEST PUSH0 DUP1 REVERT JUMPDEST PUSH2 0x35 PUSH2 0x4B JUMP JUMPDEST PUSH1 0x40 MLOAD PUSH2 0x42 SWAP2 SWAP1 PUSH2 0xEE JUMP JUMPDEST PUSH1 0x40 MLOAD DUP1 SWAP2 SUB SWAP1 RETURN JUMPDEST PUSH0 DUP1 PUSH1 0x4 SWAP1 POP PUSH0 DUP1 PUSH20 0x0 PUSH4 0x24FEF5C8 SWAP1 SWAP2 DUP5 PUSH1 0x40 MLOAD DUP4 PUSH4 0xFFFFFFFF AND PUSH1 0xE0 SHL DUP2 MSTORE PUSH1 0x4 ADD PUSH2 0x8D SWAP3 SWAP2 SWAP1 PUSH2 0x11D JUMP JUMPDEST PUSH1 0x20 PUSH1 0x40 MLOAD DUP1 DUP4 SUB DUP2 DUP7 GAS DELEGATECALL ISZERO DUP1 ISZERO PUSH2 0xA8 JUMPI RETURNDATASIZE PUSH0 DUP1 RETURNDATACOPY RETURNDATASIZE PUSH0 REVERT JUMPDEST POP POP POP POP PUSH1 0x40 MLOAD RETURNDATASIZE PUSH1 0x1F NOT PUSH1 0x1F DUP3 ADD AND DUP3 ADD DUP1 PUSH1 0x40 MSTORE POP DUP2 ADD SWAP1 PUSH2 0xCC SWAP2 SWAP1 PUSH2 0x172 JUMP JUMPDEST SWAP1 POP DUP1 SWAP3 POP POP POP SWAP1 JUMP JUMPDEST PUSH0 DUP2 SWAP1 POP SWAP2 SWAP1 POP JUMP JUMPDEST PUSH2 0xE8 DUP2 PUSH2 0xD6 JUMP JUMPDEST DUP3 MSTORE POP POP JUMP JUMPDEST PUSH0 PUSH1 0x20 DUP3 ADD SWAP1 POP PUSH2 0x101 PUSH0 DUP4 ADD DUP5 PUSH2 0xDF JUMP JUMPDEST SWAP3 SWAP2 POP POP JUMP JUMPDEST DUP1 DUP3 MSTORE POP POP JUMP JUMPDEST PUSH2 0x117 DUP2 PUSH2 0xD6 JUMP JUMPDEST DUP3 MSTORE POP POP JUMP JUMPDEST PUSH0 PUSH1 0x40 DUP3 ADD SWAP1 POP PUSH2 0x130 PUSH0 DUP4 ADD DUP6 PUSH2 0x107 JUMP JUMPDEST PUSH2 0x13D PUSH1 0x20 DUP4 ADD DUP5 PUSH2 0x10E JUMP JUMPDEST SWAP4 SWAP3 POP POP POP JUMP JUMPDEST PUSH0 DUP1 REVERT JUMPDEST PUSH2 0x151 DUP2 PUSH2 0xD6 JUMP JUMPDEST DUP2 EQ PUSH2 0x15B JUMPI PUSH0 DUP1 REVERT JUMPDEST POP JUMP JUMPDEST PUSH0 DUP2 MLOAD SWAP1 POP PUSH2 0x16C DUP2 PUSH2 0x148 JUMP JUMPDEST SWAP3 SWAP2 POP POP JUMP JUMPDEST PUSH0 PUSH1 0x20 DUP3 DUP5 SUB SLT ISZERO PUSH2 0x187 JUMPI PUSH2 0x186 PUSH2 0x144 JUMP JUMPDEST JUMPDEST PUSH0 PUSH2 0x194 DUP5 DUP3 DUP6 ADD PUSH2 0x15E JUMP JUMPDEST SWAP2 POP POP SWAP3 SWAP2 POP POP JUMP INVALID LOG2 PUSH5 0x6970667358 0x22 SLT KECCAK256 MLOAD CODECOPY REVERT 0x27 PUSH2 0x7456 SWAP13 0xFC PUSH16 0x8E17DECFEC68C530481AE90E8442B6C9 0xAE SWAP10 0xC1 BALANCE 0x2F SWAP15 PUSH5 0x736F6C6343 STOP ADDMOD BYTE STOP CALLER "
		},
		"gasEstimates": {
			"creation": {
				"codeDepositCost": "93400",
				"executionCost": "infinite",
				"totalCost": "infinite"
			},
			"external": {
				"isValuePresent()": "infinite"
			}
		},
		"methodIdentifiers": {
			"isValuePresent()": "1d321459"
		}
	},
	"abi": [
		{
			"inputs": [],
			"stateMutability": "nonpayable",
			"type": "constructor"
		},
		{
			"inputs": [],
			"name": "isValuePresent",
			"outputs": [
				{
					"internalType": "uint256",
					"name": "",
					"type": "uint256"
				}
			],
			"stateMutability": "view",
			"type": "function"
		}
	]
}