{
	"contracts/foundation/8-arithmetic-operators.sol": {
		"FinalExercise": {
			"abi": [
				{
					"inputs": [],
					"name": "finalize",
					"outputs": [
						{
							"internalType": "uint256",
							"name": "",
							"type": "uint256"
						}
					],
					"stateMutability": "view",
					"type": "function"
				}
			],
			"devdoc": {
				"kind": "dev",
				"methods": {},
				"version": 1
			},
			"evm": {
				"assembly": "    /* \"contracts/foundation/8-arithmetic-operators.sol\":3378:3706  contract FinalExercise {... */\n  mstore(0x40, 0x80)\n    /* \"contracts/foundation/8-arithmetic-operators.sol\":3416:3419  300 */\n  0x012c\n    /* \"contracts/foundation/8-arithmetic-operators.sol\":3407:3419  uint a = 300 */\n  0x00\n  sstore\n    /* \"contracts/foundation/8-arithmetic-operators.sol\":3434:3436  12 */\n  0x0c\n    /* \"contracts/foundation/8-arithmetic-operators.sol\":3425:3436  uint b = 12 */\n  0x01\n  sstore\n    /* \"contracts/foundation/8-arithmetic-operators.sol\":3451:3453  47 */\n  0x2f\n    /* \"contracts/foundation/8-arithmetic-operators.sol\":3442:3453  uint c = 47 */\n  0x02\n  sstore\n    /* \"contracts/foundation/8-arithmetic-operators.sol\":3378:3706  contract FinalExercise {... */\n  callvalue\n  dup1\n  iszero\n  tag_1\n  jumpi\n  0x00\n  dup1\n  revert\ntag_1:\n  pop\n  dataSize(sub_0)\n  dup1\n  dataOffset(sub_0)\n  0x00\n  codecopy\n  0x00\n  return\nstop\n\nsub_0: assembly {\n        /* \"contracts/foundation/8-arithmetic-operators.sol\":3378:3706  contract FinalExercise {... */\n      mstore(0x40, 0x80)\n      callvalue\n      dup1\n      iszero\n      tag_1\n      jumpi\n      0x00\n      dup1\n      revert\n    tag_1:\n      pop\n      jumpi(tag_2, lt(calldatasize, 0x04))\n      shr(0xe0, calldataload(0x00))\n      dup1\n      0x4bb278f3\n      eq\n      tag_3\n      jumpi\n    tag_2:\n      0x00\n      dup1\n      revert\n        /* \"contracts/foundation/8-arithmetic-operators.sol\":3460:3704  function finalize() public view returns(uint ){... */\n    tag_3:\n      tag_4\n      tag_5\n      jump\t// in\n    tag_4:\n      mload(0x40)\n      tag_6\n      swap2\n      swap1\n      tag_7\n      jump\t// in\n    tag_6:\n      mload(0x40)\n      dup1\n      swap2\n      sub\n      swap1\n      return\n    tag_5:\n        /* \"contracts/foundation/8-arithmetic-operators.sol\":3500:3504  uint */\n      0x00\n        /* \"contracts/foundation/8-arithmetic-operators.sol\":3516:3522  uint d */\n      dup1\n        /* \"contracts/foundation/8-arithmetic-operators.sol\":3525:3527  23 */\n      0x17\n        /* \"contracts/foundation/8-arithmetic-operators.sol\":3516:3527  uint d = 23 */\n      swap1\n      pop\n        /* \"contracts/foundation/8-arithmetic-operators.sol\":3545:3546  b */\n      sload(0x01)\n        /* \"contracts/foundation/8-arithmetic-operators.sol\":3540:3541  a */\n      sload(0x00)\n        /* \"contracts/foundation/8-arithmetic-operators.sol\":3540:3546  a >= b */\n      lt\n      iszero\n        /* \"contracts/foundation/8-arithmetic-operators.sol\":3540:3555  a >= b && b < c */\n      dup1\n      iszero\n      tag_9\n      jumpi\n      pop\n        /* \"contracts/foundation/8-arithmetic-operators.sol\":3554:3555  c */\n      sload(0x02)\n        /* \"contracts/foundation/8-arithmetic-operators.sol\":3550:3551  b */\n      sload(0x01)\n        /* \"contracts/foundation/8-arithmetic-operators.sol\":3550:3555  b < c */\n      lt\n        /* \"contracts/foundation/8-arithmetic-operators.sol\":3540:3555  a >= b && b < c */\n    tag_9:\n        /* \"contracts/foundation/8-arithmetic-operators.sol\":3537:3698  if(a >= b && b < c){... */\n      iszero\n      tag_10\n      jumpi\n        /* \"contracts/foundation/8-arithmetic-operators.sol\":3576:3577  d */\n      dup1\n        /* \"contracts/foundation/8-arithmetic-operators.sol\":3571:3577  d *= d */\n      dup2\n      tag_11\n      swap2\n      swap1\n      tag_12\n      jump\t// in\n    tag_11:\n      swap1\n      pop\n        /* \"contracts/foundation/8-arithmetic-operators.sol\":3647:3648  b */\n      sload(0x01)\n        /* \"contracts/foundation/8-arithmetic-operators.sol\":3642:3648  d -= b */\n      dup2\n      tag_13\n      swap2\n      swap1\n      tag_14\n      jump\t// in\n    tag_13:\n      swap1\n      pop\n      dup1\n        /* \"contracts/foundation/8-arithmetic-operators.sol\":3635:3648  return d -= b */\n      swap2\n      pop\n      pop\n      jump(tag_8)\n        /* \"contracts/foundation/8-arithmetic-operators.sol\":3537:3698  if(a >= b && b < c){... */\n    tag_10:\n        /* \"contracts/foundation/8-arithmetic-operators.sol\":3686:3687  d */\n      dup1\n        /* \"contracts/foundation/8-arithmetic-operators.sol\":3679:3687  return d */\n      swap2\n      pop\n      pop\n        /* \"contracts/foundation/8-arithmetic-operators.sol\":3460:3704  function finalize() public view returns(uint ){... */\n    tag_8:\n      swap1\n      jump\t// out\n        /* \"#utility.yul\":7:84   */\n    tag_16:\n        /* \"#utility.yul\":44:51   */\n      0x00\n        /* \"#utility.yul\":73:78   */\n      dup2\n        /* \"#utility.yul\":62:78   */\n      swap1\n      pop\n        /* \"#utility.yul\":7:84   */\n      swap2\n      swap1\n      pop\n      jump\t// out\n        /* \"#utility.yul\":90:208   */\n    tag_17:\n        /* \"#utility.yul\":177:201   */\n      tag_22\n        /* \"#utility.yul\":195:200   */\n      dup2\n        /* \"#utility.yul\":177:201   */\n      tag_16\n      jump\t// in\n    tag_22:\n        /* \"#utility.yul\":172:175   */\n      dup3\n        /* \"#utility.yul\":165:202   */\n      mstore\n        /* \"#utility.yul\":90:208   */\n      pop\n      pop\n      jump\t// out\n        /* \"#utility.yul\":214:436   */\n    tag_7:\n        /* \"#utility.yul\":307:311   */\n      0x00\n        /* \"#utility.yul\":345:347   */\n      0x20\n        /* \"#utility.yul\":334:343   */\n      dup3\n        /* \"#utility.yul\":330:348   */\n      add\n        /* \"#utility.yul\":322:348   */\n      swap1\n      pop\n        /* \"#utility.yul\":358:429   */\n      tag_24\n        /* \"#utility.yul\":426:427   */\n      0x00\n        /* \"#utility.yul\":415:424   */\n      dup4\n        /* \"#utility.yul\":411:428   */\n      add\n        /* \"#utility.yul\":402:408   */\n      dup5\n        /* \"#utility.yul\":358:429   */\n      tag_17\n      jump\t// in\n    tag_24:\n        /* \"#utility.yul\":214:436   */\n      swap3\n      swap2\n      pop\n      pop\n      jump\t// out\n        /* \"#utility.yul\":442:622   */\n    tag_18:\n        /* \"#utility.yul\":490:567   */\n      0x4e487b7100000000000000000000000000000000000000000000000000000000\n        /* \"#utility.yul\":487:488   */\n      0x00\n        /* \"#utility.yul\":480:568   */\n      mstore\n        /* \"#utility.yul\":587:591   */\n      0x11\n        /* \"#utility.yul\":584:585   */\n      0x04\n        /* \"#utility.yul\":577:592   */\n      mstore\n        /* \"#utility.yul\":611:615   */\n      0x24\n        /* \"#utility.yul\":608:609   */\n      0x00\n        /* \"#utility.yul\":601:616   */\n      revert\n        /* \"#utility.yul\":628:1038   */\n    tag_12:\n        /* \"#utility.yul\":668:675   */\n      0x00\n        /* \"#utility.yul\":691:711   */\n      tag_27\n        /* \"#utility.yul\":709:710   */\n      dup3\n        /* \"#utility.yul\":691:711   */\n      tag_16\n      jump\t// in\n    tag_27:\n        /* \"#utility.yul\":686:711   */\n      swap2\n      pop\n        /* \"#utility.yul\":725:745   */\n      tag_28\n        /* \"#utility.yul\":743:744   */\n      dup4\n        /* \"#utility.yul\":725:745   */\n      tag_16\n      jump\t// in\n    tag_28:\n        /* \"#utility.yul\":720:745   */\n      swap3\n      pop\n        /* \"#utility.yul\":780:781   */\n      dup3\n        /* \"#utility.yul\":777:778   */\n      dup3\n        /* \"#utility.yul\":773:782   */\n      mul\n        /* \"#utility.yul\":802:832   */\n      tag_29\n        /* \"#utility.yul\":820:831   */\n      dup2\n        /* \"#utility.yul\":802:832   */\n      tag_16\n      jump\t// in\n    tag_29:\n        /* \"#utility.yul\":791:832   */\n      swap2\n      pop\n        /* \"#utility.yul\":981:982   */\n      dup3\n        /* \"#utility.yul\":972:979   */\n      dup3\n        /* \"#utility.yul\":968:983   */\n      div\n        /* \"#utility.yul\":965:966   */\n      dup5\n        /* \"#utility.yul\":962:984   */\n      eq\n        /* \"#utility.yul\":942:943   */\n      dup4\n        /* \"#utility.yul\":935:944   */\n      iszero\n        /* \"#utility.yul\":915:998   */\n      or\n        /* \"#utility.yul\":892:1031   */\n      tag_30\n      jumpi\n        /* \"#utility.yul\":1011:1029   */\n      tag_31\n      tag_18\n      jump\t// in\n    tag_31:\n        /* \"#utility.yul\":892:1031   */\n    tag_30:\n        /* \"#utility.yul\":676:1038   */\n      pop\n        /* \"#utility.yul\":628:1038   */\n      swap3\n      swap2\n      pop\n      pop\n      jump\t// out\n        /* \"#utility.yul\":1044:1238   */\n    tag_14:\n        /* \"#utility.yul\":1084:1088   */\n      0x00\n        /* \"#utility.yul\":1104:1124   */\n      tag_33\n        /* \"#utility.yul\":1122:1123   */\n      dup3\n        /* \"#utility.yul\":1104:1124   */\n      tag_16\n      jump\t// in\n    tag_33:\n        /* \"#utility.yul\":1099:1124   */\n      swap2\n      pop\n        /* \"#utility.yul\":1138:1158   */\n      tag_34\n        /* \"#utility.yul\":1156:1157   */\n      dup4\n        /* \"#utility.yul\":1138:1158   */\n      tag_16\n      jump\t// in\n    tag_34:\n        /* \"#utility.yul\":1133:1158   */\n      swap3\n      pop\n        /* \"#utility.yul\":1182:1183   */\n      dup3\n        /* \"#utility.yul\":1179:1180   */\n      dup3\n        /* \"#utility.yul\":1175:1184   */\n      sub\n        /* \"#utility.yul\":1167:1184   */\n      swap1\n      pop\n        /* \"#utility.yul\":1206:1207   */\n      dup2\n        /* \"#utility.yul\":1200:1204   */\n      dup2\n        /* \"#utility.yul\":1197:1208   */\n      gt\n        /* \"#utility.yul\":1194:1231   */\n      iszero\n      tag_35\n      jumpi\n        /* \"#utility.yul\":1211:1229   */\n      tag_36\n      tag_18\n      jump\t// in\n    tag_36:\n        /* \"#utility.yul\":1194:1231   */\n    tag_35:\n        /* \"#utility.yul\":1044:1238   */\n      swap3\n      swap2\n      pop\n      pop\n      jump\t// out\n\n    auxdata: 0xa2646970667358221220d8fb2582619157fc046b6ab2b94d0da39acd5a538a85e6e8a9a578f2ec00662764736f6c634300081a0033\n}\n",
				"bytecode": {
					"linkReferences": {},
					"object": "608060405261012c5f55600c600155602f600255348015601d575f80fd5b506101a38061002b5f395ff3fe608060405234801561000f575f80fd5b5060043610610029575f3560e01c80634bb278f31461002d575b5f80fd5b61003561004b565b60405161004291906100b3565b60405180910390f35b5f80601790506001545f54101580156100675750600254600154105b1561009357808161007891906100f9565b905060015481610088919061013a565b905080915050610098565b809150505b90565b5f819050919050565b6100ad8161009b565b82525050565b5f6020820190506100c65f8301846100a4565b92915050565b7f4e487b71000000000000000000000000000000000000000000000000000000005f52601160045260245ffd5b5f6101038261009b565b915061010e8361009b565b925082820261011c8161009b565b91508282048414831517610133576101326100cc565b5b5092915050565b5f6101448261009b565b915061014f8361009b565b9250828203905081811115610167576101666100cc565b5b9291505056fea2646970667358221220d8fb2582619157fc046b6ab2b94d0da39acd5a538a85e6e8a9a578f2ec00662764736f6c634300081a0033",
					"opcodes": "PUSH1 0x80 PUSH1 0x40 MSTORE PUSH2 0x12C PUSH0 SSTORE PUSH1 0xC PUSH1 0x1 SSTORE PUSH1 0x2F PUSH1 0x2 SSTORE CALLVALUE DUP1 ISZERO PUSH1 0x1D JUMPI PUSH0 DUP1 REVERT JUMPDEST POP PUSH2 0x1A3 DUP1 PUSH2 0x2B PUSH0 CODECOPY PUSH0 RETURN INVALID PUSH1 0x80 PUSH1 0x40 MSTORE CALLVALUE DUP1 ISZERO PUSH2 0xF JUMPI PUSH0 DUP1 REVERT JUMPDEST POP PUSH1 0x4 CALLDATASIZE LT PUSH2 0x29 JUMPI PUSH0 CALLDATALOAD PUSH1 0xE0 SHR DUP1 PUSH4 0x4BB278F3 EQ PUSH2 0x2D JUMPI JUMPDEST PUSH0 DUP1 REVERT JUMPDEST PUSH2 0x35 PUSH2 0x4B JUMP JUMPDEST PUSH1 0x40 MLOAD PUSH2 0x42 SWAP2 SWAP1 PUSH2 0xB3 JUMP JUMPDEST PUSH1 0x40 MLOAD DUP1 SWAP2 SUB SWAP1 RETURN JUMPDEST PUSH0 DUP1 PUSH1 0x17 SWAP1 POP PUSH1 0x1 SLOAD PUSH0 SLOAD LT ISZERO DUP1 ISZERO PUSH2 0x67 JUMPI POP PUSH1 0x2 SLOAD PUSH1 0x1 SLOAD LT JUMPDEST ISZERO PUSH2 0x93 JUMPI DUP1 DUP2 PUSH2 0x78 SWAP2 SWAP1 PUSH2 0xF9 JUMP JUMPDEST SWAP1 POP PUSH1 0x1 SLOAD DUP2 PUSH2 0x88 SWAP2 SWAP1 PUSH2 0x13A JUMP JUMPDEST SWAP1 POP DUP1 SWAP2 POP POP PUSH2 0x98 JUMP JUMPDEST DUP1 SWAP2 POP POP JUMPDEST SWAP1 JUMP JUMPDEST PUSH0 DUP2 SWAP1 POP SWAP2 SWAP1 POP JUMP JUMPDEST PUSH2 0xAD DUP2 PUSH2 0x9B JUMP JUMPDEST DUP3 MSTORE POP POP JUMP JUMPDEST PUSH0 PUSH1 0x20 DUP3 ADD SWAP1 POP PUSH2 0xC6 PUSH0 DUP4 ADD DUP5 PUSH2 0xA4 JUMP JUMPDEST SWAP3 SWAP2 POP POP JUMP JUMPDEST PUSH32 0x4E487B7100000000000000000000000000000000000000000000000000000000 PUSH0 MSTORE PUSH1 0x11 PUSH1 0x4 MSTORE PUSH1 0x24 PUSH0 REVERT JUMPDEST PUSH0 PUSH2 0x103 DUP3 PUSH2 0x9B JUMP JUMPDEST SWAP2 POP PUSH2 0x10E DUP4 PUSH2 0x9B JUMP JUMPDEST SWAP3 POP DUP3 DUP3 MUL PUSH2 0x11C DUP2 PUSH2 0x9B JUMP JUMPDEST SWAP2 POP DUP3 DUP3 DIV DUP5 EQ DUP4 ISZERO OR PUSH2 0x133 JUMPI PUSH2 0x132 PUSH2 0xCC JUMP JUMPDEST JUMPDEST POP SWAP3 SWAP2 POP POP JUMP JUMPDEST PUSH0 PUSH2 0x144 DUP3 PUSH2 0x9B JUMP JUMPDEST SWAP2 POP PUSH2 0x14F DUP4 PUSH2 0x9B JUMP JUMPDEST SWAP3 POP DUP3 DUP3 SUB SWAP1 POP DUP2 DUP2 GT ISZERO PUSH2 0x167 JUMPI PUSH2 0x166 PUSH2 0xCC JUMP JUMPDEST JUMPDEST SWAP3 SWAP2 POP POP JUMP INVALID LOG2 PUSH5 0x6970667358 0x22 SLT KECCAK256 0xD8 0xFB 0x25 DUP3 PUSH2 0x9157 0xFC DIV PUSH12 0x6AB2B94D0DA39ACD5A538A85 0xE6 0xE8 0xA9 0xA5 PUSH25 0xF2EC00662764736F6C634300081A0033000000000000000000 "
				},
				"gasEstimates": {
					"creation": {
						"codeDepositCost": "83800",
						"executionCost": "66450",
						"totalCost": "150250"
					},
					"external": {
						"finalize()": "infinite"
					}
				},
				"methodIdentifiers": {
					"finalize()": "4bb278f3"
				}
			},
			"storageLayout": {
				"storage": [
					{
						"astId": 206,
						"contract": "contracts/foundation/8-arithmetic-operators.sol:FinalExercise",
						"label": "a",
						"offset": 0,
						"slot": "0",
						"type": "t_uint256"
					},
					{
						"astId": 209,
						"contract": "contracts/foundation/8-arithmetic-operators.sol:FinalExercise",
						"label": "b",
						"offset": 0,
						"slot": "1",
						"type": "t_uint256"
					},
					{
						"astId": 212,
						"contract": "contracts/foundation/8-arithmetic-operators.sol:FinalExercise",
						"label": "c",
						"offset": 0,
						"slot": "2",
						"type": "t_uint256"
					}
				],
				"types": {
					"t_uint256": {
						"encoding": "inplace",
						"label": "uint256",
						"numberOfBytes": "32"
					}
				}
			},
			"userdoc": {
				"kind": "user",
				"methods": {},
				"version": 1
			}
		}
	}
}