{
	"contracts/foundation/8-arithmetic-operators.sol": {
		"Operators": {
			"abi": [
				{
					"inputs": [],
					"name": "arithmetic",
					"outputs": [],
					"stateMutability": "nonpayable",
					"type": "function"
				},
				{
					"inputs": [],
					"name": "calculator",
					"outputs": [
						{
							"internalType": "uint256",
							"name": "",
							"type": "uint256"
						}
					],
					"stateMutability": "pure",
					"type": "function"
				},
				{
					"inputs": [],
					"name": "remainderofFour",
					"outputs": [
						{
							"internalType": "uint256",
							"name": "",
							"type": "uint256"
						}
					],
					"stateMutability": "pure",
					"type": "function"
				},
				{
					"inputs": [],
					"name": "resA",
					"outputs": [
						{
							"internalType": "uint256",
							"name": "",
							"type": "uint256"
						}
					],
					"stateMutability": "view",
					"type": "function"
				},
				{
					"inputs": [],
					"name": "resB",
					"outputs": [
						{
							"internalType": "uint256",
							"name": "",
							"type": "uint256"
						}
					],
					"stateMutability": "view",
					"type": "function"
				},
				{
					"inputs": [],
					"name": "resC",
					"outputs": [
						{
							"internalType": "uint256",
							"name": "",
							"type": "uint256"
						}
					],
					"stateMutability": "view",
					"type": "function"
				},
				{
					"inputs": [],
					"name": "resD",
					"outputs": [
						{
							"internalType": "uint256",
							"name": "",
							"type": "uint256"
						}
					],
					"stateMutability": "view",
					"type": "function"
				}
			],
			"devdoc": {
				"kind": "dev",
				"methods": {},
				"version": 1
			},
			"evm": {
				"assembly": "    /* \"contracts/foundation/8-arithmetic-operators.sol\":495:1326  contract Operators{... */\n  mstore(0x40, 0x80)\n  callvalue\n  dup1\n  iszero\n  tag_1\n  jumpi\n  0x00\n  dup1\n  revert\ntag_1:\n  pop\n  dataSize(sub_0)\n  dup1\n  dataOffset(sub_0)\n  0x00\n  codecopy\n  0x00\n  return\nstop\n\nsub_0: assembly {\n        /* \"contracts/foundation/8-arithmetic-operators.sol\":495:1326  contract Operators{... */\n      mstore(0x40, 0x80)\n      callvalue\n      dup1\n      iszero\n      tag_1\n      jumpi\n      0x00\n      dup1\n      revert\n    tag_1:\n      pop\n      jumpi(tag_2, lt(calldatasize, 0x04))\n      shr(0xe0, calldataload(0x00))\n      dup1\n      0x980a67fd\n      gt\n      tag_10\n      jumpi\n      dup1\n      0x980a67fd\n      eq\n      tag_6\n      jumpi\n      dup1\n      0xc9d87894\n      eq\n      tag_7\n      jumpi\n      dup1\n      0xce3e39c0\n      eq\n      tag_8\n      jumpi\n      dup1\n      0xd69ec5b2\n      eq\n      tag_9\n      jumpi\n      jump(tag_2)\n    tag_10:\n      dup1\n      0x144c4545\n      eq\n      tag_3\n      jumpi\n      dup1\n      0x7e9910ed\n      eq\n      tag_4\n      jumpi\n      dup1\n      0x8d6c4eca\n      eq\n      tag_5\n      jumpi\n    tag_2:\n      0x00\n      dup1\n      revert\n        /* \"contracts/foundation/8-arithmetic-operators.sol\":1038:1054  uint public resA */\n    tag_3:\n      tag_11\n      tag_12\n      jump\t// in\n    tag_11:\n      mload(0x40)\n      tag_13\n      swap2\n      swap1\n      tag_14\n      jump\t// in\n    tag_13:\n      mload(0x40)\n      dup1\n      swap2\n      sub\n      swap1\n      return\n        /* \"contracts/foundation/8-arithmetic-operators.sol\":949:1032  function remainderofFour() public pure returns(uint){... */\n    tag_4:\n      tag_15\n      tag_16\n      jump\t// in\n    tag_15:\n      mload(0x40)\n      tag_17\n      swap2\n      swap1\n      tag_14\n      jump\t// in\n    tag_17:\n      mload(0x40)\n      dup1\n      swap2\n      sub\n      swap1\n      return\n        /* \"contracts/foundation/8-arithmetic-operators.sol\":1104:1120  uint public resD */\n    tag_5:\n      tag_18\n      tag_19\n      jump\t// in\n    tag_18:\n      mload(0x40)\n      tag_20\n      swap2\n      swap1\n      tag_14\n      jump\t// in\n    tag_20:\n      mload(0x40)\n      dup1\n      swap2\n      sub\n      swap1\n      return\n        /* \"contracts/foundation/8-arithmetic-operators.sol\":1127:1322  function arithmetic() public {... */\n    tag_6:\n      tag_21\n      tag_22\n      jump\t// in\n    tag_21:\n      stop\n        /* \"contracts/foundation/8-arithmetic-operators.sol\":1060:1076  uint public resB */\n    tag_7:\n      tag_23\n      tag_24\n      jump\t// in\n    tag_23:\n      mload(0x40)\n      tag_25\n      swap2\n      swap1\n      tag_14\n      jump\t// in\n    tag_25:\n      mload(0x40)\n      dup1\n      swap2\n      sub\n      swap1\n      return\n        /* \"contracts/foundation/8-arithmetic-operators.sol\":519:681  function calculator() public pure returns(uint){... */\n    tag_8:\n      tag_26\n      tag_27\n      jump\t// in\n    tag_26:\n      mload(0x40)\n      tag_28\n      swap2\n      swap1\n      tag_14\n      jump\t// in\n    tag_28:\n      mload(0x40)\n      dup1\n      swap2\n      sub\n      swap1\n      return\n        /* \"contracts/foundation/8-arithmetic-operators.sol\":1082:1098  uint public resC */\n    tag_9:\n      tag_29\n      tag_30\n      jump\t// in\n    tag_29:\n      mload(0x40)\n      tag_31\n      swap2\n      swap1\n      tag_14\n      jump\t// in\n    tag_31:\n      mload(0x40)\n      dup1\n      swap2\n      sub\n      swap1\n      return\n        /* \"contracts/foundation/8-arithmetic-operators.sol\":1038:1054  uint public resA */\n    tag_12:\n      sload(0x00)\n      dup2\n      jump\t// out\n        /* \"contracts/foundation/8-arithmetic-operators.sol\":949:1032  function remainderofFour() public pure returns(uint){... */\n    tag_16:\n        /* \"contracts/foundation/8-arithmetic-operators.sol\":996:1000  uint */\n      0x00\n        /* \"contracts/foundation/8-arithmetic-operators.sol\":1019:1024  3 % 4 */\n      0x03\n        /* \"contracts/foundation/8-arithmetic-operators.sol\":1011:1025  return (3 % 4) */\n      swap1\n      pop\n        /* \"contracts/foundation/8-arithmetic-operators.sol\":949:1032  function remainderofFour() public pure returns(uint){... */\n      swap1\n      jump\t// out\n        /* \"contracts/foundation/8-arithmetic-operators.sol\":1104:1120  uint public resD */\n    tag_19:\n      sload(0x03)\n      dup2\n      jump\t// out\n        /* \"contracts/foundation/8-arithmetic-operators.sol\":1127:1322  function arithmetic() public {... */\n    tag_22:\n        /* \"contracts/foundation/8-arithmetic-operators.sol\":1166:1172  uint a */\n      0x00\n        /* \"contracts/foundation/8-arithmetic-operators.sol\":1175:1176  2 */\n      0x02\n        /* \"contracts/foundation/8-arithmetic-operators.sol\":1166:1176  uint a = 2 */\n      swap1\n      pop\n        /* \"contracts/foundation/8-arithmetic-operators.sol\":1186:1192  uint b */\n      0x00\n        /* \"contracts/foundation/8-arithmetic-operators.sol\":1195:1197  12 */\n      0x0c\n        /* \"contracts/foundation/8-arithmetic-operators.sol\":1186:1197  uint b = 12 */\n      swap1\n      pop\n        /* \"contracts/foundation/8-arithmetic-operators.sol\":1226:1227  a */\n      dup2\n        /* \"contracts/foundation/8-arithmetic-operators.sol\":1222:1223  b */\n      dup2\n        /* \"contracts/foundation/8-arithmetic-operators.sol\":1218:1219  b */\n      dup3\n        /* \"contracts/foundation/8-arithmetic-operators.sol\":1214:1215  a */\n      dup5\n        /* \"contracts/foundation/8-arithmetic-operators.sol\":1214:1219  a + b */\n      tag_34\n      swap2\n      swap1\n      tag_35\n      jump\t// in\n    tag_34:\n        /* \"contracts/foundation/8-arithmetic-operators.sol\":1214:1223  a + b - b */\n      tag_36\n      swap2\n      swap1\n      tag_37\n      jump\t// in\n    tag_36:\n        /* \"contracts/foundation/8-arithmetic-operators.sol\":1214:1227  a + b - b + a */\n      tag_38\n      swap2\n      swap1\n      tag_35\n      jump\t// in\n    tag_38:\n        /* \"contracts/foundation/8-arithmetic-operators.sol\":1207:1211  resA */\n      0x00\n        /* \"contracts/foundation/8-arithmetic-operators.sol\":1207:1227  resA = a + b - b + a */\n      dup2\n      swap1\n      sstore\n      pop\n        /* \"contracts/foundation/8-arithmetic-operators.sol\":1256:1257  1 */\n      0x01\n        /* \"contracts/foundation/8-arithmetic-operators.sol\":1252:1253  b */\n      dup2\n        /* \"contracts/foundation/8-arithmetic-operators.sol\":1248:1249  b */\n      dup3\n        /* \"contracts/foundation/8-arithmetic-operators.sol\":1244:1245  a */\n      dup5\n        /* \"contracts/foundation/8-arithmetic-operators.sol\":1244:1249  a * b */\n      tag_39\n      swap2\n      swap1\n      tag_40\n      jump\t// in\n    tag_39:\n        /* \"contracts/foundation/8-arithmetic-operators.sol\":1244:1253  a * b * b */\n      tag_41\n      swap2\n      swap1\n      tag_40\n      jump\t// in\n    tag_41:\n        /* \"contracts/foundation/8-arithmetic-operators.sol\":1244:1257  a * b * b - 1 */\n      tag_42\n      swap2\n      swap1\n      tag_37\n      jump\t// in\n    tag_42:\n        /* \"contracts/foundation/8-arithmetic-operators.sol\":1237:1241  resB */\n      0x01\n        /* \"contracts/foundation/8-arithmetic-operators.sol\":1237:1257  resB = a * b * b - 1 */\n      dup2\n      swap1\n      sstore\n      pop\n        /* \"contracts/foundation/8-arithmetic-operators.sol\":1284:1285  3 */\n      0x03\n        /* \"contracts/foundation/8-arithmetic-operators.sol\":1279:1280  a */\n      dup3\n        /* \"contracts/foundation/8-arithmetic-operators.sol\":1275:1276  b */\n      dup3\n        /* \"contracts/foundation/8-arithmetic-operators.sol\":1275:1280  b % a */\n      tag_43\n      swap2\n      swap1\n      tag_44\n      jump\t// in\n    tag_43:\n        /* \"contracts/foundation/8-arithmetic-operators.sol\":1274:1285  (b % a) + 3 */\n      tag_45\n      swap2\n      swap1\n      tag_35\n      jump\t// in\n    tag_45:\n        /* \"contracts/foundation/8-arithmetic-operators.sol\":1267:1271  resD */\n      0x03\n        /* \"contracts/foundation/8-arithmetic-operators.sol\":1267:1285  resD = (b % a) + 3 */\n      dup2\n      swap1\n      sstore\n      pop\n        /* \"contracts/foundation/8-arithmetic-operators.sol\":1312:1315  a++ */\n      dup2\n      dup1\n      tag_46\n      swap1\n      tag_47\n      jump\t// in\n    tag_46:\n      swap3\n      pop\n        /* \"contracts/foundation/8-arithmetic-operators.sol\":1306:1309  b++ */\n      dup2\n      dup1\n      tag_48\n      swap1\n      tag_47\n      jump\t// in\n    tag_48:\n      swap3\n      pop\n        /* \"contracts/foundation/8-arithmetic-operators.sol\":1302:1303  b */\n      dup3\n        /* \"contracts/foundation/8-arithmetic-operators.sol\":1302:1309  b + b++ */\n      tag_49\n      swap2\n      swap1\n      tag_35\n      jump\t// in\n    tag_49:\n        /* \"contracts/foundation/8-arithmetic-operators.sol\":1302:1315  b + b++ + a++ */\n      tag_50\n      swap2\n      swap1\n      tag_35\n      jump\t// in\n    tag_50:\n        /* \"contracts/foundation/8-arithmetic-operators.sol\":1295:1299  resC */\n      0x02\n        /* \"contracts/foundation/8-arithmetic-operators.sol\":1295:1315  resC = b + b++ + a++ */\n      dup2\n      swap1\n      sstore\n      pop\n        /* \"contracts/foundation/8-arithmetic-operators.sol\":1156:1322  {... */\n      pop\n      pop\n        /* \"contracts/foundation/8-arithmetic-operators.sol\":1127:1322  function arithmetic() public {... */\n      jump\t// out\n        /* \"contracts/foundation/8-arithmetic-operators.sol\":1060:1076  uint public resB */\n    tag_24:\n      sload(0x01)\n      dup2\n      jump\t// out\n        /* \"contracts/foundation/8-arithmetic-operators.sol\":519:681  function calculator() public pure returns(uint){... */\n    tag_27:\n        /* \"contracts/foundation/8-arithmetic-operators.sol\":561:565  uint */\n      0x00\n        /* \"contracts/foundation/8-arithmetic-operators.sol\":576:582  uint a */\n      dup1\n        /* \"contracts/foundation/8-arithmetic-operators.sol\":585:586  5 */\n      0x05\n        /* \"contracts/foundation/8-arithmetic-operators.sol\":576:586  uint a = 5 */\n      swap1\n      pop\n        /* \"contracts/foundation/8-arithmetic-operators.sol\":596:602  uint b */\n      0x00\n        /* \"contracts/foundation/8-arithmetic-operators.sol\":605:606  7 */\n      0x07\n        /* \"contracts/foundation/8-arithmetic-operators.sol\":596:606  uint b = 7 */\n      swap1\n      pop\n        /* \"contracts/foundation/8-arithmetic-operators.sol\":616:627  uint result */\n      0x00\n        /* \"contracts/foundation/8-arithmetic-operators.sol\":650:651  b */\n      dup2\n        /* \"contracts/foundation/8-arithmetic-operators.sol\":646:647  a */\n      dup4\n        /* \"contracts/foundation/8-arithmetic-operators.sol\":646:651  a % b */\n      tag_52\n      swap2\n      swap1\n      tag_44\n      jump\t// in\n    tag_52:\n        /* \"contracts/foundation/8-arithmetic-operators.sol\":637:651  result = a % b */\n      swap1\n      pop\n        /* \"contracts/foundation/8-arithmetic-operators.sol\":668:674  result */\n      dup1\n        /* \"contracts/foundation/8-arithmetic-operators.sol\":661:674  return result */\n      swap4\n      pop\n      pop\n      pop\n      pop\n        /* \"contracts/foundation/8-arithmetic-operators.sol\":519:681  function calculator() public pure returns(uint){... */\n      swap1\n      jump\t// out\n        /* \"contracts/foundation/8-arithmetic-operators.sol\":1082:1098  uint public resC */\n    tag_30:\n      sload(0x02)\n      dup2\n      jump\t// out\n        /* \"#utility.yul\":7:84   */\n    tag_53:\n        /* \"#utility.yul\":44:51   */\n      0x00\n        /* \"#utility.yul\":73:78   */\n      dup2\n        /* \"#utility.yul\":62:78   */\n      swap1\n      pop\n        /* \"#utility.yul\":7:84   */\n      swap2\n      swap1\n      pop\n      jump\t// out\n        /* \"#utility.yul\":90:208   */\n    tag_54:\n        /* \"#utility.yul\":177:201   */\n      tag_60\n        /* \"#utility.yul\":195:200   */\n      dup2\n        /* \"#utility.yul\":177:201   */\n      tag_53\n      jump\t// in\n    tag_60:\n        /* \"#utility.yul\":172:175   */\n      dup3\n        /* \"#utility.yul\":165:202   */\n      mstore\n        /* \"#utility.yul\":90:208   */\n      pop\n      pop\n      jump\t// out\n        /* \"#utility.yul\":214:436   */\n    tag_14:\n        /* \"#utility.yul\":307:311   */\n      0x00\n        /* \"#utility.yul\":345:347   */\n      0x20\n        /* \"#utility.yul\":334:343   */\n      dup3\n        /* \"#utility.yul\":330:348   */\n      add\n        /* \"#utility.yul\":322:348   */\n      swap1\n      pop\n        /* \"#utility.yul\":358:429   */\n      tag_62\n        /* \"#utility.yul\":426:427   */\n      0x00\n        /* \"#utility.yul\":415:424   */\n      dup4\n        /* \"#utility.yul\":411:428   */\n      add\n        /* \"#utility.yul\":402:408   */\n      dup5\n        /* \"#utility.yul\":358:429   */\n      tag_54\n      jump\t// in\n    tag_62:\n        /* \"#utility.yul\":214:436   */\n      swap3\n      swap2\n      pop\n      pop\n      jump\t// out\n        /* \"#utility.yul\":442:622   */\n    tag_55:\n        /* \"#utility.yul\":490:567   */\n      0x4e487b7100000000000000000000000000000000000000000000000000000000\n        /* \"#utility.yul\":487:488   */\n      0x00\n        /* \"#utility.yul\":480:568   */\n      mstore\n        /* \"#utility.yul\":587:591   */\n      0x11\n        /* \"#utility.yul\":584:585   */\n      0x04\n        /* \"#utility.yul\":577:592   */\n      mstore\n        /* \"#utility.yul\":611:615   */\n      0x24\n        /* \"#utility.yul\":608:609   */\n      0x00\n        /* \"#utility.yul\":601:616   */\n      revert\n        /* \"#utility.yul\":628:819   */\n    tag_35:\n        /* \"#utility.yul\":668:671   */\n      0x00\n        /* \"#utility.yul\":687:707   */\n      tag_65\n        /* \"#utility.yul\":705:706   */\n      dup3\n        /* \"#utility.yul\":687:707   */\n      tag_53\n      jump\t// in\n    tag_65:\n        /* \"#utility.yul\":682:707   */\n      swap2\n      pop\n        /* \"#utility.yul\":721:741   */\n      tag_66\n        /* \"#utility.yul\":739:740   */\n      dup4\n        /* \"#utility.yul\":721:741   */\n      tag_53\n      jump\t// in\n    tag_66:\n        /* \"#utility.yul\":716:741   */\n      swap3\n      pop\n        /* \"#utility.yul\":764:765   */\n      dup3\n        /* \"#utility.yul\":761:762   */\n      dup3\n        /* \"#utility.yul\":757:766   */\n      add\n        /* \"#utility.yul\":750:766   */\n      swap1\n      pop\n        /* \"#utility.yul\":785:788   */\n      dup1\n        /* \"#utility.yul\":782:783   */\n      dup3\n        /* \"#utility.yul\":779:789   */\n      gt\n        /* \"#utility.yul\":776:812   */\n      iszero\n      tag_67\n      jumpi\n        /* \"#utility.yul\":792:810   */\n      tag_68\n      tag_55\n      jump\t// in\n    tag_68:\n        /* \"#utility.yul\":776:812   */\n    tag_67:\n        /* \"#utility.yul\":628:819   */\n      swap3\n      swap2\n      pop\n      pop\n      jump\t// out\n        /* \"#utility.yul\":825:1019   */\n    tag_37:\n        /* \"#utility.yul\":865:869   */\n      0x00\n        /* \"#utility.yul\":885:905   */\n      tag_70\n        /* \"#utility.yul\":903:904   */\n      dup3\n        /* \"#utility.yul\":885:905   */\n      tag_53\n      jump\t// in\n    tag_70:\n        /* \"#utility.yul\":880:905   */\n      swap2\n      pop\n        /* \"#utility.yul\":919:939   */\n      tag_71\n        /* \"#utility.yul\":937:938   */\n      dup4\n        /* \"#utility.yul\":919:939   */\n      tag_53\n      jump\t// in\n    tag_71:\n        /* \"#utility.yul\":914:939   */\n      swap3\n      pop\n        /* \"#utility.yul\":963:964   */\n      dup3\n        /* \"#utility.yul\":960:961   */\n      dup3\n        /* \"#utility.yul\":956:965   */\n      sub\n        /* \"#utility.yul\":948:965   */\n      swap1\n      pop\n        /* \"#utility.yul\":987:988   */\n      dup2\n        /* \"#utility.yul\":981:985   */\n      dup2\n        /* \"#utility.yul\":978:989   */\n      gt\n        /* \"#utility.yul\":975:1012   */\n      iszero\n      tag_72\n      jumpi\n        /* \"#utility.yul\":992:1010   */\n      tag_73\n      tag_55\n      jump\t// in\n    tag_73:\n        /* \"#utility.yul\":975:1012   */\n    tag_72:\n        /* \"#utility.yul\":825:1019   */\n      swap3\n      swap2\n      pop\n      pop\n      jump\t// out\n        /* \"#utility.yul\":1025:1435   */\n    tag_40:\n        /* \"#utility.yul\":1065:1072   */\n      0x00\n        /* \"#utility.yul\":1088:1108   */\n      tag_75\n        /* \"#utility.yul\":1106:1107   */\n      dup3\n        /* \"#utility.yul\":1088:1108   */\n      tag_53\n      jump\t// in\n    tag_75:\n        /* \"#utility.yul\":1083:1108   */\n      swap2\n      pop\n        /* \"#utility.yul\":1122:1142   */\n      tag_76\n        /* \"#utility.yul\":1140:1141   */\n      dup4\n        /* \"#utility.yul\":1122:1142   */\n      tag_53\n      jump\t// in\n    tag_76:\n        /* \"#utility.yul\":1117:1142   */\n      swap3\n      pop\n        /* \"#utility.yul\":1177:1178   */\n      dup3\n        /* \"#utility.yul\":1174:1175   */\n      dup3\n        /* \"#utility.yul\":1170:1179   */\n      mul\n        /* \"#utility.yul\":1199:1229   */\n      tag_77\n        /* \"#utility.yul\":1217:1228   */\n      dup2\n        /* \"#utility.yul\":1199:1229   */\n      tag_53\n      jump\t// in\n    tag_77:\n        /* \"#utility.yul\":1188:1229   */\n      swap2\n      pop\n        /* \"#utility.yul\":1378:1379   */\n      dup3\n        /* \"#utility.yul\":1369:1376   */\n      dup3\n        /* \"#utility.yul\":1365:1380   */\n      div\n        /* \"#utility.yul\":1362:1363   */\n      dup5\n        /* \"#utility.yul\":1359:1381   */\n      eq\n        /* \"#utility.yul\":1339:1340   */\n      dup4\n        /* \"#utility.yul\":1332:1341   */\n      iszero\n        /* \"#utility.yul\":1312:1395   */\n      or\n        /* \"#utility.yul\":1289:1428   */\n      tag_78\n      jumpi\n        /* \"#utility.yul\":1408:1426   */\n      tag_79\n      tag_55\n      jump\t// in\n    tag_79:\n        /* \"#utility.yul\":1289:1428   */\n    tag_78:\n        /* \"#utility.yul\":1073:1435   */\n      pop\n        /* \"#utility.yul\":1025:1435   */\n      swap3\n      swap2\n      pop\n      pop\n      jump\t// out\n        /* \"#utility.yul\":1441:1621   */\n    tag_56:\n        /* \"#utility.yul\":1489:1566   */\n      0x4e487b7100000000000000000000000000000000000000000000000000000000\n        /* \"#utility.yul\":1486:1487   */\n      0x00\n        /* \"#utility.yul\":1479:1567   */\n      mstore\n        /* \"#utility.yul\":1586:1590   */\n      0x12\n        /* \"#utility.yul\":1583:1584   */\n      0x04\n        /* \"#utility.yul\":1576:1591   */\n      mstore\n        /* \"#utility.yul\":1610:1614   */\n      0x24\n        /* \"#utility.yul\":1607:1608   */\n      0x00\n        /* \"#utility.yul\":1600:1615   */\n      revert\n        /* \"#utility.yul\":1627:1803   */\n    tag_44:\n        /* \"#utility.yul\":1659:1660   */\n      0x00\n        /* \"#utility.yul\":1676:1696   */\n      tag_82\n        /* \"#utility.yul\":1694:1695   */\n      dup3\n        /* \"#utility.yul\":1676:1696   */\n      tag_53\n      jump\t// in\n    tag_82:\n        /* \"#utility.yul\":1671:1696   */\n      swap2\n      pop\n        /* \"#utility.yul\":1710:1730   */\n      tag_83\n        /* \"#utility.yul\":1728:1729   */\n      dup4\n        /* \"#utility.yul\":1710:1730   */\n      tag_53\n      jump\t// in\n    tag_83:\n        /* \"#utility.yul\":1705:1730   */\n      swap3\n      pop\n        /* \"#utility.yul\":1749:1750   */\n      dup3\n        /* \"#utility.yul\":1739:1774   */\n      tag_84\n      jumpi\n        /* \"#utility.yul\":1754:1772   */\n      tag_85\n      tag_56\n      jump\t// in\n    tag_85:\n        /* \"#utility.yul\":1739:1774   */\n    tag_84:\n        /* \"#utility.yul\":1795:1796   */\n      dup3\n        /* \"#utility.yul\":1792:1793   */\n      dup3\n        /* \"#utility.yul\":1788:1797   */\n      mod\n        /* \"#utility.yul\":1783:1797   */\n      swap1\n      pop\n        /* \"#utility.yul\":1627:1803   */\n      swap3\n      swap2\n      pop\n      pop\n      jump\t// out\n        /* \"#utility.yul\":1809:2042   */\n    tag_47:\n        /* \"#utility.yul\":1848:1851   */\n      0x00\n        /* \"#utility.yul\":1871:1895   */\n      tag_87\n        /* \"#utility.yul\":1889:1894   */\n      dup3\n        /* \"#utility.yul\":1871:1895   */\n      tag_53\n      jump\t// in\n    tag_87:\n        /* \"#utility.yul\":1862:1895   */\n      swap2\n      pop\n        /* \"#utility.yul\":1917:1983   */\n      0xffffffffffffffffffffffffffffffffffffffffffffffffffffffffffffffff\n        /* \"#utility.yul\":1910:1915   */\n      dup3\n        /* \"#utility.yul\":1907:1984   */\n      sub\n        /* \"#utility.yul\":1904:2007   */\n      tag_88\n      jumpi\n        /* \"#utility.yul\":1987:2005   */\n      tag_89\n      tag_55\n      jump\t// in\n    tag_89:\n        /* \"#utility.yul\":1904:2007   */\n    tag_88:\n        /* \"#utility.yul\":2034:2035   */\n      0x01\n        /* \"#utility.yul\":2027:2032   */\n      dup3\n        /* \"#utility.yul\":2023:2036   */\n      add\n        /* \"#utility.yul\":2016:2036   */\n      swap1\n      pop\n        /* \"#utility.yul\":1809:2042   */\n      swap2\n      swap1\n      pop\n      jump\t// out\n\n    auxdata: 0xa26469706673582212203a94965907d672499f2c9312be92672c7ed78ca03df78e85c5fba951c3e2ab8a64736f6c634300081a0033\n}\n",
				"bytecode": {
					"linkReferences": {},
					"object": "6080604052348015600e575f80fd5b5061040f8061001c5f395ff3fe608060405234801561000f575f80fd5b506004361061007b575f3560e01c8063980a67fd11610059578063980a67fd146100d9578063c9d87894146100e3578063ce3e39c014610101578063d69ec5b21461011f5761007b565b8063144c45451461007f5780637e9910ed1461009d5780638d6c4eca146100bb575b5f80fd5b61008761013d565b6040516100949190610248565b60405180910390f35b6100a5610142565b6040516100b29190610248565b60405180910390f35b6100c361014a565b6040516100d09190610248565b60405180910390f35b6100e1610150565b005b6100eb610201565b6040516100f89190610248565b60405180910390f35b610109610207565b6040516101169190610248565b60405180910390f35b61012761022a565b6040516101349190610248565b60405180910390f35b5f5481565b5f6003905090565b60035481565b5f600290505f600c905081818284610168919061028e565b61017291906102c1565b61017c919061028e565b5f81905550600181828461019091906102f4565b61019a91906102f4565b6101a491906102c1565b600181905550600382826101b89190610362565b6101c2919061028e565b60038190555081806101d390610392565b925081806101e090610392565b9250826101ed919061028e565b6101f7919061028e565b6002819055505050565b60015481565b5f80600590505f600790505f818361021f9190610362565b905080935050505090565b60025481565b5f819050919050565b61024281610230565b82525050565b5f60208201905061025b5f830184610239565b92915050565b7f4e487b71000000000000000000000000000000000000000000000000000000005f52601160045260245ffd5b5f61029882610230565b91506102a383610230565b92508282019050808211156102bb576102ba610261565b5b92915050565b5f6102cb82610230565b91506102d683610230565b92508282039050818111156102ee576102ed610261565b5b92915050565b5f6102fe82610230565b915061030983610230565b925082820261031781610230565b9150828204841483151761032e5761032d610261565b5b5092915050565b7f4e487b71000000000000000000000000000000000000000000000000000000005f52601260045260245ffd5b5f61036c82610230565b915061037783610230565b92508261038757610386610335565b5b828206905092915050565b5f61039c82610230565b91507fffffffffffffffffffffffffffffffffffffffffffffffffffffffffffffffff82036103ce576103cd610261565b5b60018201905091905056fea26469706673582212203a94965907d672499f2c9312be92672c7ed78ca03df78e85c5fba951c3e2ab8a64736f6c634300081a0033",
					"opcodes": "PUSH1 0x80 PUSH1 0x40 MSTORE CALLVALUE DUP1 ISZERO PUSH1 0xE JUMPI PUSH0 DUP1 REVERT JUMPDEST POP PUSH2 0x40F DUP1 PUSH2 0x1C PUSH0 CODECOPY PUSH0 RETURN INVALID PUSH1 0x80 PUSH1 0x40 MSTORE CALLVALUE DUP1 ISZERO PUSH2 0xF JUMPI PUSH0 DUP1 REVERT JUMPDEST POP PUSH1 0x4 CALLDATASIZE LT PUSH2 0x7B JUMPI PUSH0 CALLDATALOAD PUSH1 0xE0 SHR DUP1 PUSH4 0x980A67FD GT PUSH2 0x59 JUMPI DUP1 PUSH4 0x980A67FD EQ PUSH2 0xD9 JUMPI DUP1 PUSH4 0xC9D87894 EQ PUSH2 0xE3 JUMPI DUP1 PUSH4 0xCE3E39C0 EQ PUSH2 0x101 JUMPI DUP1 PUSH4 0xD69EC5B2 EQ PUSH2 0x11F JUMPI PUSH2 0x7B JUMP JUMPDEST DUP1 PUSH4 0x144C4545 EQ PUSH2 0x7F JUMPI DUP1 PUSH4 0x7E9910ED EQ PUSH2 0x9D JUMPI DUP1 PUSH4 0x8D6C4ECA EQ PUSH2 0xBB JUMPI JUMPDEST PUSH0 DUP1 REVERT JUMPDEST PUSH2 0x87 PUSH2 0x13D JUMP JUMPDEST PUSH1 0x40 MLOAD PUSH2 0x94 SWAP2 SWAP1 PUSH2 0x248 JUMP JUMPDEST PUSH1 0x40 MLOAD DUP1 SWAP2 SUB SWAP1 RETURN JUMPDEST PUSH2 0xA5 PUSH2 0x142 JUMP JUMPDEST PUSH1 0x40 MLOAD PUSH2 0xB2 SWAP2 SWAP1 PUSH2 0x248 JUMP JUMPDEST PUSH1 0x40 MLOAD DUP1 SWAP2 SUB SWAP1 RETURN JUMPDEST PUSH2 0xC3 PUSH2 0x14A JUMP JUMPDEST PUSH1 0x40 MLOAD PUSH2 0xD0 SWAP2 SWAP1 PUSH2 0x248 JUMP JUMPDEST PUSH1 0x40 MLOAD DUP1 SWAP2 SUB SWAP1 RETURN JUMPDEST PUSH2 0xE1 PUSH2 0x150 JUMP JUMPDEST STOP JUMPDEST PUSH2 0xEB PUSH2 0x201 JUMP JUMPDEST PUSH1 0x40 MLOAD PUSH2 0xF8 SWAP2 SWAP1 PUSH2 0x248 JUMP JUMPDEST PUSH1 0x40 MLOAD DUP1 SWAP2 SUB SWAP1 RETURN JUMPDEST PUSH2 0x109 PUSH2 0x207 JUMP JUMPDEST PUSH1 0x40 MLOAD PUSH2 0x116 SWAP2 SWAP1 PUSH2 0x248 JUMP JUMPDEST PUSH1 0x40 MLOAD DUP1 SWAP2 SUB SWAP1 RETURN JUMPDEST PUSH2 0x127 PUSH2 0x22A JUMP JUMPDEST PUSH1 0x40 MLOAD PUSH2 0x134 SWAP2 SWAP1 PUSH2 0x248 JUMP JUMPDEST PUSH1 0x40 MLOAD DUP1 SWAP2 SUB SWAP1 RETURN JUMPDEST PUSH0 SLOAD DUP2 JUMP JUMPDEST PUSH0 PUSH1 0x3 SWAP1 POP SWAP1 JUMP JUMPDEST PUSH1 0x3 SLOAD DUP2 JUMP JUMPDEST PUSH0 PUSH1 0x2 SWAP1 POP PUSH0 PUSH1 0xC SWAP1 POP DUP2 DUP2 DUP3 DUP5 PUSH2 0x168 SWAP2 SWAP1 PUSH2 0x28E JUMP JUMPDEST PUSH2 0x172 SWAP2 SWAP1 PUSH2 0x2C1 JUMP JUMPDEST PUSH2 0x17C SWAP2 SWAP1 PUSH2 0x28E JUMP JUMPDEST PUSH0 DUP2 SWAP1 SSTORE POP PUSH1 0x1 DUP2 DUP3 DUP5 PUSH2 0x190 SWAP2 SWAP1 PUSH2 0x2F4 JUMP JUMPDEST PUSH2 0x19A SWAP2 SWAP1 PUSH2 0x2F4 JUMP JUMPDEST PUSH2 0x1A4 SWAP2 SWAP1 PUSH2 0x2C1 JUMP JUMPDEST PUSH1 0x1 DUP2 SWAP1 SSTORE POP PUSH1 0x3 DUP3 DUP3 PUSH2 0x1B8 SWAP2 SWAP1 PUSH2 0x362 JUMP JUMPDEST PUSH2 0x1C2 SWAP2 SWAP1 PUSH2 0x28E JUMP JUMPDEST PUSH1 0x3 DUP2 SWAP1 SSTORE POP DUP2 DUP1 PUSH2 0x1D3 SWAP1 PUSH2 0x392 JUMP JUMPDEST SWAP3 POP DUP2 DUP1 PUSH2 0x1E0 SWAP1 PUSH2 0x392 JUMP JUMPDEST SWAP3 POP DUP3 PUSH2 0x1ED SWAP2 SWAP1 PUSH2 0x28E JUMP JUMPDEST PUSH2 0x1F7 SWAP2 SWAP1 PUSH2 0x28E JUMP JUMPDEST PUSH1 0x2 DUP2 SWAP1 SSTORE POP POP POP JUMP JUMPDEST PUSH1 0x1 SLOAD DUP2 JUMP JUMPDEST PUSH0 DUP1 PUSH1 0x5 SWAP1 POP PUSH0 PUSH1 0x7 SWAP1 POP PUSH0 DUP2 DUP4 PUSH2 0x21F SWAP2 SWAP1 PUSH2 0x362 JUMP JUMPDEST SWAP1 POP DUP1 SWAP4 POP POP POP POP SWAP1 JUMP JUMPDEST PUSH1 0x2 SLOAD DUP2 JUMP JUMPDEST PUSH0 DUP2 SWAP1 POP SWAP2 SWAP1 POP JUMP JUMPDEST PUSH2 0x242 DUP2 PUSH2 0x230 JUMP JUMPDEST DUP3 MSTORE POP POP JUMP JUMPDEST PUSH0 PUSH1 0x20 DUP3 ADD SWAP1 POP PUSH2 0x25B PUSH0 DUP4 ADD DUP5 PUSH2 0x239 JUMP JUMPDEST SWAP3 SWAP2 POP POP JUMP JUMPDEST PUSH32 0x4E487B7100000000000000000000000000000000000000000000000000000000 PUSH0 MSTORE PUSH1 0x11 PUSH1 0x4 MSTORE PUSH1 0x24 PUSH0 REVERT JUMPDEST PUSH0 PUSH2 0x298 DUP3 PUSH2 0x230 JUMP JUMPDEST SWAP2 POP PUSH2 0x2A3 DUP4 PUSH2 0x230 JUMP JUMPDEST SWAP3 POP DUP3 DUP3 ADD SWAP1 POP DUP1 DUP3 GT ISZERO PUSH2 0x2BB JUMPI PUSH2 0x2BA PUSH2 0x261 JUMP JUMPDEST JUMPDEST SWAP3 SWAP2 POP POP JUMP JUMPDEST PUSH0 PUSH2 0x2CB DUP3 PUSH2 0x230 JUMP JUMPDEST SWAP2 POP PUSH2 0x2D6 DUP4 PUSH2 0x230 JUMP JUMPDEST SWAP3 POP DUP3 DUP3 SUB SWAP1 POP DUP2 DUP2 GT ISZERO PUSH2 0x2EE JUMPI PUSH2 0x2ED PUSH2 0x261 JUMP JUMPDEST JUMPDEST SWAP3 SWAP2 POP POP JUMP JUMPDEST PUSH0 PUSH2 0x2FE DUP3 PUSH2 0x230 JUMP JUMPDEST SWAP2 POP PUSH2 0x309 DUP4 PUSH2 0x230 JUMP JUMPDEST SWAP3 POP DUP3 DUP3 MUL PUSH2 0x317 DUP2 PUSH2 0x230 JUMP JUMPDEST SWAP2 POP DUP3 DUP3 DIV DUP5 EQ DUP4 ISZERO OR PUSH2 0x32E JUMPI PUSH2 0x32D PUSH2 0x261 JUMP JUMPDEST JUMPDEST POP SWAP3 SWAP2 POP POP JUMP JUMPDEST PUSH32 0x4E487B7100000000000000000000000000000000000000000000000000000000 PUSH0 MSTORE PUSH1 0x12 PUSH1 0x4 MSTORE PUSH1 0x24 PUSH0 REVERT JUMPDEST PUSH0 PUSH2 0x36C DUP3 PUSH2 0x230 JUMP JUMPDEST SWAP2 POP PUSH2 0x377 DUP4 PUSH2 0x230 JUMP JUMPDEST SWAP3 POP DUP3 PUSH2 0x387 JUMPI PUSH2 0x386 PUSH2 0x335 JUMP JUMPDEST JUMPDEST DUP3 DUP3 MOD SWAP1 POP SWAP3 SWAP2 POP POP JUMP JUMPDEST PUSH0 PUSH2 0x39C DUP3 PUSH2 0x230 JUMP JUMPDEST SWAP2 POP PUSH32 0xFFFFFFFFFFFFFFFFFFFFFFFFFFFFFFFFFFFFFFFFFFFFFFFFFFFFFFFFFFFFFFFF DUP3 SUB PUSH2 0x3CE JUMPI PUSH2 0x3CD PUSH2 0x261 JUMP JUMPDEST JUMPDEST PUSH1 0x1 DUP3 ADD SWAP1 POP SWAP2 SWAP1 POP JUMP INVALID LOG2 PUSH5 0x6970667358 0x22 SLT KECCAK256 GASPRICE SWAP5 SWAP7 MSIZE SMOD 0xD6 PUSH19 0x499F2C9312BE92672C7ED78CA03DF78E85C5FB 0xA9 MLOAD 0xC3 0xE2 0xAB DUP11 PUSH5 0x736F6C6343 STOP ADDMOD BYTE STOP CALLER "
				},
				"gasEstimates": {
					"creation": {
						"codeDepositCost": "207800",
						"executionCost": "249",
						"totalCost": "208049"
					},
					"external": {
						"arithmetic()": "infinite",
						"calculator()": "infinite",
						"remainderofFour()": "355",
						"resA()": "2425",
						"resB()": "2447",
						"resC()": "2491",
						"resD()": "2470"
					}
				},
				"methodIdentifiers": {
					"arithmetic()": "980a67fd",
					"calculator()": "ce3e39c0",
					"remainderofFour()": "7e9910ed",
					"resA()": "144c4545",
					"resB()": "c9d87894",
					"resC()": "d69ec5b2",
					"resD()": "8d6c4eca"
				}
			},
			"storageLayout": {
				"storage": [
					{
						"astId": 39,
						"contract": "contracts/foundation/8-arithmetic-operators.sol:Operators",
						"label": "resA",
						"offset": 0,
						"slot": "0",
						"type": "t_uint256"
					},
					{
						"astId": 41,
						"contract": "contracts/foundation/8-arithmetic-operators.sol:Operators",
						"label": "resB",
						"offset": 0,
						"slot": "1",
						"type": "t_uint256"
					},
					{
						"astId": 43,
						"contract": "contracts/foundation/8-arithmetic-operators.sol:Operators",
						"label": "resC",
						"offset": 0,
						"slot": "2",
						"type": "t_uint256"
					},
					{
						"astId": 45,
						"contract": "contracts/foundation/8-arithmetic-operators.sol:Operators",
						"label": "resD",
						"offset": 0,
						"slot": "3",
						"type": "t_uint256"
					}
				],
				"types": {
					"t_uint256": {
						"encoding": "inplace",
						"label": "uint256",
						"numberOfBytes": "32"
					}
				}
			},
			"userdoc": {
				"kind": "user",
				"methods": {},
				"version": 1
			}
		}
	}
}