{
	"contracts/foundation/8-arithmetic-operators.sol": {
		"AssignmentOperator": {
			"abi": [
				{
					"inputs": [],
					"name": "assign",
					"outputs": [
						{
							"internalType": "uint256",
							"name": "",
							"type": "uint256"
						}
					],
					"stateMutability": "view",
					"type": "function"
				}
			],
			"devdoc": {
				"kind": "dev",
				"methods": {},
				"version": 1
			},
			"evm": {
				"assembly": "    /* \"contracts/foundation/8-arithmetic-operators.sol\":2553:2831  contract AssignmentOperator{... */\n  mstore(0x40, 0x80)\n    /* \"contracts/foundation/8-arithmetic-operators.sol\":2595:2596  4 */\n  0x04\n    /* \"contracts/foundation/8-arithmetic-operators.sol\":2586:2596  uint b = 4 */\n  0x00\n  sstore\n    /* \"contracts/foundation/8-arithmetic-operators.sol\":2611:2612  3 */\n  0x03\n    /* \"contracts/foundation/8-arithmetic-operators.sol\":2602:2612  uint a = 3 */\n  0x01\n  sstore\n    /* \"contracts/foundation/8-arithmetic-operators.sol\":2553:2831  contract AssignmentOperator{... */\n  callvalue\n  dup1\n  iszero\n  tag_1\n  jumpi\n  0x00\n  dup1\n  revert\ntag_1:\n  pop\n  dataSize(sub_0)\n  dup1\n  dataOffset(sub_0)\n  0x00\n  codecopy\n  0x00\n  return\nstop\n\nsub_0: assembly {\n        /* \"contracts/foundation/8-arithmetic-operators.sol\":2553:2831  contract AssignmentOperator{... */\n      mstore(0x40, 0x80)\n      callvalue\n      dup1\n      iszero\n      tag_1\n      jumpi\n      0x00\n      dup1\n      revert\n    tag_1:\n      pop\n      jumpi(tag_2, lt(calldatasize, 0x04))\n      shr(0xe0, calldataload(0x00))\n      dup1\n      0x12ae6397\n      eq\n      tag_3\n      jumpi\n    tag_2:\n      0x00\n      dup1\n      revert\n        /* \"contracts/foundation/8-arithmetic-operators.sol\":2618:2829  function assign() public view returns(uint){... */\n    tag_3:\n      tag_4\n      tag_5\n      jump\t// in\n    tag_4:\n      mload(0x40)\n      tag_6\n      swap2\n      swap1\n      tag_7\n      jump\t// in\n    tag_6:\n      mload(0x40)\n      dup1\n      swap2\n      sub\n      swap1\n      return\n    tag_5:\n        /* \"contracts/foundation/8-arithmetic-operators.sol\":2656:2660  uint */\n      0x00\n        /* \"contracts/foundation/8-arithmetic-operators.sol\":2671:2677  uint c */\n      dup1\n        /* \"contracts/foundation/8-arithmetic-operators.sol\":2680:2681  2 */\n      0x02\n        /* \"contracts/foundation/8-arithmetic-operators.sol\":2671:2681  uint c = 2 */\n      swap1\n      pop\n        /* \"contracts/foundation/8-arithmetic-operators.sol\":2731:2732  b */\n      sload(0x00)\n        /* \"contracts/foundation/8-arithmetic-operators.sol\":2727:2728  c */\n      dup2\n        /* \"contracts/foundation/8-arithmetic-operators.sol\":2723:2724  c */\n      dup3\n        /* \"contracts/foundation/8-arithmetic-operators.sol\":2723:2728  c + c */\n      tag_9\n      swap2\n      swap1\n      tag_10\n      jump\t// in\n    tag_9:\n        /* \"contracts/foundation/8-arithmetic-operators.sol\":2723:2732  c + c + b */\n      tag_11\n      swap2\n      swap1\n      tag_10\n      jump\t// in\n    tag_11:\n        /* \"contracts/foundation/8-arithmetic-operators.sol\":2719:2732  c = c + c + b */\n      swap1\n      pop\n        /* \"contracts/foundation/8-arithmetic-operators.sol\":2778:2779  c */\n      dup1\n        /* \"contracts/foundation/8-arithmetic-operators.sol\":2771:2779  return c */\n      swap2\n      pop\n      pop\n        /* \"contracts/foundation/8-arithmetic-operators.sol\":2618:2829  function assign() public view returns(uint){... */\n      swap1\n      jump\t// out\n        /* \"#utility.yul\":7:84   */\n    tag_12:\n        /* \"#utility.yul\":44:51   */\n      0x00\n        /* \"#utility.yul\":73:78   */\n      dup2\n        /* \"#utility.yul\":62:78   */\n      swap1\n      pop\n        /* \"#utility.yul\":7:84   */\n      swap2\n      swap1\n      pop\n      jump\t// out\n        /* \"#utility.yul\":90:208   */\n    tag_13:\n        /* \"#utility.yul\":177:201   */\n      tag_18\n        /* \"#utility.yul\":195:200   */\n      dup2\n        /* \"#utility.yul\":177:201   */\n      tag_12\n      jump\t// in\n    tag_18:\n        /* \"#utility.yul\":172:175   */\n      dup3\n        /* \"#utility.yul\":165:202   */\n      mstore\n        /* \"#utility.yul\":90:208   */\n      pop\n      pop\n      jump\t// out\n        /* \"#utility.yul\":214:436   */\n    tag_7:\n        /* \"#utility.yul\":307:311   */\n      0x00\n        /* \"#utility.yul\":345:347   */\n      0x20\n        /* \"#utility.yul\":334:343   */\n      dup3\n        /* \"#utility.yul\":330:348   */\n      add\n        /* \"#utility.yul\":322:348   */\n      swap1\n      pop\n        /* \"#utility.yul\":358:429   */\n      tag_20\n        /* \"#utility.yul\":426:427   */\n      0x00\n        /* \"#utility.yul\":415:424   */\n      dup4\n        /* \"#utility.yul\":411:428   */\n      add\n        /* \"#utility.yul\":402:408   */\n      dup5\n        /* \"#utility.yul\":358:429   */\n      tag_13\n      jump\t// in\n    tag_20:\n        /* \"#utility.yul\":214:436   */\n      swap3\n      swap2\n      pop\n      pop\n      jump\t// out\n        /* \"#utility.yul\":442:622   */\n    tag_14:\n        /* \"#utility.yul\":490:567   */\n      0x4e487b7100000000000000000000000000000000000000000000000000000000\n        /* \"#utility.yul\":487:488   */\n      0x00\n        /* \"#utility.yul\":480:568   */\n      mstore\n        /* \"#utility.yul\":587:591   */\n      0x11\n        /* \"#utility.yul\":584:585   */\n      0x04\n        /* \"#utility.yul\":577:592   */\n      mstore\n        /* \"#utility.yul\":611:615   */\n      0x24\n        /* \"#utility.yul\":608:609   */\n      0x00\n        /* \"#utility.yul\":601:616   */\n      revert\n        /* \"#utility.yul\":628:819   */\n    tag_10:\n        /* \"#utility.yul\":668:671   */\n      0x00\n        /* \"#utility.yul\":687:707   */\n      tag_23\n        /* \"#utility.yul\":705:706   */\n      dup3\n        /* \"#utility.yul\":687:707   */\n      tag_12\n      jump\t// in\n    tag_23:\n        /* \"#utility.yul\":682:707   */\n      swap2\n      pop\n        /* \"#utility.yul\":721:741   */\n      tag_24\n        /* \"#utility.yul\":739:740   */\n      dup4\n        /* \"#utility.yul\":721:741   */\n      tag_12\n      jump\t// in\n    tag_24:\n        /* \"#utility.yul\":716:741   */\n      swap3\n      pop\n        /* \"#utility.yul\":764:765   */\n      dup3\n        /* \"#utility.yul\":761:762   */\n      dup3\n        /* \"#utility.yul\":757:766   */\n      add\n        /* \"#utility.yul\":750:766   */\n      swap1\n      pop\n        /* \"#utility.yul\":785:788   */\n      dup1\n        /* \"#utility.yul\":782:783   */\n      dup3\n        /* \"#utility.yul\":779:789   */\n      gt\n        /* \"#utility.yul\":776:812   */\n      iszero\n      tag_25\n      jumpi\n        /* \"#utility.yul\":792:810   */\n      tag_26\n      tag_14\n      jump\t// in\n    tag_26:\n        /* \"#utility.yul\":776:812   */\n    tag_25:\n        /* \"#utility.yul\":628:819   */\n      swap3\n      swap2\n      pop\n      pop\n      jump\t// out\n\n    auxdata: 0xa2646970667358221220cd5d904aacb07affc0623cddf7f82d901d9d0b70f01d3757dbd15752af88dd3864736f6c634300081a0033\n}\n",
				"bytecode": {
					"linkReferences": {},
					"object": "608060405260045f5560036001553480156017575f80fd5b50610123806100255f395ff3fe6080604052348015600e575f80fd5b50600436106026575f3560e01c806312ae639714602a575b5f80fd5b60306044565b604051603b9190607d565b60405180910390f35b5f80600290505f5481826056919060c1565b605e919060c1565b90508091505090565b5f819050919050565b6077816067565b82525050565b5f602082019050608e5f8301846070565b92915050565b7f4e487b71000000000000000000000000000000000000000000000000000000005f52601160045260245ffd5b5f60c9826067565b915060d2836067565b925082820190508082111560e75760e66094565b5b9291505056fea2646970667358221220cd5d904aacb07affc0623cddf7f82d901d9d0b70f01d3757dbd15752af88dd3864736f6c634300081a0033",
					"opcodes": "PUSH1 0x80 PUSH1 0x40 MSTORE PUSH1 0x4 PUSH0 SSTORE PUSH1 0x3 PUSH1 0x1 SSTORE CALLVALUE DUP1 ISZERO PUSH1 0x17 JUMPI PUSH0 DUP1 REVERT JUMPDEST POP PUSH2 0x123 DUP1 PUSH2 0x25 PUSH0 CODECOPY PUSH0 RETURN INVALID PUSH1 0x80 PUSH1 0x40 MSTORE CALLVALUE DUP1 ISZERO PUSH1 0xE JUMPI PUSH0 DUP1 REVERT JUMPDEST POP PUSH1 0x4 CALLDATASIZE LT PUSH1 0x26 JUMPI PUSH0 CALLDATALOAD PUSH1 0xE0 SHR DUP1 PUSH4 0x12AE6397 EQ PUSH1 0x2A JUMPI JUMPDEST PUSH0 DUP1 REVERT JUMPDEST PUSH1 0x30 PUSH1 0x44 JUMP JUMPDEST PUSH1 0x40 MLOAD PUSH1 0x3B SWAP2 SWAP1 PUSH1 0x7D JUMP JUMPDEST PUSH1 0x40 MLOAD DUP1 SWAP2 SUB SWAP1 RETURN JUMPDEST PUSH0 DUP1 PUSH1 0x2 SWAP1 POP PUSH0 SLOAD DUP2 DUP3 PUSH1 0x56 SWAP2 SWAP1 PUSH1 0xC1 JUMP JUMPDEST PUSH1 0x5E SWAP2 SWAP1 PUSH1 0xC1 JUMP JUMPDEST SWAP1 POP DUP1 SWAP2 POP POP SWAP1 JUMP JUMPDEST PUSH0 DUP2 SWAP1 POP SWAP2 SWAP1 POP JUMP JUMPDEST PUSH1 0x77 DUP2 PUSH1 0x67 JUMP JUMPDEST DUP3 MSTORE POP POP JUMP JUMPDEST PUSH0 PUSH1 0x20 DUP3 ADD SWAP1 POP PUSH1 0x8E PUSH0 DUP4 ADD DUP5 PUSH1 0x70 JUMP JUMPDEST SWAP3 SWAP2 POP POP JUMP JUMPDEST PUSH32 0x4E487B7100000000000000000000000000000000000000000000000000000000 PUSH0 MSTORE PUSH1 0x11 PUSH1 0x4 MSTORE PUSH1 0x24 PUSH0 REVERT JUMPDEST PUSH0 PUSH1 0xC9 DUP3 PUSH1 0x67 JUMP JUMPDEST SWAP2 POP PUSH1 0xD2 DUP4 PUSH1 0x67 JUMP JUMPDEST SWAP3 POP DUP3 DUP3 ADD SWAP1 POP DUP1 DUP3 GT ISZERO PUSH1 0xE7 JUMPI PUSH1 0xE6 PUSH1 0x94 JUMP JUMPDEST JUMPDEST SWAP3 SWAP2 POP POP JUMP INVALID LOG2 PUSH5 0x6970667358 0x22 SLT KECCAK256 0xCD TSTORE SWAP1 BLOBBASEFEE 0xAC 0xB0 PUSH27 0xFFC0623CDDF7F82D901D9D0B70F01D3757DBD15752AF88DD386473 PUSH16 0x6C634300081A00330000000000000000 "
				},
				"gasEstimates": {
					"creation": {
						"codeDepositCost": "58200",
						"executionCost": "44320",
						"totalCost": "102520"
					},
					"external": {
						"assign()": "infinite"
					}
				},
				"methodIdentifiers": {
					"assign()": "12ae6397"
				}
			},
			"storageLayout": {
				"storage": [
					{
						"astId": 179,
						"contract": "contracts/foundation/8-arithmetic-operators.sol:AssignmentOperator",
						"label": "b",
						"offset": 0,
						"slot": "0",
						"type": "t_uint256"
					},
					{
						"astId": 182,
						"contract": "contracts/foundation/8-arithmetic-operators.sol:AssignmentOperator",
						"label": "a",
						"offset": 0,
						"slot": "1",
						"type": "t_uint256"
					}
				],
				"types": {
					"t_uint256": {
						"encoding": "inplace",
						"label": "uint256",
						"numberOfBytes": "32"
					}
				}
			},
			"userdoc": {
				"kind": "user",
				"methods": {},
				"version": 1
			}
		}
	}
}