{
	"contracts/foundation/8-arithmetic-operators.sol": {
		"Logicaloperators": {
			"abi": [
				{
					"inputs": [],
					"name": "aTimesB",
					"outputs": [
						{
							"internalType": "uint256",
							"name": "",
							"type": "uint256"
						}
					],
					"stateMutability": "view",
					"type": "function"
				},
				{
					"inputs": [],
					"name": "logic",
					"outputs": [
						{
							"internalType": "uint256",
							"name": "",
							"type": "uint256"
						}
					],
					"stateMutability": "view",
					"type": "function"
				}
			],
			"devdoc": {
				"kind": "dev",
				"methods": {},
				"version": 1
			},
			"evm": {
				"assembly": "    /* \"contracts/foundation/8-arithmetic-operators.sol\":1924:2551  contract Logicaloperators {... */\n  mstore(0x40, 0x80)\n    /* \"contracts/foundation/8-arithmetic-operators.sol\":1965:1967  17 */\n  0x11\n    /* \"contracts/foundation/8-arithmetic-operators.sol\":1956:1967  uint a = 17 */\n  0x00\n  sstore\n    /* \"contracts/foundation/8-arithmetic-operators.sol\":1982:1984  32 */\n  0x20\n    /* \"contracts/foundation/8-arithmetic-operators.sol\":1973:1984  uint b = 32 */\n  0x01\n  sstore\n    /* \"contracts/foundation/8-arithmetic-operators.sol\":1924:2551  contract Logicaloperators {... */\n  callvalue\n  dup1\n  iszero\n  tag_1\n  jumpi\n  0x00\n  dup1\n  revert\ntag_1:\n  pop\n  dataSize(sub_0)\n  dup1\n  dataOffset(sub_0)\n  0x00\n  codecopy\n  0x00\n  return\nstop\n\nsub_0: assembly {\n        /* \"contracts/foundation/8-arithmetic-operators.sol\":1924:2551  contract Logicaloperators {... */\n      mstore(0x40, 0x80)\n      callvalue\n      dup1\n      iszero\n      tag_1\n      jumpi\n      0x00\n      dup1\n      revert\n    tag_1:\n      pop\n      jumpi(tag_2, lt(calldatasize, 0x04))\n      shr(0xe0, calldataload(0x00))\n      dup1\n      0xb7ee5dc0\n      eq\n      tag_3\n      jumpi\n      dup1\n      0xd7dfa0dd\n      eq\n      tag_4\n      jumpi\n    tag_2:\n      0x00\n      dup1\n      revert\n        /* \"contracts/foundation/8-arithmetic-operators.sol\":2374:2549  function aTimesB() public view returns(uint){... */\n    tag_3:\n      tag_5\n      tag_6\n      jump\t// in\n    tag_5:\n      mload(0x40)\n      tag_7\n      swap2\n      swap1\n      tag_8\n      jump\t// in\n    tag_7:\n      mload(0x40)\n      dup1\n      swap2\n      sub\n      swap1\n      return\n        /* \"contracts/foundation/8-arithmetic-operators.sol\":1995:2159  function logic() public view returns(uint){... */\n    tag_4:\n      tag_9\n      tag_10\n      jump\t// in\n    tag_9:\n      mload(0x40)\n      tag_11\n      swap2\n      swap1\n      tag_8\n      jump\t// in\n    tag_11:\n      mload(0x40)\n      dup1\n      swap2\n      sub\n      swap1\n      return\n        /* \"contracts/foundation/8-arithmetic-operators.sol\":2374:2549  function aTimesB() public view returns(uint){... */\n    tag_6:\n        /* \"contracts/foundation/8-arithmetic-operators.sol\":2413:2417  uint */\n      0x00\n        /* \"contracts/foundation/8-arithmetic-operators.sol\":2428:2439  uint result */\n      dup1\n        /* \"contracts/foundation/8-arithmetic-operators.sol\":2442:2443  0 */\n      0x00\n        /* \"contracts/foundation/8-arithmetic-operators.sol\":2428:2443  uint result = 0 */\n      swap1\n      pop\n        /* \"contracts/foundation/8-arithmetic-operators.sol\":2469:2470  b */\n      sload(0x01)\n        /* \"contracts/foundation/8-arithmetic-operators.sol\":2465:2466  a */\n      sload(0x00)\n        /* \"contracts/foundation/8-arithmetic-operators.sol\":2465:2470  a < b */\n      lt\n        /* \"contracts/foundation/8-arithmetic-operators.sol\":2465:2480  a < b && a != b */\n      dup1\n      iszero\n      tag_13\n      jumpi\n      pop\n        /* \"contracts/foundation/8-arithmetic-operators.sol\":2479:2480  b */\n      sload(0x01)\n        /* \"contracts/foundation/8-arithmetic-operators.sol\":2474:2475  a */\n      sload(0x00)\n        /* \"contracts/foundation/8-arithmetic-operators.sol\":2474:2480  a != b */\n      eq\n      iszero\n        /* \"contracts/foundation/8-arithmetic-operators.sol\":2465:2480  a < b && a != b */\n    tag_13:\n        /* \"contracts/foundation/8-arithmetic-operators.sol\":2462:2520  if(a < b && a != b){... */\n      iszero\n      tag_14\n      jumpi\n        /* \"contracts/foundation/8-arithmetic-operators.sol\":2508:2509  b */\n      sload(0x01)\n        /* \"contracts/foundation/8-arithmetic-operators.sol\":2504:2505  a */\n      sload(0x00)\n        /* \"contracts/foundation/8-arithmetic-operators.sol\":2504:2509  a * b */\n      tag_15\n      swap2\n      swap1\n      tag_16\n      jump\t// in\n    tag_15:\n        /* \"contracts/foundation/8-arithmetic-operators.sol\":2495:2509  result = a * b */\n      swap1\n      pop\n        /* \"contracts/foundation/8-arithmetic-operators.sol\":2462:2520  if(a < b && a != b){... */\n    tag_14:\n        /* \"contracts/foundation/8-arithmetic-operators.sol\":2536:2542  result */\n      dup1\n        /* \"contracts/foundation/8-arithmetic-operators.sol\":2529:2542  return result */\n      swap2\n      pop\n      pop\n        /* \"contracts/foundation/8-arithmetic-operators.sol\":2374:2549  function aTimesB() public view returns(uint){... */\n      swap1\n      jump\t// out\n        /* \"contracts/foundation/8-arithmetic-operators.sol\":1995:2159  function logic() public view returns(uint){... */\n    tag_10:\n        /* \"contracts/foundation/8-arithmetic-operators.sol\":2032:2036  uint */\n      0x00\n        /* \"contracts/foundation/8-arithmetic-operators.sol\":2047:2058  uint result */\n      dup1\n        /* \"contracts/foundation/8-arithmetic-operators.sol\":2061:2062  0 */\n      0x00\n        /* \"contracts/foundation/8-arithmetic-operators.sol\":2047:2062  uint result = 0 */\n      swap1\n      pop\n        /* \"contracts/foundation/8-arithmetic-operators.sol\":2079:2080  b */\n      sload(0x01)\n        /* \"contracts/foundation/8-arithmetic-operators.sol\":2075:2076  a */\n      sload(0x00)\n        /* \"contracts/foundation/8-arithmetic-operators.sol\":2075:2080  a < b */\n      lt\n        /* \"contracts/foundation/8-arithmetic-operators.sol\":2075:2090  a < b && a == 4 */\n      dup1\n      iszero\n      tag_18\n      jumpi\n      pop\n        /* \"contracts/foundation/8-arithmetic-operators.sol\":2089:2090  4 */\n      0x04\n        /* \"contracts/foundation/8-arithmetic-operators.sol\":2084:2085  a */\n      sload(0x00)\n        /* \"contracts/foundation/8-arithmetic-operators.sol\":2084:2090  a == 4 */\n      eq\n        /* \"contracts/foundation/8-arithmetic-operators.sol\":2075:2090  a < b && a == 4 */\n    tag_18:\n        /* \"contracts/foundation/8-arithmetic-operators.sol\":2072:2130  if(a < b && a == 4){... */\n      iszero\n      tag_19\n      jumpi\n        /* \"contracts/foundation/8-arithmetic-operators.sol\":2118:2119  b */\n      sload(0x01)\n        /* \"contracts/foundation/8-arithmetic-operators.sol\":2114:2115  a */\n      sload(0x00)\n        /* \"contracts/foundation/8-arithmetic-operators.sol\":2114:2119  a + b */\n      tag_20\n      swap2\n      swap1\n      tag_21\n      jump\t// in\n    tag_20:\n        /* \"contracts/foundation/8-arithmetic-operators.sol\":2105:2119  result = a + b */\n      swap1\n      pop\n        /* \"contracts/foundation/8-arithmetic-operators.sol\":2072:2130  if(a < b && a == 4){... */\n    tag_19:\n        /* \"contracts/foundation/8-arithmetic-operators.sol\":2146:2152  result */\n      dup1\n        /* \"contracts/foundation/8-arithmetic-operators.sol\":2139:2152  return result */\n      swap2\n      pop\n      pop\n        /* \"contracts/foundation/8-arithmetic-operators.sol\":1995:2159  function logic() public view returns(uint){... */\n      swap1\n      jump\t// out\n        /* \"#utility.yul\":7:84   */\n    tag_22:\n        /* \"#utility.yul\":44:51   */\n      0x00\n        /* \"#utility.yul\":73:78   */\n      dup2\n        /* \"#utility.yul\":62:78   */\n      swap1\n      pop\n        /* \"#utility.yul\":7:84   */\n      swap2\n      swap1\n      pop\n      jump\t// out\n        /* \"#utility.yul\":90:208   */\n    tag_23:\n        /* \"#utility.yul\":177:201   */\n      tag_28\n        /* \"#utility.yul\":195:200   */\n      dup2\n        /* \"#utility.yul\":177:201   */\n      tag_22\n      jump\t// in\n    tag_28:\n        /* \"#utility.yul\":172:175   */\n      dup3\n        /* \"#utility.yul\":165:202   */\n      mstore\n        /* \"#utility.yul\":90:208   */\n      pop\n      pop\n      jump\t// out\n        /* \"#utility.yul\":214:436   */\n    tag_8:\n        /* \"#utility.yul\":307:311   */\n      0x00\n        /* \"#utility.yul\":345:347   */\n      0x20\n        /* \"#utility.yul\":334:343   */\n      dup3\n        /* \"#utility.yul\":330:348   */\n      add\n        /* \"#utility.yul\":322:348   */\n      swap1\n      pop\n        /* \"#utility.yul\":358:429   */\n      tag_30\n        /* \"#utility.yul\":426:427   */\n      0x00\n        /* \"#utility.yul\":415:424   */\n      dup4\n        /* \"#utility.yul\":411:428   */\n      add\n        /* \"#utility.yul\":402:408   */\n      dup5\n        /* \"#utility.yul\":358:429   */\n      tag_23\n      jump\t// in\n    tag_30:\n        /* \"#utility.yul\":214:436   */\n      swap3\n      swap2\n      pop\n      pop\n      jump\t// out\n        /* \"#utility.yul\":442:622   */\n    tag_24:\n        /* \"#utility.yul\":490:567   */\n      0x4e487b7100000000000000000000000000000000000000000000000000000000\n        /* \"#utility.yul\":487:488   */\n      0x00\n        /* \"#utility.yul\":480:568   */\n      mstore\n        /* \"#utility.yul\":587:591   */\n      0x11\n        /* \"#utility.yul\":584:585   */\n      0x04\n        /* \"#utility.yul\":577:592   */\n      mstore\n        /* \"#utility.yul\":611:615   */\n      0x24\n        /* \"#utility.yul\":608:609   */\n      0x00\n        /* \"#utility.yul\":601:616   */\n      revert\n        /* \"#utility.yul\":628:1038   */\n    tag_16:\n        /* \"#utility.yul\":668:675   */\n      0x00\n        /* \"#utility.yul\":691:711   */\n      tag_33\n        /* \"#utility.yul\":709:710   */\n      dup3\n        /* \"#utility.yul\":691:711   */\n      tag_22\n      jump\t// in\n    tag_33:\n        /* \"#utility.yul\":686:711   */\n      swap2\n      pop\n        /* \"#utility.yul\":725:745   */\n      tag_34\n        /* \"#utility.yul\":743:744   */\n      dup4\n        /* \"#utility.yul\":725:745   */\n      tag_22\n      jump\t// in\n    tag_34:\n        /* \"#utility.yul\":720:745   */\n      swap3\n      pop\n        /* \"#utility.yul\":780:781   */\n      dup3\n        /* \"#utility.yul\":777:778   */\n      dup3\n        /* \"#utility.yul\":773:782   */\n      mul\n        /* \"#utility.yul\":802:832   */\n      tag_35\n        /* \"#utility.yul\":820:831   */\n      dup2\n        /* \"#utility.yul\":802:832   */\n      tag_22\n      jump\t// in\n    tag_35:\n        /* \"#utility.yul\":791:832   */\n      swap2\n      pop\n        /* \"#utility.yul\":981:982   */\n      dup3\n        /* \"#utility.yul\":972:979   */\n      dup3\n        /* \"#utility.yul\":968:983   */\n      div\n        /* \"#utility.yul\":965:966   */\n      dup5\n        /* \"#utility.yul\":962:984   */\n      eq\n        /* \"#utility.yul\":942:943   */\n      dup4\n        /* \"#utility.yul\":935:944   */\n      iszero\n        /* \"#utility.yul\":915:998   */\n      or\n        /* \"#utility.yul\":892:1031   */\n      tag_36\n      jumpi\n        /* \"#utility.yul\":1011:1029   */\n      tag_37\n      tag_24\n      jump\t// in\n    tag_37:\n        /* \"#utility.yul\":892:1031   */\n    tag_36:\n        /* \"#utility.yul\":676:1038   */\n      pop\n        /* \"#utility.yul\":628:1038   */\n      swap3\n      swap2\n      pop\n      pop\n      jump\t// out\n        /* \"#utility.yul\":1044:1235   */\n    tag_21:\n        /* \"#utility.yul\":1084:1087   */\n      0x00\n        /* \"#utility.yul\":1103:1123   */\n      tag_39\n        /* \"#utility.yul\":1121:1122   */\n      dup3\n        /* \"#utility.yul\":1103:1123   */\n      tag_22\n      jump\t// in\n    tag_39:\n        /* \"#utility.yul\":1098:1123   */\n      swap2\n      pop\n        /* \"#utility.yul\":1137:1157   */\n      tag_40\n        /* \"#utility.yul\":1155:1156   */\n      dup4\n        /* \"#utility.yul\":1137:1157   */\n      tag_22\n      jump\t// in\n    tag_40:\n        /* \"#utility.yul\":1132:1157   */\n      swap3\n      pop\n        /* \"#utility.yul\":1180:1181   */\n      dup3\n        /* \"#utility.yul\":1177:1178   */\n      dup3\n        /* \"#utility.yul\":1173:1182   */\n      add\n        /* \"#utility.yul\":1166:1182   */\n      swap1\n      pop\n        /* \"#utility.yul\":1201:1204   */\n      dup1\n        /* \"#utility.yul\":1198:1199   */\n      dup3\n        /* \"#utility.yul\":1195:1205   */\n      gt\n        /* \"#utility.yul\":1192:1228   */\n      iszero\n      tag_41\n      jumpi\n        /* \"#utility.yul\":1208:1226   */\n      tag_42\n      tag_24\n      jump\t// in\n    tag_42:\n        /* \"#utility.yul\":1192:1228   */\n    tag_41:\n        /* \"#utility.yul\":1044:1235   */\n      swap3\n      swap2\n      pop\n      pop\n      jump\t// out\n\n    auxdata: 0xa2646970667358221220a0c9b9c29c954d1dc12029b10a8ac5adc878441d192b511050f6ab8da2d1243464736f6c634300081a0033\n}\n",
				"bytecode": {
					"linkReferences": {},
					"object": "608060405260115f5560206001553480156017575f80fd5b506101ea806100255f395ff3fe608060405234801561000f575f80fd5b5060043610610034575f3560e01c8063b7ee5dc014610038578063d7dfa0dd14610056575b5f80fd5b610040610074565b60405161004d91906100fa565b60405180910390f35b61005e6100ac565b60405161006b91906100fa565b60405180910390f35b5f805f90506001545f5410801561008e57506001545f5414155b156100a5576001545f546100a29190610140565b90505b8091505090565b5f805f90506001545f541080156100c4575060045f54145b156100db576001545f546100d89190610181565b90505b8091505090565b5f819050919050565b6100f4816100e2565b82525050565b5f60208201905061010d5f8301846100eb565b92915050565b7f4e487b71000000000000000000000000000000000000000000000000000000005f52601160045260245ffd5b5f61014a826100e2565b9150610155836100e2565b9250828202610163816100e2565b9150828204841483151761017a57610179610113565b5b5092915050565b5f61018b826100e2565b9150610196836100e2565b92508282019050808211156101ae576101ad610113565b5b9291505056fea2646970667358221220a0c9b9c29c954d1dc12029b10a8ac5adc878441d192b511050f6ab8da2d1243464736f6c634300081a0033",
					"opcodes": "PUSH1 0x80 PUSH1 0x40 MSTORE PUSH1 0x11 PUSH0 SSTORE PUSH1 0x20 PUSH1 0x1 SSTORE CALLVALUE DUP1 ISZERO PUSH1 0x17 JUMPI PUSH0 DUP1 REVERT JUMPDEST POP PUSH2 0x1EA DUP1 PUSH2 0x25 PUSH0 CODECOPY PUSH0 RETURN INVALID PUSH1 0x80 PUSH1 0x40 MSTORE CALLVALUE DUP1 ISZERO PUSH2 0xF JUMPI PUSH0 DUP1 REVERT JUMPDEST POP PUSH1 0x4 CALLDATASIZE LT PUSH2 0x34 JUMPI PUSH0 CALLDATALOAD PUSH1 0xE0 SHR DUP1 PUSH4 0xB7EE5DC0 EQ PUSH2 0x38 JUMPI DUP1 PUSH4 0xD7DFA0DD EQ PUSH2 0x56 JUMPI JUMPDEST PUSH0 DUP1 REVERT JUMPDEST PUSH2 0x40 PUSH2 0x74 JUMP JUMPDEST PUSH1 0x40 MLOAD PUSH2 0x4D SWAP2 SWAP1 PUSH2 0xFA JUMP JUMPDEST PUSH1 0x40 MLOAD DUP1 SWAP2 SUB SWAP1 RETURN JUMPDEST PUSH2 0x5E PUSH2 0xAC JUMP JUMPDEST PUSH1 0x40 MLOAD PUSH2 0x6B SWAP2 SWAP1 PUSH2 0xFA JUMP JUMPDEST PUSH1 0x40 MLOAD DUP1 SWAP2 SUB SWAP1 RETURN JUMPDEST PUSH0 DUP1 PUSH0 SWAP1 POP PUSH1 0x1 SLOAD PUSH0 SLOAD LT DUP1 ISZERO PUSH2 0x8E JUMPI POP PUSH1 0x1 SLOAD PUSH0 SLOAD EQ ISZERO JUMPDEST ISZERO PUSH2 0xA5 JUMPI PUSH1 0x1 SLOAD PUSH0 SLOAD PUSH2 0xA2 SWAP2 SWAP1 PUSH2 0x140 JUMP JUMPDEST SWAP1 POP JUMPDEST DUP1 SWAP2 POP POP SWAP1 JUMP JUMPDEST PUSH0 DUP1 PUSH0 SWAP1 POP PUSH1 0x1 SLOAD PUSH0 SLOAD LT DUP1 ISZERO PUSH2 0xC4 JUMPI POP PUSH1 0x4 PUSH0 SLOAD EQ JUMPDEST ISZERO PUSH2 0xDB JUMPI PUSH1 0x1 SLOAD PUSH0 SLOAD PUSH2 0xD8 SWAP2 SWAP1 PUSH2 0x181 JUMP JUMPDEST SWAP1 POP JUMPDEST DUP1 SWAP2 POP POP SWAP1 JUMP JUMPDEST PUSH0 DUP2 SWAP1 POP SWAP2 SWAP1 POP JUMP JUMPDEST PUSH2 0xF4 DUP2 PUSH2 0xE2 JUMP JUMPDEST DUP3 MSTORE POP POP JUMP JUMPDEST PUSH0 PUSH1 0x20 DUP3 ADD SWAP1 POP PUSH2 0x10D PUSH0 DUP4 ADD DUP5 PUSH2 0xEB JUMP JUMPDEST SWAP3 SWAP2 POP POP JUMP JUMPDEST PUSH32 0x4E487B7100000000000000000000000000000000000000000000000000000000 PUSH0 MSTORE PUSH1 0x11 PUSH1 0x4 MSTORE PUSH1 0x24 PUSH0 REVERT JUMPDEST PUSH0 PUSH2 0x14A DUP3 PUSH2 0xE2 JUMP JUMPDEST SWAP2 POP PUSH2 0x155 DUP4 PUSH2 0xE2 JUMP JUMPDEST SWAP3 POP DUP3 DUP3 MUL PUSH2 0x163 DUP2 PUSH2 0xE2 JUMP JUMPDEST SWAP2 POP DUP3 DUP3 DIV DUP5 EQ DUP4 ISZERO OR PUSH2 0x17A JUMPI PUSH2 0x179 PUSH2 0x113 JUMP JUMPDEST JUMPDEST POP SWAP3 SWAP2 POP POP JUMP JUMPDEST PUSH0 PUSH2 0x18B DUP3 PUSH2 0xE2 JUMP JUMPDEST SWAP2 POP PUSH2 0x196 DUP4 PUSH2 0xE2 JUMP JUMPDEST SWAP3 POP DUP3 DUP3 ADD SWAP1 POP DUP1 DUP3 GT ISZERO PUSH2 0x1AE JUMPI PUSH2 0x1AD PUSH2 0x113 JUMP JUMPDEST JUMPDEST SWAP3 SWAP2 POP POP JUMP INVALID LOG2 PUSH5 0x6970667358 0x22 SLT KECCAK256 LOG0 0xC9 0xB9 0xC2 SWAP13 SWAP6 0x4D SAR 0xC1 KECCAK256 0x29 0xB1 EXP DUP11 0xC5 0xAD 0xC8 PUSH25 0x441D192B511050F6AB8DA2D1243464736F6C634300081A0033 "
				},
				"gasEstimates": {
					"creation": {
						"codeDepositCost": "98000",
						"executionCost": "44356",
						"totalCost": "142356"
					},
					"external": {
						"aTimesB()": "infinite",
						"logic()": "infinite"
					}
				},
				"methodIdentifiers": {
					"aTimesB()": "b7ee5dc0",
					"logic()": "d7dfa0dd"
				}
			},
			"storageLayout": {
				"storage": [
					{
						"astId": 118,
						"contract": "contracts/foundation/8-arithmetic-operators.sol:Logicaloperators",
						"label": "a",
						"offset": 0,
						"slot": "0",
						"type": "t_uint256"
					},
					{
						"astId": 121,
						"contract": "contracts/foundation/8-arithmetic-operators.sol:Logicaloperators",
						"label": "b",
						"offset": 0,
						"slot": "1",
						"type": "t_uint256"
					}
				],
				"types": {
					"t_uint256": {
						"encoding": "inplace",
						"label": "uint256",
						"numberOfBytes": "32"
					}
				}
			},
			"userdoc": {
				"kind": "user",
				"methods": {},
				"version": 1
			}
		}
	}
}