{
	"contracts/foundation/5-functions.sol": {
		"learnFunctions": {
			"abi": [
				{
					"inputs": [],
					"name": "addNewValues",
					"outputs": [
						{
							"internalType": "uint256",
							"name": "",
							"type": "uint256"
						}
					],
					"stateMutability": "view",
					"type": "function"
				},
				{
					"inputs": [],
					"name": "addValues",
					"outputs": [
						{
							"internalType": "uint256",
							"name": "",
							"type": "uint256"
						}
					],
					"stateMutability": "pure",
					"type": "function"
				},
				{
					"inputs": [
						{
							"internalType": "uint256",
							"name": "numA",
							"type": "uint256"
						},
						{
							"internalType": "uint256",
							"name": "numB",
							"type": "uint256"
						}
					],
					"name": "divideCalculator",
					"outputs": [
						{
							"internalType": "uint256",
							"name": "",
							"type": "uint256"
						}
					],
					"stateMutability": "pure",
					"type": "function"
				},
				{
					"inputs": [
						{
							"internalType": "uint256",
							"name": "numA",
							"type": "uint256"
						},
						{
							"internalType": "uint256",
							"name": "numB",
							"type": "uint256"
						}
					],
					"name": "multiplyCalculator",
					"outputs": [
						{
							"internalType": "uint256",
							"name": "",
							"type": "uint256"
						}
					],
					"stateMutability": "pure",
					"type": "function"
				},
				{
					"inputs": [
						{
							"internalType": "bool",
							"name": "closedDoor",
							"type": "bool"
						}
					],
					"name": "remoteControlOpen",
					"outputs": [],
					"stateMutability": "nonpayable",
					"type": "function"
				}
			],
			"devdoc": {
				"kind": "dev",
				"methods": {},
				"version": 1
			},
			"evm": {
				"assembly": "    /* \"contracts/foundation/5-functions.sol\":602:2286  contract learnFunctions{... */\n  mstore(0x40, 0x80)\n    /* \"contracts/foundation/5-functions.sol\":897:899  45 */\n  0x2d\n    /* \"contracts/foundation/5-functions.sol\":888:899  uint a = 45 */\n  0x00\n  sstore\n    /* \"contracts/foundation/5-functions.sol\":602:2286  contract learnFunctions{... */\n  callvalue\n  dup1\n  iszero\n  tag_1\n  jumpi\n  revert(0x00, 0x00)\ntag_1:\n  pop\n  dataSize(sub_0)\n  dup1\n  dataOffset(sub_0)\n  0x00\n  codecopy\n  0x00\n  return\nstop\n\nsub_0: assembly {\n        /* \"contracts/foundation/5-functions.sol\":602:2286  contract learnFunctions{... */\n      mstore(0x40, 0x80)\n      callvalue\n      dup1\n      iszero\n      tag_1\n      jumpi\n      revert(0x00, 0x00)\n    tag_1:\n      pop\n      jumpi(tag_2, lt(calldatasize, 0x04))\n      shr(0xe0, calldataload(0x00))\n      dup1\n      0x166e7bdd\n      eq\n      tag_3\n      jumpi\n      dup1\n      0x273d1a3e\n      eq\n      tag_4\n      jumpi\n      dup1\n      0xbd2ec67d\n      eq\n      tag_5\n      jumpi\n      dup1\n      0xde1126f6\n      eq\n      tag_6\n      jumpi\n      dup1\n      0xe581bdca\n      eq\n      tag_7\n      jumpi\n    tag_2:\n      revert(0x00, 0x00)\n        /* \"contracts/foundation/5-functions.sol\":964:1275  function addValues() public pure returns(uint256){... */\n    tag_3:\n      tag_8\n      tag_9\n      jump\t// in\n    tag_8:\n      mload(0x40)\n      tag_10\n      swap2\n      swap1\n      tag_11\n      jump\t// in\n    tag_10:\n      mload(0x40)\n      dup1\n      swap2\n      sub\n      swap1\n      return\n        /* \"contracts/foundation/5-functions.sol\":717:828  function remoteControlOpen(bool closedDoor) public {... */\n    tag_4:\n      tag_12\n      0x04\n      dup1\n      calldatasize\n      sub\n      dup2\n      add\n      swap1\n      tag_13\n      swap2\n      swap1\n      tag_14\n      jump\t// in\n    tag_13:\n      tag_15\n      jump\t// in\n    tag_12:\n      stop\n        /* \"contracts/foundation/5-functions.sol\":1642:1781  function divideCalculator(uint numA , uint numB) public pure returns(uint){... */\n    tag_5:\n      tag_16\n      0x04\n      dup1\n      calldatasize\n      sub\n      dup2\n      add\n      swap1\n      tag_17\n      swap2\n      swap1\n      tag_18\n      jump\t// in\n    tag_17:\n      tag_19\n      jump\t// in\n    tag_16:\n      mload(0x40)\n      tag_20\n      swap2\n      swap1\n      tag_11\n      jump\t// in\n    tag_20:\n      mload(0x40)\n      dup1\n      swap2\n      sub\n      swap1\n      return\n        /* \"contracts/foundation/5-functions.sol\":1495:1636  function multiplyCalculator(uint numA , uint numB) public pure returns(uint){... */\n    tag_6:\n      tag_21\n      0x04\n      dup1\n      calldatasize\n      sub\n      dup2\n      add\n      swap1\n      tag_22\n      swap2\n      swap1\n      tag_18\n      jump\t// in\n    tag_22:\n      tag_23\n      jump\t// in\n    tag_21:\n      mload(0x40)\n      tag_24\n      swap2\n      swap1\n      tag_11\n      jump\t// in\n    tag_24:\n      mload(0x40)\n      dup1\n      swap2\n      sub\n      swap1\n      return\n        /* \"contracts/foundation/5-functions.sol\":1360:1489  function addNewValues() public view returns (uint){... */\n    tag_7:\n      tag_25\n      tag_26\n      jump\t// in\n    tag_25:\n      mload(0x40)\n      tag_27\n      swap2\n      swap1\n      tag_11\n      jump\t// in\n    tag_27:\n      mload(0x40)\n      dup1\n      swap2\n      sub\n      swap1\n      return\n        /* \"contracts/foundation/5-functions.sol\":964:1275  function addValues() public pure returns(uint256){... */\n    tag_9:\n        /* \"contracts/foundation/5-functions.sol\":1005:1012  uint256 */\n      0x00\n        /* \"contracts/foundation/5-functions.sol\":1183:1189  uint a */\n      0x00\n        /* \"contracts/foundation/5-functions.sol\":1192:1193  2 */\n      0x02\n        /* \"contracts/foundation/5-functions.sol\":1183:1193  uint a = 2 */\n      swap1\n      pop\n        /* \"contracts/foundation/5-functions.sol\":1203:1209  uint b */\n      0x00\n        /* \"contracts/foundation/5-functions.sol\":1212:1213  3 */\n      0x03\n        /* \"contracts/foundation/5-functions.sol\":1203:1213  uint b = 3 */\n      swap1\n      pop\n        /* \"contracts/foundation/5-functions.sol\":1223:1234  uint result */\n      0x00\n        /* \"contracts/foundation/5-functions.sol\":1239:1240  b */\n      dup2\n        /* \"contracts/foundation/5-functions.sol\":1237:1238  a */\n      dup4\n        /* \"contracts/foundation/5-functions.sol\":1237:1240  a+b */\n      tag_29\n      swap2\n      swap1\n      tag_30\n      jump\t// in\n    tag_29:\n        /* \"contracts/foundation/5-functions.sol\":1223:1240  uint result = a+b */\n      swap1\n      pop\n        /* \"contracts/foundation/5-functions.sol\":1257:1263  result */\n      dup1\n        /* \"contracts/foundation/5-functions.sol\":1250:1263  return result */\n      swap4\n      pop\n      pop\n      pop\n      pop\n        /* \"contracts/foundation/5-functions.sol\":964:1275  function addValues() public pure returns(uint256){... */\n      swap1\n      jump\t// out\n        /* \"contracts/foundation/5-functions.sol\":717:828  function remoteControlOpen(bool closedDoor) public {... */\n    tag_15:\n      pop\n      jump\t// out\n        /* \"contracts/foundation/5-functions.sol\":1642:1781  function divideCalculator(uint numA , uint numB) public pure returns(uint){... */\n    tag_19:\n        /* \"contracts/foundation/5-functions.sol\":1711:1715  uint */\n      0x00\n        /* \"contracts/foundation/5-functions.sol\":1726:1737  uint result */\n      0x00\n        /* \"contracts/foundation/5-functions.sol\":1747:1751  numB */\n      dup3\n        /* \"contracts/foundation/5-functions.sol\":1740:1744  numA */\n      dup5\n        /* \"contracts/foundation/5-functions.sol\":1740:1751  numA / numB */\n      tag_33\n      swap2\n      swap1\n      tag_34\n      jump\t// in\n    tag_33:\n        /* \"contracts/foundation/5-functions.sol\":1726:1751  uint result = numA / numB */\n      swap1\n      pop\n        /* \"contracts/foundation/5-functions.sol\":1768:1774  result */\n      dup1\n        /* \"contracts/foundation/5-functions.sol\":1761:1774  return result */\n      swap2\n      pop\n      pop\n        /* \"contracts/foundation/5-functions.sol\":1642:1781  function divideCalculator(uint numA , uint numB) public pure returns(uint){... */\n      swap3\n      swap2\n      pop\n      pop\n      jump\t// out\n        /* \"contracts/foundation/5-functions.sol\":1495:1636  function multiplyCalculator(uint numA , uint numB) public pure returns(uint){... */\n    tag_23:\n        /* \"contracts/foundation/5-functions.sol\":1566:1570  uint */\n      0x00\n        /* \"contracts/foundation/5-functions.sol\":1581:1592  uint result */\n      0x00\n        /* \"contracts/foundation/5-functions.sol\":1602:1606  numB */\n      dup3\n        /* \"contracts/foundation/5-functions.sol\":1595:1599  numA */\n      dup5\n        /* \"contracts/foundation/5-functions.sol\":1595:1606  numA * numB */\n      tag_36\n      swap2\n      swap1\n      tag_37\n      jump\t// in\n    tag_36:\n        /* \"contracts/foundation/5-functions.sol\":1581:1606  uint result = numA * numB */\n      swap1\n      pop\n        /* \"contracts/foundation/5-functions.sol\":1623:1629  result */\n      dup1\n        /* \"contracts/foundation/5-functions.sol\":1616:1629  return result */\n      swap2\n      pop\n      pop\n        /* \"contracts/foundation/5-functions.sol\":1495:1636  function multiplyCalculator(uint numA , uint numB) public pure returns(uint){... */\n      swap3\n      swap2\n      pop\n      pop\n      jump\t// out\n        /* \"contracts/foundation/5-functions.sol\":1360:1489  function addNewValues() public view returns (uint){... */\n    tag_26:\n        /* \"contracts/foundation/5-functions.sol\":1405:1409  uint */\n      0x00\n        /* \"contracts/foundation/5-functions.sol\":1420:1426  uint b */\n      0x00\n        /* \"contracts/foundation/5-functions.sol\":1429:1430  5 */\n      0x05\n        /* \"contracts/foundation/5-functions.sol\":1420:1430  uint b = 5 */\n      swap1\n      pop\n        /* \"contracts/foundation/5-functions.sol\":1440:1451  uint result */\n      0x00\n        /* \"contracts/foundation/5-functions.sol\":1458:1459  b */\n      dup2\n        /* \"contracts/foundation/5-functions.sol\":1454:1455  a */\n      sload(0x00)\n        /* \"contracts/foundation/5-functions.sol\":1454:1459  a + b */\n      tag_39\n      swap2\n      swap1\n      tag_30\n      jump\t// in\n    tag_39:\n        /* \"contracts/foundation/5-functions.sol\":1440:1459  uint result = a + b */\n      swap1\n      pop\n        /* \"contracts/foundation/5-functions.sol\":1476:1482  result */\n      dup1\n        /* \"contracts/foundation/5-functions.sol\":1469:1482  return result */\n      swap3\n      pop\n      pop\n      pop\n        /* \"contracts/foundation/5-functions.sol\":1360:1489  function addNewValues() public view returns (uint){... */\n      swap1\n      jump\t// out\n        /* \"#utility.yul\":7:84   */\n    tag_40:\n        /* \"#utility.yul\":44:51   */\n      0x00\n        /* \"#utility.yul\":73:78   */\n      dup2\n        /* \"#utility.yul\":62:78   */\n      swap1\n      pop\n        /* \"#utility.yul\":7:84   */\n      swap2\n      swap1\n      pop\n      jump\t// out\n        /* \"#utility.yul\":90:208   */\n    tag_41:\n        /* \"#utility.yul\":177:201   */\n      tag_55\n        /* \"#utility.yul\":195:200   */\n      dup2\n        /* \"#utility.yul\":177:201   */\n      tag_40\n      jump\t// in\n    tag_55:\n        /* \"#utility.yul\":172:175   */\n      dup3\n        /* \"#utility.yul\":165:202   */\n      mstore\n        /* \"#utility.yul\":90:208   */\n      pop\n      pop\n      jump\t// out\n        /* \"#utility.yul\":214:436   */\n    tag_11:\n        /* \"#utility.yul\":307:311   */\n      0x00\n        /* \"#utility.yul\":345:347   */\n      0x20\n        /* \"#utility.yul\":334:343   */\n      dup3\n        /* \"#utility.yul\":330:348   */\n      add\n        /* \"#utility.yul\":322:348   */\n      swap1\n      pop\n        /* \"#utility.yul\":358:429   */\n      tag_57\n        /* \"#utility.yul\":426:427   */\n      0x00\n        /* \"#utility.yul\":415:424   */\n      dup4\n        /* \"#utility.yul\":411:428   */\n      add\n        /* \"#utility.yul\":402:408   */\n      dup5\n        /* \"#utility.yul\":358:429   */\n      tag_41\n      jump\t// in\n    tag_57:\n        /* \"#utility.yul\":214:436   */\n      swap3\n      swap2\n      pop\n      pop\n      jump\t// out\n        /* \"#utility.yul\":523:640   */\n    tag_43:\n        /* \"#utility.yul\":632:633   */\n      0x00\n        /* \"#utility.yul\":629:630   */\n      0x00\n        /* \"#utility.yul\":622:634   */\n      revert\n        /* \"#utility.yul\":769:859   */\n    tag_45:\n        /* \"#utility.yul\":803:810   */\n      0x00\n        /* \"#utility.yul\":846:851   */\n      dup2\n        /* \"#utility.yul\":839:852   */\n      iszero\n        /* \"#utility.yul\":832:853   */\n      iszero\n        /* \"#utility.yul\":821:853   */\n      swap1\n      pop\n        /* \"#utility.yul\":769:859   */\n      swap2\n      swap1\n      pop\n      jump\t// out\n        /* \"#utility.yul\":865:981   */\n    tag_46:\n        /* \"#utility.yul\":935:956   */\n      tag_63\n        /* \"#utility.yul\":950:955   */\n      dup2\n        /* \"#utility.yul\":935:956   */\n      tag_45\n      jump\t// in\n    tag_63:\n        /* \"#utility.yul\":928:933   */\n      dup2\n        /* \"#utility.yul\":925:957   */\n      eq\n        /* \"#utility.yul\":915:975   */\n      tag_64\n      jumpi\n        /* \"#utility.yul\":971:972   */\n      0x00\n        /* \"#utility.yul\":968:969   */\n      0x00\n        /* \"#utility.yul\":961:973   */\n      revert\n        /* \"#utility.yul\":915:975   */\n    tag_64:\n        /* \"#utility.yul\":865:981   */\n      pop\n      jump\t// out\n        /* \"#utility.yul\":987:1120   */\n    tag_47:\n        /* \"#utility.yul\":1030:1035   */\n      0x00\n        /* \"#utility.yul\":1068:1074   */\n      dup2\n        /* \"#utility.yul\":1055:1075   */\n      calldataload\n        /* \"#utility.yul\":1046:1075   */\n      swap1\n      pop\n        /* \"#utility.yul\":1084:1114   */\n      tag_66\n        /* \"#utility.yul\":1108:1113   */\n      dup2\n        /* \"#utility.yul\":1084:1114   */\n      tag_46\n      jump\t// in\n    tag_66:\n        /* \"#utility.yul\":987:1120   */\n      swap3\n      swap2\n      pop\n      pop\n      jump\t// out\n        /* \"#utility.yul\":1126:1449   */\n    tag_14:\n        /* \"#utility.yul\":1182:1188   */\n      0x00\n        /* \"#utility.yul\":1231:1233   */\n      0x20\n        /* \"#utility.yul\":1219:1228   */\n      dup3\n        /* \"#utility.yul\":1210:1217   */\n      dup5\n        /* \"#utility.yul\":1206:1229   */\n      sub\n        /* \"#utility.yul\":1202:1234   */\n      slt\n        /* \"#utility.yul\":1199:1318   */\n      iszero\n      tag_68\n      jumpi\n        /* \"#utility.yul\":1237:1316   */\n      tag_69\n      tag_43\n      jump\t// in\n    tag_69:\n        /* \"#utility.yul\":1199:1318   */\n    tag_68:\n        /* \"#utility.yul\":1357:1358   */\n      0x00\n        /* \"#utility.yul\":1382:1432   */\n      tag_70\n        /* \"#utility.yul\":1424:1431   */\n      dup5\n        /* \"#utility.yul\":1415:1421   */\n      dup3\n        /* \"#utility.yul\":1404:1413   */\n      dup6\n        /* \"#utility.yul\":1400:1422   */\n      add\n        /* \"#utility.yul\":1382:1432   */\n      tag_47\n      jump\t// in\n    tag_70:\n        /* \"#utility.yul\":1372:1432   */\n      swap2\n      pop\n        /* \"#utility.yul\":1328:1442   */\n      pop\n        /* \"#utility.yul\":1126:1449   */\n      swap3\n      swap2\n      pop\n      pop\n      jump\t// out\n        /* \"#utility.yul\":1455:1577   */\n    tag_48:\n        /* \"#utility.yul\":1528:1552   */\n      tag_72\n        /* \"#utility.yul\":1546:1551   */\n      dup2\n        /* \"#utility.yul\":1528:1552   */\n      tag_40\n      jump\t// in\n    tag_72:\n        /* \"#utility.yul\":1521:1526   */\n      dup2\n        /* \"#utility.yul\":1518:1553   */\n      eq\n        /* \"#utility.yul\":1508:1571   */\n      tag_73\n      jumpi\n        /* \"#utility.yul\":1567:1568   */\n      0x00\n        /* \"#utility.yul\":1564:1565   */\n      0x00\n        /* \"#utility.yul\":1557:1569   */\n      revert\n        /* \"#utility.yul\":1508:1571   */\n    tag_73:\n        /* \"#utility.yul\":1455:1577   */\n      pop\n      jump\t// out\n        /* \"#utility.yul\":1583:1722   */\n    tag_49:\n        /* \"#utility.yul\":1629:1634   */\n      0x00\n        /* \"#utility.yul\":1667:1673   */\n      dup2\n        /* \"#utility.yul\":1654:1674   */\n      calldataload\n        /* \"#utility.yul\":1645:1674   */\n      swap1\n      pop\n        /* \"#utility.yul\":1683:1716   */\n      tag_75\n        /* \"#utility.yul\":1710:1715   */\n      dup2\n        /* \"#utility.yul\":1683:1716   */\n      tag_48\n      jump\t// in\n    tag_75:\n        /* \"#utility.yul\":1583:1722   */\n      swap3\n      swap2\n      pop\n      pop\n      jump\t// out\n        /* \"#utility.yul\":1728:2202   */\n    tag_18:\n        /* \"#utility.yul\":1796:1802   */\n      0x00\n        /* \"#utility.yul\":1804:1810   */\n      0x00\n        /* \"#utility.yul\":1853:1855   */\n      0x40\n        /* \"#utility.yul\":1841:1850   */\n      dup4\n        /* \"#utility.yul\":1832:1839   */\n      dup6\n        /* \"#utility.yul\":1828:1851   */\n      sub\n        /* \"#utility.yul\":1824:1856   */\n      slt\n        /* \"#utility.yul\":1821:1940   */\n      iszero\n      tag_77\n      jumpi\n        /* \"#utility.yul\":1859:1938   */\n      tag_78\n      tag_43\n      jump\t// in\n    tag_78:\n        /* \"#utility.yul\":1821:1940   */\n    tag_77:\n        /* \"#utility.yul\":1979:1980   */\n      0x00\n        /* \"#utility.yul\":2004:2057   */\n      tag_79\n        /* \"#utility.yul\":2049:2056   */\n      dup6\n        /* \"#utility.yul\":2040:2046   */\n      dup3\n        /* \"#utility.yul\":2029:2038   */\n      dup7\n        /* \"#utility.yul\":2025:2047   */\n      add\n        /* \"#utility.yul\":2004:2057   */\n      tag_49\n      jump\t// in\n    tag_79:\n        /* \"#utility.yul\":1994:2057   */\n      swap3\n      pop\n        /* \"#utility.yul\":1950:2067   */\n      pop\n        /* \"#utility.yul\":2106:2108   */\n      0x20\n        /* \"#utility.yul\":2132:2185   */\n      tag_80\n        /* \"#utility.yul\":2177:2184   */\n      dup6\n        /* \"#utility.yul\":2168:2174   */\n      dup3\n        /* \"#utility.yul\":2157:2166   */\n      dup7\n        /* \"#utility.yul\":2153:2175   */\n      add\n        /* \"#utility.yul\":2132:2185   */\n      tag_49\n      jump\t// in\n    tag_80:\n        /* \"#utility.yul\":2122:2185   */\n      swap2\n      pop\n        /* \"#utility.yul\":2077:2195   */\n      pop\n        /* \"#utility.yul\":1728:2202   */\n      swap3\n      pop\n      swap3\n      swap1\n      pop\n      jump\t// out\n        /* \"#utility.yul\":2208:2388   */\n    tag_50:\n        /* \"#utility.yul\":2256:2333   */\n      0x4e487b7100000000000000000000000000000000000000000000000000000000\n        /* \"#utility.yul\":2253:2254   */\n      0x00\n        /* \"#utility.yul\":2246:2334   */\n      mstore\n        /* \"#utility.yul\":2353:2357   */\n      0x11\n        /* \"#utility.yul\":2350:2351   */\n      0x04\n        /* \"#utility.yul\":2343:2358   */\n      mstore\n        /* \"#utility.yul\":2377:2381   */\n      0x24\n        /* \"#utility.yul\":2374:2375   */\n      0x00\n        /* \"#utility.yul\":2367:2382   */\n      revert\n        /* \"#utility.yul\":2394:2585   */\n    tag_30:\n        /* \"#utility.yul\":2434:2437   */\n      0x00\n        /* \"#utility.yul\":2453:2473   */\n      tag_83\n        /* \"#utility.yul\":2471:2472   */\n      dup3\n        /* \"#utility.yul\":2453:2473   */\n      tag_40\n      jump\t// in\n    tag_83:\n        /* \"#utility.yul\":2448:2473   */\n      swap2\n      pop\n        /* \"#utility.yul\":2487:2507   */\n      tag_84\n        /* \"#utility.yul\":2505:2506   */\n      dup4\n        /* \"#utility.yul\":2487:2507   */\n      tag_40\n      jump\t// in\n    tag_84:\n        /* \"#utility.yul\":2482:2507   */\n      swap3\n      pop\n        /* \"#utility.yul\":2530:2531   */\n      dup3\n        /* \"#utility.yul\":2527:2528   */\n      dup3\n        /* \"#utility.yul\":2523:2532   */\n      add\n        /* \"#utility.yul\":2516:2532   */\n      swap1\n      pop\n        /* \"#utility.yul\":2551:2554   */\n      dup1\n        /* \"#utility.yul\":2548:2549   */\n      dup3\n        /* \"#utility.yul\":2545:2555   */\n      gt\n        /* \"#utility.yul\":2542:2578   */\n      iszero\n      tag_85\n      jumpi\n        /* \"#utility.yul\":2558:2576   */\n      tag_86\n      tag_50\n      jump\t// in\n    tag_86:\n        /* \"#utility.yul\":2542:2578   */\n    tag_85:\n        /* \"#utility.yul\":2394:2585   */\n      swap3\n      swap2\n      pop\n      pop\n      jump\t// out\n        /* \"#utility.yul\":2591:2771   */\n    tag_51:\n        /* \"#utility.yul\":2639:2716   */\n      0x4e487b7100000000000000000000000000000000000000000000000000000000\n        /* \"#utility.yul\":2636:2637   */\n      0x00\n        /* \"#utility.yul\":2629:2717   */\n      mstore\n        /* \"#utility.yul\":2736:2740   */\n      0x12\n        /* \"#utility.yul\":2733:2734   */\n      0x04\n        /* \"#utility.yul\":2726:2741   */\n      mstore\n        /* \"#utility.yul\":2760:2764   */\n      0x24\n        /* \"#utility.yul\":2757:2758   */\n      0x00\n        /* \"#utility.yul\":2750:2765   */\n      revert\n        /* \"#utility.yul\":2777:2962   */\n    tag_34:\n        /* \"#utility.yul\":2817:2818   */\n      0x00\n        /* \"#utility.yul\":2834:2854   */\n      tag_89\n        /* \"#utility.yul\":2852:2853   */\n      dup3\n        /* \"#utility.yul\":2834:2854   */\n      tag_40\n      jump\t// in\n    tag_89:\n        /* \"#utility.yul\":2829:2854   */\n      swap2\n      pop\n        /* \"#utility.yul\":2868:2888   */\n      tag_90\n        /* \"#utility.yul\":2886:2887   */\n      dup4\n        /* \"#utility.yul\":2868:2888   */\n      tag_40\n      jump\t// in\n    tag_90:\n        /* \"#utility.yul\":2863:2888   */\n      swap3\n      pop\n        /* \"#utility.yul\":2907:2908   */\n      dup3\n        /* \"#utility.yul\":2897:2932   */\n      tag_91\n      jumpi\n        /* \"#utility.yul\":2912:2930   */\n      tag_92\n      tag_51\n      jump\t// in\n    tag_92:\n        /* \"#utility.yul\":2897:2932   */\n    tag_91:\n        /* \"#utility.yul\":2954:2955   */\n      dup3\n        /* \"#utility.yul\":2951:2952   */\n      dup3\n        /* \"#utility.yul\":2947:2956   */\n      div\n        /* \"#utility.yul\":2942:2956   */\n      swap1\n      pop\n        /* \"#utility.yul\":2777:2962   */\n      swap3\n      swap2\n      pop\n      pop\n      jump\t// out\n        /* \"#utility.yul\":2968:3378   */\n    tag_37:\n        /* \"#utility.yul\":3008:3015   */\n      0x00\n        /* \"#utility.yul\":3031:3051   */\n      tag_94\n        /* \"#utility.yul\":3049:3050   */\n      dup3\n        /* \"#utility.yul\":3031:3051   */\n      tag_40\n      jump\t// in\n    tag_94:\n        /* \"#utility.yul\":3026:3051   */\n      swap2\n      pop\n        /* \"#utility.yul\":3065:3085   */\n      tag_95\n        /* \"#utility.yul\":3083:3084   */\n      dup4\n        /* \"#utility.yul\":3065:3085   */\n      tag_40\n      jump\t// in\n    tag_95:\n        /* \"#utility.yul\":3060:3085   */\n      swap3\n      pop\n        /* \"#utility.yul\":3120:3121   */\n      dup3\n        /* \"#utility.yul\":3117:3118   */\n      dup3\n        /* \"#utility.yul\":3113:3122   */\n      mul\n        /* \"#utility.yul\":3142:3172   */\n      tag_96\n        /* \"#utility.yul\":3160:3171   */\n      dup2\n        /* \"#utility.yul\":3142:3172   */\n      tag_40\n      jump\t// in\n    tag_96:\n        /* \"#utility.yul\":3131:3172   */\n      swap2\n      pop\n        /* \"#utility.yul\":3321:3322   */\n      dup3\n        /* \"#utility.yul\":3312:3319   */\n      dup3\n        /* \"#utility.yul\":3308:3323   */\n      div\n        /* \"#utility.yul\":3305:3306   */\n      dup5\n        /* \"#utility.yul\":3302:3324   */\n      eq\n        /* \"#utility.yul\":3282:3283   */\n      dup4\n        /* \"#utility.yul\":3275:3284   */\n      iszero\n        /* \"#utility.yul\":3255:3338   */\n      or\n        /* \"#utility.yul\":3232:3371   */\n      tag_97\n      jumpi\n        /* \"#utility.yul\":3351:3369   */\n      tag_98\n      tag_50\n      jump\t// in\n    tag_98:\n        /* \"#utility.yul\":3232:3371   */\n    tag_97:\n        /* \"#utility.yul\":3016:3378   */\n      pop\n        /* \"#utility.yul\":2968:3378   */\n      swap3\n      swap2\n      pop\n      pop\n      jump\t// out\n\n    auxdata: 0xa264697066735822122019b51a6bd227a5327a88f13b0e2ec9cecc1adca36bfdb7931b08265006d60a3d64736f6c634300081d0033\n}\n",
				"bytecode": {
					"linkReferences": {},
					"object": "6080604052602d5f553480156012575f5ffd5b506103ba806100205f395ff3fe608060405234801561000f575f5ffd5b5060043610610055575f3560e01c8063166e7bdd14610059578063273d1a3e14610077578063bd2ec67d14610093578063de1126f6146100c3578063e581bdca146100f3575b5f5ffd5b610061610111565b60405161006e91906101a1565b60405180910390f35b610091600480360381019061008c91906101f3565b610134565b005b6100ad60048036038101906100a89190610248565b610137565b6040516100ba91906101a1565b60405180910390f35b6100dd60048036038101906100d89190610248565b610151565b6040516100ea91906101a1565b60405180910390f35b6100fb61016b565b60405161010891906101a1565b60405180910390f35b5f5f600290505f600390505f818361012991906102b3565b905080935050505090565b50565b5f5f82846101459190610313565b90508091505092915050565b5f5f828461015f9190610343565b90508091505092915050565b5f5f600590505f815f5461017f91906102b3565b9050809250505090565b5f819050919050565b61019b81610189565b82525050565b5f6020820190506101b45f830184610192565b92915050565b5f5ffd5b5f8115159050919050565b6101d2816101be565b81146101dc575f5ffd5b50565b5f813590506101ed816101c9565b92915050565b5f60208284031215610208576102076101ba565b5b5f610215848285016101df565b91505092915050565b61022781610189565b8114610231575f5ffd5b50565b5f813590506102428161021e565b92915050565b5f5f6040838503121561025e5761025d6101ba565b5b5f61026b85828601610234565b925050602061027c85828601610234565b9150509250929050565b7f4e487b71000000000000000000000000000000000000000000000000000000005f52601160045260245ffd5b5f6102bd82610189565b91506102c883610189565b92508282019050808211156102e0576102df610286565b5b92915050565b7f4e487b71000000000000000000000000000000000000000000000000000000005f52601260045260245ffd5b5f61031d82610189565b915061032883610189565b925082610338576103376102e6565b5b828204905092915050565b5f61034d82610189565b915061035883610189565b925082820261036681610189565b9150828204841483151761037d5761037c610286565b5b509291505056fea264697066735822122019b51a6bd227a5327a88f13b0e2ec9cecc1adca36bfdb7931b08265006d60a3d64736f6c634300081d0033",
					"opcodes": "PUSH1 0x80 PUSH1 0x40 MSTORE PUSH1 0x2D PUSH0 SSTORE CALLVALUE DUP1 ISZERO PUSH1 0x12 JUMPI PUSH0 PUSH0 REVERT JUMPDEST POP PUSH2 0x3BA DUP1 PUSH2 0x20 PUSH0 CODECOPY PUSH0 RETURN INVALID PUSH1 0x80 PUSH1 0x40 MSTORE CALLVALUE DUP1 ISZERO PUSH2 0xF JUMPI PUSH0 PUSH0 REVERT JUMPDEST POP PUSH1 0x4 CALLDATASIZE LT PUSH2 0x55 JUMPI PUSH0 CALLDATALOAD PUSH1 0xE0 SHR DUP1 PUSH4 0x166E7BDD EQ PUSH2 0x59 JUMPI DUP1 PUSH4 0x273D1A3E EQ PUSH2 0x77 JUMPI DUP1 PUSH4 0xBD2EC67D EQ PUSH2 0x93 JUMPI DUP1 PUSH4 0xDE1126F6 EQ PUSH2 0xC3 JUMPI DUP1 PUSH4 0xE581BDCA EQ PUSH2 0xF3 JUMPI JUMPDEST PUSH0 PUSH0 REVERT JUMPDEST PUSH2 0x61 PUSH2 0x111 JUMP JUMPDEST PUSH1 0x40 MLOAD PUSH2 0x6E SWAP2 SWAP1 PUSH2 0x1A1 JUMP JUMPDEST PUSH1 0x40 MLOAD DUP1 SWAP2 SUB SWAP1 RETURN JUMPDEST PUSH2 0x91 PUSH1 0x4 DUP1 CALLDATASIZE SUB DUP2 ADD SWAP1 PUSH2 0x8C SWAP2 SWAP1 PUSH2 0x1F3 JUMP JUMPDEST PUSH2 0x134 JUMP JUMPDEST STOP JUMPDEST PUSH2 0xAD PUSH1 0x4 DUP1 CALLDATASIZE SUB DUP2 ADD SWAP1 PUSH2 0xA8 SWAP2 SWAP1 PUSH2 0x248 JUMP JUMPDEST PUSH2 0x137 JUMP JUMPDEST PUSH1 0x40 MLOAD PUSH2 0xBA SWAP2 SWAP1 PUSH2 0x1A1 JUMP JUMPDEST PUSH1 0x40 MLOAD DUP1 SWAP2 SUB SWAP1 RETURN JUMPDEST PUSH2 0xDD PUSH1 0x4 DUP1 CALLDATASIZE SUB DUP2 ADD SWAP1 PUSH2 0xD8 SWAP2 SWAP1 PUSH2 0x248 JUMP JUMPDEST PUSH2 0x151 JUMP JUMPDEST PUSH1 0x40 MLOAD PUSH2 0xEA SWAP2 SWAP1 PUSH2 0x1A1 JUMP JUMPDEST PUSH1 0x40 MLOAD DUP1 SWAP2 SUB SWAP1 RETURN JUMPDEST PUSH2 0xFB PUSH2 0x16B JUMP JUMPDEST PUSH1 0x40 MLOAD PUSH2 0x108 SWAP2 SWAP1 PUSH2 0x1A1 JUMP JUMPDEST PUSH1 0x40 MLOAD DUP1 SWAP2 SUB SWAP1 RETURN JUMPDEST PUSH0 PUSH0 PUSH1 0x2 SWAP1 POP PUSH0 PUSH1 0x3 SWAP1 POP PUSH0 DUP2 DUP4 PUSH2 0x129 SWAP2 SWAP1 PUSH2 0x2B3 JUMP JUMPDEST SWAP1 POP DUP1 SWAP4 POP POP POP POP SWAP1 JUMP JUMPDEST POP JUMP JUMPDEST PUSH0 PUSH0 DUP3 DUP5 PUSH2 0x145 SWAP2 SWAP1 PUSH2 0x313 JUMP JUMPDEST SWAP1 POP DUP1 SWAP2 POP POP SWAP3 SWAP2 POP POP JUMP JUMPDEST PUSH0 PUSH0 DUP3 DUP5 PUSH2 0x15F SWAP2 SWAP1 PUSH2 0x343 JUMP JUMPDEST SWAP1 POP DUP1 SWAP2 POP POP SWAP3 SWAP2 POP POP JUMP JUMPDEST PUSH0 PUSH0 PUSH1 0x5 SWAP1 POP PUSH0 DUP2 PUSH0 SLOAD PUSH2 0x17F SWAP2 SWAP1 PUSH2 0x2B3 JUMP JUMPDEST SWAP1 POP DUP1 SWAP3 POP POP POP SWAP1 JUMP JUMPDEST PUSH0 DUP2 SWAP1 POP SWAP2 SWAP1 POP JUMP JUMPDEST PUSH2 0x19B DUP2 PUSH2 0x189 JUMP JUMPDEST DUP3 MSTORE POP POP JUMP JUMPDEST PUSH0 PUSH1 0x20 DUP3 ADD SWAP1 POP PUSH2 0x1B4 PUSH0 DUP4 ADD DUP5 PUSH2 0x192 JUMP JUMPDEST SWAP3 SWAP2 POP POP JUMP JUMPDEST PUSH0 PUSH0 REVERT JUMPDEST PUSH0 DUP2 ISZERO ISZERO SWAP1 POP SWAP2 SWAP1 POP JUMP JUMPDEST PUSH2 0x1D2 DUP2 PUSH2 0x1BE JUMP JUMPDEST DUP2 EQ PUSH2 0x1DC JUMPI PUSH0 PUSH0 REVERT JUMPDEST POP JUMP JUMPDEST PUSH0 DUP2 CALLDATALOAD SWAP1 POP PUSH2 0x1ED DUP2 PUSH2 0x1C9 JUMP JUMPDEST SWAP3 SWAP2 POP POP JUMP JUMPDEST PUSH0 PUSH1 0x20 DUP3 DUP5 SUB SLT ISZERO PUSH2 0x208 JUMPI PUSH2 0x207 PUSH2 0x1BA JUMP JUMPDEST JUMPDEST PUSH0 PUSH2 0x215 DUP5 DUP3 DUP6 ADD PUSH2 0x1DF JUMP JUMPDEST SWAP2 POP POP SWAP3 SWAP2 POP POP JUMP JUMPDEST PUSH2 0x227 DUP2 PUSH2 0x189 JUMP JUMPDEST DUP2 EQ PUSH2 0x231 JUMPI PUSH0 PUSH0 REVERT JUMPDEST POP JUMP JUMPDEST PUSH0 DUP2 CALLDATALOAD SWAP1 POP PUSH2 0x242 DUP2 PUSH2 0x21E JUMP JUMPDEST SWAP3 SWAP2 POP POP JUMP JUMPDEST PUSH0 PUSH0 PUSH1 0x40 DUP4 DUP6 SUB SLT ISZERO PUSH2 0x25E JUMPI PUSH2 0x25D PUSH2 0x1BA JUMP JUMPDEST JUMPDEST PUSH0 PUSH2 0x26B DUP6 DUP3 DUP7 ADD PUSH2 0x234 JUMP JUMPDEST SWAP3 POP POP PUSH1 0x20 PUSH2 0x27C DUP6 DUP3 DUP7 ADD PUSH2 0x234 JUMP JUMPDEST SWAP2 POP POP SWAP3 POP SWAP3 SWAP1 POP JUMP JUMPDEST PUSH32 0x4E487B7100000000000000000000000000000000000000000000000000000000 PUSH0 MSTORE PUSH1 0x11 PUSH1 0x4 MSTORE PUSH1 0x24 PUSH0 REVERT JUMPDEST PUSH0 PUSH2 0x2BD DUP3 PUSH2 0x189 JUMP JUMPDEST SWAP2 POP PUSH2 0x2C8 DUP4 PUSH2 0x189 JUMP JUMPDEST SWAP3 POP DUP3 DUP3 ADD SWAP1 POP DUP1 DUP3 GT ISZERO PUSH2 0x2E0 JUMPI PUSH2 0x2DF PUSH2 0x286 JUMP JUMPDEST JUMPDEST SWAP3 SWAP2 POP POP JUMP JUMPDEST PUSH32 0x4E487B7100000000000000000000000000000000000000000000000000000000 PUSH0 MSTORE PUSH1 0x12 PUSH1 0x4 MSTORE PUSH1 0x24 PUSH0 REVERT JUMPDEST PUSH0 PUSH2 0x31D DUP3 PUSH2 0x189 JUMP JUMPDEST SWAP2 POP PUSH2 0x328 DUP4 PUSH2 0x189 JUMP JUMPDEST SWAP3 POP DUP3 PUSH2 0x338 JUMPI PUSH2 0x337 PUSH2 0x2E6 JUMP JUMPDEST JUMPDEST DUP3 DUP3 DIV SWAP1 POP SWAP3 SWAP2 POP POP JUMP JUMPDEST PUSH0 PUSH2 0x34D DUP3 PUSH2 0x189 JUMP JUMPDEST SWAP2 POP PUSH2 0x358 DUP4 PUSH2 0x189 JUMP JUMPDEST SWAP3 POP DUP3 DUP3 MUL PUSH2 0x366 DUP2 PUSH2 0x189 JUMP JUMPDEST SWAP2 POP DUP3 DUP3 DIV DUP5 EQ DUP4 ISZERO OR PUSH2 0x37D JUMPI PUSH2 0x37C PUSH2 0x286 JUMP JUMPDEST JUMPDEST POP SWAP3 SWAP2 POP POP JUMP INVALID LOG2 PUSH5 0x6970667358 0x22 SLT KECCAK256 NOT 0xB5 BYTE PUSH12 0xD227A5327A88F13B0E2EC9CE 0xCC BYTE 0xDC LOG3 PUSH12 0xFDB7931B08265006D60A3D64 PUSH20 0x6F6C634300081D00330000000000000000000000 "
				},
				"gasEstimates": {
					"creation": {
						"codeDepositCost": "190800",
						"executionCost": "22335",
						"totalCost": "213135"
					},
					"external": {
						"addNewValues()": "infinite",
						"addValues()": "infinite",
						"divideCalculator(uint256,uint256)": "infinite",
						"multiplyCalculator(uint256,uint256)": "infinite",
						"remoteControlOpen(bool)": "407"
					}
				},
				"methodIdentifiers": {
					"addNewValues()": "e581bdca",
					"addValues()": "166e7bdd",
					"divideCalculator(uint256,uint256)": "bd2ec67d",
					"multiplyCalculator(uint256,uint256)": "de1126f6",
					"remoteControlOpen(bool)": "273d1a3e"
				}
			},
			"storageLayout": {
				"storage": [
					{
						"astId": 10,
						"contract": "contracts/foundation/5-functions.sol:learnFunctions",
						"label": "a",
						"offset": 0,
						"slot": "0",
						"type": "t_uint256"
					}
				],
				"types": {
					"t_uint256": {
						"encoding": "inplace",
						"label": "uint256",
						"numberOfBytes": "32"
					}
				}
			},
			"userdoc": {
				"kind": "user",
				"methods": {},
				"version": 1
			}
		}
	}
}