{
	"contracts/3-advanced/9-advanced-libraries.sol": {
		"Test": {
			"abi": [
				{
					"inputs": [],
					"stateMutability": "nonpayable",
					"type": "constructor"
				},
				{
					"inputs": [
						{
							"internalType": "uint256",
							"name": "val",
							"type": "uint256"
						}
					],
					"name": "isValuePresent",
					"outputs": [
						{
							"internalType": "uint256",
							"name": "",
							"type": "uint256"
						}
					],
					"stateMutability": "view",
					"type": "function"
				}
			],
			"devdoc": {
				"kind": "dev",
				"methods": {},
				"version": 1
			},
			"evm": {
				"assembly": "    /* \"contracts/3-advanced/9-advanced-libraries.sol\":520:870  contract Test {... */\n  mstore(0x40, 0x80)\n    /* \"contracts/3-advanced/9-advanced-libraries.sol\":606:696  constructor() {... */\n  callvalue\n  dup1\n  iszero\n  tag_1\n  jumpi\n  0x00\n  dup1\n  revert\ntag_1:\n  pop\n    /* \"contracts/3-advanced/9-advanced-libraries.sol\":634:640  uint i */\n  0x00\n    /* \"contracts/3-advanced/9-advanced-libraries.sol\":642:643  1 */\n  0x01\n    /* \"contracts/3-advanced/9-advanced-libraries.sol\":634:643  uint i =1 */\n  swap1\n  pop\n    /* \"contracts/3-advanced/9-advanced-libraries.sol\":630:690  for(uint i =1; i<6;i++){... */\ntag_4:\n    /* \"contracts/3-advanced/9-advanced-libraries.sol\":647:648  6 */\n  0x06\n    /* \"contracts/3-advanced/9-advanced-libraries.sol\":645:646  i */\n  dup2\n    /* \"contracts/3-advanced/9-advanced-libraries.sol\":645:648  i<6 */\n  lt\n    /* \"contracts/3-advanced/9-advanced-libraries.sol\":630:690  for(uint i =1; i<6;i++){... */\n  iszero\n  tag_5\n  jumpi\n    /* \"contracts/3-advanced/9-advanced-libraries.sol\":667:671  data */\n  0x00\n    /* \"contracts/3-advanced/9-advanced-libraries.sol\":677:678  i */\n  dup2\n    /* \"contracts/3-advanced/9-advanced-libraries.sol\":667:679  data.push(i) */\n  swap1\n  dup1\n  0x01\n  dup2\n  sload\n  add\n  dup1\n  dup3\n  sstore\n  dup1\n  swap2\n  pop\n  pop\n  0x01\n  swap1\n  sub\n  swap1\n  0x00\n  mstore\n  keccak256(0x00, 0x20)\n  add\n  0x00\n  swap1\n  swap2\n  swap1\n  swap2\n  swap1\n  swap2\n  pop\n  sstore\n    /* \"contracts/3-advanced/9-advanced-libraries.sol\":649:652  i++ */\n  dup1\n  dup1\n  0x01\n  add\n  swap2\n  pop\n  pop\n    /* \"contracts/3-advanced/9-advanced-libraries.sol\":630:690  for(uint i =1; i<6;i++){... */\n  jump(tag_4)\ntag_5:\n  pop\n    /* \"contracts/3-advanced/9-advanced-libraries.sol\":520:870  contract Test {... */\n  dataSize(sub_0)\n  dup1\n  dataOffset(sub_0)\n  0x00\n  codecopy\n  0x00\n  return\nstop\n\nsub_0: assembly {\n        /* \"contracts/3-advanced/9-advanced-libraries.sol\":520:870  contract Test {... */\n      mstore(0x40, 0x80)\n      callvalue\n      dup1\n      iszero\n      tag_1\n      jumpi\n      0x00\n      dup1\n      revert\n    tag_1:\n      pop\n      jumpi(tag_2, lt(calldatasize, 0x04))\n      shr(0xe0, calldataload(0x00))\n      dup1\n      0x061d2800\n      eq\n      tag_3\n      jumpi\n    tag_2:\n      0x00\n      dup1\n      revert\n        /* \"contracts/3-advanced/9-advanced-libraries.sol\":702:868  function isValuePresent(uint val) external view returns(uint){... */\n    tag_3:\n      tag_4\n      0x04\n      dup1\n      calldatasize\n      sub\n      dup2\n      add\n      swap1\n      tag_5\n      swap2\n      swap1\n      tag_6\n      jump\t// in\n    tag_5:\n      tag_7\n      jump\t// in\n    tag_4:\n      mload(0x40)\n      tag_8\n      swap2\n      swap1\n      tag_9\n      jump\t// in\n    tag_8:\n      mload(0x40)\n      dup1\n      swap2\n      sub\n      swap1\n      return\n    tag_7:\n        /* \"contracts/3-advanced/9-advanced-libraries.sol\":758:762  uint */\n      0x00\n        /* \"contracts/3-advanced/9-advanced-libraries.sol\":773:783  uint value */\n      dup1\n        /* \"contracts/3-advanced/9-advanced-libraries.sol\":786:789  val */\n      dup3\n        /* \"contracts/3-advanced/9-advanced-libraries.sol\":773:789  uint value = val */\n      swap1\n      pop\n        /* \"contracts/3-advanced/9-advanced-libraries.sol\":799:809  uint index */\n      0x00\n        /* \"contracts/3-advanced/9-advanced-libraries.sol\":812:818  Search */\n      linkerSymbol(\"3a9fadd4c9de8a728319e63f957d41ec4d9d8431f16f11ce264d407bd85b748c\")\n        /* \"contracts/3-advanced/9-advanced-libraries.sol\":812:826  Search.indexOf */\n      0x24fef5c8\n        /* \"contracts/3-advanced/9-advanced-libraries.sol\":827:831  data */\n      0x00\n        /* \"contracts/3-advanced/9-advanced-libraries.sol\":833:838  value */\n      dup5\n        /* \"contracts/3-advanced/9-advanced-libraries.sol\":812:839  Search.indexOf(data, value) */\n      mload(0x40)\n      dup4\n      0xffffffff\n      and\n      0xe0\n      shl\n      dup2\n      mstore\n      0x04\n      add\n      tag_11\n      swap3\n      swap2\n      swap1\n      tag_12\n      jump\t// in\n    tag_11:\n      0x20\n      mload(0x40)\n      dup1\n      dup4\n      sub\n      dup2\n      dup7\n      gas\n      delegatecall\n      iszero\n      dup1\n      iszero\n      tag_14\n      jumpi\n      returndatasize\n      0x00\n      dup1\n      returndatacopy\n      revert(0x00, returndatasize)\n    tag_14:\n      pop\n      pop\n      pop\n      pop\n      mload(0x40)\n      returndatasize\n      not(0x1f)\n      0x1f\n      dup3\n      add\n      and\n      dup3\n      add\n      dup1\n      0x40\n      mstore\n      pop\n      dup2\n      add\n      swap1\n      tag_15\n      swap2\n      swap1\n      tag_16\n      jump\t// in\n    tag_15:\n        /* \"contracts/3-advanced/9-advanced-libraries.sol\":799:839  uint index = Search.indexOf(data, value) */\n      swap1\n      pop\n        /* \"contracts/3-advanced/9-advanced-libraries.sol\":856:861  index */\n      dup1\n        /* \"contracts/3-advanced/9-advanced-libraries.sol\":849:861  return index */\n      swap3\n      pop\n      pop\n      pop\n        /* \"contracts/3-advanced/9-advanced-libraries.sol\":702:868  function isValuePresent(uint val) external view returns(uint){... */\n      swap2\n      swap1\n      pop\n      jump\t// out\n        /* \"#utility.yul\":88:205   */\n    tag_18:\n        /* \"#utility.yul\":197:198   */\n      0x00\n        /* \"#utility.yul\":194:195   */\n      dup1\n        /* \"#utility.yul\":187:199   */\n      revert\n        /* \"#utility.yul\":334:411   */\n    tag_20:\n        /* \"#utility.yul\":371:378   */\n      0x00\n        /* \"#utility.yul\":400:405   */\n      dup2\n        /* \"#utility.yul\":389:405   */\n      swap1\n      pop\n        /* \"#utility.yul\":334:411   */\n      swap2\n      swap1\n      pop\n      jump\t// out\n        /* \"#utility.yul\":417:539   */\n    tag_21:\n        /* \"#utility.yul\":490:514   */\n      tag_33\n        /* \"#utility.yul\":508:513   */\n      dup2\n        /* \"#utility.yul\":490:514   */\n      tag_20\n      jump\t// in\n    tag_33:\n        /* \"#utility.yul\":483:488   */\n      dup2\n        /* \"#utility.yul\":480:515   */\n      eq\n        /* \"#utility.yul\":470:533   */\n      tag_34\n      jumpi\n        /* \"#utility.yul\":529:530   */\n      0x00\n        /* \"#utility.yul\":526:527   */\n      dup1\n        /* \"#utility.yul\":519:531   */\n      revert\n        /* \"#utility.yul\":470:533   */\n    tag_34:\n        /* \"#utility.yul\":417:539   */\n      pop\n      jump\t// out\n        /* \"#utility.yul\":545:684   */\n    tag_22:\n        /* \"#utility.yul\":591:596   */\n      0x00\n        /* \"#utility.yul\":629:635   */\n      dup2\n        /* \"#utility.yul\":616:636   */\n      calldataload\n        /* \"#utility.yul\":607:636   */\n      swap1\n      pop\n        /* \"#utility.yul\":645:678   */\n      tag_36\n        /* \"#utility.yul\":672:677   */\n      dup2\n        /* \"#utility.yul\":645:678   */\n      tag_21\n      jump\t// in\n    tag_36:\n        /* \"#utility.yul\":545:684   */\n      swap3\n      swap2\n      pop\n      pop\n      jump\t// out\n        /* \"#utility.yul\":690:1019   */\n    tag_6:\n        /* \"#utility.yul\":749:755   */\n      0x00\n        /* \"#utility.yul\":798:800   */\n      0x20\n        /* \"#utility.yul\":786:795   */\n      dup3\n        /* \"#utility.yul\":777:784   */\n      dup5\n        /* \"#utility.yul\":773:796   */\n      sub\n        /* \"#utility.yul\":769:801   */\n      slt\n        /* \"#utility.yul\":766:885   */\n      iszero\n      tag_38\n      jumpi\n        /* \"#utility.yul\":804:883   */\n      tag_39\n      tag_18\n      jump\t// in\n    tag_39:\n        /* \"#utility.yul\":766:885   */\n    tag_38:\n        /* \"#utility.yul\":924:925   */\n      0x00\n        /* \"#utility.yul\":949:1002   */\n      tag_40\n        /* \"#utility.yul\":994:1001   */\n      dup5\n        /* \"#utility.yul\":985:991   */\n      dup3\n        /* \"#utility.yul\":974:983   */\n      dup6\n        /* \"#utility.yul\":970:992   */\n      add\n        /* \"#utility.yul\":949:1002   */\n      tag_22\n      jump\t// in\n    tag_40:\n        /* \"#utility.yul\":939:1002   */\n      swap2\n      pop\n        /* \"#utility.yul\":895:1012   */\n      pop\n        /* \"#utility.yul\":690:1019   */\n      swap3\n      swap2\n      pop\n      pop\n      jump\t// out\n        /* \"#utility.yul\":1025:1143   */\n    tag_23:\n        /* \"#utility.yul\":1112:1136   */\n      tag_42\n        /* \"#utility.yul\":1130:1135   */\n      dup2\n        /* \"#utility.yul\":1112:1136   */\n      tag_20\n      jump\t// in\n    tag_42:\n        /* \"#utility.yul\":1107:1110   */\n      dup3\n        /* \"#utility.yul\":1100:1137   */\n      mstore\n        /* \"#utility.yul\":1025:1143   */\n      pop\n      pop\n      jump\t// out\n        /* \"#utility.yul\":1149:1371   */\n    tag_9:\n        /* \"#utility.yul\":1242:1246   */\n      0x00\n        /* \"#utility.yul\":1280:1282   */\n      0x20\n        /* \"#utility.yul\":1269:1278   */\n      dup3\n        /* \"#utility.yul\":1265:1283   */\n      add\n        /* \"#utility.yul\":1257:1283   */\n      swap1\n      pop\n        /* \"#utility.yul\":1293:1364   */\n      tag_44\n        /* \"#utility.yul\":1361:1362   */\n      0x00\n        /* \"#utility.yul\":1350:1359   */\n      dup4\n        /* \"#utility.yul\":1346:1363   */\n      add\n        /* \"#utility.yul\":1337:1343   */\n      dup5\n        /* \"#utility.yul\":1293:1364   */\n      tag_23\n      jump\t// in\n    tag_44:\n        /* \"#utility.yul\":1149:1371   */\n      swap3\n      swap2\n      pop\n      pop\n      jump\t// out\n        /* \"#utility.yul\":1377:1506   */\n    tag_24:\n        /* \"#utility.yul\":1494:1499   */\n      dup1\n        /* \"#utility.yul\":1489:1492   */\n      dup3\n        /* \"#utility.yul\":1482:1500   */\n      mstore\n        /* \"#utility.yul\":1377:1506   */\n      pop\n      pop\n      jump\t// out\n        /* \"#utility.yul\":1512:1638   */\n    tag_25:\n        /* \"#utility.yul\":1607:1631   */\n      tag_47\n        /* \"#utility.yul\":1625:1630   */\n      dup2\n        /* \"#utility.yul\":1607:1631   */\n      tag_20\n      jump\t// in\n    tag_47:\n        /* \"#utility.yul\":1602:1605   */\n      dup3\n        /* \"#utility.yul\":1595:1632   */\n      mstore\n        /* \"#utility.yul\":1512:1638   */\n      pop\n      pop\n      jump\t// out\n        /* \"#utility.yul\":1644:2044   */\n    tag_12:\n        /* \"#utility.yul\":1795:1799   */\n      0x00\n        /* \"#utility.yul\":1833:1835   */\n      0x40\n        /* \"#utility.yul\":1822:1831   */\n      dup3\n        /* \"#utility.yul\":1818:1836   */\n      add\n        /* \"#utility.yul\":1810:1836   */\n      swap1\n      pop\n        /* \"#utility.yul\":1846:1947   */\n      tag_49\n        /* \"#utility.yul\":1944:1945   */\n      0x00\n        /* \"#utility.yul\":1933:1942   */\n      dup4\n        /* \"#utility.yul\":1929:1946   */\n      add\n        /* \"#utility.yul\":1920:1926   */\n      dup6\n        /* \"#utility.yul\":1846:1947   */\n      tag_24\n      jump\t// in\n    tag_49:\n        /* \"#utility.yul\":1957:2037   */\n      tag_50\n        /* \"#utility.yul\":2033:2035   */\n      0x20\n        /* \"#utility.yul\":2022:2031   */\n      dup4\n        /* \"#utility.yul\":2018:2036   */\n      add\n        /* \"#utility.yul\":2009:2015   */\n      dup5\n        /* \"#utility.yul\":1957:2037   */\n      tag_25\n      jump\t// in\n    tag_50:\n        /* \"#utility.yul\":1644:2044   */\n      swap4\n      swap3\n      pop\n      pop\n      pop\n      jump\t// out\n        /* \"#utility.yul\":2050:2193   */\n    tag_26:\n        /* \"#utility.yul\":2107:2112   */\n      0x00\n        /* \"#utility.yul\":2138:2144   */\n      dup2\n        /* \"#utility.yul\":2132:2145   */\n      mload\n        /* \"#utility.yul\":2123:2145   */\n      swap1\n      pop\n        /* \"#utility.yul\":2154:2187   */\n      tag_52\n        /* \"#utility.yul\":2181:2186   */\n      dup2\n        /* \"#utility.yul\":2154:2187   */\n      tag_21\n      jump\t// in\n    tag_52:\n        /* \"#utility.yul\":2050:2193   */\n      swap3\n      swap2\n      pop\n      pop\n      jump\t// out\n        /* \"#utility.yul\":2199:2550   */\n    tag_16:\n        /* \"#utility.yul\":2269:2275   */\n      0x00\n        /* \"#utility.yul\":2318:2320   */\n      0x20\n        /* \"#utility.yul\":2306:2315   */\n      dup3\n        /* \"#utility.yul\":2297:2304   */\n      dup5\n        /* \"#utility.yul\":2293:2316   */\n      sub\n        /* \"#utility.yul\":2289:2321   */\n      slt\n        /* \"#utility.yul\":2286:2405   */\n      iszero\n      tag_54\n      jumpi\n        /* \"#utility.yul\":2324:2403   */\n      tag_55\n      tag_18\n      jump\t// in\n    tag_55:\n        /* \"#utility.yul\":2286:2405   */\n    tag_54:\n        /* \"#utility.yul\":2444:2445   */\n      0x00\n        /* \"#utility.yul\":2469:2533   */\n      tag_56\n        /* \"#utility.yul\":2525:2532   */\n      dup5\n        /* \"#utility.yul\":2516:2522   */\n      dup3\n        /* \"#utility.yul\":2505:2514   */\n      dup6\n        /* \"#utility.yul\":2501:2523   */\n      add\n        /* \"#utility.yul\":2469:2533   */\n      tag_26\n      jump\t// in\n    tag_56:\n        /* \"#utility.yul\":2459:2533   */\n      swap2\n      pop\n        /* \"#utility.yul\":2415:2543   */\n      pop\n        /* \"#utility.yul\":2199:2550   */\n      swap3\n      swap2\n      pop\n      pop\n      jump\t// out\n\n    auxdata: 0xa264697066735822122088b089bd0e008b88f68ee787b09bc38c2b1feef26118df4cf498506528df957464736f6c634300081a0033\n}\n",
				"bytecode": {
					"linkReferences": {
						"contracts/3-advanced/9-advanced-libraries.sol": {
							"Search": [
								{
									"length": 20,
									"start": 193
								}
							]
						}
					},
					"object": "6080604052348015600e575f80fd5b505f600190505b6006811015604e575f81908060018154018082558091505060019003905f5260205f20015f909190919091505580806001019150506015565b506102238061005c5f395ff3fe608060405234801561000f575f80fd5b5060043610610029575f3560e01c8063061d28001461002d575b5f80fd5b6100476004803603810190610042919061011e565b61005d565b6040516100549190610158565b60405180910390f35b5f808290505f73__$3a9fadd4c9de8a728319e63f957d41ec4d$__6324fef5c85f846040518363ffffffff1660e01b815260040161009c929190610187565b602060405180830381865af41580156100b7573d5f803e3d5ffd5b505050506040513d601f19601f820116820180604052508101906100db91906101c2565b90508092505050919050565b5f80fd5b5f819050919050565b6100fd816100eb565b8114610107575f80fd5b50565b5f81359050610118816100f4565b92915050565b5f60208284031215610133576101326100e7565b5b5f6101408482850161010a565b91505092915050565b610152816100eb565b82525050565b5f60208201905061016b5f830184610149565b92915050565b8082525050565b610181816100eb565b82525050565b5f60408201905061019a5f830185610171565b6101a76020830184610178565b9392505050565b5f815190506101bc816100f4565b92915050565b5f602082840312156101d7576101d66100e7565b5b5f6101e4848285016101ae565b9150509291505056fea264697066735822122088b089bd0e008b88f68ee787b09bc38c2b1feef26118df4cf498506528df957464736f6c634300081a0033",
					"opcodes": "PUSH1 0x80 PUSH1 0x40 MSTORE CALLVALUE DUP1 ISZERO PUSH1 0xE JUMPI PUSH0 DUP1 REVERT JUMPDEST POP PUSH0 PUSH1 0x1 SWAP1 POP JUMPDEST PUSH1 0x6 DUP2 LT ISZERO PUSH1 0x4E JUMPI PUSH0 DUP2 SWAP1 DUP1 PUSH1 0x1 DUP2 SLOAD ADD DUP1 DUP3 SSTORE DUP1 SWAP2 POP POP PUSH1 0x1 SWAP1 SUB SWAP1 PUSH0 MSTORE PUSH1 0x20 PUSH0 KECCAK256 ADD PUSH0 SWAP1 SWAP2 SWAP1 SWAP2 SWAP1 SWAP2 POP SSTORE DUP1 DUP1 PUSH1 0x1 ADD SWAP2 POP POP PUSH1 0x15 JUMP JUMPDEST POP PUSH2 0x223 DUP1 PUSH2 0x5C PUSH0 CODECOPY PUSH0 RETURN INVALID PUSH1 0x80 PUSH1 0x40 MSTORE CALLVALUE DUP1 ISZERO PUSH2 0xF JUMPI PUSH0 DUP1 REVERT JUMPDEST POP PUSH1 0x4 CALLDATASIZE LT PUSH2 0x29 JUMPI PUSH0 CALLDATALOAD PUSH1 0xE0 SHR DUP1 PUSH4 0x61D2800 EQ PUSH2 0x2D JUMPI JUMPDEST PUSH0 DUP1 REVERT JUMPDEST PUSH2 0x47 PUSH1 0x4 DUP1 CALLDATASIZE SUB DUP2 ADD SWAP1 PUSH2 0x42 SWAP2 SWAP1 PUSH2 0x11E JUMP JUMPDEST PUSH2 0x5D JUMP JUMPDEST PUSH1 0x40 MLOAD PUSH2 0x54 SWAP2 SWAP1 PUSH2 0x158 JUMP JUMPDEST PUSH1 0x40 MLOAD DUP1 SWAP2 SUB SWAP1 RETURN JUMPDEST PUSH0 DUP1 DUP3 SWAP1 POP PUSH0 PUSH20 0x0 PUSH4 0x24FEF5C8 PUSH0 DUP5 PUSH1 0x40 MLOAD DUP4 PUSH4 0xFFFFFFFF AND PUSH1 0xE0 SHL DUP2 MSTORE PUSH1 0x4 ADD PUSH2 0x9C SWAP3 SWAP2 SWAP1 PUSH2 0x187 JUMP JUMPDEST PUSH1 0x20 PUSH1 0x40 MLOAD DUP1 DUP4 SUB DUP2 DUP7 GAS DELEGATECALL ISZERO DUP1 ISZERO PUSH2 0xB7 JUMPI RETURNDATASIZE PUSH0 DUP1 RETURNDATACOPY RETURNDATASIZE PUSH0 REVERT JUMPDEST POP POP POP POP PUSH1 0x40 MLOAD RETURNDATASIZE PUSH1 0x1F NOT PUSH1 0x1F DUP3 ADD AND DUP3 ADD DUP1 PUSH1 0x40 MSTORE POP DUP2 ADD SWAP1 PUSH2 0xDB SWAP2 SWAP1 PUSH2 0x1C2 JUMP JUMPDEST SWAP1 POP DUP1 SWAP3 POP POP POP SWAP2 SWAP1 POP JUMP JUMPDEST PUSH0 DUP1 REVERT JUMPDEST PUSH0 DUP2 SWAP1 POP SWAP2 SWAP1 POP JUMP JUMPDEST PUSH2 0xFD DUP2 PUSH2 0xEB JUMP JUMPDEST DUP2 EQ PUSH2 0x107 JUMPI PUSH0 DUP1 REVERT JUMPDEST POP JUMP JUMPDEST PUSH0 DUP2 CALLDATALOAD SWAP1 POP PUSH2 0x118 DUP2 PUSH2 0xF4 JUMP JUMPDEST SWAP3 SWAP2 POP POP JUMP JUMPDEST PUSH0 PUSH1 0x20 DUP3 DUP5 SUB SLT ISZERO PUSH2 0x133 JUMPI PUSH2 0x132 PUSH2 0xE7 JUMP JUMPDEST JUMPDEST PUSH0 PUSH2 0x140 DUP5 DUP3 DUP6 ADD PUSH2 0x10A JUMP JUMPDEST SWAP2 POP POP SWAP3 SWAP2 POP POP JUMP JUMPDEST PUSH2 0x152 DUP2 PUSH2 0xEB JUMP JUMPDEST DUP3 MSTORE POP POP JUMP JUMPDEST PUSH0 PUSH1 0x20 DUP3 ADD SWAP1 POP PUSH2 0x16B PUSH0 DUP4 ADD DUP5 PUSH2 0x149 JUMP JUMPDEST SWAP3 SWAP2 POP POP JUMP JUMPDEST DUP1 DUP3 MSTORE POP POP JUMP JUMPDEST PUSH2 0x181 DUP2 PUSH2 0xEB JUMP JUMPDEST DUP3 MSTORE POP POP JUMP JUMPDEST PUSH0 PUSH1 0x40 DUP3 ADD SWAP1 POP PUSH2 0x19A PUSH0 DUP4 ADD DUP6 PUSH2 0x171 JUMP JUMPDEST PUSH2 0x1A7 PUSH1 0x20 DUP4 ADD DUP5 PUSH2 0x178 JUMP JUMPDEST SWAP4 SWAP3 POP POP POP JUMP JUMPDEST PUSH0 DUP2 MLOAD SWAP1 POP PUSH2 0x1BC DUP2 PUSH2 0xF4 JUMP JUMPDEST SWAP3 SWAP2 POP POP JUMP JUMPDEST PUSH0 PUSH1 0x20 DUP3 DUP5 SUB SLT ISZERO PUSH2 0x1D7 JUMPI PUSH2 0x1D6 PUSH2 0xE7 JUMP JUMPDEST JUMPDEST PUSH0 PUSH2 0x1E4 DUP5 DUP3 DUP6 ADD PUSH2 0x1AE JUMP JUMPDEST SWAP2 POP POP SWAP3 SWAP2 POP POP JUMP INVALID LOG2 PUSH5 0x6970667358 0x22 SLT KECCAK256 DUP9 0xB0 DUP10 0xBD 0xE STOP DUP12 DUP9 0xF6 DUP15 0xE7 DUP8 0xB0 SWAP12 0xC3 DUP13 0x2B 0x1F 0xEE CALLCODE PUSH2 0x18DF 0x4C DELEGATECALL SWAP9 POP PUSH6 0x28DF95746473 PUSH16 0x6C634300081A00330000000000000000 "
				},
				"gasEstimates": {
					"creation": {
						"codeDepositCost": "109400",
						"executionCost": "infinite",
						"totalCost": "infinite"
					},
					"external": {
						"isValuePresent(uint256)": "infinite"
					}
				},
				"methodIdentifiers": {
					"isValuePresent(uint256)": "061d2800"
				}
			},
			"storageLayout": {
				"storage": [
					{
						"astId": 37,
						"contract": "contracts/3-advanced/9-advanced-libraries.sol:Test",
						"label": "data",
						"offset": 0,
						"slot": "0",
						"type": "t_array(t_uint256)dyn_storage"
					}
				],
				"types": {
					"t_array(t_uint256)dyn_storage": {
						"base": "t_uint256",
						"encoding": "dynamic_array",
						"label": "uint256[]",
						"numberOfBytes": "32"
					},
					"t_uint256": {
						"encoding": "inplace",
						"label": "uint256",
						"numberOfBytes": "32"
					}
				}
			},
			"userdoc": {
				"kind": "user",
				"methods": {},
				"version": 1
			}
		}
	}
}