{
	"contracts/3-advanced/4-advanced-contracts.sol": {
		"D": {
			"abi": [
				{
					"inputs": [],
					"name": "readInfo",
					"outputs": [
						{
							"internalType": "uint256",
							"name": "",
							"type": "uint256"
						}
					],
					"stateMutability": "view",
					"type": "function"
				}
			],
			"devdoc": {
				"kind": "dev",
				"methods": {},
				"version": 1
			},
			"evm": {
				"assembly": "    /* \"contracts/3-advanced/4-advanced-contracts.sol\":3425:3544  contract D{... */\n  mstore(0x40, 0x80)\n    /* \"contracts/3-advanced/4-advanced-contracts.sol\":3447:3454  new C() */\n  mload(0x40)\n  tag_1\n  swap1\n  tag_2\n  jump\t// in\ntag_1:\n  mload(0x40)\n  dup1\n  swap2\n  sub\n  swap1\n  0x00\n  create\n  dup1\n  iszero\n  dup1\n  iszero\n  tag_3\n  jumpi\n  returndatasize\n  0x00\n  dup1\n  returndatacopy\n  revert(0x00, returndatasize)\ntag_3:\n  pop\n    /* \"contracts/3-advanced/4-advanced-contracts.sol\":3441:3454  C c = new C() */\n  0x00\n  dup1\n  0x0100\n  exp\n  dup2\n  sload\n  dup2\n  0xffffffffffffffffffffffffffffffffffffffff\n  mul\n  not\n  and\n  swap1\n  dup4\n  0xffffffffffffffffffffffffffffffffffffffff\n  and\n  mul\n  or\n  swap1\n  sstore\n  pop\n    /* \"contracts/3-advanced/4-advanced-contracts.sol\":3425:3544  contract D{... */\n  callvalue\n  dup1\n  iszero\n  tag_4\n  jumpi\n  0x00\n  dup1\n  revert\ntag_4:\n  pop\n  jump(tag_5)\ntag_2:\n  dataSize(sub_1)\n  dup1\n  dataOffset(sub_1)\n  dup4\n  codecopy\n  add\n  swap1\n  jump\t// out\ntag_5:\n  dataSize(sub_0)\n  dup1\n  dataOffset(sub_0)\n  0x00\n  codecopy\n  0x00\n  return\nstop\n\nsub_0: assembly {\n        /* \"contracts/3-advanced/4-advanced-contracts.sol\":3425:3544  contract D{... */\n      mstore(0x40, 0x80)\n      callvalue\n      dup1\n      iszero\n      tag_1\n      jumpi\n      0x00\n      dup1\n      revert\n    tag_1:\n      pop\n      jumpi(tag_2, lt(calldatasize, 0x04))\n      shr(0xe0, calldataload(0x00))\n      dup1\n      0x3d88f137\n      eq\n      tag_3\n      jumpi\n    tag_2:\n      0x00\n      dup1\n      revert\n        /* \"contracts/3-advanced/4-advanced-contracts.sol\":3460:3537  function readInfo() public view returns(uint){... */\n    tag_3:\n      tag_4\n      tag_5\n      jump\t// in\n    tag_4:\n      mload(0x40)\n      tag_6\n      swap2\n      swap1\n      tag_7\n      jump\t// in\n    tag_6:\n      mload(0x40)\n      dup1\n      swap2\n      sub\n      swap1\n      return\n    tag_5:\n        /* \"contracts/3-advanced/4-advanced-contracts.sol\":3500:3504  uint */\n      0x00\n        /* \"contracts/3-advanced/4-advanced-contracts.sol\":3522:3523  c */\n      dup1\n      0x00\n      swap1\n      sload\n      swap1\n      0x0100\n      exp\n      swap1\n      div\n      0xffffffffffffffffffffffffffffffffffffffff\n      and\n        /* \"contracts/3-advanced/4-advanced-contracts.sol\":3522:3528  c.info */\n      0xffffffffffffffffffffffffffffffffffffffff\n      and\n      0x370158ea\n        /* \"contracts/3-advanced/4-advanced-contracts.sol\":3522:3530  c.info() */\n      mload(0x40)\n      dup2\n      0xffffffff\n      and\n      0xe0\n      shl\n      dup2\n      mstore\n      0x04\n      add\n      0x20\n      mload(0x40)\n      dup1\n      dup4\n      sub\n      dup2\n      dup7\n      gas\n      staticcall\n      iszero\n      dup1\n      iszero\n      tag_10\n      jumpi\n      returndatasize\n      0x00\n      dup1\n      returndatacopy\n      revert(0x00, returndatasize)\n    tag_10:\n      pop\n      pop\n      pop\n      pop\n      mload(0x40)\n      returndatasize\n      not(0x1f)\n      0x1f\n      dup3\n      add\n      and\n      dup3\n      add\n      dup1\n      0x40\n      mstore\n      pop\n      dup2\n      add\n      swap1\n      tag_11\n      swap2\n      swap1\n      tag_12\n      jump\t// in\n    tag_11:\n        /* \"contracts/3-advanced/4-advanced-contracts.sol\":3515:3530  return c.info() */\n      swap1\n      pop\n        /* \"contracts/3-advanced/4-advanced-contracts.sol\":3460:3537  function readInfo() public view returns(uint){... */\n      swap1\n      jump\t// out\n        /* \"#utility.yul\":7:84   */\n    tag_13:\n        /* \"#utility.yul\":44:51   */\n      0x00\n        /* \"#utility.yul\":73:78   */\n      dup2\n        /* \"#utility.yul\":62:78   */\n      swap1\n      pop\n        /* \"#utility.yul\":7:84   */\n      swap2\n      swap1\n      pop\n      jump\t// out\n        /* \"#utility.yul\":90:208   */\n    tag_14:\n        /* \"#utility.yul\":177:201   */\n      tag_23\n        /* \"#utility.yul\":195:200   */\n      dup2\n        /* \"#utility.yul\":177:201   */\n      tag_13\n      jump\t// in\n    tag_23:\n        /* \"#utility.yul\":172:175   */\n      dup3\n        /* \"#utility.yul\":165:202   */\n      mstore\n        /* \"#utility.yul\":90:208   */\n      pop\n      pop\n      jump\t// out\n        /* \"#utility.yul\":214:436   */\n    tag_7:\n        /* \"#utility.yul\":307:311   */\n      0x00\n        /* \"#utility.yul\":345:347   */\n      0x20\n        /* \"#utility.yul\":334:343   */\n      dup3\n        /* \"#utility.yul\":330:348   */\n      add\n        /* \"#utility.yul\":322:348   */\n      swap1\n      pop\n        /* \"#utility.yul\":358:429   */\n      tag_25\n        /* \"#utility.yul\":426:427   */\n      0x00\n        /* \"#utility.yul\":415:424   */\n      dup4\n        /* \"#utility.yul\":411:428   */\n      add\n        /* \"#utility.yul\":402:408   */\n      dup5\n        /* \"#utility.yul\":358:429   */\n      tag_14\n      jump\t// in\n    tag_25:\n        /* \"#utility.yul\":214:436   */\n      swap3\n      swap2\n      pop\n      pop\n      jump\t// out\n        /* \"#utility.yul\":523:640   */\n    tag_16:\n        /* \"#utility.yul\":632:633   */\n      0x00\n        /* \"#utility.yul\":629:630   */\n      dup1\n        /* \"#utility.yul\":622:634   */\n      revert\n        /* \"#utility.yul\":769:891   */\n    tag_18:\n        /* \"#utility.yul\":842:866   */\n      tag_30\n        /* \"#utility.yul\":860:865   */\n      dup2\n        /* \"#utility.yul\":842:866   */\n      tag_13\n      jump\t// in\n    tag_30:\n        /* \"#utility.yul\":835:840   */\n      dup2\n        /* \"#utility.yul\":832:867   */\n      eq\n        /* \"#utility.yul\":822:885   */\n      tag_31\n      jumpi\n        /* \"#utility.yul\":881:882   */\n      0x00\n        /* \"#utility.yul\":878:879   */\n      dup1\n        /* \"#utility.yul\":871:883   */\n      revert\n        /* \"#utility.yul\":822:885   */\n    tag_31:\n        /* \"#utility.yul\":769:891   */\n      pop\n      jump\t// out\n        /* \"#utility.yul\":897:1040   */\n    tag_19:\n        /* \"#utility.yul\":954:959   */\n      0x00\n        /* \"#utility.yul\":985:991   */\n      dup2\n        /* \"#utility.yul\":979:992   */\n      mload\n        /* \"#utility.yul\":970:992   */\n      swap1\n      pop\n        /* \"#utility.yul\":1001:1034   */\n      tag_33\n        /* \"#utility.yul\":1028:1033   */\n      dup2\n        /* \"#utility.yul\":1001:1034   */\n      tag_18\n      jump\t// in\n    tag_33:\n        /* \"#utility.yul\":897:1040   */\n      swap3\n      swap2\n      pop\n      pop\n      jump\t// out\n        /* \"#utility.yul\":1046:1397   */\n    tag_12:\n        /* \"#utility.yul\":1116:1122   */\n      0x00\n        /* \"#utility.yul\":1165:1167   */\n      0x20\n        /* \"#utility.yul\":1153:1162   */\n      dup3\n        /* \"#utility.yul\":1144:1151   */\n      dup5\n        /* \"#utility.yul\":1140:1163   */\n      sub\n        /* \"#utility.yul\":1136:1168   */\n      slt\n        /* \"#utility.yul\":1133:1252   */\n      iszero\n      tag_35\n      jumpi\n        /* \"#utility.yul\":1171:1250   */\n      tag_36\n      tag_16\n      jump\t// in\n    tag_36:\n        /* \"#utility.yul\":1133:1252   */\n    tag_35:\n        /* \"#utility.yul\":1291:1292   */\n      0x00\n        /* \"#utility.yul\":1316:1380   */\n      tag_37\n        /* \"#utility.yul\":1372:1379   */\n      dup5\n        /* \"#utility.yul\":1363:1369   */\n      dup3\n        /* \"#utility.yul\":1352:1361   */\n      dup6\n        /* \"#utility.yul\":1348:1370   */\n      add\n        /* \"#utility.yul\":1316:1380   */\n      tag_19\n      jump\t// in\n    tag_37:\n        /* \"#utility.yul\":1306:1380   */\n      swap2\n      pop\n        /* \"#utility.yul\":1262:1390   */\n      pop\n        /* \"#utility.yul\":1046:1397   */\n      swap3\n      swap2\n      pop\n      pop\n      jump\t// out\n\n    auxdata: 0xa2646970667358221220d1041948426390e6ce76a759173aa003081d24bc09e513b398c1b42e234ce02b64736f6c634300081a0033\n}\n\nsub_1: assembly {\n        /* \"contracts/3-advanced/4-advanced-contracts.sol\":2709:3138  contract C{... */\n      mstore(0x40, 0x80)\n        /* \"contracts/3-advanced/4-advanced-contracts.sol\":2772:2809  constructor(){... */\n      callvalue\n      dup1\n      iszero\n      tag_1\n      jumpi\n      0x00\n      dup1\n      revert\n    tag_1:\n      pop\n        /* \"contracts/3-advanced/4-advanced-contracts.sol\":2800:2802  10 */\n      0x0a\n        /* \"contracts/3-advanced/4-advanced-contracts.sol\":2795:2799  info */\n      0x01\n        /* \"contracts/3-advanced/4-advanced-contracts.sol\":2795:2802  info=10 */\n      dup2\n      swap1\n      sstore\n      pop\n        /* \"contracts/3-advanced/4-advanced-contracts.sol\":2709:3138  contract C{... */\n      dataSize(sub_0)\n      dup1\n      dataOffset(sub_0)\n      0x00\n      codecopy\n      0x00\n      return\n    stop\n\n    sub_0: assembly {\n            /* \"contracts/3-advanced/4-advanced-contracts.sol\":2709:3138  contract C{... */\n          mstore(0x40, 0x80)\n          callvalue\n          dup1\n          iszero\n          tag_1\n          jumpi\n          0x00\n          dup1\n          revert\n        tag_1:\n          pop\n          jumpi(tag_2, lt(calldatasize, 0x04))\n          shr(0xe0, calldataload(0x00))\n          dup1\n          0x09e96008\n          eq\n          tag_3\n          jumpi\n          dup1\n          0x370158ea\n          eq\n          tag_4\n          jumpi\n          dup1\n          0x3bc5de30\n          eq\n          tag_5\n          jumpi\n          dup1\n          0x7a85644b\n          eq\n          tag_6\n          jumpi\n        tag_2:\n          0x00\n          dup1\n          revert\n            /* \"contracts/3-advanced/4-advanced-contracts.sol\":2904:2964  function updateData(uint a) public {... */\n        tag_3:\n          tag_7\n          0x04\n          dup1\n          calldatasize\n          sub\n          dup2\n          add\n          swap1\n          tag_8\n          swap2\n          swap1\n          tag_9\n          jump\t// in\n        tag_8:\n          tag_10\n          jump\t// in\n        tag_7:\n          stop\n            /* \"contracts/3-advanced/4-advanced-contracts.sol\":2749:2765  uint public info */\n        tag_4:\n          tag_11\n          tag_12\n          jump\t// in\n        tag_11:\n          mload(0x40)\n          tag_13\n          swap2\n          swap1\n          tag_14\n          jump\t// in\n        tag_13:\n          mload(0x40)\n          dup1\n          swap2\n          sub\n          swap1\n          return\n            /* \"contracts/3-advanced/4-advanced-contracts.sol\":2970:3043  function getData() public view returns (uint){... */\n        tag_5:\n          tag_15\n          tag_16\n          jump\t// in\n        tag_15:\n          mload(0x40)\n          tag_17\n          swap2\n          swap1\n          tag_14\n          jump\t// in\n        tag_17:\n          mload(0x40)\n          dup1\n          swap2\n          sub\n          swap1\n          return\n            /* \"contracts/3-advanced/4-advanced-contracts.sol\":3048:3136  function compute(uint a, uint b) public pure returns (uint){... */\n        tag_6:\n          tag_18\n          0x04\n          dup1\n          calldatasize\n          sub\n          dup2\n          add\n          swap1\n          tag_19\n          swap2\n          swap1\n          tag_20\n          jump\t// in\n        tag_19:\n          tag_21\n          jump\t// in\n        tag_18:\n          mload(0x40)\n          tag_22\n          swap2\n          swap1\n          tag_14\n          jump\t// in\n        tag_22:\n          mload(0x40)\n          dup1\n          swap2\n          sub\n          swap1\n          return\n            /* \"contracts/3-advanced/4-advanced-contracts.sol\":2904:2964  function updateData(uint a) public {... */\n        tag_10:\n            /* \"contracts/3-advanced/4-advanced-contracts.sol\":2956:2957  a */\n          dup1\n            /* \"contracts/3-advanced/4-advanced-contracts.sol\":2949:2953  data */\n          0x00\n            /* \"contracts/3-advanced/4-advanced-contracts.sol\":2949:2957  data = a */\n          dup2\n          swap1\n          sstore\n          pop\n            /* \"contracts/3-advanced/4-advanced-contracts.sol\":2904:2964  function updateData(uint a) public {... */\n          pop\n          jump\t// out\n            /* \"contracts/3-advanced/4-advanced-contracts.sol\":2749:2765  uint public info */\n        tag_12:\n          sload(0x01)\n          dup2\n          jump\t// out\n            /* \"contracts/3-advanced/4-advanced-contracts.sol\":2970:3043  function getData() public view returns (uint){... */\n        tag_16:\n            /* \"contracts/3-advanced/4-advanced-contracts.sol\":3010:3014  uint */\n          0x00\n            /* \"contracts/3-advanced/4-advanced-contracts.sol\":3032:3036  data */\n          dup1\n          sload\n            /* \"contracts/3-advanced/4-advanced-contracts.sol\":3025:3036  return data */\n          swap1\n          pop\n            /* \"contracts/3-advanced/4-advanced-contracts.sol\":2970:3043  function getData() public view returns (uint){... */\n          swap1\n          jump\t// out\n            /* \"contracts/3-advanced/4-advanced-contracts.sol\":3048:3136  function compute(uint a, uint b) public pure returns (uint){... */\n        tag_21:\n            /* \"contracts/3-advanced/4-advanced-contracts.sol\":3102:3106  uint */\n          0x00\n            /* \"contracts/3-advanced/4-advanced-contracts.sol\":3128:3129  b */\n          dup2\n            /* \"contracts/3-advanced/4-advanced-contracts.sol\":3124:3125  a */\n          dup4\n            /* \"contracts/3-advanced/4-advanced-contracts.sol\":3124:3129  a + b */\n          tag_26\n          swap2\n          swap1\n          tag_27\n          jump\t// in\n        tag_26:\n            /* \"contracts/3-advanced/4-advanced-contracts.sol\":3117:3129  return a + b */\n          swap1\n          pop\n            /* \"contracts/3-advanced/4-advanced-contracts.sol\":3048:3136  function compute(uint a, uint b) public pure returns (uint){... */\n          swap3\n          swap2\n          pop\n          pop\n          jump\t// out\n            /* \"#utility.yul\":88:205   */\n        tag_29:\n            /* \"#utility.yul\":197:198   */\n          0x00\n            /* \"#utility.yul\":194:195   */\n          dup1\n            /* \"#utility.yul\":187:199   */\n          revert\n            /* \"#utility.yul\":334:411   */\n        tag_31:\n            /* \"#utility.yul\":371:378   */\n          0x00\n            /* \"#utility.yul\":400:405   */\n          dup2\n            /* \"#utility.yul\":389:405   */\n          swap1\n          pop\n            /* \"#utility.yul\":334:411   */\n          swap2\n          swap1\n          pop\n          jump\t// out\n            /* \"#utility.yul\":417:539   */\n        tag_32:\n            /* \"#utility.yul\":490:514   */\n          tag_42\n            /* \"#utility.yul\":508:513   */\n          dup2\n            /* \"#utility.yul\":490:514   */\n          tag_31\n          jump\t// in\n        tag_42:\n            /* \"#utility.yul\":483:488   */\n          dup2\n            /* \"#utility.yul\":480:515   */\n          eq\n            /* \"#utility.yul\":470:533   */\n          tag_43\n          jumpi\n            /* \"#utility.yul\":529:530   */\n          0x00\n            /* \"#utility.yul\":526:527   */\n          dup1\n            /* \"#utility.yul\":519:531   */\n          revert\n            /* \"#utility.yul\":470:533   */\n        tag_43:\n            /* \"#utility.yul\":417:539   */\n          pop\n          jump\t// out\n            /* \"#utility.yul\":545:684   */\n        tag_33:\n            /* \"#utility.yul\":591:596   */\n          0x00\n            /* \"#utility.yul\":629:635   */\n          dup2\n            /* \"#utility.yul\":616:636   */\n          calldataload\n            /* \"#utility.yul\":607:636   */\n          swap1\n          pop\n            /* \"#utility.yul\":645:678   */\n          tag_45\n            /* \"#utility.yul\":672:677   */\n          dup2\n            /* \"#utility.yul\":645:678   */\n          tag_32\n          jump\t// in\n        tag_45:\n            /* \"#utility.yul\":545:684   */\n          swap3\n          swap2\n          pop\n          pop\n          jump\t// out\n            /* \"#utility.yul\":690:1019   */\n        tag_9:\n            /* \"#utility.yul\":749:755   */\n          0x00\n            /* \"#utility.yul\":798:800   */\n          0x20\n            /* \"#utility.yul\":786:795   */\n          dup3\n            /* \"#utility.yul\":777:784   */\n          dup5\n            /* \"#utility.yul\":773:796   */\n          sub\n            /* \"#utility.yul\":769:801   */\n          slt\n            /* \"#utility.yul\":766:885   */\n          iszero\n          tag_47\n          jumpi\n            /* \"#utility.yul\":804:883   */\n          tag_48\n          tag_29\n          jump\t// in\n        tag_48:\n            /* \"#utility.yul\":766:885   */\n        tag_47:\n            /* \"#utility.yul\":924:925   */\n          0x00\n            /* \"#utility.yul\":949:1002   */\n          tag_49\n            /* \"#utility.yul\":994:1001   */\n          dup5\n            /* \"#utility.yul\":985:991   */\n          dup3\n            /* \"#utility.yul\":974:983   */\n          dup6\n            /* \"#utility.yul\":970:992   */\n          add\n            /* \"#utility.yul\":949:1002   */\n          tag_33\n          jump\t// in\n        tag_49:\n            /* \"#utility.yul\":939:1002   */\n          swap2\n          pop\n            /* \"#utility.yul\":895:1012   */\n          pop\n            /* \"#utility.yul\":690:1019   */\n          swap3\n          swap2\n          pop\n          pop\n          jump\t// out\n            /* \"#utility.yul\":1025:1143   */\n        tag_34:\n            /* \"#utility.yul\":1112:1136   */\n          tag_51\n            /* \"#utility.yul\":1130:1135   */\n          dup2\n            /* \"#utility.yul\":1112:1136   */\n          tag_31\n          jump\t// in\n        tag_51:\n            /* \"#utility.yul\":1107:1110   */\n          dup3\n            /* \"#utility.yul\":1100:1137   */\n          mstore\n            /* \"#utility.yul\":1025:1143   */\n          pop\n          pop\n          jump\t// out\n            /* \"#utility.yul\":1149:1371   */\n        tag_14:\n            /* \"#utility.yul\":1242:1246   */\n          0x00\n            /* \"#utility.yul\":1280:1282   */\n          0x20\n            /* \"#utility.yul\":1269:1278   */\n          dup3\n            /* \"#utility.yul\":1265:1283   */\n          add\n            /* \"#utility.yul\":1257:1283   */\n          swap1\n          pop\n            /* \"#utility.yul\":1293:1364   */\n          tag_53\n            /* \"#utility.yul\":1361:1362   */\n          0x00\n            /* \"#utility.yul\":1350:1359   */\n          dup4\n            /* \"#utility.yul\":1346:1363   */\n          add\n            /* \"#utility.yul\":1337:1343   */\n          dup5\n            /* \"#utility.yul\":1293:1364   */\n          tag_34\n          jump\t// in\n        tag_53:\n            /* \"#utility.yul\":1149:1371   */\n          swap3\n          swap2\n          pop\n          pop\n          jump\t// out\n            /* \"#utility.yul\":1377:1851   */\n        tag_20:\n            /* \"#utility.yul\":1445:1451   */\n          0x00\n            /* \"#utility.yul\":1453:1459   */\n          dup1\n            /* \"#utility.yul\":1502:1504   */\n          0x40\n            /* \"#utility.yul\":1490:1499   */\n          dup4\n            /* \"#utility.yul\":1481:1488   */\n          dup6\n            /* \"#utility.yul\":1477:1500   */\n          sub\n            /* \"#utility.yul\":1473:1505   */\n          slt\n            /* \"#utility.yul\":1470:1589   */\n          iszero\n          tag_55\n          jumpi\n            /* \"#utility.yul\":1508:1587   */\n          tag_56\n          tag_29\n          jump\t// in\n        tag_56:\n            /* \"#utility.yul\":1470:1589   */\n        tag_55:\n            /* \"#utility.yul\":1628:1629   */\n          0x00\n            /* \"#utility.yul\":1653:1706   */\n          tag_57\n            /* \"#utility.yul\":1698:1705   */\n          dup6\n            /* \"#utility.yul\":1689:1695   */\n          dup3\n            /* \"#utility.yul\":1678:1687   */\n          dup7\n            /* \"#utility.yul\":1674:1696   */\n          add\n            /* \"#utility.yul\":1653:1706   */\n          tag_33\n          jump\t// in\n        tag_57:\n            /* \"#utility.yul\":1643:1706   */\n          swap3\n          pop\n            /* \"#utility.yul\":1599:1716   */\n          pop\n            /* \"#utility.yul\":1755:1757   */\n          0x20\n            /* \"#utility.yul\":1781:1834   */\n          tag_58\n            /* \"#utility.yul\":1826:1833   */\n          dup6\n            /* \"#utility.yul\":1817:1823   */\n          dup3\n            /* \"#utility.yul\":1806:1815   */\n          dup7\n            /* \"#utility.yul\":1802:1824   */\n          add\n            /* \"#utility.yul\":1781:1834   */\n          tag_33\n          jump\t// in\n        tag_58:\n            /* \"#utility.yul\":1771:1834   */\n          swap2\n          pop\n            /* \"#utility.yul\":1726:1844   */\n          pop\n            /* \"#utility.yul\":1377:1851   */\n          swap3\n          pop\n          swap3\n          swap1\n          pop\n          jump\t// out\n            /* \"#utility.yul\":1857:2037   */\n        tag_35:\n            /* \"#utility.yul\":1905:1982   */\n          0x4e487b7100000000000000000000000000000000000000000000000000000000\n            /* \"#utility.yul\":1902:1903   */\n          0x00\n            /* \"#utility.yul\":1895:1983   */\n          mstore\n            /* \"#utility.yul\":2002:2006   */\n          0x11\n            /* \"#utility.yul\":1999:2000   */\n          0x04\n            /* \"#utility.yul\":1992:2007   */\n          mstore\n            /* \"#utility.yul\":2026:2030   */\n          0x24\n            /* \"#utility.yul\":2023:2024   */\n          0x00\n            /* \"#utility.yul\":2016:2031   */\n          revert\n            /* \"#utility.yul\":2043:2234   */\n        tag_27:\n            /* \"#utility.yul\":2083:2086   */\n          0x00\n            /* \"#utility.yul\":2102:2122   */\n          tag_61\n            /* \"#utility.yul\":2120:2121   */\n          dup3\n            /* \"#utility.yul\":2102:2122   */\n          tag_31\n          jump\t// in\n        tag_61:\n            /* \"#utility.yul\":2097:2122   */\n          swap2\n          pop\n            /* \"#utility.yul\":2136:2156   */\n          tag_62\n            /* \"#utility.yul\":2154:2155   */\n          dup4\n            /* \"#utility.yul\":2136:2156   */\n          tag_31\n          jump\t// in\n        tag_62:\n            /* \"#utility.yul\":2131:2156   */\n          swap3\n          pop\n            /* \"#utility.yul\":2179:2180   */\n          dup3\n            /* \"#utility.yul\":2176:2177   */\n          dup3\n            /* \"#utility.yul\":2172:2181   */\n          add\n            /* \"#utility.yul\":2165:2181   */\n          swap1\n          pop\n            /* \"#utility.yul\":2200:2203   */\n          dup1\n            /* \"#utility.yul\":2197:2198   */\n          dup3\n            /* \"#utility.yul\":2194:2204   */\n          gt\n            /* \"#utility.yul\":2191:2227   */\n          iszero\n          tag_63\n          jumpi\n            /* \"#utility.yul\":2207:2225   */\n          tag_64\n          tag_35\n          jump\t// in\n        tag_64:\n            /* \"#utility.yul\":2191:2227   */\n        tag_63:\n            /* \"#utility.yul\":2043:2234   */\n          swap3\n          swap2\n          pop\n          pop\n          jump\t// out\n\n        auxdata: 0xa264697066735822122054d8e7d0a50687cdfda20a13dca78c683ee7f11bf34477b594eecc9c66e2bd1264736f6c634300081a0033\n    }\n}\n",
				"bytecode": {
					"linkReferences": {},
					"object": "6080604052604051600e906074565b604051809103905ff0801580156026573d5f803e3d5ffd5b505f806101000a81548173ffffffffffffffffffffffffffffffffffffffff021916908373ffffffffffffffffffffffffffffffffffffffff160217905550348015606f575f80fd5b506081565b6102848061022c83390190565b61019e8061008e5f395ff3fe608060405234801561000f575f80fd5b5060043610610029575f3560e01c80633d88f1371461002d575b5f80fd5b61003561004b565b60405161004291906100f6565b60405180910390f35b5f805f9054906101000a900473ffffffffffffffffffffffffffffffffffffffff1673ffffffffffffffffffffffffffffffffffffffff1663370158ea6040518163ffffffff1660e01b8152600401602060405180830381865afa1580156100b5573d5f803e3d5ffd5b505050506040513d601f19601f820116820180604052508101906100d9919061013d565b905090565b5f819050919050565b6100f0816100de565b82525050565b5f6020820190506101095f8301846100e7565b92915050565b5f80fd5b61011c816100de565b8114610126575f80fd5b50565b5f8151905061013781610113565b92915050565b5f602082840312156101525761015161010f565b5b5f61015f84828501610129565b9150509291505056fea2646970667358221220d1041948426390e6ce76a759173aa003081d24bc09e513b398c1b42e234ce02b64736f6c634300081a00336080604052348015600e575f80fd5b50600a600181905550610260806100245f395ff3fe608060405234801561000f575f80fd5b506004361061004a575f3560e01c806309e960081461004e578063370158ea1461006a5780633bc5de30146100885780637a85644b146100a6575b5f80fd5b61006860048036038101906100639190610139565b6100d6565b005b6100726100df565b60405161007f9190610173565b60405180910390f35b6100906100e5565b60405161009d9190610173565b60405180910390f35b6100c060048036038101906100bb919061018c565b6100ed565b6040516100cd9190610173565b60405180910390f35b805f8190555050565b60015481565b5f8054905090565b5f81836100fa91906101f7565b905092915050565b5f80fd5b5f819050919050565b61011881610106565b8114610122575f80fd5b50565b5f813590506101338161010f565b92915050565b5f6020828403121561014e5761014d610102565b5b5f61015b84828501610125565b91505092915050565b61016d81610106565b82525050565b5f6020820190506101865f830184610164565b92915050565b5f80604083850312156101a2576101a1610102565b5b5f6101af85828601610125565b92505060206101c085828601610125565b9150509250929050565b7f4e487b71000000000000000000000000000000000000000000000000000000005f52601160045260245ffd5b5f61020182610106565b915061020c83610106565b9250828201905080821115610224576102236101ca565b5b9291505056fea264697066735822122054d8e7d0a50687cdfda20a13dca78c683ee7f11bf34477b594eecc9c66e2bd1264736f6c634300081a0033",
					"opcodes": "PUSH1 0x80 PUSH1 0x40 MSTORE PUSH1 0x40 MLOAD PUSH1 0xE SWAP1 PUSH1 0x74 JUMP JUMPDEST PUSH1 0x40 MLOAD DUP1 SWAP2 SUB SWAP1 PUSH0 CREATE DUP1 ISZERO DUP1 ISZERO PUSH1 0x26 JUMPI RETURNDATASIZE PUSH0 DUP1 RETURNDATACOPY RETURNDATASIZE PUSH0 REVERT JUMPDEST POP PUSH0 DUP1 PUSH2 0x100 EXP DUP2 SLOAD DUP2 PUSH20 0xFFFFFFFFFFFFFFFFFFFFFFFFFFFFFFFFFFFFFFFF MUL NOT AND SWAP1 DUP4 PUSH20 0xFFFFFFFFFFFFFFFFFFFFFFFFFFFFFFFFFFFFFFFF AND MUL OR SWAP1 SSTORE POP CALLVALUE DUP1 ISZERO PUSH1 0x6F JUMPI PUSH0 DUP1 REVERT JUMPDEST POP PUSH1 0x81 JUMP JUMPDEST PUSH2 0x284 DUP1 PUSH2 0x22C DUP4 CODECOPY ADD SWAP1 JUMP JUMPDEST PUSH2 0x19E DUP1 PUSH2 0x8E PUSH0 CODECOPY PUSH0 RETURN INVALID PUSH1 0x80 PUSH1 0x40 MSTORE CALLVALUE DUP1 ISZERO PUSH2 0xF JUMPI PUSH0 DUP1 REVERT JUMPDEST POP PUSH1 0x4 CALLDATASIZE LT PUSH2 0x29 JUMPI PUSH0 CALLDATALOAD PUSH1 0xE0 SHR DUP1 PUSH4 0x3D88F137 EQ PUSH2 0x2D JUMPI JUMPDEST PUSH0 DUP1 REVERT JUMPDEST PUSH2 0x35 PUSH2 0x4B JUMP JUMPDEST PUSH1 0x40 MLOAD PUSH2 0x42 SWAP2 SWAP1 PUSH2 0xF6 JUMP JUMPDEST PUSH1 0x40 MLOAD DUP1 SWAP2 SUB SWAP1 RETURN JUMPDEST PUSH0 DUP1 PUSH0 SWAP1 SLOAD SWAP1 PUSH2 0x100 EXP SWAP1 DIV PUSH20 0xFFFFFFFFFFFFFFFFFFFFFFFFFFFFFFFFFFFFFFFF AND PUSH20 0xFFFFFFFFFFFFFFFFFFFFFFFFFFFFFFFFFFFFFFFF AND PUSH4 0x370158EA PUSH1 0x40 MLOAD DUP2 PUSH4 0xFFFFFFFF AND PUSH1 0xE0 SHL DUP2 MSTORE PUSH1 0x4 ADD PUSH1 0x20 PUSH1 0x40 MLOAD DUP1 DUP4 SUB DUP2 DUP7 GAS STATICCALL ISZERO DUP1 ISZERO PUSH2 0xB5 JUMPI RETURNDATASIZE PUSH0 DUP1 RETURNDATACOPY RETURNDATASIZE PUSH0 REVERT JUMPDEST POP POP POP POP PUSH1 0x40 MLOAD RETURNDATASIZE PUSH1 0x1F NOT PUSH1 0x1F DUP3 ADD AND DUP3 ADD DUP1 PUSH1 0x40 MSTORE POP DUP2 ADD SWAP1 PUSH2 0xD9 SWAP2 SWAP1 PUSH2 0x13D JUMP JUMPDEST SWAP1 POP SWAP1 JUMP JUMPDEST PUSH0 DUP2 SWAP1 POP SWAP2 SWAP1 POP JUMP JUMPDEST PUSH2 0xF0 DUP2 PUSH2 0xDE JUMP JUMPDEST DUP3 MSTORE POP POP JUMP JUMPDEST PUSH0 PUSH1 0x20 DUP3 ADD SWAP1 POP PUSH2 0x109 PUSH0 DUP4 ADD DUP5 PUSH2 0xE7 JUMP JUMPDEST SWAP3 SWAP2 POP POP JUMP JUMPDEST PUSH0 DUP1 REVERT JUMPDEST PUSH2 0x11C DUP2 PUSH2 0xDE JUMP JUMPDEST DUP2 EQ PUSH2 0x126 JUMPI PUSH0 DUP1 REVERT JUMPDEST POP JUMP JUMPDEST PUSH0 DUP2 MLOAD SWAP1 POP PUSH2 0x137 DUP2 PUSH2 0x113 JUMP JUMPDEST SWAP3 SWAP2 POP POP JUMP JUMPDEST PUSH0 PUSH1 0x20 DUP3 DUP5 SUB SLT ISZERO PUSH2 0x152 JUMPI PUSH2 0x151 PUSH2 0x10F JUMP JUMPDEST JUMPDEST PUSH0 PUSH2 0x15F DUP5 DUP3 DUP6 ADD PUSH2 0x129 JUMP JUMPDEST SWAP2 POP POP SWAP3 SWAP2 POP POP JUMP INVALID LOG2 PUSH5 0x6970667358 0x22 SLT KECCAK256 0xD1 DIV NOT BASEFEE TIMESTAMP PUSH4 0x90E6CE76 0xA7 MSIZE OR GASPRICE LOG0 SUB ADDMOD SAR 0x24 0xBC MULMOD 0xE5 SGT 0xB3 SWAP9 0xC1 0xB4 0x2E 0x23 0x4C 0xE0 0x2B PUSH5 0x736F6C6343 STOP ADDMOD BYTE STOP CALLER PUSH1 0x80 PUSH1 0x40 MSTORE CALLVALUE DUP1 ISZERO PUSH1 0xE JUMPI PUSH0 DUP1 REVERT JUMPDEST POP PUSH1 0xA PUSH1 0x1 DUP2 SWAP1 SSTORE POP PUSH2 0x260 DUP1 PUSH2 0x24 PUSH0 CODECOPY PUSH0 RETURN INVALID PUSH1 0x80 PUSH1 0x40 MSTORE CALLVALUE DUP1 ISZERO PUSH2 0xF JUMPI PUSH0 DUP1 REVERT JUMPDEST POP PUSH1 0x4 CALLDATASIZE LT PUSH2 0x4A JUMPI PUSH0 CALLDATALOAD PUSH1 0xE0 SHR DUP1 PUSH4 0x9E96008 EQ PUSH2 0x4E JUMPI DUP1 PUSH4 0x370158EA EQ PUSH2 0x6A JUMPI DUP1 PUSH4 0x3BC5DE30 EQ PUSH2 0x88 JUMPI DUP1 PUSH4 0x7A85644B EQ PUSH2 0xA6 JUMPI JUMPDEST PUSH0 DUP1 REVERT JUMPDEST PUSH2 0x68 PUSH1 0x4 DUP1 CALLDATASIZE SUB DUP2 ADD SWAP1 PUSH2 0x63 SWAP2 SWAP1 PUSH2 0x139 JUMP JUMPDEST PUSH2 0xD6 JUMP JUMPDEST STOP JUMPDEST PUSH2 0x72 PUSH2 0xDF JUMP JUMPDEST PUSH1 0x40 MLOAD PUSH2 0x7F SWAP2 SWAP1 PUSH2 0x173 JUMP JUMPDEST PUSH1 0x40 MLOAD DUP1 SWAP2 SUB SWAP1 RETURN JUMPDEST PUSH2 0x90 PUSH2 0xE5 JUMP JUMPDEST PUSH1 0x40 MLOAD PUSH2 0x9D SWAP2 SWAP1 PUSH2 0x173 JUMP JUMPDEST PUSH1 0x40 MLOAD DUP1 SWAP2 SUB SWAP1 RETURN JUMPDEST PUSH2 0xC0 PUSH1 0x4 DUP1 CALLDATASIZE SUB DUP2 ADD SWAP1 PUSH2 0xBB SWAP2 SWAP1 PUSH2 0x18C JUMP JUMPDEST PUSH2 0xED JUMP JUMPDEST PUSH1 0x40 MLOAD PUSH2 0xCD SWAP2 SWAP1 PUSH2 0x173 JUMP JUMPDEST PUSH1 0x40 MLOAD DUP1 SWAP2 SUB SWAP1 RETURN JUMPDEST DUP1 PUSH0 DUP2 SWAP1 SSTORE POP POP JUMP JUMPDEST PUSH1 0x1 SLOAD DUP2 JUMP JUMPDEST PUSH0 DUP1 SLOAD SWAP1 POP SWAP1 JUMP JUMPDEST PUSH0 DUP2 DUP4 PUSH2 0xFA SWAP2 SWAP1 PUSH2 0x1F7 JUMP JUMPDEST SWAP1 POP SWAP3 SWAP2 POP POP JUMP JUMPDEST PUSH0 DUP1 REVERT JUMPDEST PUSH0 DUP2 SWAP1 POP SWAP2 SWAP1 POP JUMP JUMPDEST PUSH2 0x118 DUP2 PUSH2 0x106 JUMP JUMPDEST DUP2 EQ PUSH2 0x122 JUMPI PUSH0 DUP1 REVERT JUMPDEST POP JUMP JUMPDEST PUSH0 DUP2 CALLDATALOAD SWAP1 POP PUSH2 0x133 DUP2 PUSH2 0x10F JUMP JUMPDEST SWAP3 SWAP2 POP POP JUMP JUMPDEST PUSH0 PUSH1 0x20 DUP3 DUP5 SUB SLT ISZERO PUSH2 0x14E JUMPI PUSH2 0x14D PUSH2 0x102 JUMP JUMPDEST JUMPDEST PUSH0 PUSH2 0x15B DUP5 DUP3 DUP6 ADD PUSH2 0x125 JUMP JUMPDEST SWAP2 POP POP SWAP3 SWAP2 POP POP JUMP JUMPDEST PUSH2 0x16D DUP2 PUSH2 0x106 JUMP JUMPDEST DUP3 MSTORE POP POP JUMP JUMPDEST PUSH0 PUSH1 0x20 DUP3 ADD SWAP1 POP PUSH2 0x186 PUSH0 DUP4 ADD DUP5 PUSH2 0x164 JUMP JUMPDEST SWAP3 SWAP2 POP POP JUMP JUMPDEST PUSH0 DUP1 PUSH1 0x40 DUP4 DUP6 SUB SLT ISZERO PUSH2 0x1A2 JUMPI PUSH2 0x1A1 PUSH2 0x102 JUMP JUMPDEST JUMPDEST PUSH0 PUSH2 0x1AF DUP6 DUP3 DUP7 ADD PUSH2 0x125 JUMP JUMPDEST SWAP3 POP POP PUSH1 0x20 PUSH2 0x1C0 DUP6 DUP3 DUP7 ADD PUSH2 0x125 JUMP JUMPDEST SWAP2 POP POP SWAP3 POP SWAP3 SWAP1 POP JUMP JUMPDEST PUSH32 0x4E487B7100000000000000000000000000000000000000000000000000000000 PUSH0 MSTORE PUSH1 0x11 PUSH1 0x4 MSTORE PUSH1 0x24 PUSH0 REVERT JUMPDEST PUSH0 PUSH2 0x201 DUP3 PUSH2 0x106 JUMP JUMPDEST SWAP2 POP PUSH2 0x20C DUP4 PUSH2 0x106 JUMP JUMPDEST SWAP3 POP DUP3 DUP3 ADD SWAP1 POP DUP1 DUP3 GT ISZERO PUSH2 0x224 JUMPI PUSH2 0x223 PUSH2 0x1CA JUMP JUMPDEST JUMPDEST SWAP3 SWAP2 POP POP JUMP INVALID LOG2 PUSH5 0x6970667358 0x22 SLT KECCAK256 SLOAD 0xD8 0xE7 0xD0 0xA5 MOD DUP8 0xCD REVERT LOG2 EXP SGT 0xDC 0xA7 DUP13 PUSH9 0x3EE7F11BF34477B594 0xEE 0xCC SWAP13 PUSH7 0xE2BD1264736F6C PUSH4 0x4300081A STOP CALLER "
				},
				"gasEstimates": {
					"creation": {
						"codeDepositCost": "82800",
						"executionCost": "infinite",
						"totalCost": "infinite"
					},
					"external": {
						"readInfo()": "infinite"
					}
				},
				"methodIdentifiers": {
					"readInfo()": "3d88f137"
				}
			},
			"storageLayout": {
				"storage": [
					{
						"astId": 121,
						"contract": "contracts/3-advanced/4-advanced-contracts.sol:D",
						"label": "c",
						"offset": 0,
						"slot": "0",
						"type": "t_contract(C)114"
					}
				],
				"types": {
					"t_contract(C)114": {
						"encoding": "inplace",
						"label": "contract C",
						"numberOfBytes": "20"
					}
				}
			},
			"userdoc": {
				"kind": "user",
				"methods": {},
				"version": 1
			}
		}
	}
}