{
	"contracts/3-advanced/11-advanced-error-handling.sol": {
		"Vendor": {
			"abi": [
				{
					"inputs": [],
					"name": "becomeSeller",
					"outputs": [],
					"stateMutability": "nonpayable",
					"type": "function"
				},
				{
					"inputs": [
						{
							"internalType": "uint256",
							"name": "amount",
							"type": "uint256"
						}
					],
					"name": "sell",
					"outputs": [],
					"stateMutability": "payable",
					"type": "function"
				},
				{
					"inputs": [],
					"name": "seller",
					"outputs": [
						{
							"internalType": "address",
							"name": "",
							"type": "address"
						}
					],
					"stateMutability": "view",
					"type": "function"
				}
			],
			"devdoc": {
				"kind": "dev",
				"methods": {},
				"version": 1
			},
			"evm": {
				"assembly": "    /* \"contracts/3-advanced/11-advanced-error-handling.sol\":2503:2966  contract Vendor{... */\n  mstore(0x40, 0x80)\n  callvalue\n  dup1\n  iszero\n  tag_1\n  jumpi\n  0x00\n  dup1\n  revert\ntag_1:\n  pop\n  dataSize(sub_0)\n  dup1\n  dataOffset(sub_0)\n  0x00\n  codecopy\n  0x00\n  return\nstop\n\nsub_0: assembly {\n        /* \"contracts/3-advanced/11-advanced-error-handling.sol\":2503:2966  contract Vendor{... */\n      mstore(0x40, 0x80)\n      jumpi(tag_1, lt(calldatasize, 0x04))\n      shr(0xe0, calldataload(0x00))\n      dup1\n      0x08551a53\n      eq\n      tag_2\n      jumpi\n      dup1\n      0x8f299b1e\n      eq\n      tag_3\n      jumpi\n      dup1\n      0xe4849b32\n      eq\n      tag_4\n      jumpi\n    tag_1:\n      0x00\n      dup1\n      revert\n        /* \"contracts/3-advanced/11-advanced-error-handling.sol\":2524:2545  address public seller */\n    tag_2:\n      callvalue\n      dup1\n      iszero\n      tag_5\n      jumpi\n      0x00\n      dup1\n      revert\n    tag_5:\n      pop\n      tag_6\n      tag_7\n      jump\t// in\n    tag_6:\n      mload(0x40)\n      tag_8\n      swap2\n      swap1\n      tag_9\n      jump\t// in\n    tag_8:\n      mload(0x40)\n      dup1\n      swap2\n      sub\n      swap1\n      return\n        /* \"contracts/3-advanced/11-advanced-error-handling.sol\":2673:2799  function becomeSeller() public {... */\n    tag_3:\n      callvalue\n      dup1\n      iszero\n      tag_10\n      jumpi\n      0x00\n      dup1\n      revert\n    tag_10:\n      pop\n      tag_11\n      tag_12\n      jump\t// in\n    tag_11:\n      stop\n        /* \"contracts/3-advanced/11-advanced-error-handling.sol\":2805:2964  function sell(uint amount) public payable onlySeller{... */\n    tag_4:\n      tag_13\n      0x04\n      dup1\n      calldatasize\n      sub\n      dup2\n      add\n      swap1\n      tag_14\n      swap2\n      swap1\n      tag_15\n      jump\t// in\n    tag_14:\n      tag_16\n      jump\t// in\n    tag_13:\n      stop\n        /* \"contracts/3-advanced/11-advanced-error-handling.sol\":2524:2545  address public seller */\n    tag_7:\n      0x00\n      dup1\n      sload\n      swap1\n      0x0100\n      exp\n      swap1\n      div\n      0xffffffffffffffffffffffffffffffffffffffff\n      and\n      dup2\n      jump\t// out\n        /* \"contracts/3-advanced/11-advanced-error-handling.sol\":2673:2799  function becomeSeller() public {... */\n    tag_12:\n        /* \"contracts/3-advanced/11-advanced-error-handling.sol\":2782:2792  msg.sender */\n      caller\n        /* \"contracts/3-advanced/11-advanced-error-handling.sol\":2773:2779  seller */\n      0x00\n      dup1\n        /* \"contracts/3-advanced/11-advanced-error-handling.sol\":2773:2792  seller = msg.sender */\n      0x0100\n      exp\n      dup2\n      sload\n      dup2\n      0xffffffffffffffffffffffffffffffffffffffff\n      mul\n      not\n      and\n      swap1\n      dup4\n      0xffffffffffffffffffffffffffffffffffffffff\n      and\n      mul\n      or\n      swap1\n      sstore\n      pop\n        /* \"contracts/3-advanced/11-advanced-error-handling.sol\":2673:2799  function becomeSeller() public {... */\n      jump\t// out\n        /* \"contracts/3-advanced/11-advanced-error-handling.sol\":2805:2964  function sell(uint amount) public payable onlySeller{... */\n    tag_16:\n        /* \"contracts/3-advanced/11-advanced-error-handling.sol\":2605:2611  seller */\n      0x00\n      dup1\n      sload\n      swap1\n      0x0100\n      exp\n      swap1\n      div\n      0xffffffffffffffffffffffffffffffffffffffff\n      and\n        /* \"contracts/3-advanced/11-advanced-error-handling.sol\":2591:2611  msg.sender == seller */\n      0xffffffffffffffffffffffffffffffffffffffff\n      and\n        /* \"contracts/3-advanced/11-advanced-error-handling.sol\":2591:2601  msg.sender */\n      caller\n        /* \"contracts/3-advanced/11-advanced-error-handling.sol\":2591:2611  msg.sender == seller */\n      0xffffffffffffffffffffffffffffffffffffffff\n      and\n      eq\n        /* \"contracts/3-advanced/11-advanced-error-handling.sol\":2583:2650  require(msg.sender == seller, \"Only Sellers can use this function\") */\n      tag_19\n      jumpi\n      mload(0x40)\n      0x08c379a000000000000000000000000000000000000000000000000000000000\n      dup2\n      mstore\n      0x04\n      add\n      tag_20\n      swap1\n      tag_21\n      jump\t// in\n    tag_20:\n      mload(0x40)\n      dup1\n      swap2\n      sub\n      swap1\n      revert\n    tag_19:\n        /* \"contracts/3-advanced/11-advanced-error-handling.sol\":2879:2888  msg.value */\n      callvalue\n        /* \"contracts/3-advanced/11-advanced-error-handling.sol\":2870:2876  amount */\n      dup2\n        /* \"contracts/3-advanced/11-advanced-error-handling.sol\":2870:2888  amount > msg.value */\n      gt\n        /* \"contracts/3-advanced/11-advanced-error-handling.sol\":2867:2958  if(amount > msg.value){... */\n      iszero\n      tag_23\n      jumpi\n        /* \"contracts/3-advanced/11-advanced-error-handling.sol\":2903:2947  revert(\"There is not enough ether provided\") */\n      mload(0x40)\n      0x08c379a000000000000000000000000000000000000000000000000000000000\n      dup2\n      mstore\n      0x04\n      add\n      tag_24\n      swap1\n      tag_25\n      jump\t// in\n    tag_24:\n      mload(0x40)\n      dup1\n      swap2\n      sub\n      swap1\n      revert\n        /* \"contracts/3-advanced/11-advanced-error-handling.sol\":2867:2958  if(amount > msg.value){... */\n    tag_23:\n        /* \"contracts/3-advanced/11-advanced-error-handling.sol\":2805:2964  function sell(uint amount) public payable onlySeller{... */\n      pop\n      jump\t// out\n        /* \"#utility.yul\":7:133   */\n    tag_26:\n        /* \"#utility.yul\":44:51   */\n      0x00\n        /* \"#utility.yul\":84:126   */\n      0xffffffffffffffffffffffffffffffffffffffff\n        /* \"#utility.yul\":77:82   */\n      dup3\n        /* \"#utility.yul\":73:127   */\n      and\n        /* \"#utility.yul\":62:127   */\n      swap1\n      pop\n        /* \"#utility.yul\":7:133   */\n      swap2\n      swap1\n      pop\n      jump\t// out\n        /* \"#utility.yul\":139:235   */\n    tag_27:\n        /* \"#utility.yul\":176:183   */\n      0x00\n        /* \"#utility.yul\":205:229   */\n      tag_43\n        /* \"#utility.yul\":223:228   */\n      dup3\n        /* \"#utility.yul\":205:229   */\n      tag_26\n      jump\t// in\n    tag_43:\n        /* \"#utility.yul\":194:229   */\n      swap1\n      pop\n        /* \"#utility.yul\":139:235   */\n      swap2\n      swap1\n      pop\n      jump\t// out\n        /* \"#utility.yul\":241:359   */\n    tag_28:\n        /* \"#utility.yul\":328:352   */\n      tag_45\n        /* \"#utility.yul\":346:351   */\n      dup2\n        /* \"#utility.yul\":328:352   */\n      tag_27\n      jump\t// in\n    tag_45:\n        /* \"#utility.yul\":323:326   */\n      dup3\n        /* \"#utility.yul\":316:353   */\n      mstore\n        /* \"#utility.yul\":241:359   */\n      pop\n      pop\n      jump\t// out\n        /* \"#utility.yul\":365:587   */\n    tag_9:\n        /* \"#utility.yul\":458:462   */\n      0x00\n        /* \"#utility.yul\":496:498   */\n      0x20\n        /* \"#utility.yul\":485:494   */\n      dup3\n        /* \"#utility.yul\":481:499   */\n      add\n        /* \"#utility.yul\":473:499   */\n      swap1\n      pop\n        /* \"#utility.yul\":509:580   */\n      tag_47\n        /* \"#utility.yul\":577:578   */\n      0x00\n        /* \"#utility.yul\":566:575   */\n      dup4\n        /* \"#utility.yul\":562:579   */\n      add\n        /* \"#utility.yul\":553:559   */\n      dup5\n        /* \"#utility.yul\":509:580   */\n      tag_28\n      jump\t// in\n    tag_47:\n        /* \"#utility.yul\":365:587   */\n      swap3\n      swap2\n      pop\n      pop\n      jump\t// out\n        /* \"#utility.yul\":674:791   */\n    tag_30:\n        /* \"#utility.yul\":783:784   */\n      0x00\n        /* \"#utility.yul\":780:781   */\n      dup1\n        /* \"#utility.yul\":773:785   */\n      revert\n        /* \"#utility.yul\":920:997   */\n    tag_32:\n        /* \"#utility.yul\":957:964   */\n      0x00\n        /* \"#utility.yul\":986:991   */\n      dup2\n        /* \"#utility.yul\":975:991   */\n      swap1\n      pop\n        /* \"#utility.yul\":920:997   */\n      swap2\n      swap1\n      pop\n      jump\t// out\n        /* \"#utility.yul\":1003:1125   */\n    tag_33:\n        /* \"#utility.yul\":1076:1100   */\n      tag_53\n        /* \"#utility.yul\":1094:1099   */\n      dup2\n        /* \"#utility.yul\":1076:1100   */\n      tag_32\n      jump\t// in\n    tag_53:\n        /* \"#utility.yul\":1069:1074   */\n      dup2\n        /* \"#utility.yul\":1066:1101   */\n      eq\n        /* \"#utility.yul\":1056:1119   */\n      tag_54\n      jumpi\n        /* \"#utility.yul\":1115:1116   */\n      0x00\n        /* \"#utility.yul\":1112:1113   */\n      dup1\n        /* \"#utility.yul\":1105:1117   */\n      revert\n        /* \"#utility.yul\":1056:1119   */\n    tag_54:\n        /* \"#utility.yul\":1003:1125   */\n      pop\n      jump\t// out\n        /* \"#utility.yul\":1131:1270   */\n    tag_34:\n        /* \"#utility.yul\":1177:1182   */\n      0x00\n        /* \"#utility.yul\":1215:1221   */\n      dup2\n        /* \"#utility.yul\":1202:1222   */\n      calldataload\n        /* \"#utility.yul\":1193:1222   */\n      swap1\n      pop\n        /* \"#utility.yul\":1231:1264   */\n      tag_56\n        /* \"#utility.yul\":1258:1263   */\n      dup2\n        /* \"#utility.yul\":1231:1264   */\n      tag_33\n      jump\t// in\n    tag_56:\n        /* \"#utility.yul\":1131:1270   */\n      swap3\n      swap2\n      pop\n      pop\n      jump\t// out\n        /* \"#utility.yul\":1276:1605   */\n    tag_15:\n        /* \"#utility.yul\":1335:1341   */\n      0x00\n        /* \"#utility.yul\":1384:1386   */\n      0x20\n        /* \"#utility.yul\":1372:1381   */\n      dup3\n        /* \"#utility.yul\":1363:1370   */\n      dup5\n        /* \"#utility.yul\":1359:1382   */\n      sub\n        /* \"#utility.yul\":1355:1387   */\n      slt\n        /* \"#utility.yul\":1352:1471   */\n      iszero\n      tag_58\n      jumpi\n        /* \"#utility.yul\":1390:1469   */\n      tag_59\n      tag_30\n      jump\t// in\n    tag_59:\n        /* \"#utility.yul\":1352:1471   */\n    tag_58:\n        /* \"#utility.yul\":1510:1511   */\n      0x00\n        /* \"#utility.yul\":1535:1588   */\n      tag_60\n        /* \"#utility.yul\":1580:1587   */\n      dup5\n        /* \"#utility.yul\":1571:1577   */\n      dup3\n        /* \"#utility.yul\":1560:1569   */\n      dup6\n        /* \"#utility.yul\":1556:1578   */\n      add\n        /* \"#utility.yul\":1535:1588   */\n      tag_34\n      jump\t// in\n    tag_60:\n        /* \"#utility.yul\":1525:1588   */\n      swap2\n      pop\n        /* \"#utility.yul\":1481:1598   */\n      pop\n        /* \"#utility.yul\":1276:1605   */\n      swap3\n      swap2\n      pop\n      pop\n      jump\t// out\n        /* \"#utility.yul\":1611:1780   */\n    tag_35:\n        /* \"#utility.yul\":1695:1706   */\n      0x00\n        /* \"#utility.yul\":1729:1735   */\n      dup3\n        /* \"#utility.yul\":1724:1727   */\n      dup3\n        /* \"#utility.yul\":1717:1736   */\n      mstore\n        /* \"#utility.yul\":1769:1773   */\n      0x20\n        /* \"#utility.yul\":1764:1767   */\n      dup3\n        /* \"#utility.yul\":1760:1774   */\n      add\n        /* \"#utility.yul\":1745:1774   */\n      swap1\n      pop\n        /* \"#utility.yul\":1611:1780   */\n      swap3\n      swap2\n      pop\n      pop\n      jump\t// out\n        /* \"#utility.yul\":1786:2007   */\n    tag_36:\n        /* \"#utility.yul\":1926:1960   */\n      0x4f6e6c792053656c6c6572732063616e2075736520746869732066756e637469\n        /* \"#utility.yul\":1922:1923   */\n      0x00\n        /* \"#utility.yul\":1914:1920   */\n      dup3\n        /* \"#utility.yul\":1910:1924   */\n      add\n        /* \"#utility.yul\":1903:1961   */\n      mstore\n        /* \"#utility.yul\":1995:1999   */\n      0x6f6e000000000000000000000000000000000000000000000000000000000000\n        /* \"#utility.yul\":1990:1992   */\n      0x20\n        /* \"#utility.yul\":1982:1988   */\n      dup3\n        /* \"#utility.yul\":1978:1993   */\n      add\n        /* \"#utility.yul\":1971:2000   */\n      mstore\n        /* \"#utility.yul\":1786:2007   */\n      pop\n      jump\t// out\n        /* \"#utility.yul\":2013:2379   */\n    tag_37:\n        /* \"#utility.yul\":2155:2158   */\n      0x00\n        /* \"#utility.yul\":2176:2243   */\n      tag_64\n        /* \"#utility.yul\":2240:2242   */\n      0x22\n        /* \"#utility.yul\":2235:2238   */\n      dup4\n        /* \"#utility.yul\":2176:2243   */\n      tag_35\n      jump\t// in\n    tag_64:\n        /* \"#utility.yul\":2169:2243   */\n      swap2\n      pop\n        /* \"#utility.yul\":2252:2345   */\n      tag_65\n        /* \"#utility.yul\":2341:2344   */\n      dup3\n        /* \"#utility.yul\":2252:2345   */\n      tag_36\n      jump\t// in\n    tag_65:\n        /* \"#utility.yul\":2370:2372   */\n      0x40\n        /* \"#utility.yul\":2365:2368   */\n      dup3\n        /* \"#utility.yul\":2361:2373   */\n      add\n        /* \"#utility.yul\":2354:2373   */\n      swap1\n      pop\n        /* \"#utility.yul\":2013:2379   */\n      swap2\n      swap1\n      pop\n      jump\t// out\n        /* \"#utility.yul\":2385:2804   */\n    tag_21:\n        /* \"#utility.yul\":2551:2555   */\n      0x00\n        /* \"#utility.yul\":2589:2591   */\n      0x20\n        /* \"#utility.yul\":2578:2587   */\n      dup3\n        /* \"#utility.yul\":2574:2592   */\n      add\n        /* \"#utility.yul\":2566:2592   */\n      swap1\n      pop\n        /* \"#utility.yul\":2638:2647   */\n      dup2\n        /* \"#utility.yul\":2632:2636   */\n      dup2\n        /* \"#utility.yul\":2628:2648   */\n      sub\n        /* \"#utility.yul\":2624:2625   */\n      0x00\n        /* \"#utility.yul\":2613:2622   */\n      dup4\n        /* \"#utility.yul\":2609:2626   */\n      add\n        /* \"#utility.yul\":2602:2649   */\n      mstore\n        /* \"#utility.yul\":2666:2797   */\n      tag_67\n        /* \"#utility.yul\":2792:2796   */\n      dup2\n        /* \"#utility.yul\":2666:2797   */\n      tag_37\n      jump\t// in\n    tag_67:\n        /* \"#utility.yul\":2658:2797   */\n      swap1\n      pop\n        /* \"#utility.yul\":2385:2804   */\n      swap2\n      swap1\n      pop\n      jump\t// out\n        /* \"#utility.yul\":2810:3031   */\n    tag_38:\n        /* \"#utility.yul\":2950:2984   */\n      0x5468657265206973206e6f7420656e6f7567682065746865722070726f766964\n        /* \"#utility.yul\":2946:2947   */\n      0x00\n        /* \"#utility.yul\":2938:2944   */\n      dup3\n        /* \"#utility.yul\":2934:2948   */\n      add\n        /* \"#utility.yul\":2927:2985   */\n      mstore\n        /* \"#utility.yul\":3019:3023   */\n      0x6564000000000000000000000000000000000000000000000000000000000000\n        /* \"#utility.yul\":3014:3016   */\n      0x20\n        /* \"#utility.yul\":3006:3012   */\n      dup3\n        /* \"#utility.yul\":3002:3017   */\n      add\n        /* \"#utility.yul\":2995:3024   */\n      mstore\n        /* \"#utility.yul\":2810:3031   */\n      pop\n      jump\t// out\n        /* \"#utility.yul\":3037:3403   */\n    tag_39:\n        /* \"#utility.yul\":3179:3182   */\n      0x00\n        /* \"#utility.yul\":3200:3267   */\n      tag_70\n        /* \"#utility.yul\":3264:3266   */\n      0x22\n        /* \"#utility.yul\":3259:3262   */\n      dup4\n        /* \"#utility.yul\":3200:3267   */\n      tag_35\n      jump\t// in\n    tag_70:\n        /* \"#utility.yul\":3193:3267   */\n      swap2\n      pop\n        /* \"#utility.yul\":3276:3369   */\n      tag_71\n        /* \"#utility.yul\":3365:3368   */\n      dup3\n        /* \"#utility.yul\":3276:3369   */\n      tag_38\n      jump\t// in\n    tag_71:\n        /* \"#utility.yul\":3394:3396   */\n      0x40\n        /* \"#utility.yul\":3389:3392   */\n      dup3\n        /* \"#utility.yul\":3385:3397   */\n      add\n        /* \"#utility.yul\":3378:3397   */\n      swap1\n      pop\n        /* \"#utility.yul\":3037:3403   */\n      swap2\n      swap1\n      pop\n      jump\t// out\n        /* \"#utility.yul\":3409:3828   */\n    tag_25:\n        /* \"#utility.yul\":3575:3579   */\n      0x00\n        /* \"#utility.yul\":3613:3615   */\n      0x20\n        /* \"#utility.yul\":3602:3611   */\n      dup3\n        /* \"#utility.yul\":3598:3616   */\n      add\n        /* \"#utility.yul\":3590:3616   */\n      swap1\n      pop\n        /* \"#utility.yul\":3662:3671   */\n      dup2\n        /* \"#utility.yul\":3656:3660   */\n      dup2\n        /* \"#utility.yul\":3652:3672   */\n      sub\n        /* \"#utility.yul\":3648:3649   */\n      0x00\n        /* \"#utility.yul\":3637:3646   */\n      dup4\n        /* \"#utility.yul\":3633:3650   */\n      add\n        /* \"#utility.yul\":3626:3673   */\n      mstore\n        /* \"#utility.yul\":3690:3821   */\n      tag_73\n        /* \"#utility.yul\":3816:3820   */\n      dup2\n        /* \"#utility.yul\":3690:3821   */\n      tag_39\n      jump\t// in\n    tag_73:\n        /* \"#utility.yul\":3682:3821   */\n      swap1\n      pop\n        /* \"#utility.yul\":3409:3828   */\n      swap2\n      swap1\n      pop\n      jump\t// out\n\n    auxdata: 0xa264697066735822122041749da3039385128ba3fc37fe70c7d28aae5e40d8d0c0fdf83b472a629cf45464736f6c634300081a0033\n}\n",
				"bytecode": {
					"linkReferences": {},
					"object": "6080604052348015600e575f80fd5b506103e68061001c5f395ff3fe608060405260043610610033575f3560e01c806308551a53146100375780638f299b1e14610061578063e4849b3214610077575b5f80fd5b348015610042575f80fd5b5061004b610093565b6040516100589190610209565b60405180910390f35b34801561006c575f80fd5b506100756100b6565b005b610091600480360381019061008c9190610259565b6100f7565b005b5f8054906101000a900473ffffffffffffffffffffffffffffffffffffffff1681565b335f806101000a81548173ffffffffffffffffffffffffffffffffffffffff021916908373ffffffffffffffffffffffffffffffffffffffff160217905550565b5f8054906101000a900473ffffffffffffffffffffffffffffffffffffffff1673ffffffffffffffffffffffffffffffffffffffff163373ffffffffffffffffffffffffffffffffffffffff1614610184576040517f08c379a000000000000000000000000000000000000000000000000000000000815260040161017b90610304565b60405180910390fd5b348111156101c7576040517f08c379a00000000000000000000000000000000000000000000000000000000081526004016101be90610392565b60405180910390fd5b50565b5f73ffffffffffffffffffffffffffffffffffffffff82169050919050565b5f6101f3826101ca565b9050919050565b610203816101e9565b82525050565b5f60208201905061021c5f8301846101fa565b92915050565b5f80fd5b5f819050919050565b61023881610226565b8114610242575f80fd5b50565b5f813590506102538161022f565b92915050565b5f6020828403121561026e5761026d610222565b5b5f61027b84828501610245565b91505092915050565b5f82825260208201905092915050565b7f4f6e6c792053656c6c6572732063616e2075736520746869732066756e6374695f8201527f6f6e000000000000000000000000000000000000000000000000000000000000602082015250565b5f6102ee602283610284565b91506102f982610294565b604082019050919050565b5f6020820190508181035f83015261031b816102e2565b9050919050565b7f5468657265206973206e6f7420656e6f7567682065746865722070726f7669645f8201527f6564000000000000000000000000000000000000000000000000000000000000602082015250565b5f61037c602283610284565b915061038782610322565b604082019050919050565b5f6020820190508181035f8301526103a981610370565b905091905056fea264697066735822122041749da3039385128ba3fc37fe70c7d28aae5e40d8d0c0fdf83b472a629cf45464736f6c634300081a0033",
					"opcodes": "PUSH1 0x80 PUSH1 0x40 MSTORE CALLVALUE DUP1 ISZERO PUSH1 0xE JUMPI PUSH0 DUP1 REVERT JUMPDEST POP PUSH2 0x3E6 DUP1 PUSH2 0x1C PUSH0 CODECOPY PUSH0 RETURN INVALID PUSH1 0x80 PUSH1 0x40 MSTORE PUSH1 0x4 CALLDATASIZE LT PUSH2 0x33 JUMPI PUSH0 CALLDATALOAD PUSH1 0xE0 SHR DUP1 PUSH4 0x8551A53 EQ PUSH2 0x37 JUMPI DUP1 PUSH4 0x8F299B1E EQ PUSH2 0x61 JUMPI DUP1 PUSH4 0xE4849B32 EQ PUSH2 0x77 JUMPI JUMPDEST PUSH0 DUP1 REVERT JUMPDEST CALLVALUE DUP1 ISZERO PUSH2 0x42 JUMPI PUSH0 DUP1 REVERT JUMPDEST POP PUSH2 0x4B PUSH2 0x93 JUMP JUMPDEST PUSH1 0x40 MLOAD PUSH2 0x58 SWAP2 SWAP1 PUSH2 0x209 JUMP JUMPDEST PUSH1 0x40 MLOAD DUP1 SWAP2 SUB SWAP1 RETURN JUMPDEST CALLVALUE DUP1 ISZERO PUSH2 0x6C JUMPI PUSH0 DUP1 REVERT JUMPDEST POP PUSH2 0x75 PUSH2 0xB6 JUMP JUMPDEST STOP JUMPDEST PUSH2 0x91 PUSH1 0x4 DUP1 CALLDATASIZE SUB DUP2 ADD SWAP1 PUSH2 0x8C SWAP2 SWAP1 PUSH2 0x259 JUMP JUMPDEST PUSH2 0xF7 JUMP JUMPDEST STOP JUMPDEST PUSH0 DUP1 SLOAD SWAP1 PUSH2 0x100 EXP SWAP1 DIV PUSH20 0xFFFFFFFFFFFFFFFFFFFFFFFFFFFFFFFFFFFFFFFF AND DUP2 JUMP JUMPDEST CALLER PUSH0 DUP1 PUSH2 0x100 EXP DUP2 SLOAD DUP2 PUSH20 0xFFFFFFFFFFFFFFFFFFFFFFFFFFFFFFFFFFFFFFFF MUL NOT AND SWAP1 DUP4 PUSH20 0xFFFFFFFFFFFFFFFFFFFFFFFFFFFFFFFFFFFFFFFF AND MUL OR SWAP1 SSTORE POP JUMP JUMPDEST PUSH0 DUP1 SLOAD SWAP1 PUSH2 0x100 EXP SWAP1 DIV PUSH20 0xFFFFFFFFFFFFFFFFFFFFFFFFFFFFFFFFFFFFFFFF AND PUSH20 0xFFFFFFFFFFFFFFFFFFFFFFFFFFFFFFFFFFFFFFFF AND CALLER PUSH20 0xFFFFFFFFFFFFFFFFFFFFFFFFFFFFFFFFFFFFFFFF AND EQ PUSH2 0x184 JUMPI PUSH1 0x40 MLOAD PUSH32 0x8C379A000000000000000000000000000000000000000000000000000000000 DUP2 MSTORE PUSH1 0x4 ADD PUSH2 0x17B SWAP1 PUSH2 0x304 JUMP JUMPDEST PUSH1 0x40 MLOAD DUP1 SWAP2 SUB SWAP1 REVERT JUMPDEST CALLVALUE DUP2 GT ISZERO PUSH2 0x1C7 JUMPI PUSH1 0x40 MLOAD PUSH32 0x8C379A000000000000000000000000000000000000000000000000000000000 DUP2 MSTORE PUSH1 0x4 ADD PUSH2 0x1BE SWAP1 PUSH2 0x392 JUMP JUMPDEST PUSH1 0x40 MLOAD DUP1 SWAP2 SUB SWAP1 REVERT JUMPDEST POP JUMP JUMPDEST PUSH0 PUSH20 0xFFFFFFFFFFFFFFFFFFFFFFFFFFFFFFFFFFFFFFFF DUP3 AND SWAP1 POP SWAP2 SWAP1 POP JUMP JUMPDEST PUSH0 PUSH2 0x1F3 DUP3 PUSH2 0x1CA JUMP JUMPDEST SWAP1 POP SWAP2 SWAP1 POP JUMP JUMPDEST PUSH2 0x203 DUP2 PUSH2 0x1E9 JUMP JUMPDEST DUP3 MSTORE POP POP JUMP JUMPDEST PUSH0 PUSH1 0x20 DUP3 ADD SWAP1 POP PUSH2 0x21C PUSH0 DUP4 ADD DUP5 PUSH2 0x1FA JUMP JUMPDEST SWAP3 SWAP2 POP POP JUMP JUMPDEST PUSH0 DUP1 REVERT JUMPDEST PUSH0 DUP2 SWAP1 POP SWAP2 SWAP1 POP JUMP JUMPDEST PUSH2 0x238 DUP2 PUSH2 0x226 JUMP JUMPDEST DUP2 EQ PUSH2 0x242 JUMPI PUSH0 DUP1 REVERT JUMPDEST POP JUMP JUMPDEST PUSH0 DUP2 CALLDATALOAD SWAP1 POP PUSH2 0x253 DUP2 PUSH2 0x22F JUMP JUMPDEST SWAP3 SWAP2 POP POP JUMP JUMPDEST PUSH0 PUSH1 0x20 DUP3 DUP5 SUB SLT ISZERO PUSH2 0x26E JUMPI PUSH2 0x26D PUSH2 0x222 JUMP JUMPDEST JUMPDEST PUSH0 PUSH2 0x27B DUP5 DUP3 DUP6 ADD PUSH2 0x245 JUMP JUMPDEST SWAP2 POP POP SWAP3 SWAP2 POP POP JUMP JUMPDEST PUSH0 DUP3 DUP3 MSTORE PUSH1 0x20 DUP3 ADD SWAP1 POP SWAP3 SWAP2 POP POP JUMP JUMPDEST PUSH32 0x4F6E6C792053656C6C6572732063616E2075736520746869732066756E637469 PUSH0 DUP3 ADD MSTORE PUSH32 0x6F6E000000000000000000000000000000000000000000000000000000000000 PUSH1 0x20 DUP3 ADD MSTORE POP JUMP JUMPDEST PUSH0 PUSH2 0x2EE PUSH1 0x22 DUP4 PUSH2 0x284 JUMP JUMPDEST SWAP2 POP PUSH2 0x2F9 DUP3 PUSH2 0x294 JUMP JUMPDEST PUSH1 0x40 DUP3 ADD SWAP1 POP SWAP2 SWAP1 POP JUMP JUMPDEST PUSH0 PUSH1 0x20 DUP3 ADD SWAP1 POP DUP2 DUP2 SUB PUSH0 DUP4 ADD MSTORE PUSH2 0x31B DUP2 PUSH2 0x2E2 JUMP JUMPDEST SWAP1 POP SWAP2 SWAP1 POP JUMP JUMPDEST PUSH32 0x5468657265206973206E6F7420656E6F7567682065746865722070726F766964 PUSH0 DUP3 ADD MSTORE PUSH32 0x6564000000000000000000000000000000000000000000000000000000000000 PUSH1 0x20 DUP3 ADD MSTORE POP JUMP JUMPDEST PUSH0 PUSH2 0x37C PUSH1 0x22 DUP4 PUSH2 0x284 JUMP JUMPDEST SWAP2 POP PUSH2 0x387 DUP3 PUSH2 0x322 JUMP JUMPDEST PUSH1 0x40 DUP3 ADD SWAP1 POP SWAP2 SWAP1 POP JUMP JUMPDEST PUSH0 PUSH1 0x20 DUP3 ADD SWAP1 POP DUP2 DUP2 SUB PUSH0 DUP4 ADD MSTORE PUSH2 0x3A9 DUP2 PUSH2 0x370 JUMP JUMPDEST SWAP1 POP SWAP2 SWAP1 POP JUMP INVALID LOG2 PUSH5 0x6970667358 0x22 SLT KECCAK256 COINBASE PUSH21 0x9DA3039385128BA3FC37FE70C7D28AAE5E40D8D0C0 REVERT 0xF8 EXTCODESIZE SELFBALANCE 0x2A PUSH3 0x9CF454 PUSH5 0x736F6C6343 STOP ADDMOD BYTE STOP CALLER "
				},
				"gasEstimates": {
					"creation": {
						"codeDepositCost": "199600",
						"executionCost": "243",
						"totalCost": "199843"
					},
					"external": {
						"becomeSeller()": "24408",
						"sell(uint256)": "2890",
						"seller()": "2483"
					}
				},
				"methodIdentifiers": {
					"becomeSeller()": "8f299b1e",
					"sell(uint256)": "e4849b32",
					"seller()": "08551a53"
				}
			},
			"storageLayout": {
				"storage": [
					{
						"astId": 76,
						"contract": "contracts/3-advanced/11-advanced-error-handling.sol:Vendor",
						"label": "seller",
						"offset": 0,
						"slot": "0",
						"type": "t_address"
					}
				],
				"types": {
					"t_address": {
						"encoding": "inplace",
						"label": "address",
						"numberOfBytes": "20"
					}
				}
			},
			"userdoc": {
				"kind": "user",
				"methods": {},
				"version": 1
			}
		}
	}
}