{
	"contracts/2-indepth/7-etherunits.sol": {
		"learnEtherUnits": {
			"abi": [
				{
					"inputs": [],
					"name": "exercise",
					"outputs": [],
					"stateMutability": "pure",
					"type": "function"
				},
				{
					"inputs": [],
					"name": "test",
					"outputs": [],
					"stateMutability": "pure",
					"type": "function"
				}
			],
			"devdoc": {
				"kind": "dev",
				"methods": {},
				"version": 1
			},
			"evm": {
				"assembly": "    /* \"contracts/2-indepth/7-etherunits.sol\":68:639  contract learnEtherUnits{... */\n  mstore(0x40, 0x80)\n  callvalue\n  dup1\n  iszero\n  tag_1\n  jumpi\n  0x00\n  dup1\n  revert\ntag_1:\n  pop\n  dataSize(sub_0)\n  dup1\n  dataOffset(sub_0)\n  0x00\n  codecopy\n  0x00\n  return\nstop\n\nsub_0: assembly {\n        /* \"contracts/2-indepth/7-etherunits.sol\":68:639  contract learnEtherUnits{... */\n      mstore(0x40, 0x80)\n      callvalue\n      dup1\n      iszero\n      tag_1\n      jumpi\n      0x00\n      dup1\n      revert\n    tag_1:\n      pop\n      jumpi(tag_2, lt(calldatasize, 0x04))\n      shr(0xe0, calldataload(0x00))\n      dup1\n      0xd32cb0fe\n      eq\n      tag_3\n      jumpi\n      dup1\n      0xf8a8fd6d\n      eq\n      tag_4\n      jumpi\n    tag_2:\n      0x00\n      dup1\n      revert\n        /* \"contracts/2-indepth/7-etherunits.sol\":448:637  function exercise() public pure{... */\n    tag_3:\n      tag_5\n      tag_6\n      jump\t// in\n    tag_5:\n      stop\n        /* \"contracts/2-indepth/7-etherunits.sol\":98:442  function test() public pure{... */\n    tag_4:\n      tag_7\n      tag_8\n      jump\t// in\n    tag_7:\n      stop\n        /* \"contracts/2-indepth/7-etherunits.sol\":448:637  function exercise() public pure{... */\n    tag_6:\n        /* \"contracts/2-indepth/7-etherunits.sol\":510:519  1 minutes */\n      0x3c\n        /* \"contracts/2-indepth/7-etherunits.sol\":496:506  60 seconds */\n      dup1\n        /* \"contracts/2-indepth/7-etherunits.sol\":496:519  60 seconds == 1 minutes */\n      eq\n        /* \"contracts/2-indepth/7-etherunits.sol\":489:520  assert(60 seconds == 1 minutes) */\n      tag_10\n      jumpi\n      tag_11\n      tag_12\n      jump\t// in\n    tag_11:\n    tag_10:\n        /* \"contracts/2-indepth/7-etherunits.sol\":551:558  1 hours */\n      0x0e10\n        /* \"contracts/2-indepth/7-etherunits.sol\":537:547  60 minutes */\n      dup1\n        /* \"contracts/2-indepth/7-etherunits.sol\":537:558  60 minutes == 1 hours */\n      eq\n        /* \"contracts/2-indepth/7-etherunits.sol\":530:559  assert(60 minutes == 1 hours) */\n      tag_13\n      jumpi\n      tag_14\n      tag_12\n      jump\t// in\n    tag_14:\n    tag_13:\n        /* \"contracts/2-indepth/7-etherunits.sol\":588:594  1 days */\n      0x015180\n        /* \"contracts/2-indepth/7-etherunits.sol\":576:584  24 hours */\n      dup1\n        /* \"contracts/2-indepth/7-etherunits.sol\":576:594  24 hours == 1 days */\n      eq\n        /* \"contracts/2-indepth/7-etherunits.sol\":569:595  assert(24 hours == 1 days) */\n      tag_15\n      jumpi\n      tag_16\n      tag_12\n      jump\t// in\n    tag_16:\n    tag_15:\n        /* \"contracts/2-indepth/7-etherunits.sol\":622:629  1 weeks */\n      0x093a80\n        /* \"contracts/2-indepth/7-etherunits.sol\":612:618  7 days */\n      dup1\n        /* \"contracts/2-indepth/7-etherunits.sol\":612:629  7 days == 1 weeks */\n      eq\n        /* \"contracts/2-indepth/7-etherunits.sol\":605:630  assert(7 days == 1 weeks) */\n      tag_17\n      jumpi\n      tag_18\n      tag_12\n      jump\t// in\n    tag_18:\n    tag_17:\n        /* \"contracts/2-indepth/7-etherunits.sol\":448:637  function exercise() public pure{... */\n      jump\t// out\n        /* \"contracts/2-indepth/7-etherunits.sol\":98:442  function test() public pure{... */\n    tag_8:\n        /* \"contracts/2-indepth/7-etherunits.sol\":222:229  1 ether */\n      0x0de0b6b3a7640000\n        /* \"contracts/2-indepth/7-etherunits.sol\":195:218  1000000000000000000 wei */\n      dup1\n        /* \"contracts/2-indepth/7-etherunits.sol\":195:229  1000000000000000000 wei == 1 ether */\n      eq\n        /* \"contracts/2-indepth/7-etherunits.sol\":188:230  assert(1000000000000000000 wei == 1 ether) */\n      tag_20\n      jumpi\n      tag_21\n      tag_12\n      jump\t// in\n    tag_21:\n    tag_20:\n        /* \"contracts/2-indepth/7-etherunits.sol\":256:257  1 */\n      0x01\n        /* \"contracts/2-indepth/7-etherunits.sol\":247:252  1 wei */\n      dup1\n        /* \"contracts/2-indepth/7-etherunits.sol\":247:257  1 wei == 1 */\n      eq\n        /* \"contracts/2-indepth/7-etherunits.sol\":240:258  assert(1 wei == 1) */\n      tag_22\n      jumpi\n      tag_23\n      tag_12\n      jump\t// in\n    tag_23:\n    tag_22:\n        /* \"contracts/2-indepth/7-etherunits.sol\":286:290  1e18 */\n      0x0de0b6b3a7640000\n        /* \"contracts/2-indepth/7-etherunits.sol\":275:282  1 ether */\n      dup1\n        /* \"contracts/2-indepth/7-etherunits.sol\":275:290  1 ether == 1e18 */\n      eq\n        /* \"contracts/2-indepth/7-etherunits.sol\":268:291  assert(1 ether == 1e18) */\n      tag_24\n      jumpi\n      tag_25\n      tag_12\n      jump\t// in\n    tag_25:\n    tag_24:\n        /* \"contracts/2-indepth/7-etherunits.sol\":415:434  2500000000000000000 */\n      0x22b1c8c1227a0000\n        /* \"contracts/2-indepth/7-etherunits.sol\":402:411  2.5 ether */\n      dup1\n        /* \"contracts/2-indepth/7-etherunits.sol\":402:434  2.5 ether == 2500000000000000000 */\n      eq\n        /* \"contracts/2-indepth/7-etherunits.sol\":395:435  assert(2.5 ether == 2500000000000000000) */\n      tag_26\n      jumpi\n      tag_27\n      tag_12\n      jump\t// in\n    tag_27:\n    tag_26:\n        /* \"contracts/2-indepth/7-etherunits.sol\":98:442  function test() public pure{... */\n      jump\t// out\n        /* \"#utility.yul\":7:187   */\n    tag_12:\n        /* \"#utility.yul\":55:132   */\n      0x4e487b7100000000000000000000000000000000000000000000000000000000\n        /* \"#utility.yul\":52:53   */\n      0x00\n        /* \"#utility.yul\":45:133   */\n      mstore\n        /* \"#utility.yul\":152:156   */\n      0x01\n        /* \"#utility.yul\":149:150   */\n      0x04\n        /* \"#utility.yul\":142:157   */\n      mstore\n        /* \"#utility.yul\":176:180   */\n      0x24\n        /* \"#utility.yul\":173:174   */\n      0x00\n        /* \"#utility.yul\":166:181   */\n      revert\n\n    auxdata: 0xa2646970667358221220875eb8fedfcd6dfc45e13f54156169b19e14ca3a64dc7f1656eaff1a85f9cd2364736f6c634300081a0033\n}\n",
				"bytecode": {
					"linkReferences": {},
					"object": "6080604052348015600e575f80fd5b506101558061001c5f395ff3fe608060405234801561000f575f80fd5b5060043610610034575f3560e01c8063d32cb0fe14610038578063f8a8fd6d14610042575b5f80fd5b61004061004c565b005b61004a610097565b005b603c801461005d5761005c6100f2565b5b610e10801461006f5761006e6100f2565b5b620151808014610082576100816100f2565b5b62093a808014610095576100946100f2565b5b565b670de0b6b3a764000080146100af576100ae6100f2565b5b600180146100c0576100bf6100f2565b5b670de0b6b3a764000080146100d8576100d76100f2565b5b6722b1c8c1227a000080146100f0576100ef6100f2565b5b565b7f4e487b71000000000000000000000000000000000000000000000000000000005f52600160045260245ffdfea2646970667358221220875eb8fedfcd6dfc45e13f54156169b19e14ca3a64dc7f1656eaff1a85f9cd2364736f6c634300081a0033",
					"opcodes": "PUSH1 0x80 PUSH1 0x40 MSTORE CALLVALUE DUP1 ISZERO PUSH1 0xE JUMPI PUSH0 DUP1 REVERT JUMPDEST POP PUSH2 0x155 DUP1 PUSH2 0x1C PUSH0 CODECOPY PUSH0 RETURN INVALID PUSH1 0x80 PUSH1 0x40 MSTORE CALLVALUE DUP1 ISZERO PUSH2 0xF JUMPI PUSH0 DUP1 REVERT JUMPDEST POP PUSH1 0x4 CALLDATASIZE LT PUSH2 0x34 JUMPI PUSH0 CALLDATALOAD PUSH1 0xE0 SHR DUP1 PUSH4 0xD32CB0FE EQ PUSH2 0x38 JUMPI DUP1 PUSH4 0xF8A8FD6D EQ PUSH2 0x42 JUMPI JUMPDEST PUSH0 DUP1 REVERT JUMPDEST PUSH2 0x40 PUSH2 0x4C JUMP JUMPDEST STOP JUMPDEST PUSH2 0x4A PUSH2 0x97 JUMP JUMPDEST STOP JUMPDEST PUSH1 0x3C DUP1 EQ PUSH2 0x5D JUMPI PUSH2 0x5C PUSH2 0xF2 JUMP JUMPDEST JUMPDEST PUSH2 0xE10 DUP1 EQ PUSH2 0x6F JUMPI PUSH2 0x6E PUSH2 0xF2 JUMP JUMPDEST JUMPDEST PUSH3 0x15180 DUP1 EQ PUSH2 0x82 JUMPI PUSH2 0x81 PUSH2 0xF2 JUMP JUMPDEST JUMPDEST PUSH3 0x93A80 DUP1 EQ PUSH2 0x95 JUMPI PUSH2 0x94 PUSH2 0xF2 JUMP JUMPDEST JUMPDEST JUMP JUMPDEST PUSH8 0xDE0B6B3A7640000 DUP1 EQ PUSH2 0xAF JUMPI PUSH2 0xAE PUSH2 0xF2 JUMP JUMPDEST JUMPDEST PUSH1 0x1 DUP1 EQ PUSH2 0xC0 JUMPI PUSH2 0xBF PUSH2 0xF2 JUMP JUMPDEST JUMPDEST PUSH8 0xDE0B6B3A7640000 DUP1 EQ PUSH2 0xD8 JUMPI PUSH2 0xD7 PUSH2 0xF2 JUMP JUMPDEST JUMPDEST PUSH8 0x22B1C8C1227A0000 DUP1 EQ PUSH2 0xF0 JUMPI PUSH2 0xEF PUSH2 0xF2 JUMP JUMPDEST JUMPDEST JUMP JUMPDEST PUSH32 0x4E487B7100000000000000000000000000000000000000000000000000000000 PUSH0 MSTORE PUSH1 0x1 PUSH1 0x4 MSTORE PUSH1 0x24 PUSH0 REVERT INVALID LOG2 PUSH5 0x6970667358 0x22 SLT KECCAK256 DUP8 MCOPY 0xB8 INVALID 0xDF 0xCD PUSH14 0xFC45E13F54156169B19E14CA3A64 0xDC PUSH32 0x1656EAFF1A85F9CD2364736F6C634300081A0033000000000000000000000000 "
				},
				"gasEstimates": {
					"creation": {
						"codeDepositCost": "68200",
						"executionCost": "115",
						"totalCost": "68315"
					},
					"external": {
						"exercise()": "213",
						"test()": "235"
					}
				},
				"methodIdentifiers": {
					"exercise()": "d32cb0fe",
					"test()": "f8a8fd6d"
				}
			},
			"storageLayout": {
				"storage": [],
				"types": null
			},
			"userdoc": {
				"kind": "user",
				"methods": {},
				"version": 1
			}
		}
	}
}