{
	"contracts/2-indepth/3-enums.sol": {
		"enumsLearn": {
			"abi": [
				{
					"inputs": [],
					"name": "getChoice",
					"outputs": [
						{
							"internalType": "enum enumsLearn.frenchFriesSize",
							"name": "",
							"type": "uint8"
						}
					],
					"stateMutability": "view",
					"type": "function"
				},
				{
					"inputs": [],
					"name": "getDefaultChoice",
					"outputs": [
						{
							"internalType": "uint256",
							"name": "",
							"type": "uint256"
						}
					],
					"stateMutability": "view",
					"type": "function"
				},
				{
					"inputs": [],
					"name": "setSmall",
					"outputs": [],
					"stateMutability": "nonpayable",
					"type": "function"
				}
			],
			"devdoc": {
				"kind": "dev",
				"methods": {},
				"version": 1
			},
			"evm": {
				"assembly": "    /* \"contracts/2-indepth/3-enums.sol\":355:829  contract enumsLearn{... */\n  mstore(0x40, 0x80)\n  callvalue\n  dup1\n  iszero\n  tag_1\n  jumpi\n  0x00\n  dup1\n  revert\ntag_1:\n  pop\n  dataSize(sub_0)\n  dup1\n  dataOffset(sub_0)\n  0x00\n  codecopy\n  0x00\n  return\nstop\n\nsub_0: assembly {\n        /* \"contracts/2-indepth/3-enums.sol\":355:829  contract enumsLearn{... */\n      mstore(0x40, 0x80)\n      callvalue\n      dup1\n      iszero\n      tag_1\n      jumpi\n      0x00\n      dup1\n      revert\n    tag_1:\n      pop\n      jumpi(tag_2, lt(calldatasize, 0x04))\n      shr(0xe0, calldataload(0x00))\n      dup1\n      0x67cb61b6\n      eq\n      tag_3\n      jumpi\n      dup1\n      0x843f7258\n      eq\n      tag_4\n      jumpi\n      dup1\n      0x91ff2c86\n      eq\n      tag_5\n      jumpi\n    tag_2:\n      0x00\n      dup1\n      revert\n        /* \"contracts/2-indepth/3-enums.sol\":636:723  function getChoice() public view returns(frenchFriesSize){... */\n    tag_3:\n      tag_6\n      tag_7\n      jump\t// in\n    tag_6:\n      mload(0x40)\n      tag_8\n      swap2\n      swap1\n      tag_9\n      jump\t// in\n    tag_8:\n      mload(0x40)\n      dup1\n      swap2\n      sub\n      swap1\n      return\n        /* \"contracts/2-indepth/3-enums.sol\":729:827  function getDefaultChoice() public view returns (uint){... */\n    tag_4:\n      tag_10\n      tag_11\n      jump\t// in\n    tag_10:\n      mload(0x40)\n      tag_12\n      swap2\n      swap1\n      tag_13\n      jump\t// in\n    tag_12:\n      mload(0x40)\n      dup1\n      swap2\n      sub\n      swap1\n      return\n        /* \"contracts/2-indepth/3-enums.sol\":556:630  function setSmall() public {... */\n    tag_5:\n      tag_14\n      tag_15\n      jump\t// in\n    tag_14:\n      stop\n        /* \"contracts/2-indepth/3-enums.sol\":636:723  function getChoice() public view returns(frenchFriesSize){... */\n    tag_7:\n        /* \"contracts/2-indepth/3-enums.sol\":677:692  frenchFriesSize */\n      0x00\n        /* \"contracts/2-indepth/3-enums.sol\":710:716  choice */\n      dup1\n      0x00\n      swap1\n      sload\n      swap1\n      0x0100\n      exp\n      swap1\n      div\n      0xff\n      and\n        /* \"contracts/2-indepth/3-enums.sol\":703:716  return choice */\n      swap1\n      pop\n        /* \"contracts/2-indepth/3-enums.sol\":636:723  function getChoice() public view returns(frenchFriesSize){... */\n      swap1\n      jump\t// out\n        /* \"contracts/2-indepth/3-enums.sol\":729:827  function getDefaultChoice() public view returns (uint){... */\n    tag_11:\n        /* \"contracts/2-indepth/3-enums.sol\":778:782  uint */\n      0x00\n        /* \"contracts/2-indepth/3-enums.sol\":527:549  frenchFriesSize.MEDIUM */\n      0x01\n        /* \"contracts/2-indepth/3-enums.sol\":801:820  uint(defaultChoice) */\n      0x02\n      dup2\n      gt\n      iszero\n      tag_18\n      jumpi\n      tag_19\n      tag_20\n      jump\t// in\n    tag_19:\n    tag_18:\n        /* \"contracts/2-indepth/3-enums.sol\":793:820  return  uint(defaultChoice) */\n      swap1\n      pop\n        /* \"contracts/2-indepth/3-enums.sol\":729:827  function getDefaultChoice() public view returns (uint){... */\n      swap1\n      jump\t// out\n        /* \"contracts/2-indepth/3-enums.sol\":556:630  function setSmall() public {... */\n    tag_15:\n        /* \"contracts/2-indepth/3-enums.sol\":602:623  frenchFriesSize.SMALL */\n      0x00\n        /* \"contracts/2-indepth/3-enums.sol\":593:599  choice */\n      dup1\n      0x00\n        /* \"contracts/2-indepth/3-enums.sol\":593:623  choice = frenchFriesSize.SMALL */\n      0x0100\n      exp\n      dup2\n      sload\n      dup2\n      0xff\n      mul\n      not\n      and\n      swap1\n      dup4\n      0x02\n      dup2\n      gt\n      iszero\n      tag_22\n      jumpi\n      tag_23\n      tag_20\n      jump\t// in\n    tag_23:\n    tag_22:\n      mul\n      or\n      swap1\n      sstore\n      pop\n        /* \"contracts/2-indepth/3-enums.sol\":556:630  function setSmall() public {... */\n      jump\t// out\n        /* \"#utility.yul\":7:187   */\n    tag_20:\n        /* \"#utility.yul\":55:132   */\n      0x4e487b7100000000000000000000000000000000000000000000000000000000\n        /* \"#utility.yul\":52:53   */\n      0x00\n        /* \"#utility.yul\":45:133   */\n      mstore\n        /* \"#utility.yul\":152:156   */\n      0x21\n        /* \"#utility.yul\":149:150   */\n      0x04\n        /* \"#utility.yul\":142:157   */\n      mstore\n        /* \"#utility.yul\":176:180   */\n      0x24\n        /* \"#utility.yul\":173:174   */\n      0x00\n        /* \"#utility.yul\":166:181   */\n      revert\n        /* \"#utility.yul\":193:315   */\n    tag_24:\n        /* \"#utility.yul\":283:284   */\n      0x03\n        /* \"#utility.yul\":276:281   */\n      dup2\n        /* \"#utility.yul\":273:285   */\n      lt\n        /* \"#utility.yul\":263:309   */\n      tag_33\n      jumpi\n        /* \"#utility.yul\":289:307   */\n      tag_34\n      tag_20\n      jump\t// in\n    tag_34:\n        /* \"#utility.yul\":263:309   */\n    tag_33:\n        /* \"#utility.yul\":193:315   */\n      pop\n      jump\t// out\n        /* \"#utility.yul\":321:466   */\n    tag_25:\n        /* \"#utility.yul\":375:382   */\n      0x00\n        /* \"#utility.yul\":404:409   */\n      dup2\n        /* \"#utility.yul\":393:409   */\n      swap1\n      pop\n        /* \"#utility.yul\":410:460   */\n      tag_36\n        /* \"#utility.yul\":454:459   */\n      dup3\n        /* \"#utility.yul\":410:460   */\n      tag_24\n      jump\t// in\n    tag_36:\n        /* \"#utility.yul\":321:466   */\n      swap2\n      swap1\n      pop\n      jump\t// out\n        /* \"#utility.yul\":472:617   */\n    tag_26:\n        /* \"#utility.yul\":537:546   */\n      0x00\n        /* \"#utility.yul\":570:611   */\n      tag_38\n        /* \"#utility.yul\":605:610   */\n      dup3\n        /* \"#utility.yul\":570:611   */\n      tag_25\n      jump\t// in\n    tag_38:\n        /* \"#utility.yul\":557:611   */\n      swap1\n      pop\n        /* \"#utility.yul\":472:617   */\n      swap2\n      swap1\n      pop\n      jump\t// out\n        /* \"#utility.yul\":623:784   */\n    tag_27:\n        /* \"#utility.yul\":725:777   */\n      tag_40\n        /* \"#utility.yul\":771:776   */\n      dup2\n        /* \"#utility.yul\":725:777   */\n      tag_26\n      jump\t// in\n    tag_40:\n        /* \"#utility.yul\":720:723   */\n      dup3\n        /* \"#utility.yul\":713:778   */\n      mstore\n        /* \"#utility.yul\":623:784   */\n      pop\n      pop\n      jump\t// out\n        /* \"#utility.yul\":790:1042   */\n    tag_9:\n        /* \"#utility.yul\":898:902   */\n      0x00\n        /* \"#utility.yul\":936:938   */\n      0x20\n        /* \"#utility.yul\":925:934   */\n      dup3\n        /* \"#utility.yul\":921:939   */\n      add\n        /* \"#utility.yul\":913:939   */\n      swap1\n      pop\n        /* \"#utility.yul\":949:1035   */\n      tag_42\n        /* \"#utility.yul\":1032:1033   */\n      0x00\n        /* \"#utility.yul\":1021:1030   */\n      dup4\n        /* \"#utility.yul\":1017:1034   */\n      add\n        /* \"#utility.yul\":1008:1014   */\n      dup5\n        /* \"#utility.yul\":949:1035   */\n      tag_27\n      jump\t// in\n    tag_42:\n        /* \"#utility.yul\":790:1042   */\n      swap3\n      swap2\n      pop\n      pop\n      jump\t// out\n        /* \"#utility.yul\":1048:1125   */\n    tag_28:\n        /* \"#utility.yul\":1085:1092   */\n      0x00\n        /* \"#utility.yul\":1114:1119   */\n      dup2\n        /* \"#utility.yul\":1103:1119   */\n      swap1\n      pop\n        /* \"#utility.yul\":1048:1125   */\n      swap2\n      swap1\n      pop\n      jump\t// out\n        /* \"#utility.yul\":1131:1249   */\n    tag_29:\n        /* \"#utility.yul\":1218:1242   */\n      tag_45\n        /* \"#utility.yul\":1236:1241   */\n      dup2\n        /* \"#utility.yul\":1218:1242   */\n      tag_28\n      jump\t// in\n    tag_45:\n        /* \"#utility.yul\":1213:1216   */\n      dup3\n        /* \"#utility.yul\":1206:1243   */\n      mstore\n        /* \"#utility.yul\":1131:1249   */\n      pop\n      pop\n      jump\t// out\n        /* \"#utility.yul\":1255:1477   */\n    tag_13:\n        /* \"#utility.yul\":1348:1352   */\n      0x00\n        /* \"#utility.yul\":1386:1388   */\n      0x20\n        /* \"#utility.yul\":1375:1384   */\n      dup3\n        /* \"#utility.yul\":1371:1389   */\n      add\n        /* \"#utility.yul\":1363:1389   */\n      swap1\n      pop\n        /* \"#utility.yul\":1399:1470   */\n      tag_47\n        /* \"#utility.yul\":1467:1468   */\n      0x00\n        /* \"#utility.yul\":1456:1465   */\n      dup4\n        /* \"#utility.yul\":1452:1469   */\n      add\n        /* \"#utility.yul\":1443:1449   */\n      dup5\n        /* \"#utility.yul\":1399:1470   */\n      tag_29\n      jump\t// in\n    tag_47:\n        /* \"#utility.yul\":1255:1477   */\n      swap3\n      swap2\n      pop\n      pop\n      jump\t// out\n\n    auxdata: 0xa2646970667358221220aaf927a7b99e03212954076a2bbb5192f0945700ab9f22c1ff0fc5153c858e9a64736f6c634300081a0033\n}\n",
				"bytecode": {
					"linkReferences": {},
					"object": "6080604052348015600e575f80fd5b506101d48061001c5f395ff3fe608060405234801561000f575f80fd5b506004361061003f575f3560e01c806367cb61b614610043578063843f72581461006157806391ff2c861461007f575b5f80fd5b61004b610089565b6040516100589190610154565b60405180910390f35b61006961009d565b6040516100769190610185565b60405180910390f35b6100876100b7565b005b5f805f9054906101000a900460ff16905090565b5f600160028111156100b2576100b16100e1565b5b905090565b5f805f6101000a81548160ff021916908360028111156100da576100d96100e1565b5b0217905550565b7f4e487b71000000000000000000000000000000000000000000000000000000005f52602160045260245ffd5b6003811061011f5761011e6100e1565b5b50565b5f81905061012f8261010e565b919050565b5f61013e82610122565b9050919050565b61014e81610134565b82525050565b5f6020820190506101675f830184610145565b92915050565b5f819050919050565b61017f8161016d565b82525050565b5f6020820190506101985f830184610176565b9291505056fea2646970667358221220aaf927a7b99e03212954076a2bbb5192f0945700ab9f22c1ff0fc5153c858e9a64736f6c634300081a0033",
					"opcodes": "PUSH1 0x80 PUSH1 0x40 MSTORE CALLVALUE DUP1 ISZERO PUSH1 0xE JUMPI PUSH0 DUP1 REVERT JUMPDEST POP PUSH2 0x1D4 DUP1 PUSH2 0x1C PUSH0 CODECOPY PUSH0 RETURN INVALID PUSH1 0x80 PUSH1 0x40 MSTORE CALLVALUE DUP1 ISZERO PUSH2 0xF JUMPI PUSH0 DUP1 REVERT JUMPDEST POP PUSH1 0x4 CALLDATASIZE LT PUSH2 0x3F JUMPI PUSH0 CALLDATALOAD PUSH1 0xE0 SHR DUP1 PUSH4 0x67CB61B6 EQ PUSH2 0x43 JUMPI DUP1 PUSH4 0x843F7258 EQ PUSH2 0x61 JUMPI DUP1 PUSH4 0x91FF2C86 EQ PUSH2 0x7F JUMPI JUMPDEST PUSH0 DUP1 REVERT JUMPDEST PUSH2 0x4B PUSH2 0x89 JUMP JUMPDEST PUSH1 0x40 MLOAD PUSH2 0x58 SWAP2 SWAP1 PUSH2 0x154 JUMP JUMPDEST PUSH1 0x40 MLOAD DUP1 SWAP2 SUB SWAP1 RETURN JUMPDEST PUSH2 0x69 PUSH2 0x9D JUMP JUMPDEST PUSH1 0x40 MLOAD PUSH2 0x76 SWAP2 SWAP1 PUSH2 0x185 JUMP JUMPDEST PUSH1 0x40 MLOAD DUP1 SWAP2 SUB SWAP1 RETURN JUMPDEST PUSH2 0x87 PUSH2 0xB7 JUMP JUMPDEST STOP JUMPDEST PUSH0 DUP1 PUSH0 SWAP1 SLOAD SWAP1 PUSH2 0x100 EXP SWAP1 DIV PUSH1 0xFF AND SWAP1 POP SWAP1 JUMP JUMPDEST PUSH0 PUSH1 0x1 PUSH1 0x2 DUP2 GT ISZERO PUSH2 0xB2 JUMPI PUSH2 0xB1 PUSH2 0xE1 JUMP JUMPDEST JUMPDEST SWAP1 POP SWAP1 JUMP JUMPDEST PUSH0 DUP1 PUSH0 PUSH2 0x100 EXP DUP2 SLOAD DUP2 PUSH1 0xFF MUL NOT AND SWAP1 DUP4 PUSH1 0x2 DUP2 GT ISZERO PUSH2 0xDA JUMPI PUSH2 0xD9 PUSH2 0xE1 JUMP JUMPDEST JUMPDEST MUL OR SWAP1 SSTORE POP JUMP JUMPDEST PUSH32 0x4E487B7100000000000000000000000000000000000000000000000000000000 PUSH0 MSTORE PUSH1 0x21 PUSH1 0x4 MSTORE PUSH1 0x24 PUSH0 REVERT JUMPDEST PUSH1 0x3 DUP2 LT PUSH2 0x11F JUMPI PUSH2 0x11E PUSH2 0xE1 JUMP JUMPDEST JUMPDEST POP JUMP JUMPDEST PUSH0 DUP2 SWAP1 POP PUSH2 0x12F DUP3 PUSH2 0x10E JUMP JUMPDEST SWAP2 SWAP1 POP JUMP JUMPDEST PUSH0 PUSH2 0x13E DUP3 PUSH2 0x122 JUMP JUMPDEST SWAP1 POP SWAP2 SWAP1 POP JUMP JUMPDEST PUSH2 0x14E DUP2 PUSH2 0x134 JUMP JUMPDEST DUP3 MSTORE POP POP JUMP JUMPDEST PUSH0 PUSH1 0x20 DUP3 ADD SWAP1 POP PUSH2 0x167 PUSH0 DUP4 ADD DUP5 PUSH2 0x145 JUMP JUMPDEST SWAP3 SWAP2 POP POP JUMP JUMPDEST PUSH0 DUP2 SWAP1 POP SWAP2 SWAP1 POP JUMP JUMPDEST PUSH2 0x17F DUP2 PUSH2 0x16D JUMP JUMPDEST DUP3 MSTORE POP POP JUMP JUMPDEST PUSH0 PUSH1 0x20 DUP3 ADD SWAP1 POP PUSH2 0x198 PUSH0 DUP4 ADD DUP5 PUSH2 0x176 JUMP JUMPDEST SWAP3 SWAP2 POP POP JUMP INVALID LOG2 PUSH5 0x6970667358 0x22 SLT KECCAK256 0xAA 0xF9 0x27 0xA7 0xB9 SWAP15 SUB 0x21 0x29 SLOAD SMOD PUSH11 0x2BBB5192F0945700AB9F22 0xC1 SELFDESTRUCT 0xF 0xC5 ISZERO EXTCODECOPY DUP6 DUP15 SWAP11 PUSH5 0x736F6C6343 STOP ADDMOD BYTE STOP CALLER "
				},
				"gasEstimates": {
					"creation": {
						"codeDepositCost": "93600",
						"executionCost": "139",
						"totalCost": "93739"
					},
					"external": {
						"getChoice()": "2539",
						"getDefaultChoice()": "358",
						"setSmall()": "24450"
					}
				},
				"methodIdentifiers": {
					"getChoice()": "67cb61b6",
					"getDefaultChoice()": "843f7258",
					"setSmall()": "91ff2c86"
				}
			},
			"storageLayout": {
				"storage": [
					{
						"astId": 8,
						"contract": "contracts/2-indepth/3-enums.sol:enumsLearn",
						"label": "choice",
						"offset": 0,
						"slot": "0",
						"type": "t_enum(frenchFriesSize)5"
					}
				],
				"types": {
					"t_enum(frenchFriesSize)5": {
						"encoding": "inplace",
						"label": "enum enumsLearn.frenchFriesSize",
						"numberOfBytes": "1"
					}
				}
			},
			"userdoc": {
				"kind": "user",
				"methods": {},
				"version": 1
			}
		}
	}
}