{
	"contracts/2-indepth/9-function-modifiers.sol": {
		"Register": {
			"abi": [
				{
					"inputs": [
						{
							"internalType": "uint256",
							"name": "initialPrice",
							"type": "uint256"
						}
					],
					"stateMutability": "nonpayable",
					"type": "constructor"
				},
				{
					"inputs": [
						{
							"internalType": "uint256",
							"name": "_price",
							"type": "uint256"
						}
					],
					"name": "changePrice",
					"outputs": [],
					"stateMutability": "nonpayable",
					"type": "function"
				},
				{
					"inputs": [],
					"name": "register",
					"outputs": [],
					"stateMutability": "payable",
					"type": "function"
				}
			],
			"devdoc": {
				"kind": "dev",
				"methods": {},
				"version": 1
			},
			"evm": {
				"assembly": "    /* \"contracts/2-indepth/9-function-modifiers.sol\":465:834  contract Register is Owner{... */\n  mstore(0x40, 0x80)\n    /* \"contracts/2-indepth/9-function-modifiers.sol\":570:632  constructor(uint initialPrice) public { price = initialPrice;} */\n  callvalue\n  dup1\n  iszero\n  tag_1\n  jumpi\n  0x00\n  dup1\n  revert\ntag_1:\n  pop\n  mload(0x40)\n  sub(codesize, bytecodeSize)\n  dup1\n  bytecodeSize\n  dup4\n  codecopy\n  dup2\n  dup2\n  add\n  0x40\n  mstore\n  dup2\n  add\n  swap1\n  tag_2\n  swap2\n  swap1\n  tag_3\n  jump\t// in\ntag_2:\n    /* \"contracts/2-indepth/9-function-modifiers.sol\":223:233  msg.sender */\n  caller\n    /* \"contracts/2-indepth/9-function-modifiers.sol\":215:220  owner */\n  0x00\n  dup1\n    /* \"contracts/2-indepth/9-function-modifiers.sol\":215:233  owner = msg.sender */\n  0x0100\n  exp\n  dup2\n  sload\n  dup2\n  0xffffffffffffffffffffffffffffffffffffffff\n  mul\n  not\n  and\n  swap1\n  dup4\n  0xffffffffffffffffffffffffffffffffffffffff\n  and\n  mul\n  or\n  swap1\n  sstore\n  pop\n    /* \"contracts/2-indepth/9-function-modifiers.sol\":618:630  initialPrice */\n  dup1\n    /* \"contracts/2-indepth/9-function-modifiers.sol\":610:615  price */\n  0x02\n    /* \"contracts/2-indepth/9-function-modifiers.sol\":610:630  price = initialPrice */\n  dup2\n  swap1\n  sstore\n  pop\n    /* \"contracts/2-indepth/9-function-modifiers.sol\":570:632  constructor(uint initialPrice) public { price = initialPrice;} */\n  pop\n    /* \"contracts/2-indepth/9-function-modifiers.sol\":465:834  contract Register is Owner{... */\n  jump(tag_8)\n    /* \"#utility.yul\":88:205   */\ntag_10:\n    /* \"#utility.yul\":197:198   */\n  0x00\n    /* \"#utility.yul\":194:195   */\n  dup1\n    /* \"#utility.yul\":187:199   */\n  revert\n    /* \"#utility.yul\":334:411   */\ntag_12:\n    /* \"#utility.yul\":371:378   */\n  0x00\n    /* \"#utility.yul\":400:405   */\n  dup2\n    /* \"#utility.yul\":389:405   */\n  swap1\n  pop\n    /* \"#utility.yul\":334:411   */\n  swap2\n  swap1\n  pop\n  jump\t// out\n    /* \"#utility.yul\":417:539   */\ntag_13:\n    /* \"#utility.yul\":490:514   */\n  tag_21\n    /* \"#utility.yul\":508:513   */\n  dup2\n    /* \"#utility.yul\":490:514   */\n  tag_12\n  jump\t// in\ntag_21:\n    /* \"#utility.yul\":483:488   */\n  dup2\n    /* \"#utility.yul\":480:515   */\n  eq\n    /* \"#utility.yul\":470:533   */\n  tag_22\n  jumpi\n    /* \"#utility.yul\":529:530   */\n  0x00\n    /* \"#utility.yul\":526:527   */\n  dup1\n    /* \"#utility.yul\":519:531   */\n  revert\n    /* \"#utility.yul\":470:533   */\ntag_22:\n    /* \"#utility.yul\":417:539   */\n  pop\n  jump\t// out\n    /* \"#utility.yul\":545:688   */\ntag_14:\n    /* \"#utility.yul\":602:607   */\n  0x00\n    /* \"#utility.yul\":633:639   */\n  dup2\n    /* \"#utility.yul\":627:640   */\n  mload\n    /* \"#utility.yul\":618:640   */\n  swap1\n  pop\n    /* \"#utility.yul\":649:682   */\n  tag_24\n    /* \"#utility.yul\":676:681   */\n  dup2\n    /* \"#utility.yul\":649:682   */\n  tag_13\n  jump\t// in\ntag_24:\n    /* \"#utility.yul\":545:688   */\n  swap3\n  swap2\n  pop\n  pop\n  jump\t// out\n    /* \"#utility.yul\":694:1045   */\ntag_3:\n    /* \"#utility.yul\":764:770   */\n  0x00\n    /* \"#utility.yul\":813:815   */\n  0x20\n    /* \"#utility.yul\":801:810   */\n  dup3\n    /* \"#utility.yul\":792:799   */\n  dup5\n    /* \"#utility.yul\":788:811   */\n  sub\n    /* \"#utility.yul\":784:816   */\n  slt\n    /* \"#utility.yul\":781:900   */\n  iszero\n  tag_26\n  jumpi\n    /* \"#utility.yul\":819:898   */\n  tag_27\n  tag_10\n  jump\t// in\ntag_27:\n    /* \"#utility.yul\":781:900   */\ntag_26:\n    /* \"#utility.yul\":939:940   */\n  0x00\n    /* \"#utility.yul\":964:1028   */\n  tag_28\n    /* \"#utility.yul\":1020:1027   */\n  dup5\n    /* \"#utility.yul\":1011:1017   */\n  dup3\n    /* \"#utility.yul\":1000:1009   */\n  dup6\n    /* \"#utility.yul\":996:1018   */\n  add\n    /* \"#utility.yul\":964:1028   */\n  tag_14\n  jump\t// in\ntag_28:\n    /* \"#utility.yul\":954:1028   */\n  swap2\n  pop\n    /* \"#utility.yul\":910:1038   */\n  pop\n    /* \"#utility.yul\":694:1045   */\n  swap3\n  swap2\n  pop\n  pop\n  jump\t// out\n    /* \"contracts/2-indepth/9-function-modifiers.sol\":465:834  contract Register is Owner{... */\ntag_8:\n  dataSize(sub_0)\n  dup1\n  dataOffset(sub_0)\n  0x00\n  codecopy\n  0x00\n  return\nstop\n\nsub_0: assembly {\n        /* \"contracts/2-indepth/9-function-modifiers.sol\":465:834  contract Register is Owner{... */\n      mstore(0x40, 0x80)\n      jumpi(tag_1, lt(calldatasize, 0x04))\n      shr(0xe0, calldataload(0x00))\n      dup1\n      0x1aa3a008\n      eq\n      tag_2\n      jumpi\n      dup1\n      0xa2b40d19\n      eq\n      tag_3\n      jumpi\n    tag_1:\n      0x00\n      dup1\n      revert\n        /* \"contracts/2-indepth/9-function-modifiers.sol\":638:739  function register() public payable cost(price){... */\n    tag_2:\n      tag_4\n      tag_5\n      jump\t// in\n    tag_4:\n      stop\n        /* \"contracts/2-indepth/9-function-modifiers.sol\":745:827  function changePrice(uint _price) public onlyOwner {... */\n    tag_3:\n      callvalue\n      dup1\n      iszero\n      tag_6\n      jumpi\n      0x00\n      dup1\n      revert\n    tag_6:\n      pop\n      tag_7\n      0x04\n      dup1\n      calldatasize\n      sub\n      dup2\n      add\n      swap1\n      tag_8\n      swap2\n      swap1\n      tag_9\n      jump\t// in\n    tag_8:\n      tag_10\n      jump\t// in\n    tag_7:\n      stop\n        /* \"contracts/2-indepth/9-function-modifiers.sol\":638:739  function register() public payable cost(price){... */\n    tag_5:\n        /* \"contracts/2-indepth/9-function-modifiers.sol\":678:683  price */\n      sload(0x02)\n        /* \"contracts/2-indepth/9-function-modifiers.sol\":436:442  _price */\n      dup1\n        /* \"contracts/2-indepth/9-function-modifiers.sol\":423:432  msg.value */\n      callvalue\n        /* \"contracts/2-indepth/9-function-modifiers.sol\":423:442  msg.value >= _price */\n      lt\n      iszero\n        /* \"contracts/2-indepth/9-function-modifiers.sol\":415:443  require(msg.value >= _price) */\n      tag_12\n      jumpi\n      0x00\n      dup1\n      revert\n    tag_12:\n        /* \"contracts/2-indepth/9-function-modifiers.sol\":728:732  true */\n      0x01\n        /* \"contracts/2-indepth/9-function-modifiers.sol\":694:713  registeredAddresses */\n      dup1\n        /* \"contracts/2-indepth/9-function-modifiers.sol\":694:725  registeredAddresses[msg.sender] */\n      0x00\n        /* \"contracts/2-indepth/9-function-modifiers.sol\":714:724  msg.sender */\n      caller\n        /* \"contracts/2-indepth/9-function-modifiers.sol\":694:725  registeredAddresses[msg.sender] */\n      0xffffffffffffffffffffffffffffffffffffffff\n      and\n      0xffffffffffffffffffffffffffffffffffffffff\n      and\n      dup2\n      mstore\n      0x20\n      add\n      swap1\n      dup2\n      mstore\n      0x20\n      add\n      0x00\n      keccak256\n      0x00\n        /* \"contracts/2-indepth/9-function-modifiers.sol\":694:732  registeredAddresses[msg.sender] = true */\n      0x0100\n      exp\n      dup2\n      sload\n      dup2\n      0xff\n      mul\n      not\n      and\n      swap1\n      dup4\n      iszero\n      iszero\n      mul\n      or\n      swap1\n      sstore\n      pop\n        /* \"contracts/2-indepth/9-function-modifiers.sol\":638:739  function register() public payable cost(price){... */\n      pop\n      jump\t// out\n        /* \"contracts/2-indepth/9-function-modifiers.sol\":745:827  function changePrice(uint _price) public onlyOwner {... */\n    tag_10:\n        /* \"contracts/2-indepth/9-function-modifiers.sol\":295:300  owner */\n      0x00\n      dup1\n      sload\n      swap1\n      0x0100\n      exp\n      swap1\n      div\n      0xffffffffffffffffffffffffffffffffffffffff\n      and\n        /* \"contracts/2-indepth/9-function-modifiers.sol\":281:300  msg.sender == owner */\n      0xffffffffffffffffffffffffffffffffffffffff\n      and\n        /* \"contracts/2-indepth/9-function-modifiers.sol\":281:291  msg.sender */\n      caller\n        /* \"contracts/2-indepth/9-function-modifiers.sol\":281:300  msg.sender == owner */\n      0xffffffffffffffffffffffffffffffffffffffff\n      and\n      eq\n        /* \"contracts/2-indepth/9-function-modifiers.sol\":273:301  require(msg.sender == owner) */\n      tag_15\n      jumpi\n      0x00\n      dup1\n      revert\n    tag_15:\n        /* \"contracts/2-indepth/9-function-modifiers.sol\":814:820  _price */\n      dup1\n        /* \"contracts/2-indepth/9-function-modifiers.sol\":806:811  price */\n      0x02\n        /* \"contracts/2-indepth/9-function-modifiers.sol\":806:820  price = _price */\n      dup2\n      swap1\n      sstore\n      pop\n        /* \"contracts/2-indepth/9-function-modifiers.sol\":745:827  function changePrice(uint _price) public onlyOwner {... */\n      pop\n      jump\t// out\n        /* \"#utility.yul\":88:205   */\n    tag_18:\n        /* \"#utility.yul\":197:198   */\n      0x00\n        /* \"#utility.yul\":194:195   */\n      dup1\n        /* \"#utility.yul\":187:199   */\n      revert\n        /* \"#utility.yul\":334:411   */\n    tag_20:\n        /* \"#utility.yul\":371:378   */\n      0x00\n        /* \"#utility.yul\":400:405   */\n      dup2\n        /* \"#utility.yul\":389:405   */\n      swap1\n      pop\n        /* \"#utility.yul\":334:411   */\n      swap2\n      swap1\n      pop\n      jump\t// out\n        /* \"#utility.yul\":417:539   */\n    tag_21:\n        /* \"#utility.yul\":490:514   */\n      tag_29\n        /* \"#utility.yul\":508:513   */\n      dup2\n        /* \"#utility.yul\":490:514   */\n      tag_20\n      jump\t// in\n    tag_29:\n        /* \"#utility.yul\":483:488   */\n      dup2\n        /* \"#utility.yul\":480:515   */\n      eq\n        /* \"#utility.yul\":470:533   */\n      tag_30\n      jumpi\n        /* \"#utility.yul\":529:530   */\n      0x00\n        /* \"#utility.yul\":526:527   */\n      dup1\n        /* \"#utility.yul\":519:531   */\n      revert\n        /* \"#utility.yul\":470:533   */\n    tag_30:\n        /* \"#utility.yul\":417:539   */\n      pop\n      jump\t// out\n        /* \"#utility.yul\":545:684   */\n    tag_22:\n        /* \"#utility.yul\":591:596   */\n      0x00\n        /* \"#utility.yul\":629:635   */\n      dup2\n        /* \"#utility.yul\":616:636   */\n      calldataload\n        /* \"#utility.yul\":607:636   */\n      swap1\n      pop\n        /* \"#utility.yul\":645:678   */\n      tag_32\n        /* \"#utility.yul\":672:677   */\n      dup2\n        /* \"#utility.yul\":645:678   */\n      tag_21\n      jump\t// in\n    tag_32:\n        /* \"#utility.yul\":545:684   */\n      swap3\n      swap2\n      pop\n      pop\n      jump\t// out\n        /* \"#utility.yul\":690:1019   */\n    tag_9:\n        /* \"#utility.yul\":749:755   */\n      0x00\n        /* \"#utility.yul\":798:800   */\n      0x20\n        /* \"#utility.yul\":786:795   */\n      dup3\n        /* \"#utility.yul\":777:784   */\n      dup5\n        /* \"#utility.yul\":773:796   */\n      sub\n        /* \"#utility.yul\":769:801   */\n      slt\n        /* \"#utility.yul\":766:885   */\n      iszero\n      tag_34\n      jumpi\n        /* \"#utility.yul\":804:883   */\n      tag_35\n      tag_18\n      jump\t// in\n    tag_35:\n        /* \"#utility.yul\":766:885   */\n    tag_34:\n        /* \"#utility.yul\":924:925   */\n      0x00\n        /* \"#utility.yul\":949:1002   */\n      tag_36\n        /* \"#utility.yul\":994:1001   */\n      dup5\n        /* \"#utility.yul\":985:991   */\n      dup3\n        /* \"#utility.yul\":974:983   */\n      dup6\n        /* \"#utility.yul\":970:992   */\n      add\n        /* \"#utility.yul\":949:1002   */\n      tag_22\n      jump\t// in\n    tag_36:\n        /* \"#utility.yul\":939:1002   */\n      swap2\n      pop\n        /* \"#utility.yul\":895:1012   */\n      pop\n        /* \"#utility.yul\":690:1019   */\n      swap3\n      swap2\n      pop\n      pop\n      jump\t// out\n\n    auxdata: 0xa26469706673582212208e9f641e713602240be632fa1f00505914075b4beff03f882ebde3ce2d4b005764736f6c634300081a0033\n}\n",
				"bytecode": {
					"linkReferences": {},
					"object": "6080604052348015600e575f80fd5b5060405161029a38038061029a8339818101604052810190602e919060ab565b335f806101000a81548173ffffffffffffffffffffffffffffffffffffffff021916908373ffffffffffffffffffffffffffffffffffffffff160217905550806002819055505060d1565b5f80fd5b5f819050919050565b608d81607d565b81146096575f80fd5b50565b5f8151905060a5816086565b92915050565b5f6020828403121560bd5760bc6079565b5b5f60c8848285016099565b91505092915050565b6101bc806100de5f395ff3fe608060405260043610610028575f3560e01c80631aa3a0081461002c578063a2b40d1914610036575b5f80fd5b61003461005e565b005b348015610041575f80fd5b5061005c6004803603810190610057919061015b565b6100c4565b005b6002548034101561006d575f80fd5b6001805f3373ffffffffffffffffffffffffffffffffffffffff1673ffffffffffffffffffffffffffffffffffffffff1681526020019081526020015f205f6101000a81548160ff02191690831515021790555050565b5f8054906101000a900473ffffffffffffffffffffffffffffffffffffffff1673ffffffffffffffffffffffffffffffffffffffff163373ffffffffffffffffffffffffffffffffffffffff161461011a575f80fd5b8060028190555050565b5f80fd5b5f819050919050565b61013a81610128565b8114610144575f80fd5b50565b5f8135905061015581610131565b92915050565b5f602082840312156101705761016f610124565b5b5f61017d84828501610147565b9150509291505056fea26469706673582212208e9f641e713602240be632fa1f00505914075b4beff03f882ebde3ce2d4b005764736f6c634300081a0033",
					"opcodes": "PUSH1 0x80 PUSH1 0x40 MSTORE CALLVALUE DUP1 ISZERO PUSH1 0xE JUMPI PUSH0 DUP1 REVERT JUMPDEST POP PUSH1 0x40 MLOAD PUSH2 0x29A CODESIZE SUB DUP1 PUSH2 0x29A DUP4 CODECOPY DUP2 DUP2 ADD PUSH1 0x40 MSTORE DUP2 ADD SWAP1 PUSH1 0x2E SWAP2 SWAP1 PUSH1 0xAB JUMP JUMPDEST CALLER PUSH0 DUP1 PUSH2 0x100 EXP DUP2 SLOAD DUP2 PUSH20 0xFFFFFFFFFFFFFFFFFFFFFFFFFFFFFFFFFFFFFFFF MUL NOT AND SWAP1 DUP4 PUSH20 0xFFFFFFFFFFFFFFFFFFFFFFFFFFFFFFFFFFFFFFFF AND MUL OR SWAP1 SSTORE POP DUP1 PUSH1 0x2 DUP2 SWAP1 SSTORE POP POP PUSH1 0xD1 JUMP JUMPDEST PUSH0 DUP1 REVERT JUMPDEST PUSH0 DUP2 SWAP1 POP SWAP2 SWAP1 POP JUMP JUMPDEST PUSH1 0x8D DUP2 PUSH1 0x7D JUMP JUMPDEST DUP2 EQ PUSH1 0x96 JUMPI PUSH0 DUP1 REVERT JUMPDEST POP JUMP JUMPDEST PUSH0 DUP2 MLOAD SWAP1 POP PUSH1 0xA5 DUP2 PUSH1 0x86 JUMP JUMPDEST SWAP3 SWAP2 POP POP JUMP JUMPDEST PUSH0 PUSH1 0x20 DUP3 DUP5 SUB SLT ISZERO PUSH1 0xBD JUMPI PUSH1 0xBC PUSH1 0x79 JUMP JUMPDEST JUMPDEST PUSH0 PUSH1 0xC8 DUP5 DUP3 DUP6 ADD PUSH1 0x99 JUMP JUMPDEST SWAP2 POP POP SWAP3 SWAP2 POP POP JUMP JUMPDEST PUSH2 0x1BC DUP1 PUSH2 0xDE PUSH0 CODECOPY PUSH0 RETURN INVALID PUSH1 0x80 PUSH1 0x40 MSTORE PUSH1 0x4 CALLDATASIZE LT PUSH2 0x28 JUMPI PUSH0 CALLDATALOAD PUSH1 0xE0 SHR DUP1 PUSH4 0x1AA3A008 EQ PUSH2 0x2C JUMPI DUP1 PUSH4 0xA2B40D19 EQ PUSH2 0x36 JUMPI JUMPDEST PUSH0 DUP1 REVERT JUMPDEST PUSH2 0x34 PUSH2 0x5E JUMP JUMPDEST STOP JUMPDEST CALLVALUE DUP1 ISZERO PUSH2 0x41 JUMPI PUSH0 DUP1 REVERT JUMPDEST POP PUSH2 0x5C PUSH1 0x4 DUP1 CALLDATASIZE SUB DUP2 ADD SWAP1 PUSH2 0x57 SWAP2 SWAP1 PUSH2 0x15B JUMP JUMPDEST PUSH2 0xC4 JUMP JUMPDEST STOP JUMPDEST PUSH1 0x2 SLOAD DUP1 CALLVALUE LT ISZERO PUSH2 0x6D JUMPI PUSH0 DUP1 REVERT JUMPDEST PUSH1 0x1 DUP1 PUSH0 CALLER PUSH20 0xFFFFFFFFFFFFFFFFFFFFFFFFFFFFFFFFFFFFFFFF AND PUSH20 0xFFFFFFFFFFFFFFFFFFFFFFFFFFFFFFFFFFFFFFFF AND DUP2 MSTORE PUSH1 0x20 ADD SWAP1 DUP2 MSTORE PUSH1 0x20 ADD PUSH0 KECCAK256 PUSH0 PUSH2 0x100 EXP DUP2 SLOAD DUP2 PUSH1 0xFF MUL NOT AND SWAP1 DUP4 ISZERO ISZERO MUL OR SWAP1 SSTORE POP POP JUMP JUMPDEST PUSH0 DUP1 SLOAD SWAP1 PUSH2 0x100 EXP SWAP1 DIV PUSH20 0xFFFFFFFFFFFFFFFFFFFFFFFFFFFFFFFFFFFFFFFF AND PUSH20 0xFFFFFFFFFFFFFFFFFFFFFFFFFFFFFFFFFFFFFFFF AND CALLER PUSH20 0xFFFFFFFFFFFFFFFFFFFFFFFFFFFFFFFFFFFFFFFF AND EQ PUSH2 0x11A JUMPI PUSH0 DUP1 REVERT JUMPDEST DUP1 PUSH1 0x2 DUP2 SWAP1 SSTORE POP POP JUMP JUMPDEST PUSH0 DUP1 REVERT JUMPDEST PUSH0 DUP2 SWAP1 POP SWAP2 SWAP1 POP JUMP JUMPDEST PUSH2 0x13A DUP2 PUSH2 0x128 JUMP JUMPDEST DUP2 EQ PUSH2 0x144 JUMPI PUSH0 DUP1 REVERT JUMPDEST POP JUMP JUMPDEST PUSH0 DUP2 CALLDATALOAD SWAP1 POP PUSH2 0x155 DUP2 PUSH2 0x131 JUMP JUMPDEST SWAP3 SWAP2 POP POP JUMP JUMPDEST PUSH0 PUSH1 0x20 DUP3 DUP5 SUB SLT ISZERO PUSH2 0x170 JUMPI PUSH2 0x16F PUSH2 0x124 JUMP JUMPDEST JUMPDEST PUSH0 PUSH2 0x17D DUP5 DUP3 DUP6 ADD PUSH2 0x147 JUMP JUMPDEST SWAP2 POP POP SWAP3 SWAP2 POP POP JUMP INVALID LOG2 PUSH5 0x6970667358 0x22 SLT KECCAK256 DUP15 SWAP16 PUSH5 0x1E71360224 SIGNEXTEND 0xE6 ORIGIN STATICCALL 0x1F STOP POP MSIZE EQ SMOD JUMPDEST 0x4B 0xEF CREATE EXTCODEHASH DUP9 0x2E 0xBD 0xE3 0xCE 0x2D 0x4B STOP JUMPI PUSH5 0x736F6C6343 STOP ADDMOD BYTE STOP CALLER "
				},
				"gasEstimates": {
					"creation": {
						"codeDepositCost": "88800",
						"executionCost": "infinite",
						"totalCost": "infinite"
					},
					"external": {
						"changePrice(uint256)": "24681",
						"register()": "26580"
					}
				},
				"methodIdentifiers": {
					"changePrice(uint256)": "a2b40d19",
					"register()": "1aa3a008"
				}
			},
			"storageLayout": {
				"storage": [
					{
						"astId": 3,
						"contract": "contracts/2-indepth/9-function-modifiers.sol:Register",
						"label": "owner",
						"offset": 0,
						"slot": "0",
						"type": "t_address"
					},
					{
						"astId": 43,
						"contract": "contracts/2-indepth/9-function-modifiers.sol:Register",
						"label": "registeredAddresses",
						"offset": 0,
						"slot": "1",
						"type": "t_mapping(t_address,t_bool)"
					},
					{
						"astId": 45,
						"contract": "contracts/2-indepth/9-function-modifiers.sol:Register",
						"label": "price",
						"offset": 0,
						"slot": "2",
						"type": "t_uint256"
					}
				],
				"types": {
					"t_address": {
						"encoding": "inplace",
						"label": "address",
						"numberOfBytes": "20"
					},
					"t_bool": {
						"encoding": "inplace",
						"label": "bool",
						"numberOfBytes": "1"
					},
					"t_mapping(t_address,t_bool)": {
						"encoding": "mapping",
						"key": "t_address",
						"label": "mapping(address => bool)",
						"numberOfBytes": "32",
						"value": "t_bool"
					},
					"t_uint256": {
						"encoding": "inplace",
						"label": "uint256",
						"numberOfBytes": "32"
					}
				}
			},
			"userdoc": {
				"kind": "user",
				"methods": {},
				"version": 1
			}
		}
	}
}