{
	"contracts/2-indepth/8-specialvariables.sol": {
		"Updated": {
			"abi": [
				{
					"inputs": [],
					"name": "updatesBalance",
					"outputs": [],
					"stateMutability": "nonpayable",
					"type": "function"
				}
			],
			"devdoc": {
				"kind": "dev",
				"methods": {},
				"version": 1
			},
			"evm": {
				"assembly": "    /* \"contracts/2-indepth/8-specialvariables.sol\":910:1075  contract Updated{... */\n  mstore(0x40, 0x80)\n  callvalue\n  dup1\n  iszero\n  tag_1\n  jumpi\n  0x00\n  dup1\n  revert\ntag_1:\n  pop\n  dataSize(sub_0)\n  dup1\n  dataOffset(sub_0)\n  0x00\n  codecopy\n  0x00\n  return\nstop\n\nsub_0: assembly {\n        /* \"contracts/2-indepth/8-specialvariables.sol\":910:1075  contract Updated{... */\n      mstore(0x40, 0x80)\n      callvalue\n      dup1\n      iszero\n      tag_1\n      jumpi\n      0x00\n      dup1\n      revert\n    tag_1:\n      pop\n      jumpi(tag_2, lt(calldatasize, 0x04))\n      shr(0xe0, calldataload(0x00))\n      dup1\n      0x22a39bfc\n      eq\n      tag_3\n      jumpi\n    tag_2:\n      0x00\n      dup1\n      revert\n        /* \"contracts/2-indepth/8-specialvariables.sol\":932:1073  function updatesBalance() public {... */\n    tag_3:\n      tag_4\n      tag_5\n      jump\t// in\n    tag_4:\n      stop\n    tag_5:\n        /* \"contracts/2-indepth/8-specialvariables.sol\":975:1002  LedgerBalance ledgerbalance */\n      0x00\n        /* \"contracts/2-indepth/8-specialvariables.sol\":1005:1024  new LedgerBalance() */\n      mload(0x40)\n      tag_7\n      swap1\n      tag_8\n      jump\t// in\n    tag_7:\n      mload(0x40)\n      dup1\n      swap2\n      sub\n      swap1\n      0x00\n      create\n      dup1\n      iszero\n      dup1\n      iszero\n      tag_9\n      jumpi\n      returndatasize\n      0x00\n      dup1\n      returndatacopy\n      revert(0x00, returndatasize)\n    tag_9:\n      pop\n        /* \"contracts/2-indepth/8-specialvariables.sol\":975:1024  LedgerBalance ledgerbalance = new LedgerBalance() */\n      swap1\n      pop\n        /* \"contracts/2-indepth/8-specialvariables.sol\":1034:1047  ledgerbalance */\n      dup1\n        /* \"contracts/2-indepth/8-specialvariables.sol\":1034:1062  ledgerbalance.updatesBalance */\n      0xffffffffffffffffffffffffffffffffffffffff\n      and\n      0x17c2b39f\n        /* \"contracts/2-indepth/8-specialvariables.sol\":1063:1065  30 */\n      0x1e\n        /* \"contracts/2-indepth/8-specialvariables.sol\":1034:1066  ledgerbalance.updatesBalance(30) */\n      mload(0x40)\n      dup3\n      0xffffffff\n      and\n      0xe0\n      shl\n      dup2\n      mstore\n      0x04\n      add\n      tag_10\n      swap2\n      swap1\n      tag_11\n      jump\t// in\n    tag_10:\n      0x00\n      mload(0x40)\n      dup1\n      dup4\n      sub\n      dup2\n      0x00\n      dup8\n      dup1\n      extcodesize\n      iszero\n      dup1\n      iszero\n      tag_12\n      jumpi\n      0x00\n      dup1\n      revert\n    tag_12:\n      pop\n      gas\n      call\n      iszero\n      dup1\n      iszero\n      tag_14\n      jumpi\n      returndatasize\n      0x00\n      dup1\n      returndatacopy\n      revert(0x00, returndatasize)\n    tag_14:\n      pop\n      pop\n      pop\n      pop\n        /* \"contracts/2-indepth/8-specialvariables.sol\":965:1073  {... */\n      pop\n        /* \"contracts/2-indepth/8-specialvariables.sol\":932:1073  function updatesBalance() public {... */\n      jump\t// out\n    tag_8:\n      dataSize(sub_0)\n      dup1\n      dataOffset(sub_0)\n      dup4\n      codecopy\n      add\n      swap1\n      jump\t// out\n        /* \"#utility.yul\":7:93   */\n    tag_15:\n        /* \"#utility.yul\":53:60   */\n      0x00\n        /* \"#utility.yul\":82:87   */\n      dup2\n        /* \"#utility.yul\":71:87   */\n      swap1\n      pop\n        /* \"#utility.yul\":7:93   */\n      swap2\n      swap1\n      pop\n      jump\t// out\n        /* \"#utility.yul\":99:176   */\n    tag_16:\n        /* \"#utility.yul\":136:143   */\n      0x00\n        /* \"#utility.yul\":165:170   */\n      dup2\n        /* \"#utility.yul\":154:170   */\n      swap1\n      pop\n        /* \"#utility.yul\":99:176   */\n      swap2\n      swap1\n      pop\n      jump\t// out\n        /* \"#utility.yul\":182:242   */\n    tag_17:\n        /* \"#utility.yul\":210:213   */\n      0x00\n        /* \"#utility.yul\":231:236   */\n      dup2\n        /* \"#utility.yul\":224:236   */\n      swap1\n      pop\n        /* \"#utility.yul\":182:242   */\n      swap2\n      swap1\n      pop\n      jump\t// out\n        /* \"#utility.yul\":248:408   */\n    tag_18:\n        /* \"#utility.yul\":307:316   */\n      0x00\n        /* \"#utility.yul\":340:402   */\n      tag_25\n        /* \"#utility.yul\":358:401   */\n      tag_26\n        /* \"#utility.yul\":367:400   */\n      tag_27\n        /* \"#utility.yul\":394:399   */\n      dup5\n        /* \"#utility.yul\":367:400   */\n      tag_15\n      jump\t// in\n    tag_27:\n        /* \"#utility.yul\":358:401   */\n      tag_17\n      jump\t// in\n    tag_26:\n        /* \"#utility.yul\":340:402   */\n      tag_16\n      jump\t// in\n    tag_25:\n        /* \"#utility.yul\":327:402   */\n      swap1\n      pop\n        /* \"#utility.yul\":248:408   */\n      swap2\n      swap1\n      pop\n      jump\t// out\n        /* \"#utility.yul\":414:563   */\n    tag_19:\n        /* \"#utility.yul\":510:556   */\n      tag_29\n        /* \"#utility.yul\":550:555   */\n      dup2\n        /* \"#utility.yul\":510:556   */\n      tag_18\n      jump\t// in\n    tag_29:\n        /* \"#utility.yul\":505:508   */\n      dup3\n        /* \"#utility.yul\":498:557   */\n      mstore\n        /* \"#utility.yul\":414:563   */\n      pop\n      pop\n      jump\t// out\n        /* \"#utility.yul\":569:809   */\n    tag_11:\n        /* \"#utility.yul\":671:675   */\n      0x00\n        /* \"#utility.yul\":709:711   */\n      0x20\n        /* \"#utility.yul\":698:707   */\n      dup3\n        /* \"#utility.yul\":694:712   */\n      add\n        /* \"#utility.yul\":686:712   */\n      swap1\n      pop\n        /* \"#utility.yul\":722:802   */\n      tag_31\n        /* \"#utility.yul\":799:800   */\n      0x00\n        /* \"#utility.yul\":788:797   */\n      dup4\n        /* \"#utility.yul\":784:801   */\n      add\n        /* \"#utility.yul\":775:781   */\n      dup5\n        /* \"#utility.yul\":722:802   */\n      tag_19\n      jump\t// in\n    tag_31:\n        /* \"#utility.yul\":569:809   */\n      swap3\n      swap2\n      pop\n      pop\n      jump\t// out\n    stop\n\n    sub_0: assembly {\n            /* \"contracts/2-indepth/8-specialvariables.sol\":156:908  contract LedgerBalance{... */\n          mstore(0x40, 0x80)\n          callvalue\n          dup1\n          iszero\n          tag_1\n          jumpi\n          0x00\n          dup1\n          revert\n        tag_1:\n          pop\n          dataSize(sub_0)\n          dup1\n          dataOffset(sub_0)\n          0x00\n          codecopy\n          0x00\n          return\n        stop\n\n        sub_0: assembly {\n                /* \"contracts/2-indepth/8-specialvariables.sol\":156:908  contract LedgerBalance{... */\n              mstore(0x40, 0x80)\n              callvalue\n              dup1\n              iszero\n              tag_1\n              jumpi\n              0x00\n              dup1\n              revert\n            tag_1:\n              pop\n              jumpi(tag_2, lt(calldatasize, 0x04))\n              shr(0xe0, calldataload(0x00))\n              dup1\n              0x17c2b39f\n              eq\n              tag_3\n              jumpi\n              dup1\n              0xe3d670d7\n              eq\n              tag_4\n              jumpi\n            tag_2:\n              0x00\n              dup1\n              revert\n                /* \"contracts/2-indepth/8-specialvariables.sol\":389:485  function updatesBalance(uint newBalance) public{... */\n            tag_3:\n              tag_5\n              0x04\n              dup1\n              calldatasize\n              sub\n              dup2\n              add\n              swap1\n              tag_6\n              swap2\n              swap1\n              tag_7\n              jump\t// in\n            tag_6:\n              tag_8\n              jump\t// in\n            tag_5:\n              stop\n                /* \"contracts/2-indepth/8-specialvariables.sol\":343:382  mapping(address => uint) public balance */\n            tag_4:\n              tag_9\n              0x04\n              dup1\n              calldatasize\n              sub\n              dup2\n              add\n              swap1\n              tag_10\n              swap2\n              swap1\n              tag_11\n              jump\t// in\n            tag_10:\n              tag_12\n              jump\t// in\n            tag_9:\n              mload(0x40)\n              tag_13\n              swap2\n              swap1\n              tag_14\n              jump\t// in\n            tag_13:\n              mload(0x40)\n              dup1\n              swap2\n              sub\n              swap1\n              return\n                /* \"contracts/2-indepth/8-specialvariables.sol\":389:485  function updatesBalance(uint newBalance) public{... */\n            tag_8:\n                /* \"contracts/2-indepth/8-specialvariables.sol\":468:478  newBalance */\n              dup1\n                /* \"contracts/2-indepth/8-specialvariables.sol\":446:453  balance */\n              0x00\n                /* \"contracts/2-indepth/8-specialvariables.sol\":446:465  balance[msg.sender] */\n              dup1\n                /* \"contracts/2-indepth/8-specialvariables.sol\":454:464  msg.sender */\n              caller\n                /* \"contracts/2-indepth/8-specialvariables.sol\":446:465  balance[msg.sender] */\n              0xffffffffffffffffffffffffffffffffffffffff\n              and\n              0xffffffffffffffffffffffffffffffffffffffff\n              and\n              dup2\n              mstore\n              0x20\n              add\n              swap1\n              dup2\n              mstore\n              0x20\n              add\n              0x00\n              keccak256\n                /* \"contracts/2-indepth/8-specialvariables.sol\":446:478  balance[msg.sender] = newBalance */\n              dup2\n              swap1\n              sstore\n              pop\n                /* \"contracts/2-indepth/8-specialvariables.sol\":389:485  function updatesBalance(uint newBalance) public{... */\n              pop\n              jump\t// out\n                /* \"contracts/2-indepth/8-specialvariables.sol\":343:382  mapping(address => uint) public balance */\n            tag_12:\n              mstore(0x20, 0x00)\n              dup1\n              0x00\n              mstore\n              keccak256(0x00, 0x40)\n              0x00\n              swap2\n              pop\n              swap1\n              pop\n              sload\n              dup2\n              jump\t// out\n                /* \"#utility.yul\":88:205   */\n            tag_17:\n                /* \"#utility.yul\":197:198   */\n              0x00\n                /* \"#utility.yul\":194:195   */\n              dup1\n                /* \"#utility.yul\":187:199   */\n              revert\n                /* \"#utility.yul\":334:411   */\n            tag_19:\n                /* \"#utility.yul\":371:378   */\n              0x00\n                /* \"#utility.yul\":400:405   */\n              dup2\n                /* \"#utility.yul\":389:405   */\n              swap1\n              pop\n                /* \"#utility.yul\":334:411   */\n              swap2\n              swap1\n              pop\n              jump\t// out\n                /* \"#utility.yul\":417:539   */\n            tag_20:\n                /* \"#utility.yul\":490:514   */\n              tag_33\n                /* \"#utility.yul\":508:513   */\n              dup2\n                /* \"#utility.yul\":490:514   */\n              tag_19\n              jump\t// in\n            tag_33:\n                /* \"#utility.yul\":483:488   */\n              dup2\n                /* \"#utility.yul\":480:515   */\n              eq\n                /* \"#utility.yul\":470:533   */\n              tag_34\n              jumpi\n                /* \"#utility.yul\":529:530   */\n              0x00\n                /* \"#utility.yul\":526:527   */\n              dup1\n                /* \"#utility.yul\":519:531   */\n              revert\n                /* \"#utility.yul\":470:533   */\n            tag_34:\n                /* \"#utility.yul\":417:539   */\n              pop\n              jump\t// out\n                /* \"#utility.yul\":545:684   */\n            tag_21:\n                /* \"#utility.yul\":591:596   */\n              0x00\n                /* \"#utility.yul\":629:635   */\n              dup2\n                /* \"#utility.yul\":616:636   */\n              calldataload\n                /* \"#utility.yul\":607:636   */\n              swap1\n              pop\n                /* \"#utility.yul\":645:678   */\n              tag_36\n                /* \"#utility.yul\":672:677   */\n              dup2\n                /* \"#utility.yul\":645:678   */\n              tag_20\n              jump\t// in\n            tag_36:\n                /* \"#utility.yul\":545:684   */\n              swap3\n              swap2\n              pop\n              pop\n              jump\t// out\n                /* \"#utility.yul\":690:1019   */\n            tag_7:\n                /* \"#utility.yul\":749:755   */\n              0x00\n                /* \"#utility.yul\":798:800   */\n              0x20\n                /* \"#utility.yul\":786:795   */\n              dup3\n                /* \"#utility.yul\":777:784   */\n              dup5\n                /* \"#utility.yul\":773:796   */\n              sub\n                /* \"#utility.yul\":769:801   */\n              slt\n                /* \"#utility.yul\":766:885   */\n              iszero\n              tag_38\n              jumpi\n                /* \"#utility.yul\":804:883   */\n              tag_39\n              tag_17\n              jump\t// in\n            tag_39:\n                /* \"#utility.yul\":766:885   */\n            tag_38:\n                /* \"#utility.yul\":924:925   */\n              0x00\n                /* \"#utility.yul\":949:1002   */\n              tag_40\n                /* \"#utility.yul\":994:1001   */\n              dup5\n                /* \"#utility.yul\":985:991   */\n              dup3\n                /* \"#utility.yul\":974:983   */\n              dup6\n                /* \"#utility.yul\":970:992   */\n              add\n                /* \"#utility.yul\":949:1002   */\n              tag_21\n              jump\t// in\n            tag_40:\n                /* \"#utility.yul\":939:1002   */\n              swap2\n              pop\n                /* \"#utility.yul\":895:1012   */\n              pop\n                /* \"#utility.yul\":690:1019   */\n              swap3\n              swap2\n              pop\n              pop\n              jump\t// out\n                /* \"#utility.yul\":1025:1151   */\n            tag_22:\n                /* \"#utility.yul\":1062:1069   */\n              0x00\n                /* \"#utility.yul\":1102:1144   */\n              0xffffffffffffffffffffffffffffffffffffffff\n                /* \"#utility.yul\":1095:1100   */\n              dup3\n                /* \"#utility.yul\":1091:1145   */\n              and\n                /* \"#utility.yul\":1080:1145   */\n              swap1\n              pop\n                /* \"#utility.yul\":1025:1151   */\n              swap2\n              swap1\n              pop\n              jump\t// out\n                /* \"#utility.yul\":1157:1253   */\n            tag_23:\n                /* \"#utility.yul\":1194:1201   */\n              0x00\n                /* \"#utility.yul\":1223:1247   */\n              tag_43\n                /* \"#utility.yul\":1241:1246   */\n              dup3\n                /* \"#utility.yul\":1223:1247   */\n              tag_22\n              jump\t// in\n            tag_43:\n                /* \"#utility.yul\":1212:1247   */\n              swap1\n              pop\n                /* \"#utility.yul\":1157:1253   */\n              swap2\n              swap1\n              pop\n              jump\t// out\n                /* \"#utility.yul\":1259:1381   */\n            tag_24:\n                /* \"#utility.yul\":1332:1356   */\n              tag_45\n                /* \"#utility.yul\":1350:1355   */\n              dup2\n                /* \"#utility.yul\":1332:1356   */\n              tag_23\n              jump\t// in\n            tag_45:\n                /* \"#utility.yul\":1325:1330   */\n              dup2\n                /* \"#utility.yul\":1322:1357   */\n              eq\n                /* \"#utility.yul\":1312:1375   */\n              tag_46\n              jumpi\n                /* \"#utility.yul\":1371:1372   */\n              0x00\n                /* \"#utility.yul\":1368:1369   */\n              dup1\n                /* \"#utility.yul\":1361:1373   */\n              revert\n                /* \"#utility.yul\":1312:1375   */\n            tag_46:\n                /* \"#utility.yul\":1259:1381   */\n              pop\n              jump\t// out\n                /* \"#utility.yul\":1387:1526   */\n            tag_25:\n                /* \"#utility.yul\":1433:1438   */\n              0x00\n                /* \"#utility.yul\":1471:1477   */\n              dup2\n                /* \"#utility.yul\":1458:1478   */\n              calldataload\n                /* \"#utility.yul\":1449:1478   */\n              swap1\n              pop\n                /* \"#utility.yul\":1487:1520   */\n              tag_48\n                /* \"#utility.yul\":1514:1519   */\n              dup2\n                /* \"#utility.yul\":1487:1520   */\n              tag_24\n              jump\t// in\n            tag_48:\n                /* \"#utility.yul\":1387:1526   */\n              swap3\n              swap2\n              pop\n              pop\n              jump\t// out\n                /* \"#utility.yul\":1532:1861   */\n            tag_11:\n                /* \"#utility.yul\":1591:1597   */\n              0x00\n                /* \"#utility.yul\":1640:1642   */\n              0x20\n                /* \"#utility.yul\":1628:1637   */\n              dup3\n                /* \"#utility.yul\":1619:1626   */\n              dup5\n                /* \"#utility.yul\":1615:1638   */\n              sub\n                /* \"#utility.yul\":1611:1643   */\n              slt\n                /* \"#utility.yul\":1608:1727   */\n              iszero\n              tag_50\n              jumpi\n                /* \"#utility.yul\":1646:1725   */\n              tag_51\n              tag_17\n              jump\t// in\n            tag_51:\n                /* \"#utility.yul\":1608:1727   */\n            tag_50:\n                /* \"#utility.yul\":1766:1767   */\n              0x00\n                /* \"#utility.yul\":1791:1844   */\n              tag_52\n                /* \"#utility.yul\":1836:1843   */\n              dup5\n                /* \"#utility.yul\":1827:1833   */\n              dup3\n                /* \"#utility.yul\":1816:1825   */\n              dup6\n                /* \"#utility.yul\":1812:1834   */\n              add\n                /* \"#utility.yul\":1791:1844   */\n              tag_25\n              jump\t// in\n            tag_52:\n                /* \"#utility.yul\":1781:1844   */\n              swap2\n              pop\n                /* \"#utility.yul\":1737:1854   */\n              pop\n                /* \"#utility.yul\":1532:1861   */\n              swap3\n              swap2\n              pop\n              pop\n              jump\t// out\n                /* \"#utility.yul\":1867:1985   */\n            tag_26:\n                /* \"#utility.yul\":1954:1978   */\n              tag_54\n                /* \"#utility.yul\":1972:1977   */\n              dup2\n                /* \"#utility.yul\":1954:1978   */\n              tag_19\n              jump\t// in\n            tag_54:\n                /* \"#utility.yul\":1949:1952   */\n              dup3\n                /* \"#utility.yul\":1942:1979   */\n              mstore\n                /* \"#utility.yul\":1867:1985   */\n              pop\n              pop\n              jump\t// out\n                /* \"#utility.yul\":1991:2213   */\n            tag_14:\n                /* \"#utility.yul\":2084:2088   */\n              0x00\n                /* \"#utility.yul\":2122:2124   */\n              0x20\n                /* \"#utility.yul\":2111:2120   */\n              dup3\n                /* \"#utility.yul\":2107:2125   */\n              add\n                /* \"#utility.yul\":2099:2125   */\n              swap1\n              pop\n                /* \"#utility.yul\":2135:2206   */\n              tag_56\n                /* \"#utility.yul\":2203:2204   */\n              0x00\n                /* \"#utility.yul\":2192:2201   */\n              dup4\n                /* \"#utility.yul\":2188:2205   */\n              add\n                /* \"#utility.yul\":2179:2185   */\n              dup5\n                /* \"#utility.yul\":2135:2206   */\n              tag_26\n              jump\t// in\n            tag_56:\n                /* \"#utility.yul\":1991:2213   */\n              swap3\n              swap2\n              pop\n              pop\n              jump\t// out\n\n            auxdata: 0xa2646970667358221220537381664011ac9726272b51e8652eab7ef98997bdd92f9c69dc572107a1ddf564736f6c634300081a0033\n        }\n    }\n\n    auxdata: 0xa26469706673582212202ed1321d14bae774b75fe939d096feba09712044b48fc4c61b80c804b6c5abb564736f6c634300081a0033\n}\n",
				"bytecode": {
					"linkReferences": {},
					"object": "6080604052348015600e575f80fd5b506103ae8061001c5f395ff3fe608060405234801561000f575f80fd5b5060043610610029575f3560e01c806322a39bfc1461002d575b5f80fd5b610035610037565b005b5f604051610044906100ca565b604051809103905ff08015801561005d573d5f803e3d5ffd5b5090508073ffffffffffffffffffffffffffffffffffffffff166317c2b39f601e6040518263ffffffff1660e01b815260040161009a9190610122565b5f604051808303815f87803b1580156100b1575f80fd5b505af11580156100c3573d5f803e3d5ffd5b5050505050565b61023d8061013c83390190565b5f819050919050565b5f819050919050565b5f819050919050565b5f61010c610107610102846100d7565b6100e9565b6100e0565b9050919050565b61011c816100f2565b82525050565b5f6020820190506101355f830184610113565b9291505056fe6080604052348015600e575f80fd5b506102218061001c5f395ff3fe608060405234801561000f575f80fd5b5060043610610034575f3560e01c806317c2b39f14610038578063e3d670d714610054575b5f80fd5b610052600480360381019061004d9190610113565b610084565b005b61006e60048036038101906100699190610198565b6100c8565b60405161007b91906101d2565b60405180910390f35b805f803373ffffffffffffffffffffffffffffffffffffffff1673ffffffffffffffffffffffffffffffffffffffff1681526020019081526020015f208190555050565b5f602052805f5260405f205f915090505481565b5f80fd5b5f819050919050565b6100f2816100e0565b81146100fc575f80fd5b50565b5f8135905061010d816100e9565b92915050565b5f60208284031215610128576101276100dc565b5b5f610135848285016100ff565b91505092915050565b5f73ffffffffffffffffffffffffffffffffffffffff82169050919050565b5f6101678261013e565b9050919050565b6101778161015d565b8114610181575f80fd5b50565b5f813590506101928161016e565b92915050565b5f602082840312156101ad576101ac6100dc565b5b5f6101ba84828501610184565b91505092915050565b6101cc816100e0565b82525050565b5f6020820190506101e55f8301846101c3565b9291505056fea2646970667358221220537381664011ac9726272b51e8652eab7ef98997bdd92f9c69dc572107a1ddf564736f6c634300081a0033a26469706673582212202ed1321d14bae774b75fe939d096feba09712044b48fc4c61b80c804b6c5abb564736f6c634300081a0033",
					"opcodes": "PUSH1 0x80 PUSH1 0x40 MSTORE CALLVALUE DUP1 ISZERO PUSH1 0xE JUMPI PUSH0 DUP1 REVERT JUMPDEST POP PUSH2 0x3AE DUP1 PUSH2 0x1C PUSH0 CODECOPY PUSH0 RETURN INVALID PUSH1 0x80 PUSH1 0x40 MSTORE CALLVALUE DUP1 ISZERO PUSH2 0xF JUMPI PUSH0 DUP1 REVERT JUMPDEST POP PUSH1 0x4 CALLDATASIZE LT PUSH2 0x29 JUMPI PUSH0 CALLDATALOAD PUSH1 0xE0 SHR DUP1 PUSH4 0x22A39BFC EQ PUSH2 0x2D JUMPI JUMPDEST PUSH0 DUP1 REVERT JUMPDEST PUSH2 0x35 PUSH2 0x37 JUMP JUMPDEST STOP JUMPDEST PUSH0 PUSH1 0x40 MLOAD PUSH2 0x44 SWAP1 PUSH2 0xCA JUMP JUMPDEST PUSH1 0x40 MLOAD DUP1 SWAP2 SUB SWAP1 PUSH0 CREATE DUP1 ISZERO DUP1 ISZERO PUSH2 0x5D JUMPI RETURNDATASIZE PUSH0 DUP1 RETURNDATACOPY RETURNDATASIZE PUSH0 REVERT JUMPDEST POP SWAP1 POP DUP1 PUSH20 0xFFFFFFFFFFFFFFFFFFFFFFFFFFFFFFFFFFFFFFFF AND PUSH4 0x17C2B39F PUSH1 0x1E PUSH1 0x40 MLOAD DUP3 PUSH4 0xFFFFFFFF AND PUSH1 0xE0 SHL DUP2 MSTORE PUSH1 0x4 ADD PUSH2 0x9A SWAP2 SWAP1 PUSH2 0x122 JUMP JUMPDEST PUSH0 PUSH1 0x40 MLOAD DUP1 DUP4 SUB DUP2 PUSH0 DUP8 DUP1 EXTCODESIZE ISZERO DUP1 ISZERO PUSH2 0xB1 JUMPI PUSH0 DUP1 REVERT JUMPDEST POP GAS CALL ISZERO DUP1 ISZERO PUSH2 0xC3 JUMPI RETURNDATASIZE PUSH0 DUP1 RETURNDATACOPY RETURNDATASIZE PUSH0 REVERT JUMPDEST POP POP POP POP POP JUMP JUMPDEST PUSH2 0x23D DUP1 PUSH2 0x13C DUP4 CODECOPY ADD SWAP1 JUMP JUMPDEST PUSH0 DUP2 SWAP1 POP SWAP2 SWAP1 POP JUMP JUMPDEST PUSH0 DUP2 SWAP1 POP SWAP2 SWAP1 POP JUMP JUMPDEST PUSH0 DUP2 SWAP1 POP SWAP2 SWAP1 POP JUMP JUMPDEST PUSH0 PUSH2 0x10C PUSH2 0x107 PUSH2 0x102 DUP5 PUSH2 0xD7 JUMP JUMPDEST PUSH2 0xE9 JUMP JUMPDEST PUSH2 0xE0 JUMP JUMPDEST SWAP1 POP SWAP2 SWAP1 POP JUMP JUMPDEST PUSH2 0x11C DUP2 PUSH2 0xF2 JUMP JUMPDEST DUP3 MSTORE POP POP JUMP JUMPDEST PUSH0 PUSH1 0x20 DUP3 ADD SWAP1 POP PUSH2 0x135 PUSH0 DUP4 ADD DUP5 PUSH2 0x113 JUMP JUMPDEST SWAP3 SWAP2 POP POP JUMP INVALID PUSH1 0x80 PUSH1 0x40 MSTORE CALLVALUE DUP1 ISZERO PUSH1 0xE JUMPI PUSH0 DUP1 REVERT JUMPDEST POP PUSH2 0x221 DUP1 PUSH2 0x1C PUSH0 CODECOPY PUSH0 RETURN INVALID PUSH1 0x80 PUSH1 0x40 MSTORE CALLVALUE DUP1 ISZERO PUSH2 0xF JUMPI PUSH0 DUP1 REVERT JUMPDEST POP PUSH1 0x4 CALLDATASIZE LT PUSH2 0x34 JUMPI PUSH0 CALLDATALOAD PUSH1 0xE0 SHR DUP1 PUSH4 0x17C2B39F EQ PUSH2 0x38 JUMPI DUP1 PUSH4 0xE3D670D7 EQ PUSH2 0x54 JUMPI JUMPDEST PUSH0 DUP1 REVERT JUMPDEST PUSH2 0x52 PUSH1 0x4 DUP1 CALLDATASIZE SUB DUP2 ADD SWAP1 PUSH2 0x4D SWAP2 SWAP1 PUSH2 0x113 JUMP JUMPDEST PUSH2 0x84 JUMP JUMPDEST STOP JUMPDEST PUSH2 0x6E PUSH1 0x4 DUP1 CALLDATASIZE SUB DUP2 ADD SWAP1 PUSH2 0x69 SWAP2 SWAP1 PUSH2 0x198 JUMP JUMPDEST PUSH2 0xC8 JUMP JUMPDEST PUSH1 0x40 MLOAD PUSH2 0x7B SWAP2 SWAP1 PUSH2 0x1D2 JUMP JUMPDEST PUSH1 0x40 MLOAD DUP1 SWAP2 SUB SWAP1 RETURN JUMPDEST DUP1 PUSH0 DUP1 CALLER PUSH20 0xFFFFFFFFFFFFFFFFFFFFFFFFFFFFFFFFFFFFFFFF AND PUSH20 0xFFFFFFFFFFFFFFFFFFFFFFFFFFFFFFFFFFFFFFFF AND DUP2 MSTORE PUSH1 0x20 ADD SWAP1 DUP2 MSTORE PUSH1 0x20 ADD PUSH0 KECCAK256 DUP2 SWAP1 SSTORE POP POP JUMP JUMPDEST PUSH0 PUSH1 0x20 MSTORE DUP1 PUSH0 MSTORE PUSH1 0x40 PUSH0 KECCAK256 PUSH0 SWAP2 POP SWAP1 POP SLOAD DUP2 JUMP JUMPDEST PUSH0 DUP1 REVERT JUMPDEST PUSH0 DUP2 SWAP1 POP SWAP2 SWAP1 POP JUMP JUMPDEST PUSH2 0xF2 DUP2 PUSH2 0xE0 JUMP JUMPDEST DUP2 EQ PUSH2 0xFC JUMPI PUSH0 DUP1 REVERT JUMPDEST POP JUMP JUMPDEST PUSH0 DUP2 CALLDATALOAD SWAP1 POP PUSH2 0x10D DUP2 PUSH2 0xE9 JUMP JUMPDEST SWAP3 SWAP2 POP POP JUMP JUMPDEST PUSH0 PUSH1 0x20 DUP3 DUP5 SUB SLT ISZERO PUSH2 0x128 JUMPI PUSH2 0x127 PUSH2 0xDC JUMP JUMPDEST JUMPDEST PUSH0 PUSH2 0x135 DUP5 DUP3 DUP6 ADD PUSH2 0xFF JUMP JUMPDEST SWAP2 POP POP SWAP3 SWAP2 POP POP JUMP JUMPDEST PUSH0 PUSH20 0xFFFFFFFFFFFFFFFFFFFFFFFFFFFFFFFFFFFFFFFF DUP3 AND SWAP1 POP SWAP2 SWAP1 POP JUMP JUMPDEST PUSH0 PUSH2 0x167 DUP3 PUSH2 0x13E JUMP JUMPDEST SWAP1 POP SWAP2 SWAP1 POP JUMP JUMPDEST PUSH2 0x177 DUP2 PUSH2 0x15D JUMP JUMPDEST DUP2 EQ PUSH2 0x181 JUMPI PUSH0 DUP1 REVERT JUMPDEST POP JUMP JUMPDEST PUSH0 DUP2 CALLDATALOAD SWAP1 POP PUSH2 0x192 DUP2 PUSH2 0x16E JUMP JUMPDEST SWAP3 SWAP2 POP POP JUMP JUMPDEST PUSH0 PUSH1 0x20 DUP3 DUP5 SUB SLT ISZERO PUSH2 0x1AD JUMPI PUSH2 0x1AC PUSH2 0xDC JUMP JUMPDEST JUMPDEST PUSH0 PUSH2 0x1BA DUP5 DUP3 DUP6 ADD PUSH2 0x184 JUMP JUMPDEST SWAP2 POP POP SWAP3 SWAP2 POP POP JUMP JUMPDEST PUSH2 0x1CC DUP2 PUSH2 0xE0 JUMP JUMPDEST DUP3 MSTORE POP POP JUMP JUMPDEST PUSH0 PUSH1 0x20 DUP3 ADD SWAP1 POP PUSH2 0x1E5 PUSH0 DUP4 ADD DUP5 PUSH2 0x1C3 JUMP JUMPDEST SWAP3 SWAP2 POP POP JUMP INVALID LOG2 PUSH5 0x6970667358 0x22 SLT KECCAK256 MSTORE8 PUSH20 0x81664011AC9726272B51E8652EAB7EF98997BDD9 0x2F SWAP13 PUSH10 0xDC572107A1DDF564736F PUSH13 0x634300081A0033A26469706673 PC 0x22 SLT KECCAK256 0x2E 0xD1 ORIGIN SAR EQ 0xBA 0xE7 PUSH21 0xB75FE939D096FEBA09712044B48FC4C61B80C804B6 0xC5 0xAB 0xB5 PUSH5 0x736F6C6343 STOP ADDMOD BYTE STOP CALLER "
				},
				"gasEstimates": {
					"creation": {
						"codeDepositCost": "188400",
						"executionCost": "230",
						"totalCost": "188630"
					},
					"external": {
						"updatesBalance()": "infinite"
					}
				},
				"methodIdentifiers": {
					"updatesBalance()": "22a39bfc"
				}
			},
			"storageLayout": {
				"storage": [],
				"types": null
			},
			"userdoc": {
				"kind": "user",
				"methods": {},
				"version": 1
			}
		}
	}
}