{
	"contracts/2-indepth/2-arrays.sol": {
		"learnArrays": {
			"abi": [
				{
					"inputs": [
						{
							"internalType": "uint256",
							"name": "",
							"type": "uint256"
						}
					],
					"name": "changeArray",
					"outputs": [
						{
							"internalType": "uint256",
							"name": "",
							"type": "uint256"
						}
					],
					"stateMutability": "view",
					"type": "function"
				},
				{
					"inputs": [],
					"name": "getChangeArray",
					"outputs": [
						{
							"internalType": "uint256[]",
							"name": "",
							"type": "uint256[]"
						}
					],
					"stateMutability": "view",
					"type": "function"
				},
				{
					"inputs": [],
					"name": "getlength",
					"outputs": [
						{
							"internalType": "uint256",
							"name": "",
							"type": "uint256"
						}
					],
					"stateMutability": "view",
					"type": "function"
				},
				{
					"inputs": [
						{
							"internalType": "uint256",
							"name": "",
							"type": "uint256"
						}
					],
					"name": "myArray",
					"outputs": [
						{
							"internalType": "uint256",
							"name": "",
							"type": "uint256"
						}
					],
					"stateMutability": "view",
					"type": "function"
				},
				{
					"inputs": [
						{
							"internalType": "uint256",
							"name": "",
							"type": "uint256"
						}
					],
					"name": "myArray2",
					"outputs": [
						{
							"internalType": "uint256",
							"name": "",
							"type": "uint256"
						}
					],
					"stateMutability": "view",
					"type": "function"
				},
				{
					"inputs": [
						{
							"internalType": "uint256",
							"name": "",
							"type": "uint256"
						}
					],
					"name": "myFixedSizedArray",
					"outputs": [
						{
							"internalType": "uint256",
							"name": "",
							"type": "uint256"
						}
					],
					"stateMutability": "view",
					"type": "function"
				},
				{
					"inputs": [],
					"name": "pop",
					"outputs": [],
					"stateMutability": "nonpayable",
					"type": "function"
				},
				{
					"inputs": [
						{
							"internalType": "uint256",
							"name": "number",
							"type": "uint256"
						}
					],
					"name": "push",
					"outputs": [],
					"stateMutability": "nonpayable",
					"type": "function"
				},
				{
					"inputs": [
						{
							"internalType": "uint256",
							"name": "i",
							"type": "uint256"
						}
					],
					"name": "remove",
					"outputs": [],
					"stateMutability": "nonpayable",
					"type": "function"
				},
				{
					"inputs": [
						{
							"internalType": "uint256",
							"name": "i",
							"type": "uint256"
						}
					],
					"name": "removeElement",
					"outputs": [],
					"stateMutability": "nonpayable",
					"type": "function"
				},
				{
					"inputs": [],
					"name": "test",
					"outputs": [],
					"stateMutability": "nonpayable",
					"type": "function"
				}
			],
			"devdoc": {
				"kind": "dev",
				"methods": {},
				"version": 1
			},
			"evm": {
				"assembly": "    /* \"contracts/2-indepth/2-arrays.sol\":90:1934  contract learnArrays {... */\n  mstore(0x40, 0x80)\n  callvalue\n  dup1\n  iszero\n  tag_1\n  jumpi\n  0x00\n  dup1\n  revert\ntag_1:\n  pop\n  dataSize(sub_0)\n  dup1\n  dataOffset(sub_0)\n  0x00\n  codecopy\n  0x00\n  return\nstop\n\nsub_0: assembly {\n        /* \"contracts/2-indepth/2-arrays.sol\":90:1934  contract learnArrays {... */\n      mstore(0x40, 0x80)\n      callvalue\n      dup1\n      iszero\n      tag_1\n      jumpi\n      0x00\n      dup1\n      revert\n    tag_1:\n      pop\n      jumpi(tag_2, lt(calldatasize, 0x04))\n      shr(0xe0, calldataload(0x00))\n      dup1\n      0x9fc37abf\n      gt\n      tag_14\n      jumpi\n      dup1\n      0x9fc37abf\n      eq\n      tag_8\n      jumpi\n      dup1\n      0xa16d3598\n      eq\n      tag_9\n      jumpi\n      dup1\n      0xa4ece52c\n      eq\n      tag_10\n      jumpi\n      dup1\n      0xcc3e57d9\n      eq\n      tag_11\n      jumpi\n      dup1\n      0xd4d95b7f\n      eq\n      tag_12\n      jumpi\n      dup1\n      0xf8a8fd6d\n      eq\n      tag_13\n      jumpi\n      jump(tag_2)\n    tag_14:\n      dup1\n      0x4cc82215\n      eq\n      tag_3\n      jumpi\n      dup1\n      0x6e366c96\n      eq\n      tag_4\n      jumpi\n      dup1\n      0x8c11818a\n      eq\n      tag_5\n      jumpi\n      dup1\n      0x959ac484\n      eq\n      tag_6\n      jumpi\n      dup1\n      0x9c68d20f\n      eq\n      tag_7\n      jumpi\n    tag_2:\n      0x00\n      dup1\n      revert\n        /* \"contracts/2-indepth/2-arrays.sol\":743:894  function remove(uint i) public {... */\n    tag_3:\n      tag_15\n      0x04\n      dup1\n      calldatasize\n      sub\n      dup2\n      add\n      swap1\n      tag_16\n      swap2\n      swap1\n      tag_17\n      jump\t// in\n    tag_16:\n      tag_18\n      jump\t// in\n    tag_15:\n      stop\n        /* \"contracts/2-indepth/2-arrays.sol\":1384:1409  uint[] public changeArray */\n    tag_4:\n      tag_19\n      0x04\n      dup1\n      calldatasize\n      sub\n      dup2\n      add\n      swap1\n      tag_20\n      swap2\n      swap1\n      tag_17\n      jump\t// in\n    tag_20:\n      tag_21\n      jump\t// in\n    tag_19:\n      mload(0x40)\n      tag_22\n      swap2\n      swap1\n      tag_23\n      jump\t// in\n    tag_22:\n      mload(0x40)\n      dup1\n      swap2\n      sub\n      swap1\n      return\n        /* \"contracts/2-indepth/2-arrays.sol\":144:166  uint[] public myArray2 */\n    tag_5:\n      tag_24\n      0x04\n      dup1\n      calldatasize\n      sub\n      dup2\n      add\n      swap1\n      tag_25\n      swap2\n      swap1\n      tag_17\n      jump\t// in\n    tag_25:\n      tag_26\n      jump\t// in\n    tag_24:\n      mload(0x40)\n      tag_27\n      swap2\n      swap1\n      tag_23\n      jump\t// in\n    tag_27:\n      mload(0x40)\n      dup1\n      swap2\n      sub\n      swap1\n      return\n        /* \"contracts/2-indepth/2-arrays.sol\":328:398  function push(uint number) public{... */\n    tag_6:\n      tag_28\n      0x04\n      dup1\n      calldatasize\n      sub\n      dup2\n      add\n      swap1\n      tag_29\n      swap2\n      swap1\n      tag_17\n      jump\t// in\n    tag_29:\n      tag_30\n      jump\t// in\n    tag_28:\n      stop\n        /* \"contracts/2-indepth/2-arrays.sol\":172:206  uint[200] public myFixedSizedArray */\n    tag_7:\n      tag_31\n      0x04\n      dup1\n      calldatasize\n      sub\n      dup2\n      add\n      swap1\n      tag_32\n      swap2\n      swap1\n      tag_17\n      jump\t// in\n    tag_32:\n      tag_33\n      jump\t// in\n    tag_31:\n      mload(0x40)\n      tag_34\n      swap2\n      swap1\n      tag_23\n      jump\t// in\n    tag_34:\n      mload(0x40)\n      dup1\n      swap2\n      sub\n      swap1\n      return\n        /* \"contracts/2-indepth/2-arrays.sol\":1416:1653  function removeElement(uint i) public{... */\n    tag_8:\n      tag_35\n      0x04\n      dup1\n      calldatasize\n      sub\n      dup2\n      add\n      swap1\n      tag_36\n      swap2\n      swap1\n      tag_17\n      jump\t// in\n    tag_36:\n      tag_37\n      jump\t// in\n    tag_35:\n      stop\n        /* \"contracts/2-indepth/2-arrays.sol\":652:737  function getlength() public view returns (uint){... */\n    tag_9:\n      tag_38\n      tag_39\n      jump\t// in\n    tag_38:\n      mload(0x40)\n      tag_40\n      swap2\n      swap1\n      tag_23\n      jump\t// in\n    tag_40:\n      mload(0x40)\n      dup1\n      swap2\n      sub\n      swap1\n      return\n        /* \"contracts/2-indepth/2-arrays.sol\":502:554  function pop() public {... */\n    tag_10:\n      tag_41\n      tag_42\n      jump\t// in\n    tag_41:\n      stop\n        /* \"contracts/2-indepth/2-arrays.sol\":117:138  uint[] public myArray */\n    tag_11:\n      tag_43\n      0x04\n      dup1\n      calldatasize\n      sub\n      dup2\n      add\n      swap1\n      tag_44\n      swap2\n      swap1\n      tag_17\n      jump\t// in\n    tag_44:\n      tag_45\n      jump\t// in\n    tag_43:\n      mload(0x40)\n      tag_46\n      swap2\n      swap1\n      tag_23\n      jump\t// in\n    tag_46:\n      mload(0x40)\n      dup1\n      swap2\n      sub\n      swap1\n      return\n        /* \"contracts/2-indepth/2-arrays.sol\":1837:1932  function getChangeArray() public view returns(uint[] memory){... */\n    tag_12:\n      tag_47\n      tag_48\n      jump\t// in\n    tag_47:\n      mload(0x40)\n      tag_49\n      swap2\n      swap1\n      tag_50\n      jump\t// in\n    tag_49:\n      mload(0x40)\n      dup1\n      swap2\n      sub\n      swap1\n      return\n        /* \"contracts/2-indepth/2-arrays.sol\":1659:1831  function test() public {... */\n    tag_13:\n      tag_51\n      tag_52\n      jump\t// in\n    tag_51:\n      stop\n        /* \"contracts/2-indepth/2-arrays.sol\":743:894  function remove(uint i) public {... */\n    tag_18:\n        /* \"contracts/2-indepth/2-arrays.sol\":791:798  myArray */\n      0x00\n        /* \"contracts/2-indepth/2-arrays.sol\":799:800  i */\n      dup2\n        /* \"contracts/2-indepth/2-arrays.sol\":791:801  myArray[i] */\n      dup2\n      sload\n      dup2\n      lt\n      tag_54\n      jumpi\n      tag_55\n      tag_56\n      jump\t// in\n    tag_55:\n    tag_54:\n      swap1\n      0x00\n      mstore\n      keccak256(0x00, 0x20)\n      add\n        /* \"contracts/2-indepth/2-arrays.sol\":784:801  delete myArray[i] */\n      0x00\n      swap1\n      sstore\n        /* \"contracts/2-indepth/2-arrays.sol\":743:894  function remove(uint i) public {... */\n      pop\n      jump\t// out\n        /* \"contracts/2-indepth/2-arrays.sol\":1384:1409  uint[] public changeArray */\n    tag_21:\n      0xca\n      dup2\n      dup2\n      sload\n      dup2\n      lt\n      tag_58\n      jumpi\n      0x00\n      dup1\n      revert\n    tag_58:\n      swap1\n      0x00\n      mstore\n      keccak256(0x00, 0x20)\n      add\n      0x00\n      swap2\n      pop\n      swap1\n      pop\n      sload\n      dup2\n      jump\t// out\n        /* \"contracts/2-indepth/2-arrays.sol\":144:166  uint[] public myArray2 */\n    tag_26:\n      0x01\n      dup2\n      dup2\n      sload\n      dup2\n      lt\n      tag_60\n      jumpi\n      0x00\n      dup1\n      revert\n    tag_60:\n      swap1\n      0x00\n      mstore\n      keccak256(0x00, 0x20)\n      add\n      0x00\n      swap2\n      pop\n      swap1\n      pop\n      sload\n      dup2\n      jump\t// out\n        /* \"contracts/2-indepth/2-arrays.sol\":328:398  function push(uint number) public{... */\n    tag_30:\n        /* \"contracts/2-indepth/2-arrays.sol\":371:378  myArray */\n      0x00\n        /* \"contracts/2-indepth/2-arrays.sol\":384:390  number */\n      dup2\n        /* \"contracts/2-indepth/2-arrays.sol\":371:391  myArray.push(number) */\n      swap1\n      dup1\n      0x01\n      dup2\n      sload\n      add\n      dup1\n      dup3\n      sstore\n      dup1\n      swap2\n      pop\n      pop\n      0x01\n      swap1\n      sub\n      swap1\n      0x00\n      mstore\n      keccak256(0x00, 0x20)\n      add\n      0x00\n      swap1\n      swap2\n      swap1\n      swap2\n      swap1\n      swap2\n      pop\n      sstore\n        /* \"contracts/2-indepth/2-arrays.sol\":328:398  function push(uint number) public{... */\n      pop\n      jump\t// out\n        /* \"contracts/2-indepth/2-arrays.sol\":172:206  uint[200] public myFixedSizedArray */\n    tag_33:\n      0x02\n      dup2\n      0xc8\n      dup2\n      lt\n      tag_64\n      jumpi\n      0x00\n      dup1\n      revert\n    tag_64:\n      add\n      0x00\n      swap2\n      pop\n      swap1\n      pop\n      sload\n      dup2\n      jump\t// out\n        /* \"contracts/2-indepth/2-arrays.sol\":1416:1653  function removeElement(uint i) public{... */\n    tag_37:\n        /* \"contracts/2-indepth/2-arrays.sol\":1492:1493  0 */\n      0x00\n        /* \"contracts/2-indepth/2-arrays.sol\":1471:1482  changeArray */\n      0xca\n        /* \"contracts/2-indepth/2-arrays.sol\":1471:1489  changeArray.length */\n      dup1\n      sload\n      swap1\n      pop\n        /* \"contracts/2-indepth/2-arrays.sol\":1471:1493  changeArray.length > 0 */\n      gt\n        /* \"contracts/2-indepth/2-arrays.sol\":1463:1518  require(changeArray.length > 0,\"There are no elements\") */\n      tag_67\n      jumpi\n      mload(0x40)\n      0x08c379a000000000000000000000000000000000000000000000000000000000\n      dup2\n      mstore\n      0x04\n      add\n      tag_68\n      swap1\n      tag_69\n      jump\t// in\n    tag_68:\n      mload(0x40)\n      dup1\n      swap2\n      sub\n      swap1\n      revert\n    tag_67:\n        /* \"contracts/2-indepth/2-arrays.sol\":1528:1544  uint lastElement */\n      0x00\n        /* \"contracts/2-indepth/2-arrays.sol\":1547:1558  changeArray */\n      0xca\n        /* \"contracts/2-indepth/2-arrays.sol\":1579:1580  1 */\n      0x01\n        /* \"contracts/2-indepth/2-arrays.sol\":1559:1570  changeArray */\n      0xca\n        /* \"contracts/2-indepth/2-arrays.sol\":1559:1577  changeArray.length */\n      dup1\n      sload\n      swap1\n      pop\n        /* \"contracts/2-indepth/2-arrays.sol\":1559:1580  changeArray.length -1 */\n      tag_70\n      swap2\n      swap1\n      tag_71\n      jump\t// in\n    tag_70:\n        /* \"contracts/2-indepth/2-arrays.sol\":1547:1581  changeArray[changeArray.length -1] */\n      dup2\n      sload\n      dup2\n      lt\n      tag_72\n      jumpi\n      tag_73\n      tag_56\n      jump\t// in\n    tag_73:\n    tag_72:\n      swap1\n      0x00\n      mstore\n      keccak256(0x00, 0x20)\n      add\n      sload\n        /* \"contracts/2-indepth/2-arrays.sol\":1528:1581  uint lastElement = changeArray[changeArray.length -1] */\n      swap1\n      pop\n        /* \"contracts/2-indepth/2-arrays.sol\":1608:1619  lastElement */\n      dup1\n        /* \"contracts/2-indepth/2-arrays.sol\":1591:1602  changeArray */\n      0xca\n        /* \"contracts/2-indepth/2-arrays.sol\":1603:1604  i */\n      dup4\n        /* \"contracts/2-indepth/2-arrays.sol\":1591:1605  changeArray[i] */\n      dup2\n      sload\n      dup2\n      lt\n      tag_75\n      jumpi\n      tag_76\n      tag_56\n      jump\t// in\n    tag_76:\n    tag_75:\n      swap1\n      0x00\n      mstore\n      keccak256(0x00, 0x20)\n      add\n        /* \"contracts/2-indepth/2-arrays.sol\":1591:1619  changeArray[i] = lastElement */\n      dup2\n      swap1\n      sstore\n      pop\n        /* \"contracts/2-indepth/2-arrays.sol\":1629:1640  changeArray */\n      0xca\n        /* \"contracts/2-indepth/2-arrays.sol\":1629:1646  changeArray.pop() */\n      dup1\n      sload\n      dup1\n      tag_78\n      jumpi\n      tag_79\n      tag_80\n      jump\t// in\n    tag_79:\n    tag_78:\n      0x01\n      swap1\n      sub\n      dup2\n      dup2\n      swap1\n      0x00\n      mstore\n      keccak256(0x00, 0x20)\n      add\n      0x00\n      swap1\n      sstore\n      swap1\n      sstore\n        /* \"contracts/2-indepth/2-arrays.sol\":1453:1653  {... */\n      pop\n        /* \"contracts/2-indepth/2-arrays.sol\":1416:1653  function removeElement(uint i) public{... */\n      pop\n      jump\t// out\n        /* \"contracts/2-indepth/2-arrays.sol\":652:737  function getlength() public view returns (uint){... */\n    tag_39:\n        /* \"contracts/2-indepth/2-arrays.sol\":694:698  uint */\n      0x00\n        /* \"contracts/2-indepth/2-arrays.sol\":716:723  myArray */\n      dup1\n        /* \"contracts/2-indepth/2-arrays.sol\":716:730  myArray.length */\n      dup1\n      sload\n      swap1\n      pop\n        /* \"contracts/2-indepth/2-arrays.sol\":709:730  return myArray.length */\n      swap1\n      pop\n        /* \"contracts/2-indepth/2-arrays.sol\":652:737  function getlength() public view returns (uint){... */\n      swap1\n      jump\t// out\n        /* \"contracts/2-indepth/2-arrays.sol\":502:554  function pop() public {... */\n    tag_42:\n        /* \"contracts/2-indepth/2-arrays.sol\":534:541  myArray */\n      0x00\n        /* \"contracts/2-indepth/2-arrays.sol\":534:547  myArray.pop() */\n      dup1\n      sload\n      dup1\n      tag_84\n      jumpi\n      tag_85\n      tag_80\n      jump\t// in\n    tag_85:\n    tag_84:\n      0x01\n      swap1\n      sub\n      dup2\n      dup2\n      swap1\n      0x00\n      mstore\n      keccak256(0x00, 0x20)\n      add\n      0x00\n      swap1\n      sstore\n      swap1\n      sstore\n        /* \"contracts/2-indepth/2-arrays.sol\":502:554  function pop() public {... */\n      jump\t// out\n        /* \"contracts/2-indepth/2-arrays.sol\":117:138  uint[] public myArray */\n    tag_45:\n      0x00\n      dup2\n      dup2\n      sload\n      dup2\n      lt\n      tag_87\n      jumpi\n      0x00\n      dup1\n      revert\n    tag_87:\n      swap1\n      0x00\n      mstore\n      keccak256(0x00, 0x20)\n      add\n      0x00\n      swap2\n      pop\n      swap1\n      pop\n      sload\n      dup2\n      jump\t// out\n        /* \"contracts/2-indepth/2-arrays.sol\":1837:1932  function getChangeArray() public view returns(uint[] memory){... */\n    tag_48:\n        /* \"contracts/2-indepth/2-arrays.sol\":1883:1896  uint[] memory */\n      0x60\n        /* \"contracts/2-indepth/2-arrays.sol\":1914:1925  changeArray */\n      0xca\n        /* \"contracts/2-indepth/2-arrays.sol\":1907:1925  return changeArray */\n      dup1\n      sload\n      dup1\n      0x20\n      mul\n      0x20\n      add\n      mload(0x40)\n      swap1\n      dup2\n      add\n      0x40\n      mstore\n      dup1\n      swap3\n      swap2\n      swap1\n      dup2\n      dup2\n      mstore\n      0x20\n      add\n      dup3\n      dup1\n      sload\n      dup1\n      iszero\n      tag_90\n      jumpi\n      0x20\n      mul\n      dup3\n      add\n      swap2\n      swap1\n      0x00\n      mstore\n      keccak256(0x00, 0x20)\n      swap1\n    tag_91:\n      dup2\n      sload\n      dup2\n      mstore\n      0x20\n      add\n      swap1\n      0x01\n      add\n      swap1\n      dup1\n      dup4\n      gt\n      tag_91\n      jumpi\n    tag_90:\n      pop\n      pop\n      pop\n      pop\n      pop\n      swap1\n      pop\n        /* \"contracts/2-indepth/2-arrays.sol\":1837:1932  function getChangeArray() public view returns(uint[] memory){... */\n      swap1\n      jump\t// out\n        /* \"contracts/2-indepth/2-arrays.sol\":1659:1831  function test() public {... */\n    tag_52:\n        /* \"contracts/2-indepth/2-arrays.sol\":1692:1703  changeArray */\n      0xca\n        /* \"contracts/2-indepth/2-arrays.sol\":1709:1710  1 */\n      0x01\n        /* \"contracts/2-indepth/2-arrays.sol\":1692:1711  changeArray.push(1) */\n      swap1\n      dup1\n      0x01\n      dup2\n      sload\n      add\n      dup1\n      dup3\n      sstore\n      dup1\n      swap2\n      pop\n      pop\n      0x01\n      swap1\n      sub\n      swap1\n      0x00\n      mstore\n      keccak256(0x00, 0x20)\n      add\n      0x00\n      swap1\n      swap2\n      swap1\n      swap2\n      swap1\n      swap2\n      pop\n      sstore\n        /* \"contracts/2-indepth/2-arrays.sol\":1721:1732  changeArray */\n      0xca\n        /* \"contracts/2-indepth/2-arrays.sol\":1738:1739  2 */\n      0x02\n        /* \"contracts/2-indepth/2-arrays.sol\":1721:1740  changeArray.push(2) */\n      swap1\n      dup1\n      0x01\n      dup2\n      sload\n      add\n      dup1\n      dup3\n      sstore\n      dup1\n      swap2\n      pop\n      pop\n      0x01\n      swap1\n      sub\n      swap1\n      0x00\n      mstore\n      keccak256(0x00, 0x20)\n      add\n      0x00\n      swap1\n      swap2\n      swap1\n      swap2\n      swap1\n      swap2\n      pop\n      sstore\n        /* \"contracts/2-indepth/2-arrays.sol\":1750:1761  changeArray */\n      0xca\n        /* \"contracts/2-indepth/2-arrays.sol\":1767:1768  3 */\n      0x03\n        /* \"contracts/2-indepth/2-arrays.sol\":1750:1769  changeArray.push(3) */\n      swap1\n      dup1\n      0x01\n      dup2\n      sload\n      add\n      dup1\n      dup3\n      sstore\n      dup1\n      swap2\n      pop\n      pop\n      0x01\n      swap1\n      sub\n      swap1\n      0x00\n      mstore\n      keccak256(0x00, 0x20)\n      add\n      0x00\n      swap1\n      swap2\n      swap1\n      swap2\n      swap1\n      swap2\n      pop\n      sstore\n        /* \"contracts/2-indepth/2-arrays.sol\":1779:1790  changeArray */\n      0xca\n        /* \"contracts/2-indepth/2-arrays.sol\":1796:1797  4 */\n      0x04\n        /* \"contracts/2-indepth/2-arrays.sol\":1779:1798  changeArray.push(4) */\n      swap1\n      dup1\n      0x01\n      dup2\n      sload\n      add\n      dup1\n      dup3\n      sstore\n      dup1\n      swap2\n      pop\n      pop\n      0x01\n      swap1\n      sub\n      swap1\n      0x00\n      mstore\n      keccak256(0x00, 0x20)\n      add\n      0x00\n      swap1\n      swap2\n      swap1\n      swap2\n      swap1\n      swap2\n      pop\n      sstore\n        /* \"contracts/2-indepth/2-arrays.sol\":1808:1824  removeElement(1) */\n      tag_97\n        /* \"contracts/2-indepth/2-arrays.sol\":1822:1823  1 */\n      0x01\n        /* \"contracts/2-indepth/2-arrays.sol\":1808:1821  removeElement */\n      tag_37\n        /* \"contracts/2-indepth/2-arrays.sol\":1808:1824  removeElement(1) */\n      jump\t// in\n    tag_97:\n        /* \"contracts/2-indepth/2-arrays.sol\":1659:1831  function test() public {... */\n      jump\t// out\n        /* \"#utility.yul\":88:205   */\n    tag_99:\n        /* \"#utility.yul\":197:198   */\n      0x00\n        /* \"#utility.yul\":194:195   */\n      dup1\n        /* \"#utility.yul\":187:199   */\n      revert\n        /* \"#utility.yul\":334:411   */\n    tag_101:\n        /* \"#utility.yul\":371:378   */\n      0x00\n        /* \"#utility.yul\":400:405   */\n      dup2\n        /* \"#utility.yul\":389:405   */\n      swap1\n      pop\n        /* \"#utility.yul\":334:411   */\n      swap2\n      swap1\n      pop\n      jump\t// out\n        /* \"#utility.yul\":417:539   */\n    tag_102:\n        /* \"#utility.yul\":490:514   */\n      tag_122\n        /* \"#utility.yul\":508:513   */\n      dup2\n        /* \"#utility.yul\":490:514   */\n      tag_101\n      jump\t// in\n    tag_122:\n        /* \"#utility.yul\":483:488   */\n      dup2\n        /* \"#utility.yul\":480:515   */\n      eq\n        /* \"#utility.yul\":470:533   */\n      tag_123\n      jumpi\n        /* \"#utility.yul\":529:530   */\n      0x00\n        /* \"#utility.yul\":526:527   */\n      dup1\n        /* \"#utility.yul\":519:531   */\n      revert\n        /* \"#utility.yul\":470:533   */\n    tag_123:\n        /* \"#utility.yul\":417:539   */\n      pop\n      jump\t// out\n        /* \"#utility.yul\":545:684   */\n    tag_103:\n        /* \"#utility.yul\":591:596   */\n      0x00\n        /* \"#utility.yul\":629:635   */\n      dup2\n        /* \"#utility.yul\":616:636   */\n      calldataload\n        /* \"#utility.yul\":607:636   */\n      swap1\n      pop\n        /* \"#utility.yul\":645:678   */\n      tag_125\n        /* \"#utility.yul\":672:677   */\n      dup2\n        /* \"#utility.yul\":645:678   */\n      tag_102\n      jump\t// in\n    tag_125:\n        /* \"#utility.yul\":545:684   */\n      swap3\n      swap2\n      pop\n      pop\n      jump\t// out\n        /* \"#utility.yul\":690:1019   */\n    tag_17:\n        /* \"#utility.yul\":749:755   */\n      0x00\n        /* \"#utility.yul\":798:800   */\n      0x20\n        /* \"#utility.yul\":786:795   */\n      dup3\n        /* \"#utility.yul\":777:784   */\n      dup5\n        /* \"#utility.yul\":773:796   */\n      sub\n        /* \"#utility.yul\":769:801   */\n      slt\n        /* \"#utility.yul\":766:885   */\n      iszero\n      tag_127\n      jumpi\n        /* \"#utility.yul\":804:883   */\n      tag_128\n      tag_99\n      jump\t// in\n    tag_128:\n        /* \"#utility.yul\":766:885   */\n    tag_127:\n        /* \"#utility.yul\":924:925   */\n      0x00\n        /* \"#utility.yul\":949:1002   */\n      tag_129\n        /* \"#utility.yul\":994:1001   */\n      dup5\n        /* \"#utility.yul\":985:991   */\n      dup3\n        /* \"#utility.yul\":974:983   */\n      dup6\n        /* \"#utility.yul\":970:992   */\n      add\n        /* \"#utility.yul\":949:1002   */\n      tag_103\n      jump\t// in\n    tag_129:\n        /* \"#utility.yul\":939:1002   */\n      swap2\n      pop\n        /* \"#utility.yul\":895:1012   */\n      pop\n        /* \"#utility.yul\":690:1019   */\n      swap3\n      swap2\n      pop\n      pop\n      jump\t// out\n        /* \"#utility.yul\":1025:1143   */\n    tag_104:\n        /* \"#utility.yul\":1112:1136   */\n      tag_131\n        /* \"#utility.yul\":1130:1135   */\n      dup2\n        /* \"#utility.yul\":1112:1136   */\n      tag_101\n      jump\t// in\n    tag_131:\n        /* \"#utility.yul\":1107:1110   */\n      dup3\n        /* \"#utility.yul\":1100:1137   */\n      mstore\n        /* \"#utility.yul\":1025:1143   */\n      pop\n      pop\n      jump\t// out\n        /* \"#utility.yul\":1149:1371   */\n    tag_23:\n        /* \"#utility.yul\":1242:1246   */\n      0x00\n        /* \"#utility.yul\":1280:1282   */\n      0x20\n        /* \"#utility.yul\":1269:1278   */\n      dup3\n        /* \"#utility.yul\":1265:1283   */\n      add\n        /* \"#utility.yul\":1257:1283   */\n      swap1\n      pop\n        /* \"#utility.yul\":1293:1364   */\n      tag_133\n        /* \"#utility.yul\":1361:1362   */\n      0x00\n        /* \"#utility.yul\":1350:1359   */\n      dup4\n        /* \"#utility.yul\":1346:1363   */\n      add\n        /* \"#utility.yul\":1337:1343   */\n      dup5\n        /* \"#utility.yul\":1293:1364   */\n      tag_104\n      jump\t// in\n    tag_133:\n        /* \"#utility.yul\":1149:1371   */\n      swap3\n      swap2\n      pop\n      pop\n      jump\t// out\n        /* \"#utility.yul\":1377:1491   */\n    tag_105:\n        /* \"#utility.yul\":1444:1450   */\n      0x00\n        /* \"#utility.yul\":1478:1483   */\n      dup2\n        /* \"#utility.yul\":1472:1484   */\n      mload\n        /* \"#utility.yul\":1462:1484   */\n      swap1\n      pop\n        /* \"#utility.yul\":1377:1491   */\n      swap2\n      swap1\n      pop\n      jump\t// out\n        /* \"#utility.yul\":1497:1681   */\n    tag_106:\n        /* \"#utility.yul\":1596:1607   */\n      0x00\n        /* \"#utility.yul\":1630:1636   */\n      dup3\n        /* \"#utility.yul\":1625:1628   */\n      dup3\n        /* \"#utility.yul\":1618:1637   */\n      mstore\n        /* \"#utility.yul\":1670:1674   */\n      0x20\n        /* \"#utility.yul\":1665:1668   */\n      dup3\n        /* \"#utility.yul\":1661:1675   */\n      add\n        /* \"#utility.yul\":1646:1675   */\n      swap1\n      pop\n        /* \"#utility.yul\":1497:1681   */\n      swap3\n      swap2\n      pop\n      pop\n      jump\t// out\n        /* \"#utility.yul\":1687:1819   */\n    tag_107:\n        /* \"#utility.yul\":1754:1758   */\n      0x00\n        /* \"#utility.yul\":1777:1780   */\n      dup2\n        /* \"#utility.yul\":1769:1780   */\n      swap1\n      pop\n        /* \"#utility.yul\":1807:1811   */\n      0x20\n        /* \"#utility.yul\":1802:1805   */\n      dup3\n        /* \"#utility.yul\":1798:1812   */\n      add\n        /* \"#utility.yul\":1790:1812   */\n      swap1\n      pop\n        /* \"#utility.yul\":1687:1819   */\n      swap2\n      swap1\n      pop\n      jump\t// out\n        /* \"#utility.yul\":1825:1933   */\n    tag_108:\n        /* \"#utility.yul\":1902:1926   */\n      tag_138\n        /* \"#utility.yul\":1920:1925   */\n      dup2\n        /* \"#utility.yul\":1902:1926   */\n      tag_101\n      jump\t// in\n    tag_138:\n        /* \"#utility.yul\":1897:1900   */\n      dup3\n        /* \"#utility.yul\":1890:1927   */\n      mstore\n        /* \"#utility.yul\":1825:1933   */\n      pop\n      pop\n      jump\t// out\n        /* \"#utility.yul\":1939:2118   */\n    tag_109:\n        /* \"#utility.yul\":2008:2018   */\n      0x00\n        /* \"#utility.yul\":2029:2075   */\n      tag_140\n        /* \"#utility.yul\":2071:2074   */\n      dup4\n        /* \"#utility.yul\":2063:2069   */\n      dup4\n        /* \"#utility.yul\":2029:2075   */\n      tag_108\n      jump\t// in\n    tag_140:\n        /* \"#utility.yul\":2107:2111   */\n      0x20\n        /* \"#utility.yul\":2102:2105   */\n      dup4\n        /* \"#utility.yul\":2098:2112   */\n      add\n        /* \"#utility.yul\":2084:2112   */\n      swap1\n      pop\n        /* \"#utility.yul\":1939:2118   */\n      swap3\n      swap2\n      pop\n      pop\n      jump\t// out\n        /* \"#utility.yul\":2124:2237   */\n    tag_110:\n        /* \"#utility.yul\":2194:2198   */\n      0x00\n        /* \"#utility.yul\":2226:2230   */\n      0x20\n        /* \"#utility.yul\":2221:2224   */\n      dup3\n        /* \"#utility.yul\":2217:2231   */\n      add\n        /* \"#utility.yul\":2209:2231   */\n      swap1\n      pop\n        /* \"#utility.yul\":2124:2237   */\n      swap2\n      swap1\n      pop\n      jump\t// out\n        /* \"#utility.yul\":2273:3005   */\n    tag_111:\n        /* \"#utility.yul\":2392:2395   */\n      0x00\n        /* \"#utility.yul\":2421:2475   */\n      tag_143\n        /* \"#utility.yul\":2469:2474   */\n      dup3\n        /* \"#utility.yul\":2421:2475   */\n      tag_105\n      jump\t// in\n    tag_143:\n        /* \"#utility.yul\":2491:2577   */\n      tag_144\n        /* \"#utility.yul\":2570:2576   */\n      dup2\n        /* \"#utility.yul\":2565:2568   */\n      dup6\n        /* \"#utility.yul\":2491:2577   */\n      tag_106\n      jump\t// in\n    tag_144:\n        /* \"#utility.yul\":2484:2577   */\n      swap4\n      pop\n        /* \"#utility.yul\":2601:2657   */\n      tag_145\n        /* \"#utility.yul\":2651:2656   */\n      dup4\n        /* \"#utility.yul\":2601:2657   */\n      tag_107\n      jump\t// in\n    tag_145:\n        /* \"#utility.yul\":2680:2687   */\n      dup1\n        /* \"#utility.yul\":2711:2712   */\n      0x00\n        /* \"#utility.yul\":2696:2980   */\n    tag_146:\n        /* \"#utility.yul\":2721:2727   */\n      dup4\n        /* \"#utility.yul\":2718:2719   */\n      dup2\n        /* \"#utility.yul\":2715:2728   */\n      lt\n        /* \"#utility.yul\":2696:2980   */\n      iszero\n      tag_148\n      jumpi\n        /* \"#utility.yul\":2797:2803   */\n      dup2\n        /* \"#utility.yul\":2791:2804   */\n      mload\n        /* \"#utility.yul\":2824:2887   */\n      tag_149\n        /* \"#utility.yul\":2883:2886   */\n      dup9\n        /* \"#utility.yul\":2868:2881   */\n      dup3\n        /* \"#utility.yul\":2824:2887   */\n      tag_109\n      jump\t// in\n    tag_149:\n        /* \"#utility.yul\":2817:2887   */\n      swap8\n      pop\n        /* \"#utility.yul\":2910:2970   */\n      tag_150\n        /* \"#utility.yul\":2963:2969   */\n      dup4\n        /* \"#utility.yul\":2910:2970   */\n      tag_110\n      jump\t// in\n    tag_150:\n        /* \"#utility.yul\":2900:2970   */\n      swap3\n      pop\n        /* \"#utility.yul\":2756:2980   */\n      pop\n        /* \"#utility.yul\":2743:2744   */\n      0x01\n        /* \"#utility.yul\":2740:2741   */\n      dup2\n        /* \"#utility.yul\":2736:2745   */\n      add\n        /* \"#utility.yul\":2731:2745   */\n      swap1\n      pop\n        /* \"#utility.yul\":2696:2980   */\n      jump(tag_146)\n    tag_148:\n        /* \"#utility.yul\":2700:2714   */\n      pop\n        /* \"#utility.yul\":2996:2999   */\n      dup6\n        /* \"#utility.yul\":2989:2999   */\n      swap4\n      pop\n        /* \"#utility.yul\":2397:3005   */\n      pop\n      pop\n      pop\n        /* \"#utility.yul\":2273:3005   */\n      swap3\n      swap2\n      pop\n      pop\n      jump\t// out\n        /* \"#utility.yul\":3011:3384   */\n    tag_50:\n        /* \"#utility.yul\":3154:3158   */\n      0x00\n        /* \"#utility.yul\":3192:3194   */\n      0x20\n        /* \"#utility.yul\":3181:3190   */\n      dup3\n        /* \"#utility.yul\":3177:3195   */\n      add\n        /* \"#utility.yul\":3169:3195   */\n      swap1\n      pop\n        /* \"#utility.yul\":3241:3250   */\n      dup2\n        /* \"#utility.yul\":3235:3239   */\n      dup2\n        /* \"#utility.yul\":3231:3251   */\n      sub\n        /* \"#utility.yul\":3227:3228   */\n      0x00\n        /* \"#utility.yul\":3216:3225   */\n      dup4\n        /* \"#utility.yul\":3212:3229   */\n      add\n        /* \"#utility.yul\":3205:3252   */\n      mstore\n        /* \"#utility.yul\":3269:3377   */\n      tag_152\n        /* \"#utility.yul\":3372:3376   */\n      dup2\n        /* \"#utility.yul\":3363:3369   */\n      dup5\n        /* \"#utility.yul\":3269:3377   */\n      tag_111\n      jump\t// in\n    tag_152:\n        /* \"#utility.yul\":3261:3377   */\n      swap1\n      pop\n        /* \"#utility.yul\":3011:3384   */\n      swap3\n      swap2\n      pop\n      pop\n      jump\t// out\n        /* \"#utility.yul\":3390:3570   */\n    tag_56:\n        /* \"#utility.yul\":3438:3515   */\n      0x4e487b7100000000000000000000000000000000000000000000000000000000\n        /* \"#utility.yul\":3435:3436   */\n      0x00\n        /* \"#utility.yul\":3428:3516   */\n      mstore\n        /* \"#utility.yul\":3535:3539   */\n      0x32\n        /* \"#utility.yul\":3532:3533   */\n      0x04\n        /* \"#utility.yul\":3525:3540   */\n      mstore\n        /* \"#utility.yul\":3559:3563   */\n      0x24\n        /* \"#utility.yul\":3556:3557   */\n      0x00\n        /* \"#utility.yul\":3549:3564   */\n      revert\n        /* \"#utility.yul\":3576:3745   */\n    tag_112:\n        /* \"#utility.yul\":3660:3671   */\n      0x00\n        /* \"#utility.yul\":3694:3700   */\n      dup3\n        /* \"#utility.yul\":3689:3692   */\n      dup3\n        /* \"#utility.yul\":3682:3701   */\n      mstore\n        /* \"#utility.yul\":3734:3738   */\n      0x20\n        /* \"#utility.yul\":3729:3732   */\n      dup3\n        /* \"#utility.yul\":3725:3739   */\n      add\n        /* \"#utility.yul\":3710:3739   */\n      swap1\n      pop\n        /* \"#utility.yul\":3576:3745   */\n      swap3\n      swap2\n      pop\n      pop\n      jump\t// out\n        /* \"#utility.yul\":3751:3922   */\n    tag_113:\n        /* \"#utility.yul\":3891:3914   */\n      0x546865726520617265206e6f20656c656d656e74730000000000000000000000\n        /* \"#utility.yul\":3887:3888   */\n      0x00\n        /* \"#utility.yul\":3879:3885   */\n      dup3\n        /* \"#utility.yul\":3875:3889   */\n      add\n        /* \"#utility.yul\":3868:3915   */\n      mstore\n        /* \"#utility.yul\":3751:3922   */\n      pop\n      jump\t// out\n        /* \"#utility.yul\":3928:4294   */\n    tag_114:\n        /* \"#utility.yul\":4070:4073   */\n      0x00\n        /* \"#utility.yul\":4091:4158   */\n      tag_157\n        /* \"#utility.yul\":4155:4157   */\n      0x15\n        /* \"#utility.yul\":4150:4153   */\n      dup4\n        /* \"#utility.yul\":4091:4158   */\n      tag_112\n      jump\t// in\n    tag_157:\n        /* \"#utility.yul\":4084:4158   */\n      swap2\n      pop\n        /* \"#utility.yul\":4167:4260   */\n      tag_158\n        /* \"#utility.yul\":4256:4259   */\n      dup3\n        /* \"#utility.yul\":4167:4260   */\n      tag_113\n      jump\t// in\n    tag_158:\n        /* \"#utility.yul\":4285:4287   */\n      0x20\n        /* \"#utility.yul\":4280:4283   */\n      dup3\n        /* \"#utility.yul\":4276:4288   */\n      add\n        /* \"#utility.yul\":4269:4288   */\n      swap1\n      pop\n        /* \"#utility.yul\":3928:4294   */\n      swap2\n      swap1\n      pop\n      jump\t// out\n        /* \"#utility.yul\":4300:4719   */\n    tag_69:\n        /* \"#utility.yul\":4466:4470   */\n      0x00\n        /* \"#utility.yul\":4504:4506   */\n      0x20\n        /* \"#utility.yul\":4493:4502   */\n      dup3\n        /* \"#utility.yul\":4489:4507   */\n      add\n        /* \"#utility.yul\":4481:4507   */\n      swap1\n      pop\n        /* \"#utility.yul\":4553:4562   */\n      dup2\n        /* \"#utility.yul\":4547:4551   */\n      dup2\n        /* \"#utility.yul\":4543:4563   */\n      sub\n        /* \"#utility.yul\":4539:4540   */\n      0x00\n        /* \"#utility.yul\":4528:4537   */\n      dup4\n        /* \"#utility.yul\":4524:4541   */\n      add\n        /* \"#utility.yul\":4517:4564   */\n      mstore\n        /* \"#utility.yul\":4581:4712   */\n      tag_160\n        /* \"#utility.yul\":4707:4711   */\n      dup2\n        /* \"#utility.yul\":4581:4712   */\n      tag_114\n      jump\t// in\n    tag_160:\n        /* \"#utility.yul\":4573:4712   */\n      swap1\n      pop\n        /* \"#utility.yul\":4300:4719   */\n      swap2\n      swap1\n      pop\n      jump\t// out\n        /* \"#utility.yul\":4725:4905   */\n    tag_115:\n        /* \"#utility.yul\":4773:4850   */\n      0x4e487b7100000000000000000000000000000000000000000000000000000000\n        /* \"#utility.yul\":4770:4771   */\n      0x00\n        /* \"#utility.yul\":4763:4851   */\n      mstore\n        /* \"#utility.yul\":4870:4874   */\n      0x11\n        /* \"#utility.yul\":4867:4868   */\n      0x04\n        /* \"#utility.yul\":4860:4875   */\n      mstore\n        /* \"#utility.yul\":4894:4898   */\n      0x24\n        /* \"#utility.yul\":4891:4892   */\n      0x00\n        /* \"#utility.yul\":4884:4899   */\n      revert\n        /* \"#utility.yul\":4911:5105   */\n    tag_71:\n        /* \"#utility.yul\":4951:4955   */\n      0x00\n        /* \"#utility.yul\":4971:4991   */\n      tag_163\n        /* \"#utility.yul\":4989:4990   */\n      dup3\n        /* \"#utility.yul\":4971:4991   */\n      tag_101\n      jump\t// in\n    tag_163:\n        /* \"#utility.yul\":4966:4991   */\n      swap2\n      pop\n        /* \"#utility.yul\":5005:5025   */\n      tag_164\n        /* \"#utility.yul\":5023:5024   */\n      dup4\n        /* \"#utility.yul\":5005:5025   */\n      tag_101\n      jump\t// in\n    tag_164:\n        /* \"#utility.yul\":5000:5025   */\n      swap3\n      pop\n        /* \"#utility.yul\":5049:5050   */\n      dup3\n        /* \"#utility.yul\":5046:5047   */\n      dup3\n        /* \"#utility.yul\":5042:5051   */\n      sub\n        /* \"#utility.yul\":5034:5051   */\n      swap1\n      pop\n        /* \"#utility.yul\":5073:5074   */\n      dup2\n        /* \"#utility.yul\":5067:5071   */\n      dup2\n        /* \"#utility.yul\":5064:5075   */\n      gt\n        /* \"#utility.yul\":5061:5098   */\n      iszero\n      tag_165\n      jumpi\n        /* \"#utility.yul\":5078:5096   */\n      tag_166\n      tag_115\n      jump\t// in\n    tag_166:\n        /* \"#utility.yul\":5061:5098   */\n    tag_165:\n        /* \"#utility.yul\":4911:5105   */\n      swap3\n      swap2\n      pop\n      pop\n      jump\t// out\n        /* \"#utility.yul\":5111:5291   */\n    tag_80:\n        /* \"#utility.yul\":5159:5236   */\n      0x4e487b7100000000000000000000000000000000000000000000000000000000\n        /* \"#utility.yul\":5156:5157   */\n      0x00\n        /* \"#utility.yul\":5149:5237   */\n      mstore\n        /* \"#utility.yul\":5256:5260   */\n      0x31\n        /* \"#utility.yul\":5253:5254   */\n      0x04\n        /* \"#utility.yul\":5246:5261   */\n      mstore\n        /* \"#utility.yul\":5280:5284   */\n      0x24\n        /* \"#utility.yul\":5277:5278   */\n      0x00\n        /* \"#utility.yul\":5270:5285   */\n      revert\n\n    auxdata: 0xa2646970667358221220bf6aea4cfdffc4ac0e2c044ba824c7ece515c9bf971cb35a195cfa91204b9f8064736f6c634300081a0033\n}\n",
				"bytecode": {
					"linkReferences": {},
					"object": "6080604052348015600e575f80fd5b5061078a8061001c5f395ff3fe608060405234801561000f575f80fd5b50600436106100a7575f3560e01c80639fc37abf1161006f5780639fc37abf14610173578063a16d35981461018f578063a4ece52c146101ad578063cc3e57d9146101b7578063d4d95b7f146101e7578063f8a8fd6d14610205576100a7565b80634cc82215146100ab5780636e366c96146100c75780638c11818a146100f7578063959ac484146101275780639c68d20f14610143575b5f80fd5b6100c560048036038101906100c091906104f8565b61020f565b005b6100e160048036038101906100dc91906104f8565b610230565b6040516100ee9190610532565b60405180910390f35b610111600480360381019061010c91906104f8565b610250565b60405161011e9190610532565b60405180910390f35b610141600480360381019061013c91906104f8565b610270565b005b61015d600480360381019061015891906104f8565b610298565b60405161016a9190610532565b60405180910390f35b61018d600480360381019061018891906104f8565b6102b1565b005b610197610373565b6040516101a49190610532565b60405180910390f35b6101b561037e565b005b6101d160048036038101906101cc91906104f8565b6103a4565b6040516101de9190610532565b60405180910390f35b6101ef6103c3565b6040516101fc9190610602565b60405180910390f35b61020d610419565b005b5f818154811061022257610221610622565b5b905f5260205f20015f905550565b60ca818154811061023f575f80fd5b905f5260205f20015f915090505481565b6001818154811061025f575f80fd5b905f5260205f20015f915090505481565b5f81908060018154018082558091505060019003905f5260205f20015f909190919091505550565b60028160c881106102a7575f80fd5b015f915090505481565b5f60ca80549050116102f8576040517f08c379a00000000000000000000000000000000000000000000000000000000081526004016102ef906106a9565b60405180910390fd5b5f60ca600160ca8054905061030d91906106f4565b8154811061031e5761031d610622565b5b905f5260205f20015490508060ca838154811061033e5761033d610622565b5b905f5260205f20018190555060ca80548061035c5761035b610727565b5b600190038181905f5260205f20015f905590555050565b5f8080549050905090565b5f80548061038f5761038e610727565b5b600190038181905f5260205f20015f90559055565b5f81815481106103b2575f80fd5b905f5260205f20015f915090505481565b606060ca80548060200260200160405190810160405280929190818152602001828054801561040f57602002820191905f5260205f20905b8154815260200190600101908083116103fb575b5050505050905090565b60ca6001908060018154018082558091505060019003905f5260205f20015f909190919091505560ca6002908060018154018082558091505060019003905f5260205f20015f909190919091505560ca6003908060018154018082558091505060019003905f5260205f20015f909190919091505560ca6004908060018154018082558091505060019003905f5260205f20015f90919091909150556104bf60016102b1565b565b5f80fd5b5f819050919050565b6104d7816104c5565b81146104e1575f80fd5b50565b5f813590506104f2816104ce565b92915050565b5f6020828403121561050d5761050c6104c1565b5b5f61051a848285016104e4565b91505092915050565b61052c816104c5565b82525050565b5f6020820190506105455f830184610523565b92915050565b5f81519050919050565b5f82825260208201905092915050565b5f819050602082019050919050565b61057d816104c5565b82525050565b5f61058e8383610574565b60208301905092915050565b5f602082019050919050565b5f6105b08261054b565b6105ba8185610555565b93506105c583610565565b805f5b838110156105f55781516105dc8882610583565b97506105e78361059a565b9250506001810190506105c8565b5085935050505092915050565b5f6020820190508181035f83015261061a81846105a6565b905092915050565b7f4e487b71000000000000000000000000000000000000000000000000000000005f52603260045260245ffd5b5f82825260208201905092915050565b7f546865726520617265206e6f20656c656d656e747300000000000000000000005f82015250565b5f61069360158361064f565b915061069e8261065f565b602082019050919050565b5f6020820190508181035f8301526106c081610687565b9050919050565b7f4e487b71000000000000000000000000000000000000000000000000000000005f52601160045260245ffd5b5f6106fe826104c5565b9150610709836104c5565b9250828203905081811115610721576107206106c7565b5b92915050565b7f4e487b71000000000000000000000000000000000000000000000000000000005f52603160045260245ffdfea2646970667358221220bf6aea4cfdffc4ac0e2c044ba824c7ece515c9bf971cb35a195cfa91204b9f8064736f6c634300081a0033",
					"opcodes": "PUSH1 0x80 PUSH1 0x40 MSTORE CALLVALUE DUP1 ISZERO PUSH1 0xE JUMPI PUSH0 DUP1 REVERT JUMPDEST POP PUSH2 0x78A DUP1 PUSH2 0x1C PUSH0 CODECOPY PUSH0 RETURN INVALID PUSH1 0x80 PUSH1 0x40 MSTORE CALLVALUE DUP1 ISZERO PUSH2 0xF JUMPI PUSH0 DUP1 REVERT JUMPDEST POP PUSH1 0x4 CALLDATASIZE LT PUSH2 0xA7 JUMPI PUSH0 CALLDATALOAD PUSH1 0xE0 SHR DUP1 PUSH4 0x9FC37ABF GT PUSH2 0x6F JUMPI DUP1 PUSH4 0x9FC37ABF EQ PUSH2 0x173 JUMPI DUP1 PUSH4 0xA16D3598 EQ PUSH2 0x18F JUMPI DUP1 PUSH4 0xA4ECE52C EQ PUSH2 0x1AD JUMPI DUP1 PUSH4 0xCC3E57D9 EQ PUSH2 0x1B7 JUMPI DUP1 PUSH4 0xD4D95B7F EQ PUSH2 0x1E7 JUMPI DUP1 PUSH4 0xF8A8FD6D EQ PUSH2 0x205 JUMPI PUSH2 0xA7 JUMP JUMPDEST DUP1 PUSH4 0x4CC82215 EQ PUSH2 0xAB JUMPI DUP1 PUSH4 0x6E366C96 EQ PUSH2 0xC7 JUMPI DUP1 PUSH4 0x8C11818A EQ PUSH2 0xF7 JUMPI DUP1 PUSH4 0x959AC484 EQ PUSH2 0x127 JUMPI DUP1 PUSH4 0x9C68D20F EQ PUSH2 0x143 JUMPI JUMPDEST PUSH0 DUP1 REVERT JUMPDEST PUSH2 0xC5 PUSH1 0x4 DUP1 CALLDATASIZE SUB DUP2 ADD SWAP1 PUSH2 0xC0 SWAP2 SWAP1 PUSH2 0x4F8 JUMP JUMPDEST PUSH2 0x20F JUMP JUMPDEST STOP JUMPDEST PUSH2 0xE1 PUSH1 0x4 DUP1 CALLDATASIZE SUB DUP2 ADD SWAP1 PUSH2 0xDC SWAP2 SWAP1 PUSH2 0x4F8 JUMP JUMPDEST PUSH2 0x230 JUMP JUMPDEST PUSH1 0x40 MLOAD PUSH2 0xEE SWAP2 SWAP1 PUSH2 0x532 JUMP JUMPDEST PUSH1 0x40 MLOAD DUP1 SWAP2 SUB SWAP1 RETURN JUMPDEST PUSH2 0x111 PUSH1 0x4 DUP1 CALLDATASIZE SUB DUP2 ADD SWAP1 PUSH2 0x10C SWAP2 SWAP1 PUSH2 0x4F8 JUMP JUMPDEST PUSH2 0x250 JUMP JUMPDEST PUSH1 0x40 MLOAD PUSH2 0x11E SWAP2 SWAP1 PUSH2 0x532 JUMP JUMPDEST PUSH1 0x40 MLOAD DUP1 SWAP2 SUB SWAP1 RETURN JUMPDEST PUSH2 0x141 PUSH1 0x4 DUP1 CALLDATASIZE SUB DUP2 ADD SWAP1 PUSH2 0x13C SWAP2 SWAP1 PUSH2 0x4F8 JUMP JUMPDEST PUSH2 0x270 JUMP JUMPDEST STOP JUMPDEST PUSH2 0x15D PUSH1 0x4 DUP1 CALLDATASIZE SUB DUP2 ADD SWAP1 PUSH2 0x158 SWAP2 SWAP1 PUSH2 0x4F8 JUMP JUMPDEST PUSH2 0x298 JUMP JUMPDEST PUSH1 0x40 MLOAD PUSH2 0x16A SWAP2 SWAP1 PUSH2 0x532 JUMP JUMPDEST PUSH1 0x40 MLOAD DUP1 SWAP2 SUB SWAP1 RETURN JUMPDEST PUSH2 0x18D PUSH1 0x4 DUP1 CALLDATASIZE SUB DUP2 ADD SWAP1 PUSH2 0x188 SWAP2 SWAP1 PUSH2 0x4F8 JUMP JUMPDEST PUSH2 0x2B1 JUMP JUMPDEST STOP JUMPDEST PUSH2 0x197 PUSH2 0x373 JUMP JUMPDEST PUSH1 0x40 MLOAD PUSH2 0x1A4 SWAP2 SWAP1 PUSH2 0x532 JUMP JUMPDEST PUSH1 0x40 MLOAD DUP1 SWAP2 SUB SWAP1 RETURN JUMPDEST PUSH2 0x1B5 PUSH2 0x37E JUMP JUMPDEST STOP JUMPDEST PUSH2 0x1D1 PUSH1 0x4 DUP1 CALLDATASIZE SUB DUP2 ADD SWAP1 PUSH2 0x1CC SWAP2 SWAP1 PUSH2 0x4F8 JUMP JUMPDEST PUSH2 0x3A4 JUMP JUMPDEST PUSH1 0x40 MLOAD PUSH2 0x1DE SWAP2 SWAP1 PUSH2 0x532 JUMP JUMPDEST PUSH1 0x40 MLOAD DUP1 SWAP2 SUB SWAP1 RETURN JUMPDEST PUSH2 0x1EF PUSH2 0x3C3 JUMP JUMPDEST PUSH1 0x40 MLOAD PUSH2 0x1FC SWAP2 SWAP1 PUSH2 0x602 JUMP JUMPDEST PUSH1 0x40 MLOAD DUP1 SWAP2 SUB SWAP1 RETURN JUMPDEST PUSH2 0x20D PUSH2 0x419 JUMP JUMPDEST STOP JUMPDEST PUSH0 DUP2 DUP2 SLOAD DUP2 LT PUSH2 0x222 JUMPI PUSH2 0x221 PUSH2 0x622 JUMP JUMPDEST JUMPDEST SWAP1 PUSH0 MSTORE PUSH1 0x20 PUSH0 KECCAK256 ADD PUSH0 SWAP1 SSTORE POP JUMP JUMPDEST PUSH1 0xCA DUP2 DUP2 SLOAD DUP2 LT PUSH2 0x23F JUMPI PUSH0 DUP1 REVERT JUMPDEST SWAP1 PUSH0 MSTORE PUSH1 0x20 PUSH0 KECCAK256 ADD PUSH0 SWAP2 POP SWAP1 POP SLOAD DUP2 JUMP JUMPDEST PUSH1 0x1 DUP2 DUP2 SLOAD DUP2 LT PUSH2 0x25F JUMPI PUSH0 DUP1 REVERT JUMPDEST SWAP1 PUSH0 MSTORE PUSH1 0x20 PUSH0 KECCAK256 ADD PUSH0 SWAP2 POP SWAP1 POP SLOAD DUP2 JUMP JUMPDEST PUSH0 DUP2 SWAP1 DUP1 PUSH1 0x1 DUP2 SLOAD ADD DUP1 DUP3 SSTORE DUP1 SWAP2 POP POP PUSH1 0x1 SWAP1 SUB SWAP1 PUSH0 MSTORE PUSH1 0x20 PUSH0 KECCAK256 ADD PUSH0 SWAP1 SWAP2 SWAP1 SWAP2 SWAP1 SWAP2 POP SSTORE POP JUMP JUMPDEST PUSH1 0x2 DUP2 PUSH1 0xC8 DUP2 LT PUSH2 0x2A7 JUMPI PUSH0 DUP1 REVERT JUMPDEST ADD PUSH0 SWAP2 POP SWAP1 POP SLOAD DUP2 JUMP JUMPDEST PUSH0 PUSH1 0xCA DUP1 SLOAD SWAP1 POP GT PUSH2 0x2F8 JUMPI PUSH1 0x40 MLOAD PUSH32 0x8C379A000000000000000000000000000000000000000000000000000000000 DUP2 MSTORE PUSH1 0x4 ADD PUSH2 0x2EF SWAP1 PUSH2 0x6A9 JUMP JUMPDEST PUSH1 0x40 MLOAD DUP1 SWAP2 SUB SWAP1 REVERT JUMPDEST PUSH0 PUSH1 0xCA PUSH1 0x1 PUSH1 0xCA DUP1 SLOAD SWAP1 POP PUSH2 0x30D SWAP2 SWAP1 PUSH2 0x6F4 JUMP JUMPDEST DUP2 SLOAD DUP2 LT PUSH2 0x31E JUMPI PUSH2 0x31D PUSH2 0x622 JUMP JUMPDEST JUMPDEST SWAP1 PUSH0 MSTORE PUSH1 0x20 PUSH0 KECCAK256 ADD SLOAD SWAP1 POP DUP1 PUSH1 0xCA DUP4 DUP2 SLOAD DUP2 LT PUSH2 0x33E JUMPI PUSH2 0x33D PUSH2 0x622 JUMP JUMPDEST JUMPDEST SWAP1 PUSH0 MSTORE PUSH1 0x20 PUSH0 KECCAK256 ADD DUP2 SWAP1 SSTORE POP PUSH1 0xCA DUP1 SLOAD DUP1 PUSH2 0x35C JUMPI PUSH2 0x35B PUSH2 0x727 JUMP JUMPDEST JUMPDEST PUSH1 0x1 SWAP1 SUB DUP2 DUP2 SWAP1 PUSH0 MSTORE PUSH1 0x20 PUSH0 KECCAK256 ADD PUSH0 SWAP1 SSTORE SWAP1 SSTORE POP POP JUMP JUMPDEST PUSH0 DUP1 DUP1 SLOAD SWAP1 POP SWAP1 POP SWAP1 JUMP JUMPDEST PUSH0 DUP1 SLOAD DUP1 PUSH2 0x38F JUMPI PUSH2 0x38E PUSH2 0x727 JUMP JUMPDEST JUMPDEST PUSH1 0x1 SWAP1 SUB DUP2 DUP2 SWAP1 PUSH0 MSTORE PUSH1 0x20 PUSH0 KECCAK256 ADD PUSH0 SWAP1 SSTORE SWAP1 SSTORE JUMP JUMPDEST PUSH0 DUP2 DUP2 SLOAD DUP2 LT PUSH2 0x3B2 JUMPI PUSH0 DUP1 REVERT JUMPDEST SWAP1 PUSH0 MSTORE PUSH1 0x20 PUSH0 KECCAK256 ADD PUSH0 SWAP2 POP SWAP1 POP SLOAD DUP2 JUMP JUMPDEST PUSH1 0x60 PUSH1 0xCA DUP1 SLOAD DUP1 PUSH1 0x20 MUL PUSH1 0x20 ADD PUSH1 0x40 MLOAD SWAP1 DUP2 ADD PUSH1 0x40 MSTORE DUP1 SWAP3 SWAP2 SWAP1 DUP2 DUP2 MSTORE PUSH1 0x20 ADD DUP3 DUP1 SLOAD DUP1 ISZERO PUSH2 0x40F JUMPI PUSH1 0x20 MUL DUP3 ADD SWAP2 SWAP1 PUSH0 MSTORE PUSH1 0x20 PUSH0 KECCAK256 SWAP1 JUMPDEST DUP2 SLOAD DUP2 MSTORE PUSH1 0x20 ADD SWAP1 PUSH1 0x1 ADD SWAP1 DUP1 DUP4 GT PUSH2 0x3FB JUMPI JUMPDEST POP POP POP POP POP SWAP1 POP SWAP1 JUMP JUMPDEST PUSH1 0xCA PUSH1 0x1 SWAP1 DUP1 PUSH1 0x1 DUP2 SLOAD ADD DUP1 DUP3 SSTORE DUP1 SWAP2 POP POP PUSH1 0x1 SWAP1 SUB SWAP1 PUSH0 MSTORE PUSH1 0x20 PUSH0 KECCAK256 ADD PUSH0 SWAP1 SWAP2 SWAP1 SWAP2 SWAP1 SWAP2 POP SSTORE PUSH1 0xCA PUSH1 0x2 SWAP1 DUP1 PUSH1 0x1 DUP2 SLOAD ADD DUP1 DUP3 SSTORE DUP1 SWAP2 POP POP PUSH1 0x1 SWAP1 SUB SWAP1 PUSH0 MSTORE PUSH1 0x20 PUSH0 KECCAK256 ADD PUSH0 SWAP1 SWAP2 SWAP1 SWAP2 SWAP1 SWAP2 POP SSTORE PUSH1 0xCA PUSH1 0x3 SWAP1 DUP1 PUSH1 0x1 DUP2 SLOAD ADD DUP1 DUP3 SSTORE DUP1 SWAP2 POP POP PUSH1 0x1 SWAP1 SUB SWAP1 PUSH0 MSTORE PUSH1 0x20 PUSH0 KECCAK256 ADD PUSH0 SWAP1 SWAP2 SWAP1 SWAP2 SWAP1 SWAP2 POP SSTORE PUSH1 0xCA PUSH1 0x4 SWAP1 DUP1 PUSH1 0x1 DUP2 SLOAD ADD DUP1 DUP3 SSTORE DUP1 SWAP2 POP POP PUSH1 0x1 SWAP1 SUB SWAP1 PUSH0 MSTORE PUSH1 0x20 PUSH0 KECCAK256 ADD PUSH0 SWAP1 SWAP2 SWAP1 SWAP2 SWAP1 SWAP2 POP SSTORE PUSH2 0x4BF PUSH1 0x1 PUSH2 0x2B1 JUMP JUMPDEST JUMP JUMPDEST PUSH0 DUP1 REVERT JUMPDEST PUSH0 DUP2 SWAP1 POP SWAP2 SWAP1 POP JUMP JUMPDEST PUSH2 0x4D7 DUP2 PUSH2 0x4C5 JUMP JUMPDEST DUP2 EQ PUSH2 0x4E1 JUMPI PUSH0 DUP1 REVERT JUMPDEST POP JUMP JUMPDEST PUSH0 DUP2 CALLDATALOAD SWAP1 POP PUSH2 0x4F2 DUP2 PUSH2 0x4CE JUMP JUMPDEST SWAP3 SWAP2 POP POP JUMP JUMPDEST PUSH0 PUSH1 0x20 DUP3 DUP5 SUB SLT ISZERO PUSH2 0x50D JUMPI PUSH2 0x50C PUSH2 0x4C1 JUMP JUMPDEST JUMPDEST PUSH0 PUSH2 0x51A DUP5 DUP3 DUP6 ADD PUSH2 0x4E4 JUMP JUMPDEST SWAP2 POP POP SWAP3 SWAP2 POP POP JUMP JUMPDEST PUSH2 0x52C DUP2 PUSH2 0x4C5 JUMP JUMPDEST DUP3 MSTORE POP POP JUMP JUMPDEST PUSH0 PUSH1 0x20 DUP3 ADD SWAP1 POP PUSH2 0x545 PUSH0 DUP4 ADD DUP5 PUSH2 0x523 JUMP JUMPDEST SWAP3 SWAP2 POP POP JUMP JUMPDEST PUSH0 DUP2 MLOAD SWAP1 POP SWAP2 SWAP1 POP JUMP JUMPDEST PUSH0 DUP3 DUP3 MSTORE PUSH1 0x20 DUP3 ADD SWAP1 POP SWAP3 SWAP2 POP POP JUMP JUMPDEST PUSH0 DUP2 SWAP1 POP PUSH1 0x20 DUP3 ADD SWAP1 POP SWAP2 SWAP1 POP JUMP JUMPDEST PUSH2 0x57D DUP2 PUSH2 0x4C5 JUMP JUMPDEST DUP3 MSTORE POP POP JUMP JUMPDEST PUSH0 PUSH2 0x58E DUP4 DUP4 PUSH2 0x574 JUMP JUMPDEST PUSH1 0x20 DUP4 ADD SWAP1 POP SWAP3 SWAP2 POP POP JUMP JUMPDEST PUSH0 PUSH1 0x20 DUP3 ADD SWAP1 POP SWAP2 SWAP1 POP JUMP JUMPDEST PUSH0 PUSH2 0x5B0 DUP3 PUSH2 0x54B JUMP JUMPDEST PUSH2 0x5BA DUP2 DUP6 PUSH2 0x555 JUMP JUMPDEST SWAP4 POP PUSH2 0x5C5 DUP4 PUSH2 0x565 JUMP JUMPDEST DUP1 PUSH0 JUMPDEST DUP4 DUP2 LT ISZERO PUSH2 0x5F5 JUMPI DUP2 MLOAD PUSH2 0x5DC DUP9 DUP3 PUSH2 0x583 JUMP JUMPDEST SWAP8 POP PUSH2 0x5E7 DUP4 PUSH2 0x59A JUMP JUMPDEST SWAP3 POP POP PUSH1 0x1 DUP2 ADD SWAP1 POP PUSH2 0x5C8 JUMP JUMPDEST POP DUP6 SWAP4 POP POP POP POP SWAP3 SWAP2 POP POP JUMP JUMPDEST PUSH0 PUSH1 0x20 DUP3 ADD SWAP1 POP DUP2 DUP2 SUB PUSH0 DUP4 ADD MSTORE PUSH2 0x61A DUP2 DUP5 PUSH2 0x5A6 JUMP JUMPDEST SWAP1 POP SWAP3 SWAP2 POP POP JUMP JUMPDEST PUSH32 0x4E487B7100000000000000000000000000000000000000000000000000000000 PUSH0 MSTORE PUSH1 0x32 PUSH1 0x4 MSTORE PUSH1 0x24 PUSH0 REVERT JUMPDEST PUSH0 DUP3 DUP3 MSTORE PUSH1 0x20 DUP3 ADD SWAP1 POP SWAP3 SWAP2 POP POP JUMP JUMPDEST PUSH32 0x546865726520617265206E6F20656C656D656E74730000000000000000000000 PUSH0 DUP3 ADD MSTORE POP JUMP JUMPDEST PUSH0 PUSH2 0x693 PUSH1 0x15 DUP4 PUSH2 0x64F JUMP JUMPDEST SWAP2 POP PUSH2 0x69E DUP3 PUSH2 0x65F JUMP JUMPDEST PUSH1 0x20 DUP3 ADD SWAP1 POP SWAP2 SWAP1 POP JUMP JUMPDEST PUSH0 PUSH1 0x20 DUP3 ADD SWAP1 POP DUP2 DUP2 SUB PUSH0 DUP4 ADD MSTORE PUSH2 0x6C0 DUP2 PUSH2 0x687 JUMP JUMPDEST SWAP1 POP SWAP2 SWAP1 POP JUMP JUMPDEST PUSH32 0x4E487B7100000000000000000000000000000000000000000000000000000000 PUSH0 MSTORE PUSH1 0x11 PUSH1 0x4 MSTORE PUSH1 0x24 PUSH0 REVERT JUMPDEST PUSH0 PUSH2 0x6FE DUP3 PUSH2 0x4C5 JUMP JUMPDEST SWAP2 POP PUSH2 0x709 DUP4 PUSH2 0x4C5 JUMP JUMPDEST SWAP3 POP DUP3 DUP3 SUB SWAP1 POP DUP2 DUP2 GT ISZERO PUSH2 0x721 JUMPI PUSH2 0x720 PUSH2 0x6C7 JUMP JUMPDEST JUMPDEST SWAP3 SWAP2 POP POP JUMP JUMPDEST PUSH32 0x4E487B7100000000000000000000000000000000000000000000000000000000 PUSH0 MSTORE PUSH1 0x31 PUSH1 0x4 MSTORE PUSH1 0x24 PUSH0 REVERT INVALID LOG2 PUSH5 0x6970667358 0x22 SLT KECCAK256 0xBF PUSH11 0xEA4CFDFFC4AC0E2C044BA8 0x24 0xC7 0xEC 0xE5 ISZERO 0xC9 0xBF SWAP8 SHR 0xB3 GAS NOT TLOAD STATICCALL SWAP2 KECCAK256 0x4B SWAP16 DUP1 PUSH5 0x736F6C6343 STOP ADDMOD BYTE STOP CALLER "
				},
				"gasEstimates": {
					"creation": {
						"codeDepositCost": "386000",
						"executionCost": "422",
						"totalCost": "386422"
					},
					"external": {
						"changeArray(uint256)": "infinite",
						"getChangeArray()": "infinite",
						"getlength()": "2462",
						"myArray(uint256)": "infinite",
						"myArray2(uint256)": "infinite",
						"myFixedSizedArray(uint256)": "infinite",
						"pop()": "29484",
						"push(uint256)": "46887",
						"remove(uint256)": "7587",
						"removeElement(uint256)": "infinite",
						"test()": "infinite"
					}
				},
				"methodIdentifiers": {
					"changeArray(uint256)": "6e366c96",
					"getChangeArray()": "d4d95b7f",
					"getlength()": "a16d3598",
					"myArray(uint256)": "cc3e57d9",
					"myArray2(uint256)": "8c11818a",
					"myFixedSizedArray(uint256)": "9c68d20f",
					"pop()": "a4ece52c",
					"push(uint256)": "959ac484",
					"remove(uint256)": "4cc82215",
					"removeElement(uint256)": "9fc37abf",
					"test()": "f8a8fd6d"
				}
			},
			"storageLayout": {
				"storage": [
					{
						"astId": 4,
						"contract": "contracts/2-indepth/2-arrays.sol:learnArrays",
						"label": "myArray",
						"offset": 0,
						"slot": "0",
						"type": "t_array(t_uint256)dyn_storage"
					},
					{
						"astId": 7,
						"contract": "contracts/2-indepth/2-arrays.sol:learnArrays",
						"label": "myArray2",
						"offset": 0,
						"slot": "1",
						"type": "t_array(t_uint256)dyn_storage"
					},
					{
						"astId": 11,
						"contract": "contracts/2-indepth/2-arrays.sol:learnArrays",
						"label": "myFixedSizedArray",
						"offset": 0,
						"slot": "2",
						"type": "t_array(t_uint256)200_storage"
					},
					{
						"astId": 55,
						"contract": "contracts/2-indepth/2-arrays.sol:learnArrays",
						"label": "changeArray",
						"offset": 0,
						"slot": "202",
						"type": "t_array(t_uint256)dyn_storage"
					}
				],
				"types": {
					"t_array(t_uint256)200_storage": {
						"base": "t_uint256",
						"encoding": "inplace",
						"label": "uint256[200]",
						"numberOfBytes": "6400"
					},
					"t_array(t_uint256)dyn_storage": {
						"base": "t_uint256",
						"encoding": "dynamic_array",
						"label": "uint256[]",
						"numberOfBytes": "32"
					},
					"t_uint256": {
						"encoding": "inplace",
						"label": "uint256",
						"numberOfBytes": "32"
					}
				}
			},
			"userdoc": {
				"kind": "user",
				"methods": {},
				"version": 1
			}
		}
	}
}